{
  "contractName": "VaccineSystemStorage",
  "abi": [
    {
      "inputs": [],
      "stateMutability": "nonpayable",
      "type": "constructor"
    },
    {
      "anonymous": false,
      "inputs": [
        {
          "indexed": false,
          "internalType": "address",
          "name": "caller",
          "type": "address"
        }
      ],
      "name": "AuthorizedCaller",
      "type": "event"
    },
    {
      "anonymous": false,
      "inputs": [
        {
          "indexed": false,
          "internalType": "address",
          "name": "caller",
          "type": "address"
        }
      ],
      "name": "DeAuthorizedCaller",
      "type": "event"
    },
    {
      "anonymous": false,
      "inputs": [
        {
          "indexed": true,
          "internalType": "address",
          "name": "previousOwner",
          "type": "address"
        }
      ],
      "name": "OwnershipRenounced",
      "type": "event"
    },
    {
      "anonymous": false,
      "inputs": [
        {
          "indexed": true,
          "internalType": "address",
          "name": "previousOwner",
          "type": "address"
        },
        {
          "indexed": true,
          "internalType": "address",
          "name": "newOwner",
          "type": "address"
        }
      ],
      "name": "OwnershipTransferred",
      "type": "event"
    },
    {
      "inputs": [],
      "name": "lastAccess",
      "outputs": [
        {
          "internalType": "address",
          "name": "",
          "type": "address"
        }
      ],
      "stateMutability": "view",
      "type": "function",
      "constant": true
    },
    {
      "inputs": [],
      "name": "owner",
      "outputs": [
        {
          "internalType": "address",
          "name": "",
          "type": "address"
        }
      ],
      "stateMutability": "view",
      "type": "function",
      "constant": true
    },
    {
      "inputs": [],
      "name": "renounceOwnership",
      "outputs": [],
      "stateMutability": "nonpayable",
      "type": "function"
    },
    {
      "inputs": [
        {
          "internalType": "address",
          "name": "newOwner",
          "type": "address"
        }
      ],
      "name": "transferOwnership",
      "outputs": [],
      "stateMutability": "nonpayable",
      "type": "function"
    },
    {
      "inputs": [
        {
          "internalType": "address",
          "name": "_caller",
          "type": "address"
        }
      ],
      "name": "authorizeCaller",
      "outputs": [
        {
          "internalType": "bool",
          "name": "",
          "type": "bool"
        }
      ],
      "stateMutability": "nonpayable",
      "type": "function"
    },
    {
      "inputs": [
        {
          "internalType": "address",
          "name": "_caller",
          "type": "address"
        }
      ],
      "name": "deAuthorizeCaller",
      "outputs": [
        {
          "internalType": "bool",
          "name": "",
          "type": "bool"
        }
      ],
      "stateMutability": "nonpayable",
      "type": "function"
    },
    {
      "inputs": [
        {
          "internalType": "address",
          "name": "_userAddress",
          "type": "address"
        }
      ],
      "name": "getUserRole",
      "outputs": [
        {
          "internalType": "string",
          "name": "",
          "type": "string"
        }
      ],
      "stateMutability": "view",
      "type": "function",
      "constant": true
    },
    {
      "inputs": [
        {
          "internalType": "address",
          "name": "_batchNo",
          "type": "address"
        }
      ],
      "name": "getNextAction",
      "outputs": [
        {
          "internalType": "string",
          "name": "",
          "type": "string"
        }
      ],
      "stateMutability": "view",
      "type": "function",
      "constant": true
    },
    {
      "inputs": [
        {
          "internalType": "address",
          "name": "_userAddress",
          "type": "address"
        },
        {
          "internalType": "string",
          "name": "_name",
          "type": "string"
        },
        {
          "internalType": "string",
          "name": "_contactNo",
          "type": "string"
        },
        {
          "internalType": "string",
          "name": "_role",
          "type": "string"
        },
        {
          "internalType": "bool",
          "name": "_isActive",
          "type": "bool"
        },
        {
          "internalType": "string",
          "name": "_profileHash",
          "type": "string"
        }
      ],
      "name": "setUser",
      "outputs": [
        {
          "internalType": "bool",
          "name": "",
          "type": "bool"
        }
      ],
      "stateMutability": "nonpayable",
      "type": "function"
    },
    {
      "inputs": [
        {
          "internalType": "address",
          "name": "_userAddress",
          "type": "address"
        }
      ],
      "name": "getUser",
      "outputs": [
        {
          "internalType": "string",
          "name": "name",
          "type": "string"
        },
        {
          "internalType": "string",
          "name": "contactNo",
          "type": "string"
        },
        {
          "internalType": "string",
          "name": "role",
          "type": "string"
        },
        {
          "internalType": "bool",
          "name": "isActive",
          "type": "bool"
        },
        {
          "internalType": "string",
          "name": "profileHash",
          "type": "string"
        }
      ],
      "stateMutability": "view",
      "type": "function",
      "constant": true
    },
    {
      "inputs": [
        {
          "internalType": "address",
          "name": "_batchNo",
          "type": "address"
        }
      ],
      "name": "getBasicDetails",
      "outputs": [
        {
          "internalType": "string",
          "name": "producerName",
          "type": "string"
        },
        {
          "internalType": "string",
          "name": "storageName",
          "type": "string"
        },
        {
          "internalType": "string",
          "name": "distributorName",
          "type": "string"
        },
        {
          "internalType": "string",
          "name": "vaccinationStationName",
          "type": "string"
        },
        {
          "internalType": "uint256",
          "name": "totalWeight",
          "type": "uint256"
        }
      ],
      "stateMutability": "view",
      "type": "function",
      "constant": true
    },
    {
      "inputs": [
        {
          "internalType": "string",
          "name": "_producerName",
          "type": "string"
        },
        {
          "internalType": "string",
          "name": "_storageName",
          "type": "string"
        },
        {
          "internalType": "string",
          "name": "_distributorName",
          "type": "string"
        },
        {
          "internalType": "string",
          "name": "_vaccinationStationName",
          "type": "string"
        },
        {
          "internalType": "uint256",
          "name": "_totalWeight",
          "type": "uint256"
        }
      ],
      "name": "setBasicDetails",
      "outputs": [
        {
          "internalType": "address",
          "name": "",
          "type": "address"
        }
      ],
      "stateMutability": "nonpayable",
      "type": "function"
    },
    {
      "inputs": [
        {
          "internalType": "address",
          "name": "batchNo",
          "type": "address"
        },
        {
          "internalType": "string",
          "name": "_vaccineName",
          "type": "string"
        },
        {
          "internalType": "uint256",
          "name": "_quantity",
          "type": "uint256"
        },
        {
          "internalType": "uint256",
          "name": "_price",
          "type": "uint256"
        },
        {
          "internalType": "uint256",
          "name": "_storageDate",
          "type": "uint256"
        },
        {
          "internalType": "uint256",
          "name": "_optimumTemp",
          "type": "uint256"
        },
        {
          "internalType": "uint256",
          "name": "_optimumHum",
          "type": "uint256"
        },
        {
          "internalType": "bool",
          "name": "_isViolation",
          "type": "bool"
        }
      ],
      "name": "setWarehouser",
      "outputs": [
        {
          "internalType": "bool",
          "name": "",
          "type": "bool"
        }
      ],
      "stateMutability": "nonpayable",
      "type": "function"
    },
    {
      "inputs": [
        {
          "internalType": "address",
          "name": "batchNo",
          "type": "address"
        }
      ],
      "name": "getWarehouserData",
      "outputs": [
        {
          "internalType": "string",
          "name": "vaccineName",
          "type": "string"
        },
        {
          "internalType": "uint256",
          "name": "quantity",
          "type": "uint256"
        },
        {
          "internalType": "uint256",
          "name": "price",
          "type": "uint256"
        },
        {
          "internalType": "uint256",
          "name": "storageDate",
          "type": "uint256"
        },
        {
          "internalType": "uint256",
          "name": "optimumTemp",
          "type": "uint256"
        },
        {
          "internalType": "uint256",
          "name": "optimumHum",
          "type": "uint256"
        },
        {
          "internalType": "bool",
          "name": "isViolation",
          "type": "bool"
        }
      ],
      "stateMutability": "view",
      "type": "function",
      "constant": true
    },
    {
      "inputs": [
        {
          "internalType": "address",
          "name": "batchNo",
          "type": "address"
        },
        {
          "internalType": "string",
          "name": "_shippingName",
          "type": "string"
        },
        {
          "internalType": "string",
          "name": "_shippingNo",
          "type": "string"
        },
        {
          "internalType": "uint256",
          "name": "_quantity",
          "type": "uint256"
        },
        {
          "internalType": "uint256",
          "name": "_departureDateTime",
          "type": "uint256"
        },
        {
          "internalType": "uint256",
          "name": "_estimateDateTime",
          "type": "uint256"
        },
        {
          "internalType": "uint256",
          "name": "_distributorId",
          "type": "uint256"
        },
        {
          "internalType": "uint256",
          "name": "_optimumTemp",
          "type": "uint256"
        },
        {
          "internalType": "uint256",
          "name": "_optimumHum",
          "type": "uint256"
        }
      ],
      "name": "setDistributor",
      "outputs": [
        {
          "internalType": "bool",
          "name": "",
          "type": "bool"
        }
      ],
      "stateMutability": "nonpayable",
      "type": "function"
    },
    {
      "inputs": [
        {
          "internalType": "address",
          "name": "batchNo",
          "type": "address"
        }
      ],
      "name": "getDistributorData",
      "outputs": [
        {
          "internalType": "string",
          "name": "shippingName",
          "type": "string"
        },
        {
          "internalType": "string",
          "name": "shippingNo",
          "type": "string"
        },
        {
          "internalType": "uint256",
          "name": "quantity",
          "type": "uint256"
        },
        {
          "internalType": "uint256",
          "name": "departureDateTime",
          "type": "uint256"
        },
        {
          "internalType": "uint256",
          "name": "estimateDateTime",
          "type": "uint256"
        },
        {
          "internalType": "uint256",
          "name": "distributorId",
          "type": "uint256"
        },
        {
          "internalType": "uint256",
          "name": "optimumTemp",
          "type": "uint256"
        },
        {
          "internalType": "uint256",
          "name": "optimumHum",
          "type": "uint256"
        }
      ],
      "stateMutability": "view",
      "type": "function",
      "constant": true
    },
    {
      "inputs": [
        {
          "internalType": "address",
          "name": "batchNo",
          "type": "address"
        },
        {
          "internalType": "uint256",
          "name": "_quantity",
          "type": "uint256"
        },
        {
          "internalType": "uint256",
          "name": "_arrivalDateTime",
          "type": "uint256"
        },
        {
          "internalType": "uint256",
          "name": "_vaccinationStationId",
          "type": "uint256"
        },
        {
          "internalType": "string",
          "name": "_shippingName",
          "type": "string"
        },
        {
          "internalType": "string",
          "name": "_shippingNo",
          "type": "string"
        }
      ],
      "name": "setVaccinationStation",
      "outputs": [
        {
          "internalType": "bool",
          "name": "",
          "type": "bool"
        }
      ],
      "stateMutability": "nonpayable",
      "type": "function"
    },
    {
      "inputs": [
        {
          "internalType": "address",
          "name": "batchNo",
          "type": "address"
        }
      ],
      "name": "getVaccinationStationData",
      "outputs": [
        {
          "internalType": "uint256",
          "name": "quantity",
          "type": "uint256"
        },
        {
          "internalType": "uint256",
          "name": "arrivalDateTime",
          "type": "uint256"
        },
        {
          "internalType": "uint256",
          "name": "vaccinationStationId",
          "type": "uint256"
        },
        {
          "internalType": "string",
          "name": "shippingName",
          "type": "string"
        },
        {
          "internalType": "string",
          "name": "shippingNo",
          "type": "string"
        }
      ],
      "stateMutability": "view",
      "type": "function",
      "constant": true
    },
    {
      "inputs": [
        {
          "internalType": "address",
          "name": "batchNo",
          "type": "address"
        },
        {
          "internalType": "string",
          "name": "_personName",
          "type": "string"
        },
        {
          "internalType": "uint256",
          "name": "_age",
          "type": "uint256"
        },
        {
          "internalType": "uint256",
          "name": "_identityCard",
          "type": "uint256"
        },
        {
          "internalType": "uint256",
          "name": "_numberOfVaccinations",
          "type": "uint256"
        },
        {
          "internalType": "uint256",
          "name": "_vaccinationDate",
          "type": "uint256"
        },
        {
          "internalType": "string",
          "name": "_typeOfVaccine",
          "type": "string"
        }
      ],
      "name": "setObjectInjection",
      "outputs": [
        {
          "internalType": "bool",
          "name": "",
          "type": "bool"
        }
      ],
      "stateMutability": "nonpayable",
      "type": "function"
    },
    {
      "inputs": [
        {
          "internalType": "address",
          "name": "batchNo",
          "type": "address"
        }
      ],
      "name": "getVaccinationPersonData",
      "outputs": [
        {
          "internalType": "string",
          "name": "personName",
          "type": "string"
        },
        {
          "internalType": "uint256",
          "name": "age",
          "type": "uint256"
        },
        {
          "internalType": "uint256",
          "name": "identityCard",
          "type": "uint256"
        },
        {
          "internalType": "uint256",
          "name": "numberOfVaccinations",
          "type": "uint256"
        },
        {
          "internalType": "uint256",
          "name": "vaccinationDate",
          "type": "uint256"
        },
        {
          "internalType": "string",
          "name": "typeOfVaccine",
          "type": "string"
        }
      ],
      "stateMutability": "view",
      "type": "function",
      "constant": true
    }
  ],
  "bytecode": "0x608060405234801561001057600080fd5b50336000806101000a81548173ffffffffffffffffffffffffffffffffffffffff021916908373ffffffffffffffffffffffffffffffffffffffff1602179055506001600260003373ffffffffffffffffffffffffffffffffffffffff1673ffffffffffffffffffffffffffffffffffffffff16815260200190815260200160002060006101000a81548160ff021916908360ff1602179055506134c1806100b96000396000f3fe608060405234801561001057600080fd5b506004361061012c5760003560e01c80636f77926b116100ad578063de29e42111610071578063de29e421146103cc578063ed39343c14610401578063f2997d7614610431578063f2fde38b14610465578063fb7a20af146104815761012c565b80636f77926b1461030c578063715018a6146103405780637971ea421461034a5780638da5cb5b1461037e578063d1269da81461039c5761012c565b80633480898b116100f45780633480898b1461022e5780633e9fbeaf1461024c578063465aa7031461027c5780634b60e56e146102ac5780634d6b5e00146102dc5761012c565b8063161d5c1b146101315780631bcd250a1461016857806323d1cc8a1461019857806327820851146101ce5780632c388d5d146101fe575b600080fd5b61014b600480360381019061014691906128d9565b6104b1565b60405161015f989796959493929190613057565b60405180910390f35b610182600480360381019061017d91906128d9565b61075e565b60405161018f9190612f3c565b60405180910390f35b6101b260048036038101906101ad91906128d9565b610852565b6040516101c59796959493929190613152565b60405180910390f35b6101e860048036038101906101e391906128d9565b6109d2565b6040516101f59190612f57565b60405180910390f35b610218600480360381019061021391906128d9565b610aa3565b6040516102259190612f3c565b60405180910390f35b610236610b97565b6040516102439190612f21565b60405180910390f35b61026660048036038101906102619190612a03565b610bbd565b6040516102739190612f3c565b60405180910390f35b61029660048036038101906102919190612cb1565b610e73565b6040516102a39190612f3c565b60405180910390f35b6102c660048036038101906102c19190612b05565b61109d565b6040516102d39190612f3c565b60405180910390f35b6102f660048036038101906102f191906128d9565b6112dc565b6040516103039190612f57565b60405180910390f35b610326600480360381019061032191906128d9565b6113ad565b604051610337959493929190612f79565b60405180910390f35b6103486116c8565b005b610364600480360381019061035f91906128d9565b6117c6565b6040516103759594939291906131c8565b60405180910390f35b61038661198b565b6040516103939190612f21565b60405180910390f35b6103b660048036038101906103b19190612d76565b6119af565b6040516103c39190612f21565b60405180910390f35b6103e660048036038101906103e191906128d9565b611c54565b6040516103f8969594939291906130e3565b60405180910390f35b61041b60048036038101906104169190612bdf565b611e2c565b6040516104289190612f3c565b60405180910390f35b61044b600480360381019061044691906128d9565b61209a565b60405161045c959493929190612fe8565b60405180910390f35b61047f600480360381019061047a91906128d9565b61236e565b005b61049b60048036038101906104969190612906565b6124bd565b6040516104a89190612f3c565b60405180910390f35b6060806000806000806000806000600760008b73ffffffffffffffffffffffffffffffffffffffff1673ffffffffffffffffffffffffffffffffffffffff1681526020019081526020016000206040518061014001604052908160008201805461051a90613325565b80601f016020809104026020016040519081016040528092919081815260200182805461054690613325565b80156105935780601f1061056857610100808354040283529160200191610593565b820191906000526020600020905b81548152906001019060200180831161057657829003601f168201915b505050505081526020016001820180546105ac90613325565b80601f01602080910402602001604051908101604052809291908181526020018280546105d890613325565b80156106255780601f106105fa57610100808354040283529160200191610625565b820191906000526020600020905b81548152906001019060200180831161060857829003601f168201915b5050505050815260200160028201805461063e90613325565b80601f016020809104026020016040519081016040528092919081815260200182805461066a90613325565b80156106b75780601f1061068c576101008083540402835291602001916106b7565b820191906000526020600020905b81548152906001019060200180831161069a57829003601f168201915b5050505050815260200160038201548152602001600482015481526020016005820154815260200160068201548152602001600782015481526020016008820160009054906101000a900460ff16151515158152602001600982015481525050905080602001518160400151826060015183608001518460a001518561012001518660c001518760e001519850985098509850985098509850985050919395975091939597565b60008060009054906101000a900473ffffffffffffffffffffffffffffffffffffffff1673ffffffffffffffffffffffffffffffffffffffff163373ffffffffffffffffffffffffffffffffffffffff16146107b957600080fd5b6000600260008473ffffffffffffffffffffffffffffffffffffffff1673ffffffffffffffffffffffffffffffffffffffff16815260200190815260200160002060006101000a81548160ff021916908360ff1602179055507f9e8ca6ff03906e81e8a6a03d4f96b7edb0b97f0ed9d07ef1b699fff634385496826040516108419190612f21565b60405180910390a160019050919050565b60606000806000806000806000600660008a73ffffffffffffffffffffffffffffffffffffffff1673ffffffffffffffffffffffffffffffffffffffff168152602001908152602001600020604051806101000160405290816000820180546108ba90613325565b80601f01602080910402602001604051908101604052809291908181526020018280546108e690613325565b80156109335780601f1061090857610100808354040283529160200191610933565b820191906000526020600020905b81548152906001019060200180831161091657829003601f168201915b5050505050815260200160018201548152602001600282015481526020016003820154815260200160048201548152602001600582015481526020016006820160009054906101000a900460ff161515151581526020016007820154815250509050806000015181602001518260400151836060015184608001518560a001518660c00151975097509750975097509750975050919395979092949650565b6060600460008373ffffffffffffffffffffffffffffffffffffffff1673ffffffffffffffffffffffffffffffffffffffff1681526020019081526020016000208054610a1e90613325565b80601f0160208091040260200160405190810160405280929190818152602001828054610a4a90613325565b8015610a975780601f10610a6c57610100808354040283529160200191610a97565b820191906000526020600020905b815481529060010190602001808311610a7a57829003601f168201915b50505050509050919050565b60008060009054906101000a900473ffffffffffffffffffffffffffffffffffffffff1673ffffffffffffffffffffffffffffffffffffffff163373ffffffffffffffffffffffffffffffffffffffff1614610afe57600080fd5b6001600260008473ffffffffffffffffffffffffffffffffffffffff1673ffffffffffffffffffffffffffffffffffffffff16815260200190815260200160002060006101000a81548160ff021916908360ff1602179055507f8afeca650897be3183b7c0d24eba96a1b990f75c4bd74a0cfb2c0a71aec48e6182604051610b869190612f21565b60405180910390a160019050919050565b600160009054906101000a900473ffffffffffffffffffffffffffffffffffffffff1681565b600033600160006101000a81548173ffffffffffffffffffffffffffffffffffffffff021916908373ffffffffffffffffffffffffffffffffffffffff1602179055506001600260003373ffffffffffffffffffffffffffffffffffffffff1673ffffffffffffffffffffffffffffffffffffffff16815260200190815260200160002060009054906101000a900460ff1660ff1614610c5c57600080fd5b88601c6001019080519060200190610c759291906126fa565b5087601c6002019080519060200190610c8f9291906126fa565b5086601c6003018190555085601c6004018190555084601c6005018190555083601c6009018190555082601c6006018190555081601c60070181905550601c600760008c73ffffffffffffffffffffffffffffffffffffffff1673ffffffffffffffffffffffffffffffffffffffff1681526020019081526020016000206000820181600001908054610d2190613325565b610d2c929190612780565b506001820181600101908054610d4190613325565b610d4c929190612780565b506002820181600201908054610d6190613325565b610d6c929190612780565b5060038201548160030155600482015481600401556005820154816005015560068201548160060155600782015481600701556008820160009054906101000a900460ff168160080160006101000a81548160ff021916908315150217905550600982015481600901559050506040518060400160405280601381526020017f56414343494e4154494f4e5f53544154494f4e00000000000000000000000000815250600a60008c73ffffffffffffffffffffffffffffffffffffffff1673ffffffffffffffffffffffffffffffffffffffff1681526020019081526020016000209080519060200190610e619291906126fa565b50600190509998505050505050505050565b600033600160006101000a81548173ffffffffffffffffffffffffffffffffffffffff021916908373ffffffffffffffffffffffffffffffffffffffff1602179055506001600260003373ffffffffffffffffffffffffffffffffffffffff1673ffffffffffffffffffffffffffffffffffffffff16815260200190815260200160002060009054906101000a900460ff1660ff1614610f1257600080fd5b8560266000018190555084602660010181905550836026600201819055508260266003019080519060200190610f499291906126fa565b508160266004019080519060200190610f639291906126fa565b506026600860008973ffffffffffffffffffffffffffffffffffffffff1673ffffffffffffffffffffffffffffffffffffffff1681526020019081526020016000206000820154816000015560018201548160010155600282015481600201556003820181600301908054610fd790613325565b610fe2929190612780565b506004820181600401908054610ff790613325565b611002929190612780565b509050506040518060400160405280601081526020017f4f424a4543545f494e4a454354494f4e00000000000000000000000000000000815250600a60008973ffffffffffffffffffffffffffffffffffffffff1673ffffffffffffffffffffffffffffffffffffffff168152602001908152602001600020908051906020019061108e9291906126fa565b50600190509695505050505050565b600033600160006101000a81548173ffffffffffffffffffffffffffffffffffffffff021916908373ffffffffffffffffffffffffffffffffffffffff1602179055506001600260003373ffffffffffffffffffffffffffffffffffffffff1673ffffffffffffffffffffffffffffffffffffffff16815260200190815260200160002060009054906101000a900460ff1660ff161461113c57600080fd5b86602b60000190805190602001906111559291906126fa565b5085602b6001018190555084602b6002018190555083602b6003018190555082602b6004018190555081602b60050190805190602001906111979291906126fa565b50602b600960008a73ffffffffffffffffffffffffffffffffffffffff1673ffffffffffffffffffffffffffffffffffffffff16815260200190815260200160002060008201816000019080546111ed90613325565b6111f8929190612780565b5060018201548160010155600282015481600201556003820154816003015560048201548160040155600582018160050190805461123590613325565b611240929190612780565b509050506040518060400160405280600481526020017f444f4e4500000000000000000000000000000000000000000000000000000000815250600a60008a73ffffffffffffffffffffffffffffffffffffffff1673ffffffffffffffffffffffffffffffffffffffff16815260200190815260200160002090805190602001906112cc9291906126fa565b5060019050979650505050505050565b6060600a60008373ffffffffffffffffffffffffffffffffffffffff1673ffffffffffffffffffffffffffffffffffffffff168152602001908152602001600020805461132890613325565b80601f016020809104026020016040519081016040528092919081815260200182805461135490613325565b80156113a15780601f10611376576101008083540402835291602001916113a1565b820191906000526020600020905b81548152906001019060200180831161138457829003601f168201915b50505050509050919050565b6060806060600060606000600360008873ffffffffffffffffffffffffffffffffffffffff1673ffffffffffffffffffffffffffffffffffffffff16815260200190815260200160002060405180608001604052908160008201805461141290613325565b80601f016020809104026020016040519081016040528092919081815260200182805461143e90613325565b801561148b5780601f106114605761010080835404028352916020019161148b565b820191906000526020600020905b81548152906001019060200180831161146e57829003601f168201915b505050505081526020016001820180546114a490613325565b80601f01602080910402602001604051908101604052809291908181526020018280546114d090613325565b801561151d5780601f106114f25761010080835404028352916020019161151d565b820191906000526020600020905b81548152906001019060200180831161150057829003601f168201915b505050505081526020016002820160009054906101000a900460ff1615151515815260200160038201805461155190613325565b80601f016020809104026020016040519081016040528092919081815260200182805461157d90613325565b80156115ca5780601f1061159f576101008083540402835291602001916115ca565b820191906000526020600020905b8154815290600101906020018083116115ad57829003601f168201915b505050505081525050905080600001518160200151600460008a73ffffffffffffffffffffffffffffffffffffffff1673ffffffffffffffffffffffffffffffffffffffff1681526020019081526020016000208360400151846060015182805461163490613325565b80601f016020809104026020016040519081016040528092919081815260200182805461166090613325565b80156116ad5780601f10611682576101008083540402835291602001916116ad565b820191906000526020600020905b81548152906001019060200180831161169057829003601f168201915b50505050509250955095509550955095505091939590929450565b60008054906101000a900473ffffffffffffffffffffffffffffffffffffffff1673ffffffffffffffffffffffffffffffffffffffff163373ffffffffffffffffffffffffffffffffffffffff161461172057600080fd5b60008054906101000a900473ffffffffffffffffffffffffffffffffffffffff1673ffffffffffffffffffffffffffffffffffffffff167ff8df31144d9c2f0f6b59d69b8b98abd5459d07f2742c4df920b25aae33c6482060405160405180910390a260008060006101000a81548173ffffffffffffffffffffffffffffffffffffffff021916908373ffffffffffffffffffffffffffffffffffffffff160217905550565b60008060006060806000600860008873ffffffffffffffffffffffffffffffffffffffff1673ffffffffffffffffffffffffffffffffffffffff1681526020019081526020016000206040518060a001604052908160008201548152602001600182015481526020016002820154815260200160038201805461184890613325565b80601f016020809104026020016040519081016040528092919081815260200182805461187490613325565b80156118c15780601f10611896576101008083540402835291602001916118c1565b820191906000526020600020905b8154815290600101906020018083116118a457829003601f168201915b505050505081526020016004820180546118da90613325565b80601f016020809104026020016040519081016040528092919081815260200182805461190690613325565b80156119535780601f1061192857610100808354040283529160200191611953565b820191906000526020600020905b81548152906001019060200180831161193657829003601f168201915b505050505081525050905080600001518160200151826040015183606001518460800151955095509550955095505091939590929450565b60008054906101000a900473ffffffffffffffffffffffffffffffffffffffff1681565b600033600160006101000a81548173ffffffffffffffffffffffffffffffffffffffff021916908373ffffffffffffffffffffffffffffffffffffffff1602179055506001600260003373ffffffffffffffffffffffffffffffffffffffff1673ffffffffffffffffffffffffffffffffffffffff16815260200190815260200160002060009054906101000a900460ff1660ff1614611a4e57600080fd5b60003342604051602001611a63929190612ef5565b6040516020818303038152906040528051906020012060001c905086600f6000019080519060200190611a979291906126fa565b5085600f6001019080519060200190611ab19291906126fa565b5084600f6002019080519060200190611acb9291906126fa565b5083600f6003019080519060200190611ae59291906126fa565b5082600f60040181905550600f600560008373ffffffffffffffffffffffffffffffffffffffff1673ffffffffffffffffffffffffffffffffffffffff1681526020019081526020016000206000820181600001908054611b4590613325565b611b50929190612780565b506001820181600101908054611b6590613325565b611b70929190612780565b506002820181600201908054611b8590613325565b611b90929190612780565b506003820181600301908054611ba590613325565b611bb0929190612780565b50600482015481600401559050506040518060400160405280600a81526020017f57415245484f5553455200000000000000000000000000000000000000000000815250600a60008373ffffffffffffffffffffffffffffffffffffffff1673ffffffffffffffffffffffffffffffffffffffff1681526020019081526020016000209080519060200190611c469291906126fa565b508091505095945050505050565b606060008060008060606000600960008973ffffffffffffffffffffffffffffffffffffffff1673ffffffffffffffffffffffffffffffffffffffff1681526020019081526020016000206040518060c0016040529081600082018054611cba90613325565b80601f0160208091040260200160405190810160405280929190818152602001828054611ce690613325565b8015611d335780601f10611d0857610100808354040283529160200191611d33565b820191906000526020600020905b815481529060010190602001808311611d1657829003601f168201915b5050505050815260200160018201548152602001600282015481526020016003820154815260200160048201548152602001600582018054611d7490613325565b80601f0160208091040260200160405190810160405280929190818152602001828054611da090613325565b8015611ded5780601f10611dc257610100808354040283529160200191611ded565b820191906000526020600020905b815481529060010190602001808311611dd057829003601f168201915b5050505050815250509050806000015181602001518260400151836060015184608001518560a001519650965096509650965096505091939550919395565b600033600160006101000a81548173ffffffffffffffffffffffffffffffffffffffff021916908373ffffffffffffffffffffffffffffffffffffffff1602179055506001600260003373ffffffffffffffffffffffffffffffffffffffff1673ffffffffffffffffffffffffffffffffffffffff16815260200190815260200160002060009054906101000a900460ff1660ff1614611ecb57600080fd5b8760146000019080519060200190611ee49291906126fa565b50866014600101819055508560146002018190555084601460030181905550836014600401819055508260146005018190555081601460060160006101000a81548160ff0219169083151502179055506014600660008b73ffffffffffffffffffffffffffffffffffffffff1673ffffffffffffffffffffffffffffffffffffffff1681526020019081526020016000206000820181600001908054611f8990613325565b611f94929190612780565b5060018201548160010155600282015481600201556003820154816003015560048201548160040155600582015481600501556006820160009054906101000a900460ff168160060160006101000a81548160ff021916908315150217905550600782015481600701559050506040518060400160405280600b81526020017f4449535452494255544f52000000000000000000000000000000000000000000815250600a60008b73ffffffffffffffffffffffffffffffffffffffff1673ffffffffffffffffffffffffffffffffffffffff16815260200190815260200160002090805190602001906120899291906126fa565b506001905098975050505050505050565b606080606080600080600560008873ffffffffffffffffffffffffffffffffffffffff1673ffffffffffffffffffffffffffffffffffffffff1681526020019081526020016000206040518060a00160405290816000820180546120fd90613325565b80601f016020809104026020016040519081016040528092919081815260200182805461212990613325565b80156121765780601f1061214b57610100808354040283529160200191612176565b820191906000526020600020905b81548152906001019060200180831161215957829003601f168201915b5050505050815260200160018201805461218f90613325565b80601f01602080910402602001604051908101604052809291908181526020018280546121bb90613325565b80156122085780601f106121dd57610100808354040283529160200191612208565b820191906000526020600020905b8154815290600101906020018083116121eb57829003601f168201915b5050505050815260200160028201805461222190613325565b80601f016020809104026020016040519081016040528092919081815260200182805461224d90613325565b801561229a5780601f1061226f5761010080835404028352916020019161229a565b820191906000526020600020905b81548152906001019060200180831161227d57829003601f168201915b505050505081526020016003820180546122b390613325565b80601f01602080910402602001604051908101604052809291908181526020018280546122df90613325565b801561232c5780601f106123015761010080835404028352916020019161232c565b820191906000526020600020905b81548152906001019060200180831161230f57829003601f168201915b50505050508152602001600482015481525050905080600001518160200151826040015183606001518460800151955095509550955095505091939590929450565b60008054906101000a900473ffffffffffffffffffffffffffffffffffffffff1673ffffffffffffffffffffffffffffffffffffffff163373ffffffffffffffffffffffffffffffffffffffff16146123c657600080fd5b600073ffffffffffffffffffffffffffffffffffffffff168173ffffffffffffffffffffffffffffffffffffffff16141561240057600080fd5b8073ffffffffffffffffffffffffffffffffffffffff1660008054906101000a900473ffffffffffffffffffffffffffffffffffffffff1673ffffffffffffffffffffffffffffffffffffffff167f8be0079c531659141344cd1fd0a4f28419497f9722a3daafe3b4186f6b6457e060405160405180910390a3806000806101000a81548173ffffffffffffffffffffffffffffffffffffffff021916908373ffffffffffffffffffffffffffffffffffffffff16021790555050565b600033600160006101000a81548173ffffffffffffffffffffffffffffffffffffffff021916908373ffffffffffffffffffffffffffffffffffffffff1602179055506001600260003373ffffffffffffffffffffffffffffffffffffffff1673ffffffffffffffffffffffffffffffffffffffff16815260200190815260200160002060009054906101000a900460ff1660ff161461255c57600080fd5b85600b60000190805190602001906125759291906126fa565b5084600b600101908051906020019061258f9291906126fa565b5082600b60020160006101000a81548160ff02191690831515021790555081600b60030190805190602001906125c69291906126fa565b50600b600360008973ffffffffffffffffffffffffffffffffffffffff1673ffffffffffffffffffffffffffffffffffffffff168152602001908152602001600020600082018160000190805461261c90613325565b612627929190612780565b50600182018160010190805461263c90613325565b612647929190612780565b506002820160009054906101000a900460ff168160020160006101000a81548160ff021916908315150217905550600382018160030190805461268990613325565b612694929190612780565b5090505083600460008973ffffffffffffffffffffffffffffffffffffffff1673ffffffffffffffffffffffffffffffffffffffff16815260200190815260200160002090805190602001906126eb9291906126fa565b50600190509695505050505050565b82805461270690613325565b90600052602060002090601f016020900481019282612728576000855561276f565b82601f1061274157805160ff191683800117855561276f565b8280016001018555821561276f579182015b8281111561276e578251825591602001919060010190612753565b5b50905061277c919061280d565b5090565b82805461278c90613325565b90600052602060002090601f0160209004810192826127ae57600085556127fc565b82601f106127bf57805485556127fc565b828001600101855582156127fc57600052602060002091601f016020900482015b828111156127fb5782548255916001019190600101906127e0565b5b509050612809919061280d565b5090565b5b8082111561282657600081600090555060010161280e565b5090565b600061283d6128388461324e565b613229565b90508281526020810184848401111561285957612858613419565b5b6128648482856132e3565b509392505050565b60008135905061287b81613446565b92915050565b6000813590506128908161345d565b92915050565b600082601f8301126128ab576128aa613414565b5b81356128bb84826020860161282a565b91505092915050565b6000813590506128d381613474565b92915050565b6000602082840312156128ef576128ee613423565b5b60006128fd8482850161286c565b91505092915050565b60008060008060008060c0878903121561292357612922613423565b5b600061293189828a0161286c565b965050602087013567ffffffffffffffff8111156129525761295161341e565b5b61295e89828a01612896565b955050604087013567ffffffffffffffff81111561297f5761297e61341e565b5b61298b89828a01612896565b945050606087013567ffffffffffffffff8111156129ac576129ab61341e565b5b6129b889828a01612896565b93505060806129c989828a01612881565b92505060a087013567ffffffffffffffff8111156129ea576129e961341e565b5b6129f689828a01612896565b9150509295509295509295565b60008060008060008060008060006101208a8c031215612a2657612a25613423565b5b6000612a348c828d0161286c565b99505060208a013567ffffffffffffffff811115612a5557612a5461341e565b5b612a618c828d01612896565b98505060408a013567ffffffffffffffff811115612a8257612a8161341e565b5b612a8e8c828d01612896565b9750506060612a9f8c828d016128c4565b9650506080612ab08c828d016128c4565b95505060a0612ac18c828d016128c4565b94505060c0612ad28c828d016128c4565b93505060e0612ae38c828d016128c4565b925050610100612af58c828d016128c4565b9150509295985092959850929598565b600080600080600080600060e0888a031215612b2457612b23613423565b5b6000612b328a828b0161286c565b975050602088013567ffffffffffffffff811115612b5357612b5261341e565b5b612b5f8a828b01612896565b9650506040612b708a828b016128c4565b9550506060612b818a828b016128c4565b9450506080612b928a828b016128c4565b93505060a0612ba38a828b016128c4565b92505060c088013567ffffffffffffffff811115612bc457612bc361341e565b5b612bd08a828b01612896565b91505092959891949750929550565b600080600080600080600080610100898b031215612c0057612bff613423565b5b6000612c0e8b828c0161286c565b985050602089013567ffffffffffffffff811115612c2f57612c2e61341e565b5b612c3b8b828c01612896565b9750506040612c4c8b828c016128c4565b9650506060612c5d8b828c016128c4565b9550506080612c6e8b828c016128c4565b94505060a0612c7f8b828c016128c4565b93505060c0612c908b828c016128c4565b92505060e0612ca18b828c01612881565b9150509295985092959890939650565b60008060008060008060c08789031215612cce57612ccd613423565b5b6000612cdc89828a0161286c565b9650506020612ced89828a016128c4565b9550506040612cfe89828a016128c4565b9450506060612d0f89828a016128c4565b935050608087013567ffffffffffffffff811115612d3057612d2f61341e565b5b612d3c89828a01612896565b92505060a087013567ffffffffffffffff811115612d5d57612d5c61341e565b5b612d6989828a01612896565b9150509295509295509295565b600080600080600060a08688031215612d9257612d91613423565b5b600086013567ffffffffffffffff811115612db057612daf61341e565b5b612dbc88828901612896565b955050602086013567ffffffffffffffff811115612ddd57612ddc61341e565b5b612de988828901612896565b945050604086013567ffffffffffffffff811115612e0a57612e0961341e565b5b612e1688828901612896565b935050606086013567ffffffffffffffff811115612e3757612e3661341e565b5b612e4388828901612896565b9250506080612e54888289016128c4565b9150509295509295909350565b612e6a8161329b565b82525050565b612e81612e7c8261329b565b613388565b82525050565b612e90816132ad565b82525050565b6000612ea18261327f565b612eab818561328a565b9350612ebb8185602086016132f2565b612ec481613428565b840191505092915050565b612ed8816132d9565b82525050565b612eef612eea826132d9565b6133ac565b82525050565b6000612f018285612e70565b601482019150612f118284612ede565b6020820191508190509392505050565b6000602082019050612f366000830184612e61565b92915050565b6000602082019050612f516000830184612e87565b92915050565b60006020820190508181036000830152612f718184612e96565b905092915050565b600060a0820190508181036000830152612f938188612e96565b90508181036020830152612fa78187612e96565b90508181036040830152612fbb8186612e96565b9050612fca6060830185612e87565b8181036080830152612fdc8184612e96565b90509695505050505050565b600060a08201905081810360008301526130028188612e96565b905081810360208301526130168187612e96565b9050818103604083015261302a8186612e96565b9050818103606083015261303e8185612e96565b905061304d6080830184612ecf565b9695505050505050565b6000610100820190508181036000830152613072818b612e96565b90508181036020830152613086818a612e96565b90506130956040830189612ecf565b6130a26060830188612ecf565b6130af6080830187612ecf565b6130bc60a0830186612ecf565b6130c960c0830185612ecf565b6130d660e0830184612ecf565b9998505050505050505050565b600060c08201905081810360008301526130fd8189612e96565b905061310c6020830188612ecf565b6131196040830187612ecf565b6131266060830186612ecf565b6131336080830185612ecf565b81810360a08301526131458184612e96565b9050979650505050505050565b600060e082019050818103600083015261316c818a612e96565b905061317b6020830189612ecf565b6131886040830188612ecf565b6131956060830187612ecf565b6131a26080830186612ecf565b6131af60a0830185612ecf565b6131bc60c0830184612e87565b98975050505050505050565b600060a0820190506131dd6000830188612ecf565b6131ea6020830187612ecf565b6131f76040830186612ecf565b81810360608301526132098185612e96565b9050818103608083015261321d8184612e96565b90509695505050505050565b6000613233613244565b905061323f8282613357565b919050565b6000604051905090565b600067ffffffffffffffff821115613269576132686133e5565b5b61327282613428565b9050602081019050919050565b600081519050919050565b600082825260208201905092915050565b60006132a6826132b9565b9050919050565b60008115159050919050565b600073ffffffffffffffffffffffffffffffffffffffff82169050919050565b6000819050919050565b82818337600083830152505050565b60005b838110156133105780820151818401526020810190506132f5565b8381111561331f576000848401525b50505050565b6000600282049050600182168061333d57607f821691505b60208210811415613351576133506133b6565b5b50919050565b61336082613428565b810181811067ffffffffffffffff8211171561337f5761337e6133e5565b5b80604052505050565b60006133938261339a565b9050919050565b60006133a582613439565b9050919050565b6000819050919050565b7f4e487b7100000000000000000000000000000000000000000000000000000000600052602260045260246000fd5b7f4e487b7100000000000000000000000000000000000000000000000000000000600052604160045260246000fd5b600080fd5b600080fd5b600080fd5b600080fd5b6000601f19601f8301169050919050565b60008160601b9050919050565b61344f8161329b565b811461345a57600080fd5b50565b613466816132ad565b811461347157600080fd5b50565b61347d816132d9565b811461348857600080fd5b5056fea26469706673582212204f064d2bc5288a70219c492294abf3fcc7a9f33e5830ebc8ae5889206d7e500064736f6c63430008070033",
  "immutableReferences": {},
  "source": "pragma solidity ^0.8.7;\r\n\r\nimport \"./Ownable.sol\";\r\n\r\ncontract VaccineSystemStorage is Ownable {\r\n    address public lastAccess;\r\n\r\n    constructor() public {\r\n        authorizedCaller[msg.sender] = 1;\r\n    }\r\n\r\n    /* Declare Events */\r\n    event AuthorizedCaller(address caller);\r\n    event DeAuthorizedCaller(address caller);\r\n\r\n    /* Declare Modifiers */\r\n    modifier onlyAuthCaller() {\r\n        lastAccess = msg.sender;\r\n        require(authorizedCaller[msg.sender] == 1);\r\n        _;\r\n    }\r\n\r\n    /* Caller Mapping */\r\n    mapping(address => uint8) authorizedCaller;\r\n\r\n    /* User Interface */\r\n    struct user {\r\n        string name;\r\n        string contactNo;\r\n        bool isActive;\r\n        string profileHash;\r\n    }\r\n\r\n    mapping(address => user) userDetails;\r\n    mapping(address => string) userRole;\r\n\r\n    /* Authorized Caller */\r\n    function authorizeCaller(address _caller) public onlyOwner returns (bool) {\r\n        authorizedCaller[_caller] = 1;\r\n        emit AuthorizedCaller(_caller);\r\n        return true;\r\n    }\r\n\r\n    /* De-Authorized Caller */\r\n    function deAuthorizeCaller(address _caller)\r\n        public\r\n        onlyOwner\r\n        returns (bool)\r\n    {\r\n        authorizedCaller[_caller] = 0;\r\n        emit DeAuthorizedCaller(_caller);\r\n        return true;\r\n    }\r\n\r\n    struct basicDetails {\r\n        string producerName;\r\n        string storageName;\r\n        string distributorName;\r\n        string vaccinationStationName;\r\n        uint256 totalWeight;\r\n    }\r\n\r\n    struct warehouser {\r\n        string vaccineName;\r\n        uint256 quantity;\r\n        uint256 price;\r\n        uint256 storageDate;\r\n        uint256 optimumTemp;\r\n        uint256 optimumHum;\r\n        bool isViolation;\r\n        uint256 warehouserId;\r\n    }\r\n\r\n    struct distributor {\r\n        string destinationAddress;\r\n        string shippingName;\r\n        string shippingNo;\r\n        uint256 quantity;\r\n        uint256 departureDateTime;\r\n        uint256 estimateDateTime;\r\n        uint256 optimumTemp;\r\n        uint256 optimumHum;\r\n        bool isViolation;\r\n        uint256 distributorId;\r\n    }\r\n\r\n    struct vaccinationStation {\r\n        uint256 quantity;\r\n        uint256 arrivalDateTime;\r\n        uint256 vaccinationStationId;\r\n        string shippingName;\r\n        string shippingNo;\r\n    }\r\n\r\n    struct vaccinatedPerson {\r\n        string personName;\r\n        uint256 age;\r\n        uint256 identityCard;\r\n        uint256 numberOfVaccinations;\r\n        uint256 vaccinationDate;\r\n        string typeOfVaccine;\r\n    }\r\n\r\n    mapping(address => basicDetails) batchBasicDetails;\r\n    mapping(address => warehouser) batchWarehouser;\r\n    mapping(address => distributor) batchDistributor;\r\n    mapping(address => vaccinationStation) batchVaccinationStation;\r\n    mapping(address => vaccinatedPerson) batchVaccinatedPerson;\r\n    mapping(address => string) nextAction;\r\n\r\n    /* Init Struct Pointer */\r\n    user userDetail;\r\n    basicDetails basicDetailsData;\r\n    warehouser warehouserData;\r\n    distributor distributorData;\r\n    vaccinationStation vaccinationStationData;\r\n    vaccinatedPerson vaccinatedPersonData;\r\n\r\n    /* Get User Role */\r\n    function getUserRole(address _userAddress)\r\n        public\r\n        view\r\n        returns (string memory)\r\n    {\r\n        return userRole[_userAddress];\r\n    }\r\n\r\n    /* Get Next Action */\r\n    function getNextAction(address _batchNo)\r\n        public\r\n        view\r\n        returns (string memory)\r\n    {\r\n        return nextAction[_batchNo];\r\n    }\r\n\r\n    /* Set User Detail */\r\n    function setUser(\r\n        address _userAddress,\r\n        string memory _name,\r\n        string memory _contactNo,\r\n        string memory _role,\r\n        bool _isActive,\r\n        string memory _profileHash\r\n    ) public onlyAuthCaller returns (bool) {\r\n        /* Store Data User Into Struct - User */\r\n        userDetail.name = _name;\r\n        userDetail.contactNo = _contactNo;\r\n        userDetail.isActive = _isActive;\r\n        userDetail.profileHash = _profileHash;\r\n\r\n        /* Store Data User Into Mapping - User */\r\n        userDetails[_userAddress] = userDetail;\r\n        userRole[_userAddress] = _role;\r\n\r\n        return true;\r\n    }\r\n\r\n    /* Get User details */\r\n    function getUser(address _userAddress)\r\n        public\r\n        view\r\n        returns (\r\n            string memory name,\r\n            string memory contactNo,\r\n            string memory role,\r\n            bool isActive,\r\n            string memory profileHash\r\n        )\r\n    {\r\n        /* Get User Value From Struct */\r\n        user memory tmpData = userDetails[_userAddress];\r\n\r\n        return (\r\n            tmpData.name,\r\n            tmpData.contactNo,\r\n            userRole[_userAddress],\r\n            tmpData.isActive,\r\n            tmpData.profileHash\r\n        );\r\n    }\r\n\r\n    /* Get Batch Basic Details */\r\n    function getBasicDetails(address _batchNo)\r\n        public\r\n        view\r\n        returns (\r\n            string memory producerName,\r\n            string memory storageName,\r\n            string memory distributorName,\r\n            string memory vaccinationStationName,\r\n            uint256 totalWeight\r\n        )\r\n    {\r\n        basicDetails memory tmpData = batchBasicDetails[_batchNo];\r\n\r\n        return (\r\n            tmpData.producerName,\r\n            tmpData.storageName,\r\n            tmpData.distributorName,\r\n            tmpData.vaccinationStationName,\r\n            tmpData.totalWeight\r\n        );\r\n    }\r\n\r\n    /* Set Batch Basic Detail */\r\n    function setBasicDetails(\r\n        string memory _producerName,\r\n        string memory _storageName,\r\n        string memory _distributorName,\r\n        string memory _vaccinationStationName,\r\n        uint256 _totalWeight\r\n    ) public onlyAuthCaller returns (address) {\r\n        address batchNo = address(\r\n            uint160(\r\n                uint256(\r\n                    keccak256(abi.encodePacked(msg.sender, block.timestamp))\r\n                )\r\n            )\r\n        );\r\n\r\n        basicDetailsData.producerName = _producerName;\r\n        basicDetailsData.storageName = _storageName;\r\n        basicDetailsData.distributorName = _distributorName;\r\n        basicDetailsData.vaccinationStationName = _vaccinationStationName;\r\n        basicDetailsData.totalWeight = _totalWeight;\r\n\r\n        batchBasicDetails[batchNo] = basicDetailsData;\r\n\r\n        nextAction[batchNo] = \"WAREHOUSER\";\r\n        return batchNo;\r\n    }\r\n\r\n    /* Set Warehouser */\r\n    function setWarehouser(\r\n        address batchNo,\r\n        string memory _vaccineName,\r\n        uint256 _quantity,\r\n        uint256 _price,\r\n        uint256 _storageDate,\r\n        uint256 _optimumTemp,\r\n        uint256 _optimumHum,\r\n        bool _isViolation\r\n    ) public onlyAuthCaller returns (bool) {\r\n        warehouserData.vaccineName = _vaccineName;\r\n        warehouserData.quantity = _quantity;\r\n        warehouserData.price = _price;\r\n        warehouserData.storageDate = _storageDate;\r\n        warehouserData.optimumTemp = _optimumTemp;\r\n        warehouserData.optimumHum = _optimumHum;\r\n        warehouserData.isViolation = _isViolation;\r\n\r\n        batchWarehouser[batchNo] = warehouserData;\r\n\r\n        nextAction[batchNo] = \"DISTRIBUTOR\";\r\n\r\n        return true;\r\n    }\r\n\r\n    /* Get Warehouser */\r\n    function getWarehouserData(address batchNo)\r\n        public\r\n        view\r\n        returns (\r\n            string memory vaccineName,\r\n            uint256 quantity,\r\n            uint256 price,\r\n            uint256 storageDate,\r\n            uint256 optimumTemp,\r\n            uint256 optimumHum,\r\n            bool isViolation\r\n        )\r\n    {\r\n        warehouser memory tmpData = batchWarehouser[batchNo];\r\n\r\n        return (\r\n            tmpData.vaccineName,\r\n            tmpData.quantity,\r\n            tmpData.price,\r\n            tmpData.storageDate,\r\n            tmpData.optimumTemp,\r\n            tmpData.optimumHum,\r\n            tmpData.isViolation\r\n        );\r\n    }\r\n\r\n    /* Set Distributor */\r\n    function setDistributor(\r\n        address batchNo,\r\n        string memory _shippingName,\r\n        string memory _shippingNo,\r\n        uint256 _quantity,\r\n        uint256 _departureDateTime, \r\n        uint256 _estimateDateTime,\r\n        uint256 _distributorId,\r\n        uint256 _optimumTemp,\r\n        uint256 _optimumHum\r\n    ) public onlyAuthCaller returns (bool) {\r\n        distributorData.shippingName = _shippingName;\r\n        distributorData.shippingNo = _shippingNo;\r\n        distributorData.quantity = _quantity;\r\n        distributorData.departureDateTime = _departureDateTime;\r\n        distributorData.estimateDateTime = _estimateDateTime;\r\n        distributorData.distributorId = _distributorId;\r\n        distributorData.optimumTemp = _optimumTemp;\r\n        distributorData.optimumHum = _optimumHum;\r\n\r\n        batchDistributor[batchNo] = distributorData;\r\n\r\n        nextAction[batchNo] = \"VACCINATION_STATION\";\r\n\r\n        return true;\r\n    }\r\n\r\n    /* Get Distributor Data */\r\n    function getDistributorData(address batchNo) public view returns(\r\n        string memory shippingName,\r\n        string memory shippingNo,\r\n        uint256 quantity,\r\n        uint256 departureDateTime,\r\n        uint256 estimateDateTime,\r\n        uint256 distributorId,\r\n        uint256 optimumTemp,\r\n        uint256 optimumHum\r\n    ) {\r\n        distributor memory tmpData = batchDistributor[batchNo];\r\n\r\n        return (\r\n            tmpData.shippingName,\r\n            tmpData.shippingNo,\r\n            tmpData.quantity,\r\n            tmpData.departureDateTime,\r\n            tmpData.estimateDateTime,\r\n            tmpData.distributorId,\r\n            tmpData.optimumTemp,\r\n            tmpData.optimumHum\r\n        );\r\n    }\r\n\r\n    /* Set Vaccination Station */\r\n    function setVaccinationStation(\r\n        address batchNo,\r\n        uint256 _quantity,\r\n        uint256 _arrivalDateTime,\r\n        uint256 _vaccinationStationId,\r\n        string memory _shippingName,\r\n        string memory _shippingNo\r\n    ) public onlyAuthCaller returns(bool) {\r\n        vaccinationStationData.quantity = _quantity;\r\n        vaccinationStationData.arrivalDateTime = _arrivalDateTime;\r\n        vaccinationStationData.vaccinationStationId = _vaccinationStationId;\r\n        vaccinationStationData.shippingName = _shippingName;\r\n        vaccinationStationData.shippingNo = _shippingNo;\r\n\r\n        batchVaccinationStation[batchNo] = vaccinationStationData;\r\n\r\n        nextAction[batchNo] = \"OBJECT_INJECTION\";\r\n\r\n        return true;\r\n    }\r\n\r\n    /* Get Vaccination Station Data */\r\n    function getVaccinationStationData(address batchNo) public view returns (\r\n        uint256 quantity,\r\n        uint256 arrivalDateTime,\r\n        uint256 vaccinationStationId,\r\n        string memory shippingName,\r\n        string memory shippingNo\r\n    ) {\r\n        vaccinationStation memory tmpData = batchVaccinationStation[batchNo];\r\n\r\n        return (\r\n            tmpData.quantity,\r\n            tmpData.arrivalDateTime,\r\n            tmpData.vaccinationStationId,\r\n            tmpData.shippingName,\r\n            tmpData.shippingNo\r\n        );\r\n    }\r\n\r\n    /* Set Vaccinated Person*/\r\n    function setObjectInjection(\r\n        address batchNo, \r\n        string memory _personName,\r\n        uint256 _age,\r\n        uint256 _identityCard,\r\n        uint256 _numberOfVaccinations,\r\n        uint256 _vaccinationDate,\r\n        string memory _typeOfVaccine\r\n    ) public onlyAuthCaller returns (bool) {\r\n        vaccinatedPersonData.personName = _personName;\r\n        vaccinatedPersonData.age = _age;\r\n        vaccinatedPersonData.identityCard = _identityCard;\r\n        vaccinatedPersonData.numberOfVaccinations = _numberOfVaccinations;\r\n        vaccinatedPersonData.vaccinationDate = _vaccinationDate;\r\n        vaccinatedPersonData.typeOfVaccine = _typeOfVaccine;\r\n\r\n        batchVaccinatedPerson[batchNo] = vaccinatedPersonData;\r\n\r\n        nextAction[batchNo] = \"DONE\";\r\n\r\n        return true;\r\n    }\r\n\r\n    /* Get Vaccinated Person Data */\r\n    function getVaccinationPersonData(address batchNo) public view returns (\r\n        string memory personName,\r\n        uint256 age,\r\n        uint256 identityCard,\r\n        uint256 numberOfVaccinations,\r\n        uint256 vaccinationDate,\r\n        string memory typeOfVaccine\r\n    ) {\r\n        vaccinatedPerson memory tmpData = batchVaccinatedPerson[batchNo];\r\n\r\n        return (\r\n            tmpData.personName,\r\n            tmpData.age,\r\n            tmpData.identityCard,\r\n            tmpData.numberOfVaccinations,\r\n            tmpData.vaccinationDate,\r\n            tmpData.typeOfVaccine\r\n        );\r\n    }\r\n}\r\n",
  "sourcePath": "D:\\Learn , Research, Explore\\UIT\\Dissertation\\Source\\packages\\dissertation_smartcontract\\contracts\\VaccineSystemStorage.sol",
  "compiler": {
    "name": "solc",
    "version": "0.8.7+commit.e28d00a7.Emscripten.clang"
  },
  "schemaVersion": "3.4.3",
  "updatedAt": "2021-10-24T19:44:40.718Z",
  "networkType": "ethereum",
  "devdoc": {
    "kind": "dev",
    "methods": {
      "renounceOwnership()": {
        "details": "Allows the current owner to relinquish control of the contract."
      },
      "transferOwnership(address)": {
        "details": "Allows the current owner to transfer control of the contract to a newOwner.",
        "params": {
          "newOwner": "The address to transfer ownership to."
        }
      }
    },
    "version": 1
  },
  "userdoc": {
    "kind": "user",
    "methods": {},
    "version": 1
  }
}