{
  "contractName": "VaccineSystemStorage",
  "abi": [
    {
      "inputs": [],
      "stateMutability": "nonpayable",
      "type": "constructor"
    },
    {
      "anonymous": false,
      "inputs": [
        {
          "indexed": false,
          "internalType": "address",
          "name": "caller",
          "type": "address"
        }
      ],
      "name": "AuthorizedCaller",
      "type": "event"
    },
    {
      "anonymous": false,
      "inputs": [
        {
          "indexed": false,
          "internalType": "address",
          "name": "caller",
          "type": "address"
        }
      ],
      "name": "DeAuthorizedCaller",
      "type": "event"
    },
    {
      "anonymous": false,
      "inputs": [
        {
          "indexed": true,
          "internalType": "address",
          "name": "previousOwner",
          "type": "address"
        }
      ],
      "name": "OwnershipRenounced",
      "type": "event"
    },
    {
      "anonymous": false,
      "inputs": [
        {
          "indexed": true,
          "internalType": "address",
          "name": "previousOwner",
          "type": "address"
        },
        {
          "indexed": true,
          "internalType": "address",
          "name": "newOwner",
          "type": "address"
        }
      ],
      "name": "OwnershipTransferred",
      "type": "event"
    },
    {
      "inputs": [],
      "name": "lastAccess",
      "outputs": [
        {
          "internalType": "address",
          "name": "",
          "type": "address"
        }
      ],
      "stateMutability": "view",
      "type": "function",
      "constant": true
    },
    {
      "inputs": [],
      "name": "owner",
      "outputs": [
        {
          "internalType": "address",
          "name": "",
          "type": "address"
        }
      ],
      "stateMutability": "view",
      "type": "function",
      "constant": true
    },
    {
      "inputs": [],
      "name": "renounceOwnership",
      "outputs": [],
      "stateMutability": "nonpayable",
      "type": "function"
    },
    {
      "inputs": [
        {
          "internalType": "address",
          "name": "newOwner",
          "type": "address"
        }
      ],
      "name": "transferOwnership",
      "outputs": [],
      "stateMutability": "nonpayable",
      "type": "function"
    },
    {
      "inputs": [
        {
          "internalType": "address",
          "name": "_caller",
          "type": "address"
        }
      ],
      "name": "authorizeCaller",
      "outputs": [
        {
          "internalType": "bool",
          "name": "",
          "type": "bool"
        }
      ],
      "stateMutability": "nonpayable",
      "type": "function"
    },
    {
      "inputs": [
        {
          "internalType": "address",
          "name": "_caller",
          "type": "address"
        }
      ],
      "name": "deAuthorizeCaller",
      "outputs": [
        {
          "internalType": "bool",
          "name": "",
          "type": "bool"
        }
      ],
      "stateMutability": "nonpayable",
      "type": "function"
    },
    {
      "inputs": [
        {
          "internalType": "address",
          "name": "_userAddress",
          "type": "address"
        }
      ],
      "name": "getUserRole",
      "outputs": [
        {
          "internalType": "string",
          "name": "",
          "type": "string"
        }
      ],
      "stateMutability": "view",
      "type": "function",
      "constant": true
    },
    {
      "inputs": [
        {
          "internalType": "address",
          "name": "_batchNo",
          "type": "address"
        }
      ],
      "name": "getNextAction",
      "outputs": [
        {
          "internalType": "string",
          "name": "",
          "type": "string"
        }
      ],
      "stateMutability": "view",
      "type": "function",
      "constant": true
    },
    {
      "inputs": [
        {
          "internalType": "address",
          "name": "_userAddress",
          "type": "address"
        },
        {
          "internalType": "string",
          "name": "_name",
          "type": "string"
        },
        {
          "internalType": "string",
          "name": "_contactNo",
          "type": "string"
        },
        {
          "internalType": "string",
          "name": "_role",
          "type": "string"
        },
        {
          "internalType": "bool",
          "name": "_isActive",
          "type": "bool"
        },
        {
          "internalType": "string",
          "name": "_profileHash",
          "type": "string"
        }
      ],
      "name": "setUser",
      "outputs": [
        {
          "internalType": "bool",
          "name": "",
          "type": "bool"
        }
      ],
      "stateMutability": "nonpayable",
      "type": "function"
    },
    {
      "inputs": [
        {
          "internalType": "address",
          "name": "_userAddress",
          "type": "address"
        }
      ],
      "name": "getUser",
      "outputs": [
        {
          "internalType": "string",
          "name": "name",
          "type": "string"
        },
        {
          "internalType": "string",
          "name": "contactNo",
          "type": "string"
        },
        {
          "internalType": "string",
          "name": "role",
          "type": "string"
        },
        {
          "internalType": "bool",
          "name": "isActive",
          "type": "bool"
        },
        {
          "internalType": "string",
          "name": "profileHash",
          "type": "string"
        }
      ],
      "stateMutability": "view",
      "type": "function",
      "constant": true
    },
    {
      "inputs": [
        {
          "internalType": "address",
          "name": "_batchNo",
          "type": "address"
        }
      ],
      "name": "getBasicDetails",
      "outputs": [
        {
          "internalType": "string",
          "name": "producerName",
          "type": "string"
        },
        {
          "internalType": "uint256",
          "name": "quantity",
          "type": "uint256"
        },
        {
          "internalType": "string",
          "name": "optimumRangeTemp",
          "type": "string"
        },
        {
          "internalType": "string",
          "name": "optimumRangeHum",
          "type": "string"
        }
      ],
      "stateMutability": "view",
      "type": "function",
      "constant": true
    },
    {
      "inputs": [
        {
          "internalType": "string",
          "name": "_producerName",
          "type": "string"
        },
        {
          "internalType": "uint256",
          "name": "_quantity",
          "type": "uint256"
        },
        {
          "internalType": "string",
          "name": "_optimumRangeTemp",
          "type": "string"
        },
        {
          "internalType": "string",
          "name": "_optimumRangeHum",
          "type": "string"
        }
      ],
      "name": "setBasicDetails",
      "outputs": [
        {
          "internalType": "address",
          "name": "",
          "type": "address"
        }
      ],
      "stateMutability": "nonpayable",
      "type": "function"
    },
    {
      "inputs": [
        {
          "internalType": "address",
          "name": "batchNo",
          "type": "address"
        },
        {
          "internalType": "string",
          "name": "_vaccineName",
          "type": "string"
        },
        {
          "internalType": "uint256",
          "name": "_quantity",
          "type": "uint256"
        },
        {
          "internalType": "uint256",
          "name": "_storageDate",
          "type": "uint256"
        },
        {
          "internalType": "string",
          "name": "_optimumRangeTemp",
          "type": "string"
        },
        {
          "internalType": "string",
          "name": "_optimumRangeHum",
          "type": "string"
        },
        {
          "internalType": "bool",
          "name": "_isViolation",
          "type": "bool"
        }
      ],
      "name": "setWarehouser",
      "outputs": [
        {
          "internalType": "bool",
          "name": "",
          "type": "bool"
        }
      ],
      "stateMutability": "nonpayable",
      "type": "function"
    },
    {
      "inputs": [
        {
          "internalType": "address",
          "name": "batchNo",
          "type": "address"
        }
      ],
      "name": "getWarehouserData",
      "outputs": [
        {
          "internalType": "string",
          "name": "vaccineName",
          "type": "string"
        },
        {
          "internalType": "uint256",
          "name": "quantity",
          "type": "uint256"
        },
        {
          "internalType": "uint256",
          "name": "storageDate",
          "type": "uint256"
        },
        {
          "internalType": "string",
          "name": "optimumRangeTemp",
          "type": "string"
        },
        {
          "internalType": "string",
          "name": "optimumRangeHum",
          "type": "string"
        },
        {
          "internalType": "bool",
          "name": "isViolation",
          "type": "bool"
        }
      ],
      "stateMutability": "view",
      "type": "function",
      "constant": true
    },
    {
      "inputs": [
        {
          "internalType": "address",
          "name": "batchNo",
          "type": "address"
        },
        {
          "internalType": "string",
          "name": "_destinationAddress",
          "type": "string"
        },
        {
          "internalType": "string",
          "name": "_shippingName",
          "type": "string"
        },
        {
          "internalType": "uint256",
          "name": "_quantity",
          "type": "uint256"
        },
        {
          "internalType": "uint256",
          "name": "_departureDateTime",
          "type": "uint256"
        },
        {
          "internalType": "uint256",
          "name": "_estimateDateTime",
          "type": "uint256"
        },
        {
          "internalType": "string",
          "name": "_optimumRangeTemp",
          "type": "string"
        },
        {
          "internalType": "string",
          "name": "_optimumRangeHum",
          "type": "string"
        }
      ],
      "name": "setDistributor",
      "outputs": [
        {
          "internalType": "bool",
          "name": "",
          "type": "bool"
        }
      ],
      "stateMutability": "nonpayable",
      "type": "function"
    },
    {
      "inputs": [
        {
          "internalType": "address",
          "name": "batchNo",
          "type": "address"
        }
      ],
      "name": "getDistributorData",
      "outputs": [
        {
          "internalType": "string",
          "name": "destinationAddress",
          "type": "string"
        },
        {
          "internalType": "string",
          "name": "shippingName",
          "type": "string"
        },
        {
          "internalType": "uint256",
          "name": "quantity",
          "type": "uint256"
        },
        {
          "internalType": "uint256",
          "name": "departureDateTime",
          "type": "uint256"
        },
        {
          "internalType": "uint256",
          "name": "estimateDateTime",
          "type": "uint256"
        },
        {
          "internalType": "string",
          "name": "optimumRangeTemp",
          "type": "string"
        },
        {
          "internalType": "string",
          "name": "optimumRangeHum",
          "type": "string"
        }
      ],
      "stateMutability": "view",
      "type": "function",
      "constant": true
    },
    {
      "inputs": [
        {
          "internalType": "address",
          "name": "batchNo",
          "type": "address"
        },
        {
          "internalType": "uint256",
          "name": "_quantity",
          "type": "uint256"
        },
        {
          "internalType": "uint256",
          "name": "_arrivalDateTime",
          "type": "uint256"
        },
        {
          "internalType": "uint256",
          "name": "_vaccinationStationId",
          "type": "uint256"
        },
        {
          "internalType": "string",
          "name": "_shippingName",
          "type": "string"
        },
        {
          "internalType": "string",
          "name": "_shippingNo",
          "type": "string"
        },
        {
          "internalType": "string",
          "name": "_locationAddress",
          "type": "string"
        }
      ],
      "name": "setVaccinationStation",
      "outputs": [
        {
          "internalType": "bool",
          "name": "",
          "type": "bool"
        }
      ],
      "stateMutability": "nonpayable",
      "type": "function"
    },
    {
      "inputs": [
        {
          "internalType": "address",
          "name": "batchNo",
          "type": "address"
        }
      ],
      "name": "getVaccinationStationData",
      "outputs": [
        {
          "internalType": "uint256",
          "name": "quantity",
          "type": "uint256"
        },
        {
          "internalType": "uint256",
          "name": "arrivalDateTime",
          "type": "uint256"
        },
        {
          "internalType": "uint256",
          "name": "vaccinationStationId",
          "type": "uint256"
        },
        {
          "internalType": "string",
          "name": "shippingName",
          "type": "string"
        },
        {
          "internalType": "string",
          "name": "shippingNo",
          "type": "string"
        },
        {
          "internalType": "string",
          "name": "locationAddress",
          "type": "string"
        }
      ],
      "stateMutability": "view",
      "type": "function",
      "constant": true
    },
    {
      "inputs": [
        {
          "internalType": "address",
          "name": "batchNo",
          "type": "address"
        },
        {
          "internalType": "string",
          "name": "_personName",
          "type": "string"
        },
        {
          "internalType": "uint256",
          "name": "_age",
          "type": "uint256"
        },
        {
          "internalType": "uint256",
          "name": "_identityCard",
          "type": "uint256"
        },
        {
          "internalType": "uint256",
          "name": "_numberOfVaccinations",
          "type": "uint256"
        },
        {
          "internalType": "uint256",
          "name": "_vaccinationDate",
          "type": "uint256"
        },
        {
          "internalType": "string",
          "name": "_typeOfVaccine",
          "type": "string"
        },
        {
          "internalType": "string",
          "name": "_phoneNumber",
          "type": "string"
        }
      ],
      "name": "setObjectInjection",
      "outputs": [
        {
          "internalType": "bool",
          "name": "",
          "type": "bool"
        }
      ],
      "stateMutability": "nonpayable",
      "type": "function"
    },
    {
      "inputs": [
        {
          "internalType": "address",
          "name": "batchNo",
          "type": "address"
        }
      ],
      "name": "getVaccinationPersonData",
      "outputs": [
        {
          "internalType": "string",
          "name": "personName",
          "type": "string"
        },
        {
          "internalType": "uint256",
          "name": "age",
          "type": "uint256"
        },
        {
          "internalType": "uint256",
          "name": "identityCard",
          "type": "uint256"
        },
        {
          "internalType": "uint256",
          "name": "numberOfVaccinations",
          "type": "uint256"
        },
        {
          "internalType": "uint256",
          "name": "vaccinationDate",
          "type": "uint256"
        },
        {
          "internalType": "string",
          "name": "typeOfVaccine",
          "type": "string"
        },
        {
          "internalType": "string",
          "name": "phoneNumber",
          "type": "string"
        }
      ],
      "stateMutability": "view",
      "type": "function",
      "constant": true
    }
  ],
  "bytecode": "0x608060405234801561001057600080fd5b50336000806101000a81548173ffffffffffffffffffffffffffffffffffffffff021916908373ffffffffffffffffffffffffffffffffffffffff1602179055506001600260003373ffffffffffffffffffffffffffffffffffffffff1673ffffffffffffffffffffffffffffffffffffffff16815260200190815260200160002060006101000a81548160ff021916908360ff160217905550613875806100b96000396000f3fe608060405234801561001057600080fd5b506004361061012c5760003560e01c8063715018a6116100ad578063b439d23811610071578063b439d238146103cb578063de29e421146103fb578063f2997d7614610431578063f2fde38b14610464578063fb7a20af146104805761012c565b8063715018a61461030e5780637971ea42146103185780638da5cb5b1461034d5780638e71b2251461036b5780639b98dace1461039b5761012c565b806327820851116100f4578063278208511461022c5780632c388d5d1461025c5780633480898b1461028c5780634d6b5e00146102aa5780636f77926b146102da5761012c565b8063161d5c1b146101315780631bcd250a146101675780631c99eafa146101975780631faa332b146101c757806323d1cc8a146101f7575b600080fd5b61014b60048036038101906101469190612c00565b6104b0565b60405161015e9796959493929190613388565b60405180910390f35b610181600480360381019061017c9190612c00565b6107c8565b60405161018e91906132dc565b60405180910390f35b6101b160048036038101906101ac9190613050565b6108bc565b6040516101be91906132dc565b60405180910390f35b6101e160048036038101906101dc9190612f46565b610b21565b6040516101ee91906132dc565b60405180910390f35b610211600480360381019061020c9190612c00565b610d9b565b6040516102239695949392919061346d565b60405180910390f35b61024660048036038101906102419190612c00565b61109d565b60405161025391906132f7565b60405180910390f35b61027660048036038101906102719190612c00565b61116e565b60405161028391906132dc565b60405180910390f35b610294611262565b6040516102a191906132c1565b60405180910390f35b6102c460048036038101906102bf9190612c00565b611288565b6040516102d191906132f7565b60405180910390f35b6102f460048036038101906102ef9190612c00565b611359565b604051610305959493929190613319565b60405180910390f35b610316611674565b005b610332600480360381019061032d9190612c00565b611772565b60405161034496959493929190613567565b60405180910390f35b6103556119d2565b60405161036291906132c1565b60405180910390f35b61038560048036038101906103809190612e50565b6119f6565b60405161039291906132dc565b60405180910390f35b6103b560048036038101906103b09190613146565b611cb1565b6040516103c291906132c1565b60405180910390f35b6103e560048036038101906103e09190612d2a565b611f1b565b6040516103f291906132dc565b60405180910390f35b61041560048036038101906104109190612c00565b6121e8565b60405161042897969594939291906134e3565b60405180910390f35b61044b60048036038101906104469190612c00565b61245c565b60405161045b9493929190613413565b60405180910390f35b61047e60048036038101906104799190612c00565b612695565b005b61049a60048036038101906104959190612c2d565b6127e4565b6040516104a791906132dc565b60405180910390f35b60608060008060006060806000600760008a73ffffffffffffffffffffffffffffffffffffffff1673ffffffffffffffffffffffffffffffffffffffff16815260200190815260200160002060405180610100016040529081600082018054610518906136d9565b80601f0160208091040260200160405190810160405280929190818152602001828054610544906136d9565b80156105915780601f1061056657610100808354040283529160200191610591565b820191906000526020600020905b81548152906001019060200180831161057457829003601f168201915b505050505081526020016001820180546105aa906136d9565b80601f01602080910402602001604051908101604052809291908181526020018280546105d6906136d9565b80156106235780601f106105f857610100808354040283529160200191610623565b820191906000526020600020905b81548152906001019060200180831161060657829003601f168201915b5050505050815260200160028201548152602001600382015481526020016004820154815260200160058201805461065a906136d9565b80601f0160208091040260200160405190810160405280929190818152602001828054610686906136d9565b80156106d35780601f106106a8576101008083540402835291602001916106d3565b820191906000526020600020905b8154815290600101906020018083116106b657829003601f168201915b505050505081526020016006820180546106ec906136d9565b80601f0160208091040260200160405190810160405280929190818152602001828054610718906136d9565b80156107655780601f1061073a57610100808354040283529160200191610765565b820191906000526020600020905b81548152906001019060200180831161074857829003601f168201915b505050505081526020016007820160009054906101000a900460ff1615151515815250509050806000015181602001518260400151836060015184608001518560a001518660c00151975097509750975097509750975050919395979092949650565b60008060009054906101000a900473ffffffffffffffffffffffffffffffffffffffff1673ffffffffffffffffffffffffffffffffffffffff163373ffffffffffffffffffffffffffffffffffffffff161461082357600080fd5b6000600260008473ffffffffffffffffffffffffffffffffffffffff1673ffffffffffffffffffffffffffffffffffffffff16815260200190815260200160002060006101000a81548160ff021916908360ff1602179055507f9e8ca6ff03906e81e8a6a03d4f96b7edb0b97f0ed9d07ef1b699fff634385496826040516108ab91906132c1565b60405180910390a160019050919050565b600033600160006101000a81548173ffffffffffffffffffffffffffffffffffffffff021916908373ffffffffffffffffffffffffffffffffffffffff1602179055506001600260003373ffffffffffffffffffffffffffffffffffffffff1673ffffffffffffffffffffffffffffffffffffffff16815260200190815260200160002060009054906101000a900460ff1660ff161461095b57600080fd5b8660226000018190555085602260010181905550846022600201819055508360226003019080519060200190610992929190612a21565b5082602260040190805190602001906109ac929190612a21565b5081602260050190805190602001906109c6929190612a21565b506022600860008a73ffffffffffffffffffffffffffffffffffffffff1673ffffffffffffffffffffffffffffffffffffffff1681526020019081526020016000206000820154816000015560018201548160010155600282015481600201556003820181600301908054610a3a906136d9565b610a45929190612aa7565b506004820181600401908054610a5a906136d9565b610a65929190612aa7565b506005820181600501908054610a7a906136d9565b610a85929190612aa7565b509050506040518060400160405280601081526020017f4f424a4543545f494e4a454354494f4e00000000000000000000000000000000815250600a60008a73ffffffffffffffffffffffffffffffffffffffff1673ffffffffffffffffffffffffffffffffffffffff1681526020019081526020016000209080519060200190610b11929190612a21565b5060019050979650505050505050565b600033600160006101000a81548173ffffffffffffffffffffffffffffffffffffffff021916908373ffffffffffffffffffffffffffffffffffffffff1602179055506001600260003373ffffffffffffffffffffffffffffffffffffffff1673ffffffffffffffffffffffffffffffffffffffff16815260200190815260200160002060009054906101000a900460ff1660ff1614610bc057600080fd5b8760286000019080519060200190610bd9929190612a21565b50866028600101819055508560286002018190555084602860030181905550836028600401819055508260286005019080519060200190610c1b929190612a21565b508160286006019080519060200190610c35929190612a21565b506028600960008b73ffffffffffffffffffffffffffffffffffffffff1673ffffffffffffffffffffffffffffffffffffffff1681526020019081526020016000206000820181600001908054610c8b906136d9565b610c96929190612aa7565b50600182015481600101556002820154816002015560038201548160030155600482015481600401556005820181600501908054610cd3906136d9565b610cde929190612aa7565b506006820181600601908054610cf3906136d9565b610cfe929190612aa7565b509050506040518060400160405280600481526020017f444f4e4500000000000000000000000000000000000000000000000000000000815250600a60008b73ffffffffffffffffffffffffffffffffffffffff1673ffffffffffffffffffffffffffffffffffffffff1681526020019081526020016000209080519060200190610d8a929190612a21565b506001905098975050505050505050565b6060600080606080600080600660008973ffffffffffffffffffffffffffffffffffffffff1673ffffffffffffffffffffffffffffffffffffffff1681526020019081526020016000206040518060e0016040529081600082018054610e00906136d9565b80601f0160208091040260200160405190810160405280929190818152602001828054610e2c906136d9565b8015610e795780601f10610e4e57610100808354040283529160200191610e79565b820191906000526020600020905b815481529060010190602001808311610e5c57829003601f168201915b505050505081526020016001820154815260200160028201548152602001600382018054610ea6906136d9565b80601f0160208091040260200160405190810160405280929190818152602001828054610ed2906136d9565b8015610f1f5780601f10610ef457610100808354040283529160200191610f1f565b820191906000526020600020905b815481529060010190602001808311610f0257829003601f168201915b50505050508152602001600482018054610f38906136d9565b80601f0160208091040260200160405190810160405280929190818152602001828054610f64906136d9565b8015610fb15780601f10610f8657610100808354040283529160200191610fb1565b820191906000526020600020905b815481529060010190602001808311610f9457829003601f168201915b505050505081526020016005820160009054906101000a900460ff16151515158152602001600682018054610fe5906136d9565b80601f0160208091040260200160405190810160405280929190818152602001828054611011906136d9565b801561105e5780601f106110335761010080835404028352916020019161105e565b820191906000526020600020905b81548152906001019060200180831161104157829003601f168201915b5050505050815250509050806000015181602001518260400151836060015184608001518560a001519650965096509650965096505091939550919395565b6060600460008373ffffffffffffffffffffffffffffffffffffffff1673ffffffffffffffffffffffffffffffffffffffff16815260200190815260200160002080546110e9906136d9565b80601f0160208091040260200160405190810160405280929190818152602001828054611115906136d9565b80156111625780601f1061113757610100808354040283529160200191611162565b820191906000526020600020905b81548152906001019060200180831161114557829003601f168201915b50505050509050919050565b60008060009054906101000a900473ffffffffffffffffffffffffffffffffffffffff1673ffffffffffffffffffffffffffffffffffffffff163373ffffffffffffffffffffffffffffffffffffffff16146111c957600080fd5b6001600260008473ffffffffffffffffffffffffffffffffffffffff1673ffffffffffffffffffffffffffffffffffffffff16815260200190815260200160002060006101000a81548160ff021916908360ff1602179055507f8afeca650897be3183b7c0d24eba96a1b990f75c4bd74a0cfb2c0a71aec48e618260405161125191906132c1565b60405180910390a160019050919050565b600160009054906101000a900473ffffffffffffffffffffffffffffffffffffffff1681565b6060600a60008373ffffffffffffffffffffffffffffffffffffffff1673ffffffffffffffffffffffffffffffffffffffff16815260200190815260200160002080546112d4906136d9565b80601f0160208091040260200160405190810160405280929190818152602001828054611300906136d9565b801561134d5780601f106113225761010080835404028352916020019161134d565b820191906000526020600020905b81548152906001019060200180831161133057829003601f168201915b50505050509050919050565b6060806060600060606000600360008873ffffffffffffffffffffffffffffffffffffffff1673ffffffffffffffffffffffffffffffffffffffff1681526020019081526020016000206040518060800160405290816000820180546113be906136d9565b80601f01602080910402602001604051908101604052809291908181526020018280546113ea906136d9565b80156114375780601f1061140c57610100808354040283529160200191611437565b820191906000526020600020905b81548152906001019060200180831161141a57829003601f168201915b50505050508152602001600182018054611450906136d9565b80601f016020809104026020016040519081016040528092919081815260200182805461147c906136d9565b80156114c95780601f1061149e576101008083540402835291602001916114c9565b820191906000526020600020905b8154815290600101906020018083116114ac57829003601f168201915b505050505081526020016002820160009054906101000a900460ff161515151581526020016003820180546114fd906136d9565b80601f0160208091040260200160405190810160405280929190818152602001828054611529906136d9565b80156115765780601f1061154b57610100808354040283529160200191611576565b820191906000526020600020905b81548152906001019060200180831161155957829003601f168201915b505050505081525050905080600001518160200151600460008a73ffffffffffffffffffffffffffffffffffffffff1673ffffffffffffffffffffffffffffffffffffffff168152602001908152602001600020836040015184606001518280546115e0906136d9565b80601f016020809104026020016040519081016040528092919081815260200182805461160c906136d9565b80156116595780601f1061162e57610100808354040283529160200191611659565b820191906000526020600020905b81548152906001019060200180831161163c57829003601f168201915b50505050509250955095509550955095505091939590929450565b60008054906101000a900473ffffffffffffffffffffffffffffffffffffffff1673ffffffffffffffffffffffffffffffffffffffff163373ffffffffffffffffffffffffffffffffffffffff16146116cc57600080fd5b60008054906101000a900473ffffffffffffffffffffffffffffffffffffffff1673ffffffffffffffffffffffffffffffffffffffff167ff8df31144d9c2f0f6b59d69b8b98abd5459d07f2742c4df920b25aae33c6482060405160405180910390a260008060006101000a81548173ffffffffffffffffffffffffffffffffffffffff021916908373ffffffffffffffffffffffffffffffffffffffff160217905550565b600080600060608060606000600860008973ffffffffffffffffffffffffffffffffffffffff1673ffffffffffffffffffffffffffffffffffffffff1681526020019081526020016000206040518060c00160405290816000820154815260200160018201548152602001600282015481526020016003820180546117f6906136d9565b80601f0160208091040260200160405190810160405280929190818152602001828054611822906136d9565b801561186f5780601f106118445761010080835404028352916020019161186f565b820191906000526020600020905b81548152906001019060200180831161185257829003601f168201915b50505050508152602001600482018054611888906136d9565b80601f01602080910402602001604051908101604052809291908181526020018280546118b4906136d9565b80156119015780601f106118d657610100808354040283529160200191611901565b820191906000526020600020905b8154815290600101906020018083116118e457829003601f168201915b5050505050815260200160058201805461191a906136d9565b80601f0160208091040260200160405190810160405280929190818152602001828054611946906136d9565b80156119935780601f1061196857610100808354040283529160200191611993565b820191906000526020600020905b81548152906001019060200180831161197657829003601f168201915b5050505050815250509050806000015181602001518260400151836060015184608001518560a001519650965096509650965096505091939550919395565b60008054906101000a900473ffffffffffffffffffffffffffffffffffffffff1681565b600033600160006101000a81548173ffffffffffffffffffffffffffffffffffffffff021916908373ffffffffffffffffffffffffffffffffffffffff1602179055506001600260003373ffffffffffffffffffffffffffffffffffffffff1673ffffffffffffffffffffffffffffffffffffffff16815260200190815260200160002060009054906101000a900460ff1660ff1614611a9557600080fd5b8660136000019080519060200190611aae929190612a21565b5085601360010181905550846013600201819055508360136003019080519060200190611adc929190612a21565b508260136004019080519060200190611af6929190612a21565b5081601360050160006101000a81548160ff0219169083151502179055506013600660008a73ffffffffffffffffffffffffffffffffffffffff1673ffffffffffffffffffffffffffffffffffffffff1681526020019081526020016000206000820181600001908054611b69906136d9565b611b74929190612aa7565b5060018201548160010155600282015481600201556003820181600301908054611b9d906136d9565b611ba8929190612aa7565b506004820181600401908054611bbd906136d9565b611bc8929190612aa7565b506005820160009054906101000a900460ff168160050160006101000a81548160ff0219169083151502179055506006820181600601908054611c0a906136d9565b611c15929190612aa7565b509050506040518060400160405280600b81526020017f4449535452494255544f52000000000000000000000000000000000000000000815250600a60008a73ffffffffffffffffffffffffffffffffffffffff1673ffffffffffffffffffffffffffffffffffffffff1681526020019081526020016000209080519060200190611ca1929190612a21565b5060019050979650505050505050565b600033600160006101000a81548173ffffffffffffffffffffffffffffffffffffffff021916908373ffffffffffffffffffffffffffffffffffffffff1602179055506001600260003373ffffffffffffffffffffffffffffffffffffffff1673ffffffffffffffffffffffffffffffffffffffff16815260200190815260200160002060009054906101000a900460ff1660ff1614611d5057600080fd5b60003342604051602001611d65929190613295565b6040516020818303038152906040528051906020012060001c905085600f6000019080519060200190611d99929190612a21565b5084600f6001018190555083600f6002019080519060200190611dbd929190612a21565b5082600f6003019080519060200190611dd7929190612a21565b50600f600560008373ffffffffffffffffffffffffffffffffffffffff1673ffffffffffffffffffffffffffffffffffffffff1681526020019081526020016000206000820181600001908054611e2d906136d9565b611e38929190612aa7565b50600182015481600101556002820181600201908054611e57906136d9565b611e62929190612aa7565b506003820181600301908054611e77906136d9565b611e82929190612aa7565b509050506040518060400160405280600a81526020017f57415245484f5553455200000000000000000000000000000000000000000000815250600a60008373ffffffffffffffffffffffffffffffffffffffff1673ffffffffffffffffffffffffffffffffffffffff1681526020019081526020016000209080519060200190611f0e929190612a21565b5080915050949350505050565b600033600160006101000a81548173ffffffffffffffffffffffffffffffffffffffff021916908373ffffffffffffffffffffffffffffffffffffffff1602179055506001600260003373ffffffffffffffffffffffffffffffffffffffff1673ffffffffffffffffffffffffffffffffffffffff16815260200190815260200160002060009054906101000a900460ff1660ff1614611fba57600080fd5b87601a6000019080519060200190611fd3929190612a21565b5086601a6001019080519060200190611fed929190612a21565b5085601a6002018190555084601a6003018190555083601a6004018190555082601a6005019080519060200190612025929190612a21565b5081601a600601908051906020019061203f929190612a21565b50601a600760008b73ffffffffffffffffffffffffffffffffffffffff1673ffffffffffffffffffffffffffffffffffffffff1681526020019081526020016000206000820181600001908054612095906136d9565b6120a0929190612aa7565b5060018201816001019080546120b5906136d9565b6120c0929190612aa7565b5060028201548160020155600382015481600301556004820154816004015560058201816005019080546120f3906136d9565b6120fe929190612aa7565b506006820181600601908054612113906136d9565b61211e929190612aa7565b506007820160009054906101000a900460ff168160070160006101000a81548160ff0219169083151502179055509050506040518060400160405280601381526020017f56414343494e4154494f4e5f53544154494f4e00000000000000000000000000815250600a60008b73ffffffffffffffffffffffffffffffffffffffff1673ffffffffffffffffffffffffffffffffffffffff16815260200190815260200160002090805190602001906121d7929190612a21565b506001905098975050505050505050565b60606000806000806060806000600960008a73ffffffffffffffffffffffffffffffffffffffff1673ffffffffffffffffffffffffffffffffffffffff1681526020019081526020016000206040518060e001604052908160008201805461224f906136d9565b80601f016020809104026020016040519081016040528092919081815260200182805461227b906136d9565b80156122c85780601f1061229d576101008083540402835291602001916122c8565b820191906000526020600020905b8154815290600101906020018083116122ab57829003601f168201915b5050505050815260200160018201548152602001600282015481526020016003820154815260200160048201548152602001600582018054612309906136d9565b80601f0160208091040260200160405190810160405280929190818152602001828054612335906136d9565b80156123825780601f1061235757610100808354040283529160200191612382565b820191906000526020600020905b81548152906001019060200180831161236557829003601f168201915b5050505050815260200160068201805461239b906136d9565b80601f01602080910402602001604051908101604052809291908181526020018280546123c7906136d9565b80156124145780601f106123e957610100808354040283529160200191612414565b820191906000526020600020905b8154815290600101906020018083116123f757829003601f168201915b5050505050815250509050806000015181602001518260400151836060015184608001518560a001518660c00151975097509750975097509750975050919395979092949650565b606060006060806000600560008773ffffffffffffffffffffffffffffffffffffffff1673ffffffffffffffffffffffffffffffffffffffff1681526020019081526020016000206040518060800160405290816000820180546124bf906136d9565b80601f01602080910402602001604051908101604052809291908181526020018280546124eb906136d9565b80156125385780601f1061250d57610100808354040283529160200191612538565b820191906000526020600020905b81548152906001019060200180831161251b57829003601f168201915b505050505081526020016001820154815260200160028201805461255b906136d9565b80601f0160208091040260200160405190810160405280929190818152602001828054612587906136d9565b80156125d45780601f106125a9576101008083540402835291602001916125d4565b820191906000526020600020905b8154815290600101906020018083116125b757829003601f168201915b505050505081526020016003820180546125ed906136d9565b80601f0160208091040260200160405190810160405280929190818152602001828054612619906136d9565b80156126665780601f1061263b57610100808354040283529160200191612666565b820191906000526020600020905b81548152906001019060200180831161264957829003601f168201915b505050505081525050905080600001518160200151826040015183606001519450945094509450509193509193565b60008054906101000a900473ffffffffffffffffffffffffffffffffffffffff1673ffffffffffffffffffffffffffffffffffffffff163373ffffffffffffffffffffffffffffffffffffffff16146126ed57600080fd5b600073ffffffffffffffffffffffffffffffffffffffff168173ffffffffffffffffffffffffffffffffffffffff16141561272757600080fd5b8073ffffffffffffffffffffffffffffffffffffffff1660008054906101000a900473ffffffffffffffffffffffffffffffffffffffff1673ffffffffffffffffffffffffffffffffffffffff167f8be0079c531659141344cd1fd0a4f28419497f9722a3daafe3b4186f6b6457e060405160405180910390a3806000806101000a81548173ffffffffffffffffffffffffffffffffffffffff021916908373ffffffffffffffffffffffffffffffffffffffff16021790555050565b600033600160006101000a81548173ffffffffffffffffffffffffffffffffffffffff021916908373ffffffffffffffffffffffffffffffffffffffff1602179055506001600260003373ffffffffffffffffffffffffffffffffffffffff1673ffffffffffffffffffffffffffffffffffffffff16815260200190815260200160002060009054906101000a900460ff1660ff161461288357600080fd5b85600b600001908051906020019061289c929190612a21565b5084600b60010190805190602001906128b6929190612a21565b5082600b60020160006101000a81548160ff02191690831515021790555081600b60030190805190602001906128ed929190612a21565b50600b600360008973ffffffffffffffffffffffffffffffffffffffff1673ffffffffffffffffffffffffffffffffffffffff1681526020019081526020016000206000820181600001908054612943906136d9565b61294e929190612aa7565b506001820181600101908054612963906136d9565b61296e929190612aa7565b506002820160009054906101000a900460ff168160020160006101000a81548160ff02191690831515021790555060038201816003019080546129b0906136d9565b6129bb929190612aa7565b5090505083600460008973ffffffffffffffffffffffffffffffffffffffff1673ffffffffffffffffffffffffffffffffffffffff1681526020019081526020016000209080519060200190612a12929190612a21565b50600190509695505050505050565b828054612a2d906136d9565b90600052602060002090601f016020900481019282612a4f5760008555612a96565b82601f10612a6857805160ff1916838001178555612a96565b82800160010185558215612a96579182015b82811115612a95578251825591602001919060010190612a7a565b5b509050612aa39190612b34565b5090565b828054612ab3906136d9565b90600052602060002090601f016020900481019282612ad55760008555612b23565b82601f10612ae65780548555612b23565b82800160010185558215612b2357600052602060002091601f016020900482015b82811115612b22578254825591600101919060010190612b07565b5b509050612b309190612b34565b5090565b5b80821115612b4d576000816000905550600101612b35565b5090565b6000612b64612b5f84613602565b6135dd565b905082815260208101848484011115612b8057612b7f6137cd565b5b612b8b848285613697565b509392505050565b600081359050612ba2816137fa565b92915050565b600081359050612bb781613811565b92915050565b600082601f830112612bd257612bd16137c8565b5b8135612be2848260208601612b51565b91505092915050565b600081359050612bfa81613828565b92915050565b600060208284031215612c1657612c156137d7565b5b6000612c2484828501612b93565b91505092915050565b60008060008060008060c08789031215612c4a57612c496137d7565b5b6000612c5889828a01612b93565b965050602087013567ffffffffffffffff811115612c7957612c786137d2565b5b612c8589828a01612bbd565b955050604087013567ffffffffffffffff811115612ca657612ca56137d2565b5b612cb289828a01612bbd565b945050606087013567ffffffffffffffff811115612cd357612cd26137d2565b5b612cdf89828a01612bbd565b9350506080612cf089828a01612ba8565b92505060a087013567ffffffffffffffff811115612d1157612d106137d2565b5b612d1d89828a01612bbd565b9150509295509295509295565b600080600080600080600080610100898b031215612d4b57612d4a6137d7565b5b6000612d598b828c01612b93565b985050602089013567ffffffffffffffff811115612d7a57612d796137d2565b5b612d868b828c01612bbd565b975050604089013567ffffffffffffffff811115612da757612da66137d2565b5b612db38b828c01612bbd565b9650506060612dc48b828c01612beb565b9550506080612dd58b828c01612beb565b94505060a0612de68b828c01612beb565b93505060c089013567ffffffffffffffff811115612e0757612e066137d2565b5b612e138b828c01612bbd565b92505060e089013567ffffffffffffffff811115612e3457612e336137d2565b5b612e408b828c01612bbd565b9150509295985092959890939650565b600080600080600080600060e0888a031215612e6f57612e6e6137d7565b5b6000612e7d8a828b01612b93565b975050602088013567ffffffffffffffff811115612e9e57612e9d6137d2565b5b612eaa8a828b01612bbd565b9650506040612ebb8a828b01612beb565b9550506060612ecc8a828b01612beb565b945050608088013567ffffffffffffffff811115612eed57612eec6137d2565b5b612ef98a828b01612bbd565b93505060a088013567ffffffffffffffff811115612f1a57612f196137d2565b5b612f268a828b01612bbd565b92505060c0612f378a828b01612ba8565b91505092959891949750929550565b600080600080600080600080610100898b031215612f6757612f666137d7565b5b6000612f758b828c01612b93565b985050602089013567ffffffffffffffff811115612f9657612f956137d2565b5b612fa28b828c01612bbd565b9750506040612fb38b828c01612beb565b9650506060612fc48b828c01612beb565b9550506080612fd58b828c01612beb565b94505060a0612fe68b828c01612beb565b93505060c089013567ffffffffffffffff811115613007576130066137d2565b5b6130138b828c01612bbd565b92505060e089013567ffffffffffffffff811115613034576130336137d2565b5b6130408b828c01612bbd565b9150509295985092959890939650565b600080600080600080600060e0888a03121561306f5761306e6137d7565b5b600061307d8a828b01612b93565b975050602061308e8a828b01612beb565b965050604061309f8a828b01612beb565b95505060606130b08a828b01612beb565b945050608088013567ffffffffffffffff8111156130d1576130d06137d2565b5b6130dd8a828b01612bbd565b93505060a088013567ffffffffffffffff8111156130fe576130fd6137d2565b5b61310a8a828b01612bbd565b92505060c088013567ffffffffffffffff81111561312b5761312a6137d2565b5b6131378a828b01612bbd565b91505092959891949750929550565b600080600080608085870312156131605761315f6137d7565b5b600085013567ffffffffffffffff81111561317e5761317d6137d2565b5b61318a87828801612bbd565b945050602061319b87828801612beb565b935050604085013567ffffffffffffffff8111156131bc576131bb6137d2565b5b6131c887828801612bbd565b925050606085013567ffffffffffffffff8111156131e9576131e86137d2565b5b6131f587828801612bbd565b91505092959194509250565b61320a8161364f565b82525050565b61322161321c8261364f565b61373c565b82525050565b61323081613661565b82525050565b600061324182613633565b61324b818561363e565b935061325b8185602086016136a6565b613264816137dc565b840191505092915050565b6132788161368d565b82525050565b61328f61328a8261368d565b613760565b82525050565b60006132a18285613210565b6014820191506132b1828461327e565b6020820191508190509392505050565b60006020820190506132d66000830184613201565b92915050565b60006020820190506132f16000830184613227565b92915050565b600060208201905081810360008301526133118184613236565b905092915050565b600060a08201905081810360008301526133338188613236565b905081810360208301526133478187613236565b9050818103604083015261335b8186613236565b905061336a6060830185613227565b818103608083015261337c8184613236565b90509695505050505050565b600060e08201905081810360008301526133a2818a613236565b905081810360208301526133b68189613236565b90506133c5604083018861326f565b6133d2606083018761326f565b6133df608083018661326f565b81810360a08301526133f18185613236565b905081810360c08301526134058184613236565b905098975050505050505050565b6000608082019050818103600083015261342d8187613236565b905061343c602083018661326f565b818103604083015261344e8185613236565b905081810360608301526134628184613236565b905095945050505050565b600060c08201905081810360008301526134878189613236565b9050613496602083018861326f565b6134a3604083018761326f565b81810360608301526134b58186613236565b905081810360808301526134c98185613236565b90506134d860a0830184613227565b979650505050505050565b600060e08201905081810360008301526134fd818a613236565b905061350c602083018961326f565b613519604083018861326f565b613526606083018761326f565b613533608083018661326f565b81810360a08301526135458185613236565b905081810360c08301526135598184613236565b905098975050505050505050565b600060c08201905061357c600083018961326f565b613589602083018861326f565b613596604083018761326f565b81810360608301526135a88186613236565b905081810360808301526135bc8185613236565b905081810360a08301526135d08184613236565b9050979650505050505050565b60006135e76135f8565b90506135f3828261370b565b919050565b6000604051905090565b600067ffffffffffffffff82111561361d5761361c613799565b5b613626826137dc565b9050602081019050919050565b600081519050919050565b600082825260208201905092915050565b600061365a8261366d565b9050919050565b60008115159050919050565b600073ffffffffffffffffffffffffffffffffffffffff82169050919050565b6000819050919050565b82818337600083830152505050565b60005b838110156136c45780820151818401526020810190506136a9565b838111156136d3576000848401525b50505050565b600060028204905060018216806136f157607f821691505b602082108114156137055761370461376a565b5b50919050565b613714826137dc565b810181811067ffffffffffffffff8211171561373357613732613799565b5b80604052505050565b60006137478261374e565b9050919050565b6000613759826137ed565b9050919050565b6000819050919050565b7f4e487b7100000000000000000000000000000000000000000000000000000000600052602260045260246000fd5b7f4e487b7100000000000000000000000000000000000000000000000000000000600052604160045260246000fd5b600080fd5b600080fd5b600080fd5b600080fd5b6000601f19601f8301169050919050565b60008160601b9050919050565b6138038161364f565b811461380e57600080fd5b50565b61381a81613661565b811461382557600080fd5b50565b6138318161368d565b811461383c57600080fd5b5056fea264697066735822122031cde65154f5af9206ab64541ad22142ca61fd57489253afd24b267ac92fc5d164736f6c63430008070033",
  "immutableReferences": {},
  "source": "// SPDX-License-Identifier: MIT\r\npragma solidity ^0.8.7;\r\n\r\nimport \"./Ownable.sol\";\r\n\r\ncontract VaccineSystemStorage is Ownable {\r\n    address public lastAccess;\r\n\r\n    constructor() {\r\n        authorizedCaller[msg.sender] = 1;\r\n    }\r\n\r\n    /* Declare Events */\r\n    event AuthorizedCaller(address caller);\r\n    event DeAuthorizedCaller(address caller);\r\n\r\n    /* Declare Modifiers */\r\n    modifier onlyAuthCaller() {\r\n        lastAccess = msg.sender;\r\n        require(authorizedCaller[msg.sender] == 1);\r\n        _;\r\n    }\r\n\r\n    /* Caller Mapping */\r\n    mapping(address => uint8) authorizedCaller;\r\n\r\n    /* User Interface */\r\n    struct user {\r\n        string name;\r\n        string contactNo;\r\n        bool isActive;\r\n        string profileHash;\r\n    }\r\n\r\n    mapping(address => user) userDetails;\r\n    mapping(address => string) userRole;\r\n\r\n    /* Authorized Caller */\r\n    function authorizeCaller(address _caller) public onlyOwner returns (bool) {\r\n        authorizedCaller[_caller] = 1;\r\n        emit AuthorizedCaller(_caller);\r\n        return true;\r\n    }\r\n\r\n    /* De-Authorized Caller */\r\n    function deAuthorizeCaller(address _caller)\r\n        public\r\n        onlyOwner\r\n        returns (bool)\r\n    {\r\n        authorizedCaller[_caller] = 0;\r\n        emit DeAuthorizedCaller(_caller);\r\n        return true;\r\n    }\r\n\r\n    struct basicDetails {\r\n        string producerName;\r\n        uint256 quantity;\r\n        string optimumRangeTemp;\r\n        string optimumRangeHum;\r\n    }\r\n\r\n    struct warehouser {\r\n        string vaccineName;\r\n        uint256 quantity;\r\n        uint256 storageDate;\r\n        string optimumRangeTemp;\r\n        string optimumRangeHum;\r\n        bool isViolation;\r\n        string locationAddress;\r\n    }\r\n\r\n    struct distributor {\r\n        string destinationAddress;\r\n        string shippingName;\r\n        uint256 quantity;\r\n        uint256 departureDateTime;\r\n        uint256 estimateDateTime;\r\n        string optimumRangeTemp;\r\n        string optimumRangeHum;\r\n        bool isViolation;\r\n    }\r\n\r\n    struct vaccinationStation {\r\n        uint256 quantity;\r\n        uint256 arrivalDateTime;\r\n        uint256 vaccinationStationId;\r\n        string shippingName;\r\n        string shippingNo;\r\n        string locationAddress;\r\n    }\r\n\r\n    struct vaccinatedPerson {\r\n        string personName;\r\n        uint256 age;\r\n        uint256 identityCard;\r\n        uint256 numberOfVaccinations;\r\n        uint256 vaccinationDate;\r\n        string typeOfVaccine;\r\n        string phoneNumber;\r\n    }\r\n\r\n    mapping(address => basicDetails) batchBasicDetails;\r\n    mapping(address => warehouser) batchWarehouser;\r\n    mapping(address => distributor) batchDistributor;\r\n    mapping(address => vaccinationStation) batchVaccinationStation;\r\n    mapping(address => vaccinatedPerson) batchVaccinatedPerson;\r\n    mapping(address => string) nextAction;\r\n\r\n    /* Init Struct Pointer */\r\n    user userDetail;\r\n    basicDetails basicDetailsData;\r\n    warehouser warehouserData;\r\n    distributor distributorData;\r\n    vaccinationStation vaccinationStationData;\r\n    vaccinatedPerson vaccinatedPersonData;\r\n\r\n    /* Get User Role */\r\n    function getUserRole(address _userAddress)\r\n        public\r\n        view\r\n        returns (string memory)\r\n    {\r\n        return userRole[_userAddress];\r\n    }\r\n\r\n    /* Get Next Action */\r\n    function getNextAction(address _batchNo)\r\n        public\r\n        view\r\n        returns (string memory)\r\n    {\r\n        return nextAction[_batchNo];\r\n    }\r\n\r\n    /* Set User Detail */\r\n    function setUser(\r\n        address _userAddress,\r\n        string memory _name,\r\n        string memory _contactNo,\r\n        string memory _role,\r\n        bool _isActive,\r\n        string memory _profileHash\r\n    ) public onlyAuthCaller returns (bool) {\r\n        /* Store Data User Into Struct - User */\r\n        userDetail.name = _name;\r\n        userDetail.contactNo = _contactNo;\r\n        userDetail.isActive = _isActive;\r\n        userDetail.profileHash = _profileHash;\r\n\r\n        /* Store Data User Into Mapping - User */\r\n        userDetails[_userAddress] = userDetail;\r\n        userRole[_userAddress] = _role;\r\n\r\n        return true;\r\n    }\r\n\r\n    /* Get User details */\r\n    function getUser(address _userAddress)\r\n        public\r\n        view\r\n        returns (\r\n            string memory name,\r\n            string memory contactNo,\r\n            string memory role,\r\n            bool isActive,\r\n            string memory profileHash\r\n        )\r\n    {\r\n        /* Get User Value From Struct */\r\n        user memory tmpData = userDetails[_userAddress];\r\n\r\n        return (\r\n            tmpData.name,\r\n            tmpData.contactNo,\r\n            userRole[_userAddress],\r\n            tmpData.isActive,\r\n            tmpData.profileHash\r\n        );\r\n    }\r\n\r\n    /* Get Batch Basic Details */\r\n    function getBasicDetails(address _batchNo)\r\n        public\r\n        view\r\n        returns (\r\n            string memory producerName,\r\n            uint256 quantity,\r\n            string memory optimumRangeTemp,\r\n            string memory optimumRangeHum\r\n        )\r\n    {\r\n        basicDetails memory tmpData = batchBasicDetails[_batchNo];\r\n\r\n        return (\r\n            tmpData.producerName,\r\n            tmpData.quantity,\r\n            tmpData.optimumRangeTemp,\r\n            tmpData.optimumRangeHum\r\n        );\r\n    }\r\n\r\n    /* Set Batch Basic Detail */\r\n    function setBasicDetails(\r\n        string memory _producerName,\r\n        uint256 _quantity,\r\n        string memory _optimumRangeTemp,\r\n        string memory _optimumRangeHum\r\n    ) public onlyAuthCaller returns (address) {\r\n        address batchNo = address(\r\n            uint160(\r\n                uint256(\r\n                    keccak256(abi.encodePacked(msg.sender, block.timestamp))\r\n                )\r\n            )\r\n        );\r\n\r\n        basicDetailsData.producerName = _producerName;\r\n        basicDetailsData.quantity = _quantity;\r\n        basicDetailsData.optimumRangeTemp = _optimumRangeTemp;\r\n        basicDetailsData.optimumRangeHum = _optimumRangeHum;\r\n\r\n        batchBasicDetails[batchNo] = basicDetailsData;\r\n\r\n        nextAction[batchNo] = \"WAREHOUSER\";\r\n        return batchNo;\r\n    }\r\n\r\n    /* Set Warehouser */\r\n    function setWarehouser(\r\n        address batchNo,\r\n        string memory _vaccineName,\r\n        uint256 _quantity,\r\n        uint256 _storageDate,\r\n        string memory _optimumRangeTemp,\r\n        string memory _optimumRangeHum,\r\n        bool _isViolation\r\n    ) public onlyAuthCaller returns (bool) {\r\n        warehouserData.vaccineName = _vaccineName;\r\n        warehouserData.quantity = _quantity;\r\n        warehouserData.storageDate = _storageDate;\r\n        warehouserData.optimumRangeTemp = _optimumRangeTemp;\r\n        warehouserData.optimumRangeHum = _optimumRangeHum;\r\n        warehouserData.isViolation = _isViolation;\r\n\r\n        batchWarehouser[batchNo] = warehouserData;\r\n\r\n        nextAction[batchNo] = \"DISTRIBUTOR\";\r\n\r\n        return true;\r\n    }\r\n\r\n    /* Get Warehouser */\r\n    function getWarehouserData(address batchNo)\r\n        public\r\n        view\r\n        returns (\r\n            string memory vaccineName,\r\n            uint256 quantity,\r\n            uint256 storageDate,\r\n            string memory optimumRangeTemp,\r\n            string memory optimumRangeHum,\r\n            bool isViolation\r\n        )\r\n    {\r\n        warehouser memory tmpData = batchWarehouser[batchNo];\r\n\r\n        return (\r\n            tmpData.vaccineName,\r\n            tmpData.quantity,\r\n            tmpData.storageDate,\r\n            tmpData.optimumRangeTemp,\r\n            tmpData.optimumRangeHum,\r\n            tmpData.isViolation\r\n        );\r\n    }\r\n\r\n    /* Set Distributor */\r\n    function setDistributor(\r\n        address batchNo,\r\n        string memory _destinationAddress,\r\n        string memory _shippingName,\r\n        uint256 _quantity,\r\n        uint256 _departureDateTime,\r\n        uint256 _estimateDateTime,\r\n        string memory _optimumRangeTemp,\r\n        string memory _optimumRangeHum\r\n    ) public onlyAuthCaller returns (bool) {\r\n        distributorData.destinationAddress = _destinationAddress;\r\n        distributorData.shippingName = _shippingName;\r\n        distributorData.quantity = _quantity;\r\n        distributorData.departureDateTime = _departureDateTime;\r\n        distributorData.estimateDateTime = _estimateDateTime;\r\n        distributorData.optimumRangeTemp = _optimumRangeTemp;\r\n        distributorData.optimumRangeHum = _optimumRangeHum;\r\n        batchDistributor[batchNo] = distributorData;\r\n\r\n        nextAction[batchNo] = \"VACCINATION_STATION\";\r\n\r\n        return true;\r\n    }\r\n\r\n    /* Get Distributor Data */\r\n    function getDistributorData(address batchNo)\r\n        public\r\n        view\r\n        returns (\r\n            string memory destinationAddress,\r\n            string memory shippingName,\r\n            uint256 quantity,\r\n            uint256 departureDateTime,\r\n            uint256 estimateDateTime,\r\n            string memory optimumRangeTemp,\r\n            string memory optimumRangeHum\r\n        )\r\n    {\r\n        distributor memory tmpData = batchDistributor[batchNo];\r\n\r\n        return (\r\n            tmpData.destinationAddress,\r\n            tmpData.shippingName,\r\n            tmpData.quantity,\r\n            tmpData.departureDateTime,\r\n            tmpData.estimateDateTime,\r\n            tmpData.optimumRangeTemp,\r\n            tmpData.optimumRangeHum\r\n        );\r\n    }\r\n\r\n    /* Set Vaccination Station */\r\n    function setVaccinationStation(\r\n        address batchNo,\r\n        uint256 _quantity,\r\n        uint256 _arrivalDateTime,\r\n        uint256 _vaccinationStationId,\r\n        string memory _shippingName,\r\n        string memory _shippingNo,\r\n        string memory _locationAddress\r\n    ) public onlyAuthCaller returns (bool) {\r\n        vaccinationStationData.quantity = _quantity;\r\n        vaccinationStationData.arrivalDateTime = _arrivalDateTime;\r\n        vaccinationStationData.vaccinationStationId = _vaccinationStationId;\r\n        vaccinationStationData.shippingName = _shippingName;\r\n        vaccinationStationData.shippingNo = _shippingNo;\r\n        vaccinationStationData.locationAddress = _locationAddress;\r\n\r\n        batchVaccinationStation[batchNo] = vaccinationStationData;\r\n\r\n        nextAction[batchNo] = \"OBJECT_INJECTION\";\r\n\r\n        return true;\r\n    }\r\n\r\n    /* Get Vaccination Station Data */\r\n    function getVaccinationStationData(address batchNo)\r\n        public\r\n        view\r\n        returns (\r\n            uint256 quantity,\r\n            uint256 arrivalDateTime,\r\n            uint256 vaccinationStationId,\r\n            string memory shippingName,\r\n            string memory shippingNo,\r\n            string memory locationAddress\r\n        )\r\n    {\r\n        vaccinationStation memory tmpData = batchVaccinationStation[batchNo];\r\n\r\n        return (\r\n            tmpData.quantity,\r\n            tmpData.arrivalDateTime,\r\n            tmpData.vaccinationStationId,\r\n            tmpData.shippingName,\r\n            tmpData.shippingNo,\r\n            tmpData.locationAddress\r\n        );\r\n    }\r\n\r\n    /* Set Vaccinated Person*/\r\n    function setObjectInjection(\r\n        address batchNo,\r\n        string memory _personName,\r\n        uint256 _age,\r\n        uint256 _identityCard,\r\n        uint256 _numberOfVaccinations,\r\n        uint256 _vaccinationDate,\r\n        string memory _typeOfVaccine,\r\n        string memory _phoneNumber\r\n    ) public onlyAuthCaller returns (bool) {\r\n        vaccinatedPersonData.personName = _personName;\r\n        vaccinatedPersonData.age = _age;\r\n        vaccinatedPersonData.identityCard = _identityCard;\r\n        vaccinatedPersonData.numberOfVaccinations = _numberOfVaccinations;\r\n        vaccinatedPersonData.vaccinationDate = _vaccinationDate;\r\n        vaccinatedPersonData.typeOfVaccine = _typeOfVaccine;\r\n        vaccinatedPersonData.phoneNumber = _phoneNumber;\r\n\r\n        batchVaccinatedPerson[batchNo] = vaccinatedPersonData;\r\n\r\n        nextAction[batchNo] = \"DONE\";\r\n\r\n        return true;\r\n    }\r\n\r\n    /* Get Vaccinated Person Data */\r\n    function getVaccinationPersonData(address batchNo)\r\n        public\r\n        view\r\n        returns (\r\n            string memory personName,\r\n            uint256 age,\r\n            uint256 identityCard,\r\n            uint256 numberOfVaccinations,\r\n            uint256 vaccinationDate,\r\n            string memory typeOfVaccine,\r\n            string memory phoneNumber\r\n        )\r\n    {\r\n        vaccinatedPerson memory tmpData = batchVaccinatedPerson[batchNo];\r\n\r\n        return (\r\n            tmpData.personName,\r\n            tmpData.age,\r\n            tmpData.identityCard,\r\n            tmpData.numberOfVaccinations,\r\n            tmpData.vaccinationDate,\r\n            tmpData.typeOfVaccine,\r\n            tmpData.phoneNumber\r\n        );\r\n    }\r\n}\r\n",
  "sourcePath": "D:\\Learn , Research, Explore\\UIT\\Dissertation\\Source\\packages\\dissertation_smartcontract\\contracts\\VaccineSystemStorage.sol",
  "compiler": {
    "name": "solc",
    "version": "0.8.7+commit.e28d00a7.Emscripten.clang"
  },
  "schemaVersion": "3.4.3",
  "updatedAt": "2021-11-11T03:08:50.319Z",
  "networkType": "ethereum",
  "devdoc": {
    "kind": "dev",
    "methods": {
      "renounceOwnership()": {
        "details": "Allows the current owner to relinquish control of the contract."
      },
      "transferOwnership(address)": {
        "details": "Allows the current owner to transfer control of the contract to a newOwner.",
        "params": {
          "newOwner": "The address to transfer ownership to."
        }
      }
    },
    "version": 1
  },
  "userdoc": {
    "kind": "user",
    "methods": {},
    "version": 1
  }
}