{
  "contractName": "VaccineSystemStorage",
  "abi": [
    {
      "inputs": [],
      "stateMutability": "nonpayable",
      "type": "constructor"
    },
    {
      "anonymous": false,
      "inputs": [
        {
          "indexed": false,
          "internalType": "address",
          "name": "caller",
          "type": "address"
        }
      ],
      "name": "AuthorizedCaller",
      "type": "event"
    },
    {
      "anonymous": false,
      "inputs": [
        {
          "indexed": false,
          "internalType": "address",
          "name": "caller",
          "type": "address"
        }
      ],
      "name": "DeAuthorizedCaller",
      "type": "event"
    },
    {
      "anonymous": false,
      "inputs": [
        {
          "indexed": true,
          "internalType": "address",
          "name": "previousOwner",
          "type": "address"
        }
      ],
      "name": "OwnershipRenounced",
      "type": "event"
    },
    {
      "anonymous": false,
      "inputs": [
        {
          "indexed": true,
          "internalType": "address",
          "name": "previousOwner",
          "type": "address"
        },
        {
          "indexed": true,
          "internalType": "address",
          "name": "newOwner",
          "type": "address"
        }
      ],
      "name": "OwnershipTransferred",
      "type": "event"
    },
    {
      "inputs": [],
      "name": "lastAccess",
      "outputs": [
        {
          "internalType": "address",
          "name": "",
          "type": "address"
        }
      ],
      "stateMutability": "view",
      "type": "function",
      "constant": true
    },
    {
      "inputs": [],
      "name": "owner",
      "outputs": [
        {
          "internalType": "address",
          "name": "",
          "type": "address"
        }
      ],
      "stateMutability": "view",
      "type": "function",
      "constant": true
    },
    {
      "inputs": [],
      "name": "renounceOwnership",
      "outputs": [],
      "stateMutability": "nonpayable",
      "type": "function"
    },
    {
      "inputs": [
        {
          "internalType": "address",
          "name": "newOwner",
          "type": "address"
        }
      ],
      "name": "transferOwnership",
      "outputs": [],
      "stateMutability": "nonpayable",
      "type": "function"
    },
    {
      "inputs": [
        {
          "internalType": "address",
          "name": "_caller",
          "type": "address"
        }
      ],
      "name": "authorizeCaller",
      "outputs": [
        {
          "internalType": "bool",
          "name": "",
          "type": "bool"
        }
      ],
      "stateMutability": "nonpayable",
      "type": "function"
    },
    {
      "inputs": [
        {
          "internalType": "address",
          "name": "_caller",
          "type": "address"
        }
      ],
      "name": "deAuthorizeCaller",
      "outputs": [
        {
          "internalType": "bool",
          "name": "",
          "type": "bool"
        }
      ],
      "stateMutability": "nonpayable",
      "type": "function"
    },
    {
      "inputs": [
        {
          "internalType": "address",
          "name": "_userAddress",
          "type": "address"
        }
      ],
      "name": "getUserRole",
      "outputs": [
        {
          "internalType": "string",
          "name": "",
          "type": "string"
        }
      ],
      "stateMutability": "view",
      "type": "function",
      "constant": true
    },
    {
      "inputs": [
        {
          "internalType": "address",
          "name": "_batchNo",
          "type": "address"
        }
      ],
      "name": "getNextAction",
      "outputs": [
        {
          "internalType": "string",
          "name": "",
          "type": "string"
        }
      ],
      "stateMutability": "view",
      "type": "function",
      "constant": true
    },
    {
      "inputs": [
        {
          "internalType": "address",
          "name": "_userAddress",
          "type": "address"
        },
        {
          "internalType": "string",
          "name": "_name",
          "type": "string"
        },
        {
          "internalType": "string",
          "name": "_contactNo",
          "type": "string"
        },
        {
          "internalType": "string",
          "name": "_role",
          "type": "string"
        },
        {
          "internalType": "bool",
          "name": "_isActive",
          "type": "bool"
        },
        {
          "internalType": "string",
          "name": "_profileHash",
          "type": "string"
        }
      ],
      "name": "setUser",
      "outputs": [
        {
          "internalType": "bool",
          "name": "",
          "type": "bool"
        }
      ],
      "stateMutability": "nonpayable",
      "type": "function"
    },
    {
      "inputs": [
        {
          "internalType": "address",
          "name": "_userAddress",
          "type": "address"
        }
      ],
      "name": "getUser",
      "outputs": [
        {
          "internalType": "string",
          "name": "name",
          "type": "string"
        },
        {
          "internalType": "string",
          "name": "contactNo",
          "type": "string"
        },
        {
          "internalType": "string",
          "name": "role",
          "type": "string"
        },
        {
          "internalType": "bool",
          "name": "isActive",
          "type": "bool"
        },
        {
          "internalType": "string",
          "name": "profileHash",
          "type": "string"
        }
      ],
      "stateMutability": "view",
      "type": "function",
      "constant": true
    },
    {
      "inputs": [
        {
          "internalType": "address",
          "name": "_batchNo",
          "type": "address"
        }
      ],
      "name": "getBasicDetails",
      "outputs": [
        {
          "internalType": "string",
          "name": "producerName",
          "type": "string"
        },
        {
          "internalType": "string",
          "name": "storageName",
          "type": "string"
        },
        {
          "internalType": "string",
          "name": "distributorName",
          "type": "string"
        },
        {
          "internalType": "string",
          "name": "vaccinationStationName",
          "type": "string"
        },
        {
          "internalType": "uint256",
          "name": "quantity",
          "type": "uint256"
        },
        {
          "internalType": "string",
          "name": "optimumRangeTemp",
          "type": "string"
        },
        {
          "internalType": "string",
          "name": "optimumRangeHum",
          "type": "string"
        }
      ],
      "stateMutability": "view",
      "type": "function",
      "constant": true
    },
    {
      "inputs": [
        {
          "internalType": "string",
          "name": "_producerName",
          "type": "string"
        },
        {
          "internalType": "string",
          "name": "_storageName",
          "type": "string"
        },
        {
          "internalType": "string",
          "name": "_distributorName",
          "type": "string"
        },
        {
          "internalType": "string",
          "name": "_vaccinationStationName",
          "type": "string"
        },
        {
          "internalType": "uint256",
          "name": "_quantity",
          "type": "uint256"
        },
        {
          "internalType": "string",
          "name": "_optimumRangeTemp",
          "type": "string"
        },
        {
          "internalType": "string",
          "name": "_optimumRangeHum",
          "type": "string"
        }
      ],
      "name": "setBasicDetails",
      "outputs": [
        {
          "internalType": "address",
          "name": "",
          "type": "address"
        }
      ],
      "stateMutability": "nonpayable",
      "type": "function"
    },
    {
      "inputs": [
        {
          "internalType": "address",
          "name": "batchNo",
          "type": "address"
        },
        {
          "internalType": "string",
          "name": "_vaccineName",
          "type": "string"
        },
        {
          "internalType": "uint256",
          "name": "_quantity",
          "type": "uint256"
        },
        {
          "internalType": "uint256",
          "name": "_price",
          "type": "uint256"
        },
        {
          "internalType": "uint256",
          "name": "_storageDate",
          "type": "uint256"
        },
        {
          "internalType": "string",
          "name": "_optimumRangeTemp",
          "type": "string"
        },
        {
          "internalType": "string",
          "name": "_optimumRangeHum",
          "type": "string"
        },
        {
          "internalType": "bool",
          "name": "_isViolation",
          "type": "bool"
        }
      ],
      "name": "setWarehouser",
      "outputs": [
        {
          "internalType": "bool",
          "name": "",
          "type": "bool"
        }
      ],
      "stateMutability": "nonpayable",
      "type": "function"
    },
    {
      "inputs": [
        {
          "internalType": "address",
          "name": "batchNo",
          "type": "address"
        }
      ],
      "name": "getWarehouserData",
      "outputs": [
        {
          "internalType": "string",
          "name": "vaccineName",
          "type": "string"
        },
        {
          "internalType": "uint256",
          "name": "quantity",
          "type": "uint256"
        },
        {
          "internalType": "uint256",
          "name": "price",
          "type": "uint256"
        },
        {
          "internalType": "uint256",
          "name": "storageDate",
          "type": "uint256"
        },
        {
          "internalType": "string",
          "name": "optimumRangeTemp",
          "type": "string"
        },
        {
          "internalType": "string",
          "name": "optimumRangeHum",
          "type": "string"
        },
        {
          "internalType": "bool",
          "name": "isViolation",
          "type": "bool"
        }
      ],
      "stateMutability": "view",
      "type": "function",
      "constant": true
    },
    {
      "inputs": [
        {
          "internalType": "address",
          "name": "batchNo",
          "type": "address"
        },
        {
          "internalType": "string",
          "name": "_destinationAddress",
          "type": "string"
        },
        {
          "internalType": "string",
          "name": "_shippingName",
          "type": "string"
        },
        {
          "internalType": "uint256",
          "name": "_quantity",
          "type": "uint256"
        },
        {
          "internalType": "uint256",
          "name": "_departureDateTime",
          "type": "uint256"
        },
        {
          "internalType": "uint256",
          "name": "_estimateDateTime",
          "type": "uint256"
        },
        {
          "internalType": "string",
          "name": "_optimumRangeTemp",
          "type": "string"
        },
        {
          "internalType": "string",
          "name": "_optimumRangeHum",
          "type": "string"
        }
      ],
      "name": "setDistributor",
      "outputs": [
        {
          "internalType": "bool",
          "name": "",
          "type": "bool"
        }
      ],
      "stateMutability": "nonpayable",
      "type": "function"
    },
    {
      "inputs": [
        {
          "internalType": "address",
          "name": "batchNo",
          "type": "address"
        }
      ],
      "name": "getDistributorData",
      "outputs": [
        {
          "internalType": "string",
          "name": "destinationAddress",
          "type": "string"
        },
        {
          "internalType": "string",
          "name": "shippingName",
          "type": "string"
        },
        {
          "internalType": "uint256",
          "name": "quantity",
          "type": "uint256"
        },
        {
          "internalType": "uint256",
          "name": "departureDateTime",
          "type": "uint256"
        },
        {
          "internalType": "uint256",
          "name": "estimateDateTime",
          "type": "uint256"
        },
        {
          "internalType": "string",
          "name": "optimumRangeTemp",
          "type": "string"
        },
        {
          "internalType": "string",
          "name": "optimumRangeHum",
          "type": "string"
        }
      ],
      "stateMutability": "view",
      "type": "function",
      "constant": true
    },
    {
      "inputs": [
        {
          "internalType": "address",
          "name": "batchNo",
          "type": "address"
        },
        {
          "internalType": "uint256",
          "name": "_quantity",
          "type": "uint256"
        },
        {
          "internalType": "uint256",
          "name": "_arrivalDateTime",
          "type": "uint256"
        },
        {
          "internalType": "uint256",
          "name": "_vaccinationStationId",
          "type": "uint256"
        },
        {
          "internalType": "string",
          "name": "_shippingName",
          "type": "string"
        },
        {
          "internalType": "string",
          "name": "_shippingNo",
          "type": "string"
        },
        {
          "internalType": "string",
          "name": "_locationAddress",
          "type": "string"
        }
      ],
      "name": "setVaccinationStation",
      "outputs": [
        {
          "internalType": "bool",
          "name": "",
          "type": "bool"
        }
      ],
      "stateMutability": "nonpayable",
      "type": "function"
    },
    {
      "inputs": [
        {
          "internalType": "address",
          "name": "batchNo",
          "type": "address"
        }
      ],
      "name": "getVaccinationStationData",
      "outputs": [
        {
          "internalType": "uint256",
          "name": "quantity",
          "type": "uint256"
        },
        {
          "internalType": "uint256",
          "name": "arrivalDateTime",
          "type": "uint256"
        },
        {
          "internalType": "uint256",
          "name": "vaccinationStationId",
          "type": "uint256"
        },
        {
          "internalType": "string",
          "name": "shippingName",
          "type": "string"
        },
        {
          "internalType": "string",
          "name": "shippingNo",
          "type": "string"
        },
        {
          "internalType": "string",
          "name": "locationAddress",
          "type": "string"
        }
      ],
      "stateMutability": "view",
      "type": "function",
      "constant": true
    },
    {
      "inputs": [
        {
          "internalType": "address",
          "name": "batchNo",
          "type": "address"
        },
        {
          "internalType": "string",
          "name": "_personName",
          "type": "string"
        },
        {
          "internalType": "uint256",
          "name": "_age",
          "type": "uint256"
        },
        {
          "internalType": "uint256",
          "name": "_identityCard",
          "type": "uint256"
        },
        {
          "internalType": "uint256",
          "name": "_numberOfVaccinations",
          "type": "uint256"
        },
        {
          "internalType": "uint256",
          "name": "_vaccinationDate",
          "type": "uint256"
        },
        {
          "internalType": "string",
          "name": "_typeOfVaccine",
          "type": "string"
        },
        {
          "internalType": "string",
          "name": "_phoneNumber",
          "type": "string"
        }
      ],
      "name": "setObjectInjection",
      "outputs": [
        {
          "internalType": "bool",
          "name": "",
          "type": "bool"
        }
      ],
      "stateMutability": "nonpayable",
      "type": "function"
    },
    {
      "inputs": [
        {
          "internalType": "address",
          "name": "batchNo",
          "type": "address"
        }
      ],
      "name": "getVaccinationPersonData",
      "outputs": [
        {
          "internalType": "string",
          "name": "personName",
          "type": "string"
        },
        {
          "internalType": "uint256",
          "name": "age",
          "type": "uint256"
        },
        {
          "internalType": "uint256",
          "name": "identityCard",
          "type": "uint256"
        },
        {
          "internalType": "uint256",
          "name": "numberOfVaccinations",
          "type": "uint256"
        },
        {
          "internalType": "uint256",
          "name": "vaccinationDate",
          "type": "uint256"
        },
        {
          "internalType": "string",
          "name": "typeOfVaccine",
          "type": "string"
        },
        {
          "internalType": "string",
          "name": "phoneNumber",
          "type": "string"
        }
      ],
      "stateMutability": "view",
      "type": "function",
      "constant": true
    }
  ],
  "bytecode": "0x608060405234801561001057600080fd5b50336000806101000a81548173ffffffffffffffffffffffffffffffffffffffff021916908373ffffffffffffffffffffffffffffffffffffffff1602179055506001600260003373ffffffffffffffffffffffffffffffffffffffff1673ffffffffffffffffffffffffffffffffffffffff16815260200190815260200160002060006101000a81548160ff021916908360ff160217905550613c18806100b96000396000f3fe608060405234801561001057600080fd5b506004361061012c5760003560e01c80635703dc2d116100ad578063b439d23811610071578063b439d238146103cc578063de29e421146103fc578063f2997d7614610432578063f2fde38b14610468578063fb7a20af146104845761012c565b80635703dc2d1461030b5780636f77926b1461033b578063715018a61461036f5780637971ea42146103795780638da5cb5b146103ae5761012c565b806323d1cc8a116100f457806323d1cc8a14610227578063278208511461025d5780632c388d5d1461028d5780633480898b146102bd5780634d6b5e00146102db5761012c565b8063062518c814610131578063161d5c1b146101615780631bcd250a146101975780631c99eafa146101c75780631faa332b146101f7575b600080fd5b61014b60048036038101906101469190613103565b6104b4565b6040516101589190613632565b60405180910390f35b61017b60048036038101906101769190612eb3565b610784565b60405161018e9796959493929190613777565b60405180910390f35b6101b160048036038101906101ac9190612eb3565b610a9c565b6040516101be9190613632565b60405180910390f35b6101e160048036038101906101dc9190613317565b610b90565b6040516101ee9190613632565b60405180910390f35b610211600480360381019061020c919061320d565b610df5565b60405161021e9190613632565b60405180910390f35b610241600480360381019061023c9190612eb3565b61106f565b6040516102549796959493929190613802565b60405180910390f35b61027760048036038101906102729190612eb3565b611387565b604051610284919061364d565b60405180910390f35b6102a760048036038101906102a29190612eb3565b611458565b6040516102b49190613632565b60405180910390f35b6102c561154c565b6040516102d29190613617565b60405180910390f35b6102f560048036038101906102f09190612eb3565b611572565b604051610302919061364d565b60405180910390f35b6103256004803603810190610320919061340d565b611643565b6040516103329190613617565b60405180910390f35b61035560048036038101906103509190612eb3565b61195e565b60405161036695949392919061366f565b60405180910390f35b610377611c79565b005b610393600480360381019061038e9190612eb3565b611d77565b6040516103a59695949392919061390a565b60405180910390f35b6103b6611fd7565b6040516103c39190613617565b60405180910390f35b6103e660048036038101906103e19190612fdd565b611ffb565b6040516103f39190613632565b60405180910390f35b61041660048036038101906104119190612eb3565b6122c8565b6040516104299796959493929190613886565b60405180910390f35b61044c60048036038101906104479190612eb3565b61253c565b60405161045f97969594939291906136de565b60405180910390f35b610482600480360381019061047d9190612eb3565b612948565b005b61049e60048036038101906104999190612ee0565b612a97565b6040516104ab9190613632565b60405180910390f35b600033600160006101000a81548173ffffffffffffffffffffffffffffffffffffffff021916908373ffffffffffffffffffffffffffffffffffffffff1602179055506001600260003373ffffffffffffffffffffffffffffffffffffffff1673ffffffffffffffffffffffffffffffffffffffff16815260200190815260200160002060009054906101000a900460ff1660ff161461055357600080fd5b876016600001908051906020019061056c929190612cd4565b5086601660010181905550856016600201819055508460166003018190555083601660040190805190602001906105a4929190612cd4565b5082601660050190805190602001906105be929190612cd4565b5081601660060160006101000a81548160ff0219169083151502179055506016600660008b73ffffffffffffffffffffffffffffffffffffffff1673ffffffffffffffffffffffffffffffffffffffff168152602001908152602001600020600082018160000190805461063190613a7c565b61063c929190612d5a565b50600182015481600101556002820154816002015560038201548160030155600482018160040190805461066f90613a7c565b61067a929190612d5a565b50600582018160050190805461068f90613a7c565b61069a929190612d5a565b506006820160009054906101000a900460ff168160060160006101000a81548160ff02191690831515021790555060078201816007019080546106dc90613a7c565b6106e7929190612d5a565b509050506040518060400160405280600b81526020017f4449535452494255544f52000000000000000000000000000000000000000000815250600a60008b73ffffffffffffffffffffffffffffffffffffffff1673ffffffffffffffffffffffffffffffffffffffff1681526020019081526020016000209080519060200190610773929190612cd4565b506001905098975050505050505050565b60608060008060006060806000600760008a73ffffffffffffffffffffffffffffffffffffffff1673ffffffffffffffffffffffffffffffffffffffff168152602001908152602001600020604051806101000160405290816000820180546107ec90613a7c565b80601f016020809104026020016040519081016040528092919081815260200182805461081890613a7c565b80156108655780601f1061083a57610100808354040283529160200191610865565b820191906000526020600020905b81548152906001019060200180831161084857829003601f168201915b5050505050815260200160018201805461087e90613a7c565b80601f01602080910402602001604051908101604052809291908181526020018280546108aa90613a7c565b80156108f75780601f106108cc576101008083540402835291602001916108f7565b820191906000526020600020905b8154815290600101906020018083116108da57829003601f168201915b5050505050815260200160028201548152602001600382015481526020016004820154815260200160058201805461092e90613a7c565b80601f016020809104026020016040519081016040528092919081815260200182805461095a90613a7c565b80156109a75780601f1061097c576101008083540402835291602001916109a7565b820191906000526020600020905b81548152906001019060200180831161098a57829003601f168201915b505050505081526020016006820180546109c090613a7c565b80601f01602080910402602001604051908101604052809291908181526020018280546109ec90613a7c565b8015610a395780601f10610a0e57610100808354040283529160200191610a39565b820191906000526020600020905b815481529060010190602001808311610a1c57829003601f168201915b505050505081526020016007820160009054906101000a900460ff1615151515815250509050806000015181602001518260400151836060015184608001518560a001518660c00151975097509750975097509750975050919395979092949650565b60008060009054906101000a900473ffffffffffffffffffffffffffffffffffffffff1673ffffffffffffffffffffffffffffffffffffffff163373ffffffffffffffffffffffffffffffffffffffff1614610af757600080fd5b6000600260008473ffffffffffffffffffffffffffffffffffffffff1673ffffffffffffffffffffffffffffffffffffffff16815260200190815260200160002060006101000a81548160ff021916908360ff1602179055507f9e8ca6ff03906e81e8a6a03d4f96b7edb0b97f0ed9d07ef1b699fff63438549682604051610b7f9190613617565b60405180910390a160019050919050565b600033600160006101000a81548173ffffffffffffffffffffffffffffffffffffffff021916908373ffffffffffffffffffffffffffffffffffffffff1602179055506001600260003373ffffffffffffffffffffffffffffffffffffffff1673ffffffffffffffffffffffffffffffffffffffff16815260200190815260200160002060009054906101000a900460ff1660ff1614610c2f57600080fd5b8660266000018190555085602660010181905550846026600201819055508360266003019080519060200190610c66929190612cd4565b508260266004019080519060200190610c80929190612cd4565b508160266005019080519060200190610c9a929190612cd4565b506026600860008a73ffffffffffffffffffffffffffffffffffffffff1673ffffffffffffffffffffffffffffffffffffffff1681526020019081526020016000206000820154816000015560018201548160010155600282015481600201556003820181600301908054610d0e90613a7c565b610d19929190612d5a565b506004820181600401908054610d2e90613a7c565b610d39929190612d5a565b506005820181600501908054610d4e90613a7c565b610d59929190612d5a565b509050506040518060400160405280601081526020017f4f424a4543545f494e4a454354494f4e00000000000000000000000000000000815250600a60008a73ffffffffffffffffffffffffffffffffffffffff1673ffffffffffffffffffffffffffffffffffffffff1681526020019081526020016000209080519060200190610de5929190612cd4565b5060019050979650505050505050565b600033600160006101000a81548173ffffffffffffffffffffffffffffffffffffffff021916908373ffffffffffffffffffffffffffffffffffffffff1602179055506001600260003373ffffffffffffffffffffffffffffffffffffffff1673ffffffffffffffffffffffffffffffffffffffff16815260200190815260200160002060009054906101000a900460ff1660ff1614610e9457600080fd5b87602c6000019080519060200190610ead929190612cd4565b5086602c6001018190555085602c6002018190555084602c6003018190555083602c6004018190555082602c6005019080519060200190610eef929190612cd4565b5081602c6006019080519060200190610f09929190612cd4565b50602c600960008b73ffffffffffffffffffffffffffffffffffffffff1673ffffffffffffffffffffffffffffffffffffffff1681526020019081526020016000206000820181600001908054610f5f90613a7c565b610f6a929190612d5a565b50600182015481600101556002820154816002015560038201548160030155600482015481600401556005820181600501908054610fa790613a7c565b610fb2929190612d5a565b506006820181600601908054610fc790613a7c565b610fd2929190612d5a565b509050506040518060400160405280600481526020017f444f4e4500000000000000000000000000000000000000000000000000000000815250600a60008b73ffffffffffffffffffffffffffffffffffffffff1673ffffffffffffffffffffffffffffffffffffffff168152602001908152602001600020908051906020019061105e929190612cd4565b506001905098975050505050505050565b60606000806000606080600080600660008a73ffffffffffffffffffffffffffffffffffffffff1673ffffffffffffffffffffffffffffffffffffffff168152602001908152602001600020604051806101000160405290816000820180546110d790613a7c565b80601f016020809104026020016040519081016040528092919081815260200182805461110390613a7c565b80156111505780601f1061112557610100808354040283529160200191611150565b820191906000526020600020905b81548152906001019060200180831161113357829003601f168201915b5050505050815260200160018201548152602001600282015481526020016003820154815260200160048201805461118790613a7c565b80601f01602080910402602001604051908101604052809291908181526020018280546111b390613a7c565b80156112005780601f106111d557610100808354040283529160200191611200565b820191906000526020600020905b8154815290600101906020018083116111e357829003601f168201915b5050505050815260200160058201805461121990613a7c565b80601f016020809104026020016040519081016040528092919081815260200182805461124590613a7c565b80156112925780601f1061126757610100808354040283529160200191611292565b820191906000526020600020905b81548152906001019060200180831161127557829003601f168201915b505050505081526020016006820160009054906101000a900460ff161515151581526020016007820180546112c690613a7c565b80601f01602080910402602001604051908101604052809291908181526020018280546112f290613a7c565b801561133f5780601f106113145761010080835404028352916020019161133f565b820191906000526020600020905b81548152906001019060200180831161132257829003601f168201915b5050505050815250509050806000015181602001518260400151836060015184608001518560a001518660c00151975097509750975097509750975050919395979092949650565b6060600460008373ffffffffffffffffffffffffffffffffffffffff1673ffffffffffffffffffffffffffffffffffffffff16815260200190815260200160002080546113d390613a7c565b80601f01602080910402602001604051908101604052809291908181526020018280546113ff90613a7c565b801561144c5780601f106114215761010080835404028352916020019161144c565b820191906000526020600020905b81548152906001019060200180831161142f57829003601f168201915b50505050509050919050565b60008060009054906101000a900473ffffffffffffffffffffffffffffffffffffffff1673ffffffffffffffffffffffffffffffffffffffff163373ffffffffffffffffffffffffffffffffffffffff16146114b357600080fd5b6001600260008473ffffffffffffffffffffffffffffffffffffffff1673ffffffffffffffffffffffffffffffffffffffff16815260200190815260200160002060006101000a81548160ff021916908360ff1602179055507f8afeca650897be3183b7c0d24eba96a1b990f75c4bd74a0cfb2c0a71aec48e618260405161153b9190613617565b60405180910390a160019050919050565b600160009054906101000a900473ffffffffffffffffffffffffffffffffffffffff1681565b6060600a60008373ffffffffffffffffffffffffffffffffffffffff1673ffffffffffffffffffffffffffffffffffffffff16815260200190815260200160002080546115be90613a7c565b80601f01602080910402602001604051908101604052809291908181526020018280546115ea90613a7c565b80156116375780601f1061160c57610100808354040283529160200191611637565b820191906000526020600020905b81548152906001019060200180831161161a57829003601f168201915b50505050509050919050565b600033600160006101000a81548173ffffffffffffffffffffffffffffffffffffffff021916908373ffffffffffffffffffffffffffffffffffffffff1602179055506001600260003373ffffffffffffffffffffffffffffffffffffffff1673ffffffffffffffffffffffffffffffffffffffff16815260200190815260200160002060009054906101000a900460ff1660ff16146116e257600080fd5b600033426040516020016116f79291906135eb565b6040516020818303038152906040528051906020012060001c905088600f600001908051906020019061172b929190612cd4565b5087600f6001019080519060200190611745929190612cd4565b5086600f600201908051906020019061175f929190612cd4565b5085600f6003019080519060200190611779929190612cd4565b5084600f6004018190555083600f600501908051906020019061179d929190612cd4565b5082600f60060190805190602001906117b7929190612cd4565b50600f600560008373ffffffffffffffffffffffffffffffffffffffff1673ffffffffffffffffffffffffffffffffffffffff168152602001908152602001600020600082018160000190805461180d90613a7c565b611818929190612d5a565b50600182018160010190805461182d90613a7c565b611838929190612d5a565b50600282018160020190805461184d90613a7c565b611858929190612d5a565b50600382018160030190805461186d90613a7c565b611878929190612d5a565b5060048201548160040155600582018160050190805461189790613a7c565b6118a2929190612d5a565b5060068201816006019080546118b790613a7c565b6118c2929190612d5a565b509050506040518060400160405280600a81526020017f57415245484f5553455200000000000000000000000000000000000000000000815250600a60008373ffffffffffffffffffffffffffffffffffffffff1673ffffffffffffffffffffffffffffffffffffffff168152602001908152602001600020908051906020019061194e929190612cd4565b5080915050979650505050505050565b6060806060600060606000600360008873ffffffffffffffffffffffffffffffffffffffff1673ffffffffffffffffffffffffffffffffffffffff1681526020019081526020016000206040518060800160405290816000820180546119c390613a7c565b80601f01602080910402602001604051908101604052809291908181526020018280546119ef90613a7c565b8015611a3c5780601f10611a1157610100808354040283529160200191611a3c565b820191906000526020600020905b815481529060010190602001808311611a1f57829003601f168201915b50505050508152602001600182018054611a5590613a7c565b80601f0160208091040260200160405190810160405280929190818152602001828054611a8190613a7c565b8015611ace5780601f10611aa357610100808354040283529160200191611ace565b820191906000526020600020905b815481529060010190602001808311611ab157829003601f168201915b505050505081526020016002820160009054906101000a900460ff16151515158152602001600382018054611b0290613a7c565b80601f0160208091040260200160405190810160405280929190818152602001828054611b2e90613a7c565b8015611b7b5780601f10611b5057610100808354040283529160200191611b7b565b820191906000526020600020905b815481529060010190602001808311611b5e57829003601f168201915b505050505081525050905080600001518160200151600460008a73ffffffffffffffffffffffffffffffffffffffff1673ffffffffffffffffffffffffffffffffffffffff16815260200190815260200160002083604001518460600151828054611be590613a7c565b80601f0160208091040260200160405190810160405280929190818152602001828054611c1190613a7c565b8015611c5e5780601f10611c3357610100808354040283529160200191611c5e565b820191906000526020600020905b815481529060010190602001808311611c4157829003601f168201915b50505050509250955095509550955095505091939590929450565b60008054906101000a900473ffffffffffffffffffffffffffffffffffffffff1673ffffffffffffffffffffffffffffffffffffffff163373ffffffffffffffffffffffffffffffffffffffff1614611cd157600080fd5b60008054906101000a900473ffffffffffffffffffffffffffffffffffffffff1673ffffffffffffffffffffffffffffffffffffffff167ff8df31144d9c2f0f6b59d69b8b98abd5459d07f2742c4df920b25aae33c6482060405160405180910390a260008060006101000a81548173ffffffffffffffffffffffffffffffffffffffff021916908373ffffffffffffffffffffffffffffffffffffffff160217905550565b600080600060608060606000600860008973ffffffffffffffffffffffffffffffffffffffff1673ffffffffffffffffffffffffffffffffffffffff1681526020019081526020016000206040518060c0016040529081600082015481526020016001820154815260200160028201548152602001600382018054611dfb90613a7c565b80601f0160208091040260200160405190810160405280929190818152602001828054611e2790613a7c565b8015611e745780601f10611e4957610100808354040283529160200191611e74565b820191906000526020600020905b815481529060010190602001808311611e5757829003601f168201915b50505050508152602001600482018054611e8d90613a7c565b80601f0160208091040260200160405190810160405280929190818152602001828054611eb990613a7c565b8015611f065780601f10611edb57610100808354040283529160200191611f06565b820191906000526020600020905b815481529060010190602001808311611ee957829003601f168201915b50505050508152602001600582018054611f1f90613a7c565b80601f0160208091040260200160405190810160405280929190818152602001828054611f4b90613a7c565b8015611f985780601f10611f6d57610100808354040283529160200191611f98565b820191906000526020600020905b815481529060010190602001808311611f7b57829003601f168201915b5050505050815250509050806000015181602001518260400151836060015184608001518560a001519650965096509650965096505091939550919395565b60008054906101000a900473ffffffffffffffffffffffffffffffffffffffff1681565b600033600160006101000a81548173ffffffffffffffffffffffffffffffffffffffff021916908373ffffffffffffffffffffffffffffffffffffffff1602179055506001600260003373ffffffffffffffffffffffffffffffffffffffff1673ffffffffffffffffffffffffffffffffffffffff16815260200190815260200160002060009054906101000a900460ff1660ff161461209a57600080fd5b87601e60000190805190602001906120b3929190612cd4565b5086601e60010190805190602001906120cd929190612cd4565b5085601e6002018190555084601e6003018190555083601e6004018190555082601e6005019080519060200190612105929190612cd4565b5081601e600601908051906020019061211f929190612cd4565b50601e600760008b73ffffffffffffffffffffffffffffffffffffffff1673ffffffffffffffffffffffffffffffffffffffff168152602001908152602001600020600082018160000190805461217590613a7c565b612180929190612d5a565b50600182018160010190805461219590613a7c565b6121a0929190612d5a565b5060028201548160020155600382015481600301556004820154816004015560058201816005019080546121d390613a7c565b6121de929190612d5a565b5060068201816006019080546121f390613a7c565b6121fe929190612d5a565b506007820160009054906101000a900460ff168160070160006101000a81548160ff0219169083151502179055509050506040518060400160405280601381526020017f56414343494e4154494f4e5f53544154494f4e00000000000000000000000000815250600a60008b73ffffffffffffffffffffffffffffffffffffffff1673ffffffffffffffffffffffffffffffffffffffff16815260200190815260200160002090805190602001906122b7929190612cd4565b506001905098975050505050505050565b60606000806000806060806000600960008a73ffffffffffffffffffffffffffffffffffffffff1673ffffffffffffffffffffffffffffffffffffffff1681526020019081526020016000206040518060e001604052908160008201805461232f90613a7c565b80601f016020809104026020016040519081016040528092919081815260200182805461235b90613a7c565b80156123a85780601f1061237d576101008083540402835291602001916123a8565b820191906000526020600020905b81548152906001019060200180831161238b57829003601f168201915b50505050508152602001600182015481526020016002820154815260200160038201548152602001600482015481526020016005820180546123e990613a7c565b80601f016020809104026020016040519081016040528092919081815260200182805461241590613a7c565b80156124625780601f1061243757610100808354040283529160200191612462565b820191906000526020600020905b81548152906001019060200180831161244557829003601f168201915b5050505050815260200160068201805461247b90613a7c565b80601f01602080910402602001604051908101604052809291908181526020018280546124a790613a7c565b80156124f45780601f106124c9576101008083540402835291602001916124f4565b820191906000526020600020905b8154815290600101906020018083116124d757829003601f168201915b5050505050815250509050806000015181602001518260400151836060015184608001518560a001518660c00151975097509750975097509750975050919395979092949650565b60608060608060006060806000600560008a73ffffffffffffffffffffffffffffffffffffffff1673ffffffffffffffffffffffffffffffffffffffff1681526020019081526020016000206040518060e00160405290816000820180546125a390613a7c565b80601f01602080910402602001604051908101604052809291908181526020018280546125cf90613a7c565b801561261c5780601f106125f15761010080835404028352916020019161261c565b820191906000526020600020905b8154815290600101906020018083116125ff57829003601f168201915b5050505050815260200160018201805461263590613a7c565b80601f016020809104026020016040519081016040528092919081815260200182805461266190613a7c565b80156126ae5780601f10612683576101008083540402835291602001916126ae565b820191906000526020600020905b81548152906001019060200180831161269157829003601f168201915b505050505081526020016002820180546126c790613a7c565b80601f01602080910402602001604051908101604052809291908181526020018280546126f390613a7c565b80156127405780601f1061271557610100808354040283529160200191612740565b820191906000526020600020905b81548152906001019060200180831161272357829003601f168201915b5050505050815260200160038201805461275990613a7c565b80601f016020809104026020016040519081016040528092919081815260200182805461278590613a7c565b80156127d25780601f106127a7576101008083540402835291602001916127d2565b820191906000526020600020905b8154815290600101906020018083116127b557829003601f168201915b50505050508152602001600482015481526020016005820180546127f590613a7c565b80601f016020809104026020016040519081016040528092919081815260200182805461282190613a7c565b801561286e5780601f106128435761010080835404028352916020019161286e565b820191906000526020600020905b81548152906001019060200180831161285157829003601f168201915b5050505050815260200160068201805461288790613a7c565b80601f01602080910402602001604051908101604052809291908181526020018280546128b390613a7c565b80156129005780601f106128d557610100808354040283529160200191612900565b820191906000526020600020905b8154815290600101906020018083116128e357829003601f168201915b5050505050815250509050806000015181602001518260400151836060015184608001518560a001518660c00151975097509750975097509750975050919395979092949650565b60008054906101000a900473ffffffffffffffffffffffffffffffffffffffff1673ffffffffffffffffffffffffffffffffffffffff163373ffffffffffffffffffffffffffffffffffffffff16146129a057600080fd5b600073ffffffffffffffffffffffffffffffffffffffff168173ffffffffffffffffffffffffffffffffffffffff1614156129da57600080fd5b8073ffffffffffffffffffffffffffffffffffffffff1660008054906101000a900473ffffffffffffffffffffffffffffffffffffffff1673ffffffffffffffffffffffffffffffffffffffff167f8be0079c531659141344cd1fd0a4f28419497f9722a3daafe3b4186f6b6457e060405160405180910390a3806000806101000a81548173ffffffffffffffffffffffffffffffffffffffff021916908373ffffffffffffffffffffffffffffffffffffffff16021790555050565b600033600160006101000a81548173ffffffffffffffffffffffffffffffffffffffff021916908373ffffffffffffffffffffffffffffffffffffffff1602179055506001600260003373ffffffffffffffffffffffffffffffffffffffff1673ffffffffffffffffffffffffffffffffffffffff16815260200190815260200160002060009054906101000a900460ff1660ff1614612b3657600080fd5b85600b6000019080519060200190612b4f929190612cd4565b5084600b6001019080519060200190612b69929190612cd4565b5082600b60020160006101000a81548160ff02191690831515021790555081600b6003019080519060200190612ba0929190612cd4565b50600b600360008973ffffffffffffffffffffffffffffffffffffffff1673ffffffffffffffffffffffffffffffffffffffff1681526020019081526020016000206000820181600001908054612bf690613a7c565b612c01929190612d5a565b506001820181600101908054612c1690613a7c565b612c21929190612d5a565b506002820160009054906101000a900460ff168160020160006101000a81548160ff0219169083151502179055506003820181600301908054612c6390613a7c565b612c6e929190612d5a565b5090505083600460008973ffffffffffffffffffffffffffffffffffffffff1673ffffffffffffffffffffffffffffffffffffffff1681526020019081526020016000209080519060200190612cc5929190612cd4565b50600190509695505050505050565b828054612ce090613a7c565b90600052602060002090601f016020900481019282612d025760008555612d49565b82601f10612d1b57805160ff1916838001178555612d49565b82800160010185558215612d49579182015b82811115612d48578251825591602001919060010190612d2d565b5b509050612d569190612de7565b5090565b828054612d6690613a7c565b90600052602060002090601f016020900481019282612d885760008555612dd6565b82601f10612d995780548555612dd6565b82800160010185558215612dd657600052602060002091601f016020900482015b82811115612dd5578254825591600101919060010190612dba565b5b509050612de39190612de7565b5090565b5b80821115612e00576000816000905550600101612de8565b5090565b6000612e17612e12846139a5565b613980565b905082815260208101848484011115612e3357612e32613b70565b5b612e3e848285613a3a565b509392505050565b600081359050612e5581613b9d565b92915050565b600081359050612e6a81613bb4565b92915050565b600082601f830112612e8557612e84613b6b565b5b8135612e95848260208601612e04565b91505092915050565b600081359050612ead81613bcb565b92915050565b600060208284031215612ec957612ec8613b7a565b5b6000612ed784828501612e46565b91505092915050565b60008060008060008060c08789031215612efd57612efc613b7a565b5b6000612f0b89828a01612e46565b965050602087013567ffffffffffffffff811115612f2c57612f2b613b75565b5b612f3889828a01612e70565b955050604087013567ffffffffffffffff811115612f5957612f58613b75565b5b612f6589828a01612e70565b945050606087013567ffffffffffffffff811115612f8657612f85613b75565b5b612f9289828a01612e70565b9350506080612fa389828a01612e5b565b92505060a087013567ffffffffffffffff811115612fc457612fc3613b75565b5b612fd089828a01612e70565b9150509295509295509295565b600080600080600080600080610100898b031215612ffe57612ffd613b7a565b5b600061300c8b828c01612e46565b985050602089013567ffffffffffffffff81111561302d5761302c613b75565b5b6130398b828c01612e70565b975050604089013567ffffffffffffffff81111561305a57613059613b75565b5b6130668b828c01612e70565b96505060606130778b828c01612e9e565b95505060806130888b828c01612e9e565b94505060a06130998b828c01612e9e565b93505060c089013567ffffffffffffffff8111156130ba576130b9613b75565b5b6130c68b828c01612e70565b92505060e089013567ffffffffffffffff8111156130e7576130e6613b75565b5b6130f38b828c01612e70565b9150509295985092959890939650565b600080600080600080600080610100898b03121561312457613123613b7a565b5b60006131328b828c01612e46565b985050602089013567ffffffffffffffff81111561315357613152613b75565b5b61315f8b828c01612e70565b97505060406131708b828c01612e9e565b96505060606131818b828c01612e9e565b95505060806131928b828c01612e9e565b94505060a089013567ffffffffffffffff8111156131b3576131b2613b75565b5b6131bf8b828c01612e70565b93505060c089013567ffffffffffffffff8111156131e0576131df613b75565b5b6131ec8b828c01612e70565b92505060e06131fd8b828c01612e5b565b9150509295985092959890939650565b600080600080600080600080610100898b03121561322e5761322d613b7a565b5b600061323c8b828c01612e46565b985050602089013567ffffffffffffffff81111561325d5761325c613b75565b5b6132698b828c01612e70565b975050604061327a8b828c01612e9e565b965050606061328b8b828c01612e9e565b955050608061329c8b828c01612e9e565b94505060a06132ad8b828c01612e9e565b93505060c089013567ffffffffffffffff8111156132ce576132cd613b75565b5b6132da8b828c01612e70565b92505060e089013567ffffffffffffffff8111156132fb576132fa613b75565b5b6133078b828c01612e70565b9150509295985092959890939650565b600080600080600080600060e0888a03121561333657613335613b7a565b5b60006133448a828b01612e46565b97505060206133558a828b01612e9e565b96505060406133668a828b01612e9e565b95505060606133778a828b01612e9e565b945050608088013567ffffffffffffffff81111561339857613397613b75565b5b6133a48a828b01612e70565b93505060a088013567ffffffffffffffff8111156133c5576133c4613b75565b5b6133d18a828b01612e70565b92505060c088013567ffffffffffffffff8111156133f2576133f1613b75565b5b6133fe8a828b01612e70565b91505092959891949750929550565b600080600080600080600060e0888a03121561342c5761342b613b7a565b5b600088013567ffffffffffffffff81111561344a57613449613b75565b5b6134568a828b01612e70565b975050602088013567ffffffffffffffff81111561347757613476613b75565b5b6134838a828b01612e70565b965050604088013567ffffffffffffffff8111156134a4576134a3613b75565b5b6134b08a828b01612e70565b955050606088013567ffffffffffffffff8111156134d1576134d0613b75565b5b6134dd8a828b01612e70565b94505060806134ee8a828b01612e9e565b93505060a088013567ffffffffffffffff81111561350f5761350e613b75565b5b61351b8a828b01612e70565b92505060c088013567ffffffffffffffff81111561353c5761353b613b75565b5b6135488a828b01612e70565b91505092959891949750929550565b613560816139f2565b82525050565b613577613572826139f2565b613adf565b82525050565b61358681613a04565b82525050565b6000613597826139d6565b6135a181856139e1565b93506135b1818560208601613a49565b6135ba81613b7f565b840191505092915050565b6135ce81613a30565b82525050565b6135e56135e082613a30565b613b03565b82525050565b60006135f78285613566565b60148201915061360782846135d4565b6020820191508190509392505050565b600060208201905061362c6000830184613557565b92915050565b6000602082019050613647600083018461357d565b92915050565b60006020820190508181036000830152613667818461358c565b905092915050565b600060a0820190508181036000830152613689818861358c565b9050818103602083015261369d818761358c565b905081810360408301526136b1818661358c565b90506136c0606083018561357d565b81810360808301526136d2818461358c565b90509695505050505050565b600060e08201905081810360008301526136f8818a61358c565b9050818103602083015261370c818961358c565b90508181036040830152613720818861358c565b90508181036060830152613734818761358c565b905061374360808301866135c5565b81810360a0830152613755818561358c565b905081810360c0830152613769818461358c565b905098975050505050505050565b600060e0820190508181036000830152613791818a61358c565b905081810360208301526137a5818961358c565b90506137b460408301886135c5565b6137c160608301876135c5565b6137ce60808301866135c5565b81810360a08301526137e0818561358c565b905081810360c08301526137f4818461358c565b905098975050505050505050565b600060e082019050818103600083015261381c818a61358c565b905061382b60208301896135c5565b61383860408301886135c5565b61384560608301876135c5565b8181036080830152613857818661358c565b905081810360a083015261386b818561358c565b905061387a60c083018461357d565b98975050505050505050565b600060e08201905081810360008301526138a0818a61358c565b90506138af60208301896135c5565b6138bc60408301886135c5565b6138c960608301876135c5565b6138d660808301866135c5565b81810360a08301526138e8818561358c565b905081810360c08301526138fc818461358c565b905098975050505050505050565b600060c08201905061391f60008301896135c5565b61392c60208301886135c5565b61393960408301876135c5565b818103606083015261394b818661358c565b9050818103608083015261395f818561358c565b905081810360a0830152613973818461358c565b9050979650505050505050565b600061398a61399b565b90506139968282613aae565b919050565b6000604051905090565b600067ffffffffffffffff8211156139c0576139bf613b3c565b5b6139c982613b7f565b9050602081019050919050565b600081519050919050565b600082825260208201905092915050565b60006139fd82613a10565b9050919050565b60008115159050919050565b600073ffffffffffffffffffffffffffffffffffffffff82169050919050565b6000819050919050565b82818337600083830152505050565b60005b83811015613a67578082015181840152602081019050613a4c565b83811115613a76576000848401525b50505050565b60006002820490506001821680613a9457607f821691505b60208210811415613aa857613aa7613b0d565b5b50919050565b613ab782613b7f565b810181811067ffffffffffffffff82111715613ad657613ad5613b3c565b5b80604052505050565b6000613aea82613af1565b9050919050565b6000613afc82613b90565b9050919050565b6000819050919050565b7f4e487b7100000000000000000000000000000000000000000000000000000000600052602260045260246000fd5b7f4e487b7100000000000000000000000000000000000000000000000000000000600052604160045260246000fd5b600080fd5b600080fd5b600080fd5b600080fd5b6000601f19601f8301169050919050565b60008160601b9050919050565b613ba6816139f2565b8114613bb157600080fd5b50565b613bbd81613a04565b8114613bc857600080fd5b50565b613bd481613a30565b8114613bdf57600080fd5b5056fea2646970667358221220741b80baa57acb21d3dfeb7611931d3df9c43aaf2ba97ae4894dbc4d35927ede64736f6c63430008070033",
  "immutableReferences": {},
  "source": "// SPDX-License-Identifier: MIT\r\npragma solidity ^0.8.7;\r\n\r\nimport \"./Ownable.sol\";\r\n\r\ncontract VaccineSystemStorage is Ownable {\r\n    address public lastAccess;\r\n\r\n    constructor() {\r\n        authorizedCaller[msg.sender] = 1;\r\n    }\r\n\r\n    /* Declare Events */\r\n    event AuthorizedCaller(address caller);\r\n    event DeAuthorizedCaller(address caller);\r\n\r\n    /* Declare Modifiers */\r\n    modifier onlyAuthCaller() {\r\n        lastAccess = msg.sender;\r\n        require(authorizedCaller[msg.sender] == 1);\r\n        _;\r\n    }\r\n\r\n    /* Caller Mapping */\r\n    mapping(address => uint8) authorizedCaller;\r\n\r\n    /* User Interface */\r\n    struct user {\r\n        string name;\r\n        string contactNo;\r\n        bool isActive;\r\n        string profileHash;\r\n    }\r\n\r\n    mapping(address => user) userDetails;\r\n    mapping(address => string) userRole;\r\n\r\n    /* Authorized Caller */\r\n    function authorizeCaller(address _caller) public onlyOwner returns (bool) {\r\n        authorizedCaller[_caller] = 1;\r\n        emit AuthorizedCaller(_caller);\r\n        return true;\r\n    }\r\n\r\n    /* De-Authorized Caller */\r\n    function deAuthorizeCaller(address _caller)\r\n        public\r\n        onlyOwner\r\n        returns (bool)\r\n    {\r\n        authorizedCaller[_caller] = 0;\r\n        emit DeAuthorizedCaller(_caller);\r\n        return true;\r\n    }\r\n\r\n    struct basicDetails {\r\n        string producerName;\r\n        string storageName;\r\n        string distributorName;\r\n        string vaccinationStationName;\r\n        uint256 quantity;\r\n        string optimumRangeTemp;\r\n        string optimumRangeHum;\r\n    }\r\n\r\n    struct warehouser {\r\n        string vaccineName;\r\n        uint256 quantity;\r\n        uint256 price;\r\n        uint256 storageDate;\r\n        string optimumRangeTemp;\r\n        string optimumRangeHum;\r\n        bool isViolation;\r\n        string locationAddress;\r\n    }\r\n\r\n    struct distributor {\r\n        string destinationAddress;\r\n        string shippingName;\r\n        uint256 quantity;\r\n        uint256 departureDateTime;\r\n        uint256 estimateDateTime;\r\n        string optimumRangeTemp;\r\n        string optimumRangeHum;\r\n        bool isViolation;\r\n    }\r\n\r\n    struct vaccinationStation {\r\n        uint256 quantity;\r\n        uint256 arrivalDateTime;\r\n        uint256 vaccinationStationId;\r\n        string shippingName;\r\n        string shippingNo;\r\n        string locationAddress;\r\n    }\r\n\r\n    struct vaccinatedPerson {\r\n        string personName;\r\n        uint256 age;\r\n        uint256 identityCard;\r\n        uint256 numberOfVaccinations;\r\n        uint256 vaccinationDate;\r\n        string typeOfVaccine;\r\n        string phoneNumber;\r\n    }\r\n\r\n    mapping(address => basicDetails) batchBasicDetails;\r\n    mapping(address => warehouser) batchWarehouser;\r\n    mapping(address => distributor) batchDistributor;\r\n    mapping(address => vaccinationStation) batchVaccinationStation;\r\n    mapping(address => vaccinatedPerson) batchVaccinatedPerson;\r\n    mapping(address => string) nextAction;\r\n\r\n    /* Init Struct Pointer */\r\n    user userDetail;\r\n    basicDetails basicDetailsData;\r\n    warehouser warehouserData;\r\n    distributor distributorData;\r\n    vaccinationStation vaccinationStationData;\r\n    vaccinatedPerson vaccinatedPersonData;\r\n\r\n    /* Get User Role */\r\n    function getUserRole(address _userAddress)\r\n        public\r\n        view\r\n        returns (string memory)\r\n    {\r\n        return userRole[_userAddress];\r\n    }\r\n\r\n    /* Get Next Action */\r\n    function getNextAction(address _batchNo)\r\n        public\r\n        view\r\n        returns (string memory)\r\n    {\r\n        return nextAction[_batchNo];\r\n    }\r\n\r\n    /* Set User Detail */\r\n    function setUser(\r\n        address _userAddress,\r\n        string memory _name,\r\n        string memory _contactNo,\r\n        string memory _role,\r\n        bool _isActive,\r\n        string memory _profileHash\r\n    ) public onlyAuthCaller returns (bool) {\r\n        /* Store Data User Into Struct - User */\r\n        userDetail.name = _name;\r\n        userDetail.contactNo = _contactNo;\r\n        userDetail.isActive = _isActive;\r\n        userDetail.profileHash = _profileHash;\r\n\r\n        /* Store Data User Into Mapping - User */\r\n        userDetails[_userAddress] = userDetail;\r\n        userRole[_userAddress] = _role;\r\n\r\n        return true;\r\n    }\r\n\r\n    /* Get User details */\r\n    function getUser(address _userAddress)\r\n        public\r\n        view\r\n        returns (\r\n            string memory name,\r\n            string memory contactNo,\r\n            string memory role,\r\n            bool isActive,\r\n            string memory profileHash\r\n        )\r\n    {\r\n        /* Get User Value From Struct */\r\n        user memory tmpData = userDetails[_userAddress];\r\n\r\n        return (\r\n            tmpData.name,\r\n            tmpData.contactNo,\r\n            userRole[_userAddress],\r\n            tmpData.isActive,\r\n            tmpData.profileHash\r\n        );\r\n    }\r\n\r\n    /* Get Batch Basic Details */\r\n    function getBasicDetails(address _batchNo)\r\n        public\r\n        view\r\n        returns (\r\n            string memory producerName,\r\n            string memory storageName,\r\n            string memory distributorName,\r\n            string memory vaccinationStationName,\r\n            uint256 quantity,\r\n            string memory optimumRangeTemp,\r\n            string memory optimumRangeHum\r\n        )\r\n    {\r\n        basicDetails memory tmpData = batchBasicDetails[_batchNo];\r\n\r\n        return (\r\n            tmpData.producerName,\r\n            tmpData.storageName,\r\n            tmpData.distributorName,\r\n            tmpData.vaccinationStationName,\r\n            tmpData.quantity,\r\n            tmpData.optimumRangeTemp,\r\n            tmpData.optimumRangeHum\r\n        );\r\n    }\r\n\r\n    /* Set Batch Basic Detail */\r\n    function setBasicDetails(\r\n        string memory _producerName,\r\n        string memory _storageName,\r\n        string memory _distributorName,\r\n        string memory _vaccinationStationName,\r\n        uint256 _quantity,\r\n        string memory _optimumRangeTemp,\r\n        string memory _optimumRangeHum\r\n    ) public onlyAuthCaller returns (address) {\r\n        address batchNo = address(\r\n            uint160(\r\n                uint256(\r\n                    keccak256(abi.encodePacked(msg.sender, block.timestamp))\r\n                )\r\n            )\r\n        );\r\n\r\n        basicDetailsData.producerName = _producerName;\r\n        basicDetailsData.storageName = _storageName;\r\n        basicDetailsData.distributorName = _distributorName;\r\n        basicDetailsData.vaccinationStationName = _vaccinationStationName;\r\n        basicDetailsData.quantity = _quantity;\r\n        basicDetailsData.optimumRangeTemp = _optimumRangeTemp;\r\n        basicDetailsData.optimumRangeHum = _optimumRangeHum;\r\n\r\n        batchBasicDetails[batchNo] = basicDetailsData;\r\n\r\n        nextAction[batchNo] = \"WAREHOUSER\";\r\n        return batchNo;\r\n    }\r\n\r\n    /* Set Warehouser */\r\n    function setWarehouser(\r\n        address batchNo,\r\n        string memory _vaccineName,\r\n        uint256 _quantity,\r\n        uint256 _price,\r\n        uint256 _storageDate,\r\n        string memory _optimumRangeTemp,\r\n        string memory _optimumRangeHum,\r\n        bool _isViolation\r\n    ) public onlyAuthCaller returns (bool) {\r\n        warehouserData.vaccineName = _vaccineName;\r\n        warehouserData.quantity = _quantity;\r\n        warehouserData.price = _price;\r\n        warehouserData.storageDate = _storageDate;\r\n        warehouserData.optimumRangeTemp = _optimumRangeTemp;\r\n        warehouserData.optimumRangeHum = _optimumRangeHum;\r\n        warehouserData.isViolation = _isViolation;\r\n\r\n        batchWarehouser[batchNo] = warehouserData;\r\n\r\n        nextAction[batchNo] = \"DISTRIBUTOR\";\r\n\r\n        return true;\r\n    }\r\n\r\n    /* Get Warehouser */\r\n    function getWarehouserData(address batchNo)\r\n        public\r\n        view\r\n        returns (\r\n            string memory vaccineName,\r\n            uint256 quantity,\r\n            uint256 price,\r\n            uint256 storageDate,\r\n            string memory optimumRangeTemp,\r\n            string memory optimumRangeHum,\r\n            bool isViolation\r\n        )\r\n    {\r\n        warehouser memory tmpData = batchWarehouser[batchNo];\r\n\r\n        return (\r\n            tmpData.vaccineName,\r\n            tmpData.quantity,\r\n            tmpData.price,\r\n            tmpData.storageDate,\r\n            tmpData.optimumRangeTemp,\r\n            tmpData.optimumRangeHum,\r\n            tmpData.isViolation\r\n        );\r\n    }\r\n\r\n    /* Set Distributor */\r\n    function setDistributor(\r\n        address batchNo,\r\n        string memory _destinationAddress,\r\n        string memory _shippingName,\r\n        uint256 _quantity,\r\n        uint256 _departureDateTime,\r\n        uint256 _estimateDateTime,\r\n        string memory _optimumRangeTemp,\r\n        string memory _optimumRangeHum\r\n    ) public onlyAuthCaller returns (bool) {\r\n        distributorData.destinationAddress = _destinationAddress;\r\n        distributorData.shippingName = _shippingName;\r\n        distributorData.quantity = _quantity;\r\n        distributorData.departureDateTime = _departureDateTime;\r\n        distributorData.estimateDateTime = _estimateDateTime;\r\n        distributorData.optimumRangeTemp = _optimumRangeTemp;\r\n        distributorData.optimumRangeHum = _optimumRangeHum;\r\n        batchDistributor[batchNo] = distributorData;\r\n\r\n        nextAction[batchNo] = \"VACCINATION_STATION\";\r\n\r\n        return true;\r\n    }\r\n\r\n    /* Get Distributor Data */\r\n    function getDistributorData(address batchNo)\r\n        public\r\n        view\r\n        returns (\r\n            string memory destinationAddress,\r\n            string memory shippingName,\r\n            uint256 quantity,\r\n            uint256 departureDateTime,\r\n            uint256 estimateDateTime,\r\n            string memory optimumRangeTemp,\r\n            string memory optimumRangeHum\r\n        )\r\n    {\r\n        distributor memory tmpData = batchDistributor[batchNo];\r\n\r\n        return (\r\n            tmpData.destinationAddress,\r\n            tmpData.shippingName,\r\n            tmpData.quantity,\r\n            tmpData.departureDateTime,\r\n            tmpData.estimateDateTime,\r\n            tmpData.optimumRangeTemp,\r\n            tmpData.optimumRangeHum\r\n        );\r\n    }\r\n\r\n    /* Set Vaccination Station */\r\n    function setVaccinationStation(\r\n        address batchNo,\r\n        uint256 _quantity,\r\n        uint256 _arrivalDateTime,\r\n        uint256 _vaccinationStationId,\r\n        string memory _shippingName,\r\n        string memory _shippingNo,\r\n        string memory _locationAddress\r\n    ) public onlyAuthCaller returns (bool) {\r\n        vaccinationStationData.quantity = _quantity;\r\n        vaccinationStationData.arrivalDateTime = _arrivalDateTime;\r\n        vaccinationStationData.vaccinationStationId = _vaccinationStationId;\r\n        vaccinationStationData.shippingName = _shippingName;\r\n        vaccinationStationData.shippingNo = _shippingNo;\r\n        vaccinationStationData.locationAddress = _locationAddress;\r\n\r\n        batchVaccinationStation[batchNo] = vaccinationStationData;\r\n\r\n        nextAction[batchNo] = \"OBJECT_INJECTION\";\r\n\r\n        return true;\r\n    }\r\n\r\n    /* Get Vaccination Station Data */\r\n    function getVaccinationStationData(address batchNo)\r\n        public\r\n        view\r\n        returns (\r\n            uint256 quantity,\r\n            uint256 arrivalDateTime,\r\n            uint256 vaccinationStationId,\r\n            string memory shippingName,\r\n            string memory shippingNo,\r\n            string memory locationAddress\r\n        )\r\n    {\r\n        vaccinationStation memory tmpData = batchVaccinationStation[batchNo];\r\n\r\n        return (\r\n            tmpData.quantity,\r\n            tmpData.arrivalDateTime,\r\n            tmpData.vaccinationStationId,\r\n            tmpData.shippingName,\r\n            tmpData.shippingNo,\r\n            tmpData.locationAddress\r\n        );\r\n    }\r\n\r\n    /* Set Vaccinated Person*/\r\n    function setObjectInjection(\r\n        address batchNo,\r\n        string memory _personName,\r\n        uint256 _age,\r\n        uint256 _identityCard,\r\n        uint256 _numberOfVaccinations,\r\n        uint256 _vaccinationDate,\r\n        string memory _typeOfVaccine,\r\n        string memory _phoneNumber\r\n    ) public onlyAuthCaller returns (bool) {\r\n        vaccinatedPersonData.personName = _personName;\r\n        vaccinatedPersonData.age = _age;\r\n        vaccinatedPersonData.identityCard = _identityCard;\r\n        vaccinatedPersonData.numberOfVaccinations = _numberOfVaccinations;\r\n        vaccinatedPersonData.vaccinationDate = _vaccinationDate;\r\n        vaccinatedPersonData.typeOfVaccine = _typeOfVaccine;\r\n        vaccinatedPersonData.phoneNumber = _phoneNumber;\r\n\r\n        batchVaccinatedPerson[batchNo] = vaccinatedPersonData;\r\n\r\n        nextAction[batchNo] = \"DONE\";\r\n\r\n        return true;\r\n    }\r\n\r\n    /* Get Vaccinated Person Data */\r\n    function getVaccinationPersonData(address batchNo)\r\n        public\r\n        view\r\n        returns (\r\n            string memory personName,\r\n            uint256 age,\r\n            uint256 identityCard,\r\n            uint256 numberOfVaccinations,\r\n            uint256 vaccinationDate,\r\n            string memory typeOfVaccine,\r\n            string memory phoneNumber\r\n        )\r\n    {\r\n        vaccinatedPerson memory tmpData = batchVaccinatedPerson[batchNo];\r\n\r\n        return (\r\n            tmpData.personName,\r\n            tmpData.age,\r\n            tmpData.identityCard,\r\n            tmpData.numberOfVaccinations,\r\n            tmpData.vaccinationDate,\r\n            tmpData.typeOfVaccine,\r\n            tmpData.phoneNumber\r\n        );\r\n    }\r\n}\r\n",
  "sourcePath": "D:\\Learn , Research, Explore\\UIT\\Dissertation\\Source\\packages\\dissertation_smartcontract\\contracts\\VaccineSystemStorage.sol",
  "compiler": {
    "name": "solc",
    "version": "0.8.7+commit.e28d00a7.Emscripten.clang"
  },
  "schemaVersion": "3.4.3",
  "updatedAt": "2021-11-07T06:51:22.648Z",
  "networkType": "ethereum",
  "devdoc": {
    "kind": "dev",
    "methods": {
      "renounceOwnership()": {
        "details": "Allows the current owner to relinquish control of the contract."
      },
      "transferOwnership(address)": {
        "details": "Allows the current owner to transfer control of the contract to a newOwner.",
        "params": {
          "newOwner": "The address to transfer ownership to."
        }
      }
    },
    "version": 1
  },
  "userdoc": {
    "kind": "user",
    "methods": {},
    "version": 1
  }
}