{
  "contractName": "VaccineSystemStorage",
  "abi": [
    {
      "inputs": [],
      "stateMutability": "nonpayable",
      "type": "constructor"
    },
    {
      "anonymous": false,
      "inputs": [
        {
          "indexed": false,
          "internalType": "address",
          "name": "caller",
          "type": "address"
        }
      ],
      "name": "AuthorizedCaller",
      "type": "event"
    },
    {
      "anonymous": false,
      "inputs": [
        {
          "indexed": false,
          "internalType": "address",
          "name": "caller",
          "type": "address"
        }
      ],
      "name": "DeAuthorizedCaller",
      "type": "event"
    },
    {
      "anonymous": false,
      "inputs": [
        {
          "indexed": true,
          "internalType": "address",
          "name": "previousOwner",
          "type": "address"
        }
      ],
      "name": "OwnershipRenounced",
      "type": "event"
    },
    {
      "anonymous": false,
      "inputs": [
        {
          "indexed": true,
          "internalType": "address",
          "name": "previousOwner",
          "type": "address"
        },
        {
          "indexed": true,
          "internalType": "address",
          "name": "newOwner",
          "type": "address"
        }
      ],
      "name": "OwnershipTransferred",
      "type": "event"
    },
    {
      "inputs": [],
      "name": "lastAccess",
      "outputs": [
        {
          "internalType": "address",
          "name": "",
          "type": "address"
        }
      ],
      "stateMutability": "view",
      "type": "function",
      "constant": true
    },
    {
      "inputs": [],
      "name": "owner",
      "outputs": [
        {
          "internalType": "address",
          "name": "",
          "type": "address"
        }
      ],
      "stateMutability": "view",
      "type": "function",
      "constant": true
    },
    {
      "inputs": [],
      "name": "renounceOwnership",
      "outputs": [],
      "stateMutability": "nonpayable",
      "type": "function"
    },
    {
      "inputs": [
        {
          "internalType": "address",
          "name": "newOwner",
          "type": "address"
        }
      ],
      "name": "transferOwnership",
      "outputs": [],
      "stateMutability": "nonpayable",
      "type": "function"
    },
    {
      "inputs": [
        {
          "internalType": "address",
          "name": "_caller",
          "type": "address"
        }
      ],
      "name": "authorizeCaller",
      "outputs": [
        {
          "internalType": "bool",
          "name": "",
          "type": "bool"
        }
      ],
      "stateMutability": "nonpayable",
      "type": "function"
    },
    {
      "inputs": [
        {
          "internalType": "address",
          "name": "_caller",
          "type": "address"
        }
      ],
      "name": "deAuthorizeCaller",
      "outputs": [
        {
          "internalType": "bool",
          "name": "",
          "type": "bool"
        }
      ],
      "stateMutability": "nonpayable",
      "type": "function"
    },
    {
      "inputs": [
        {
          "internalType": "address",
          "name": "_userAddress",
          "type": "address"
        }
      ],
      "name": "getUserRole",
      "outputs": [
        {
          "internalType": "string",
          "name": "",
          "type": "string"
        }
      ],
      "stateMutability": "view",
      "type": "function",
      "constant": true
    },
    {
      "inputs": [
        {
          "internalType": "address",
          "name": "_batchNo",
          "type": "address"
        }
      ],
      "name": "getNextAction",
      "outputs": [
        {
          "internalType": "string",
          "name": "",
          "type": "string"
        }
      ],
      "stateMutability": "view",
      "type": "function",
      "constant": true
    },
    {
      "inputs": [
        {
          "internalType": "address",
          "name": "_userAddress",
          "type": "address"
        },
        {
          "internalType": "string",
          "name": "_name",
          "type": "string"
        },
        {
          "internalType": "string",
          "name": "_contactNo",
          "type": "string"
        },
        {
          "internalType": "string",
          "name": "_role",
          "type": "string"
        },
        {
          "internalType": "bool",
          "name": "_isActive",
          "type": "bool"
        },
        {
          "internalType": "string",
          "name": "_profileHash",
          "type": "string"
        }
      ],
      "name": "setUser",
      "outputs": [
        {
          "internalType": "bool",
          "name": "",
          "type": "bool"
        }
      ],
      "stateMutability": "nonpayable",
      "type": "function"
    },
    {
      "inputs": [
        {
          "internalType": "address",
          "name": "_userAddress",
          "type": "address"
        }
      ],
      "name": "getUser",
      "outputs": [
        {
          "internalType": "string",
          "name": "name",
          "type": "string"
        },
        {
          "internalType": "string",
          "name": "contactNo",
          "type": "string"
        },
        {
          "internalType": "string",
          "name": "role",
          "type": "string"
        },
        {
          "internalType": "bool",
          "name": "isActive",
          "type": "bool"
        },
        {
          "internalType": "string",
          "name": "profileHash",
          "type": "string"
        }
      ],
      "stateMutability": "view",
      "type": "function",
      "constant": true
    },
    {
      "inputs": [
        {
          "internalType": "address",
          "name": "_batchNo",
          "type": "address"
        }
      ],
      "name": "getBasicDetails",
      "outputs": [
        {
          "internalType": "string",
          "name": "producerName",
          "type": "string"
        },
        {
          "internalType": "string",
          "name": "storageName",
          "type": "string"
        },
        {
          "internalType": "string",
          "name": "distributorName",
          "type": "string"
        },
        {
          "internalType": "string",
          "name": "vaccinationStationName",
          "type": "string"
        },
        {
          "internalType": "uint256",
          "name": "totalWeight",
          "type": "uint256"
        }
      ],
      "stateMutability": "view",
      "type": "function",
      "constant": true
    },
    {
      "inputs": [
        {
          "internalType": "string",
          "name": "_producerName",
          "type": "string"
        },
        {
          "internalType": "string",
          "name": "_storageName",
          "type": "string"
        },
        {
          "internalType": "string",
          "name": "_distributorName",
          "type": "string"
        },
        {
          "internalType": "string",
          "name": "_vaccinationStationName",
          "type": "string"
        },
        {
          "internalType": "uint256",
          "name": "_totalWeight",
          "type": "uint256"
        }
      ],
      "name": "setBasicDetails",
      "outputs": [
        {
          "internalType": "address",
          "name": "",
          "type": "address"
        }
      ],
      "stateMutability": "nonpayable",
      "type": "function"
    },
    {
      "inputs": [
        {
          "internalType": "address",
          "name": "batchNo",
          "type": "address"
        },
        {
          "internalType": "string",
          "name": "_vaccineName",
          "type": "string"
        },
        {
          "internalType": "uint256",
          "name": "_quantity",
          "type": "uint256"
        },
        {
          "internalType": "uint256",
          "name": "_price",
          "type": "uint256"
        },
        {
          "internalType": "uint256",
          "name": "_storageDate",
          "type": "uint256"
        },
        {
          "internalType": "uint256",
          "name": "_optimumTemp",
          "type": "uint256"
        },
        {
          "internalType": "uint256",
          "name": "_optimumHum",
          "type": "uint256"
        },
        {
          "internalType": "bool",
          "name": "_isViolation",
          "type": "bool"
        }
      ],
      "name": "setWarehouser",
      "outputs": [
        {
          "internalType": "bool",
          "name": "",
          "type": "bool"
        }
      ],
      "stateMutability": "nonpayable",
      "type": "function"
    },
    {
      "inputs": [
        {
          "internalType": "address",
          "name": "batchNo",
          "type": "address"
        }
      ],
      "name": "getWarehouserData",
      "outputs": [
        {
          "internalType": "string",
          "name": "vaccineName",
          "type": "string"
        },
        {
          "internalType": "uint256",
          "name": "quantity",
          "type": "uint256"
        },
        {
          "internalType": "uint256",
          "name": "price",
          "type": "uint256"
        },
        {
          "internalType": "uint256",
          "name": "storageDate",
          "type": "uint256"
        },
        {
          "internalType": "uint256",
          "name": "optimumTemp",
          "type": "uint256"
        },
        {
          "internalType": "uint256",
          "name": "optimumHum",
          "type": "uint256"
        },
        {
          "internalType": "bool",
          "name": "isViolation",
          "type": "bool"
        }
      ],
      "stateMutability": "view",
      "type": "function",
      "constant": true
    },
    {
      "inputs": [
        {
          "internalType": "address",
          "name": "batchNo",
          "type": "address"
        },
        {
          "internalType": "string",
          "name": "_shippingName",
          "type": "string"
        },
        {
          "internalType": "string",
          "name": "_shippingNo",
          "type": "string"
        },
        {
          "internalType": "uint256",
          "name": "_quantity",
          "type": "uint256"
        },
        {
          "internalType": "uint256",
          "name": "_departureDateTime",
          "type": "uint256"
        },
        {
          "internalType": "uint256",
          "name": "_estimateDateTime",
          "type": "uint256"
        },
        {
          "internalType": "uint256",
          "name": "_distributorId",
          "type": "uint256"
        },
        {
          "internalType": "uint256",
          "name": "_optimumTemp",
          "type": "uint256"
        },
        {
          "internalType": "uint256",
          "name": "_optimumHum",
          "type": "uint256"
        }
      ],
      "name": "setDistributor",
      "outputs": [
        {
          "internalType": "bool",
          "name": "",
          "type": "bool"
        }
      ],
      "stateMutability": "nonpayable",
      "type": "function"
    },
    {
      "inputs": [
        {
          "internalType": "address",
          "name": "batchNo",
          "type": "address"
        }
      ],
      "name": "getDistributorData",
      "outputs": [
        {
          "internalType": "string",
          "name": "shippingName",
          "type": "string"
        },
        {
          "internalType": "string",
          "name": "shippingNo",
          "type": "string"
        },
        {
          "internalType": "uint256",
          "name": "quantity",
          "type": "uint256"
        },
        {
          "internalType": "uint256",
          "name": "departureDateTime",
          "type": "uint256"
        },
        {
          "internalType": "uint256",
          "name": "estimateDateTime",
          "type": "uint256"
        },
        {
          "internalType": "uint256",
          "name": "distributorId",
          "type": "uint256"
        },
        {
          "internalType": "uint256",
          "name": "optimumTemp",
          "type": "uint256"
        },
        {
          "internalType": "uint256",
          "name": "optimumHum",
          "type": "uint256"
        }
      ],
      "stateMutability": "view",
      "type": "function",
      "constant": true
    },
    {
      "inputs": [
        {
          "internalType": "address",
          "name": "batchNo",
          "type": "address"
        },
        {
          "internalType": "uint256",
          "name": "_quantity",
          "type": "uint256"
        },
        {
          "internalType": "uint256",
          "name": "_arrivalDateTime",
          "type": "uint256"
        },
        {
          "internalType": "uint256",
          "name": "_vaccinationStationId",
          "type": "uint256"
        },
        {
          "internalType": "string",
          "name": "_shippingName",
          "type": "string"
        },
        {
          "internalType": "string",
          "name": "_shippingNo",
          "type": "string"
        }
      ],
      "name": "setVaccinationStation",
      "outputs": [
        {
          "internalType": "bool",
          "name": "",
          "type": "bool"
        }
      ],
      "stateMutability": "nonpayable",
      "type": "function"
    },
    {
      "inputs": [
        {
          "internalType": "address",
          "name": "batchNo",
          "type": "address"
        }
      ],
      "name": "getVaccinationStationData",
      "outputs": [
        {
          "internalType": "uint256",
          "name": "quantity",
          "type": "uint256"
        },
        {
          "internalType": "uint256",
          "name": "arrivalDateTime",
          "type": "uint256"
        },
        {
          "internalType": "uint256",
          "name": "vaccinationStationId",
          "type": "uint256"
        },
        {
          "internalType": "string",
          "name": "shippingName",
          "type": "string"
        },
        {
          "internalType": "string",
          "name": "shippingNo",
          "type": "string"
        }
      ],
      "stateMutability": "view",
      "type": "function",
      "constant": true
    },
    {
      "inputs": [
        {
          "internalType": "address",
          "name": "batchNo",
          "type": "address"
        },
        {
          "internalType": "string",
          "name": "_personName",
          "type": "string"
        },
        {
          "internalType": "uint256",
          "name": "_age",
          "type": "uint256"
        },
        {
          "internalType": "uint256",
          "name": "_identityCard",
          "type": "uint256"
        },
        {
          "internalType": "uint256",
          "name": "_numberOfVaccinations",
          "type": "uint256"
        },
        {
          "internalType": "uint256",
          "name": "_vaccinationDate",
          "type": "uint256"
        },
        {
          "internalType": "uint256",
          "name": "_typeOfVaccine",
          "type": "uint256"
        }
      ],
      "name": "setObjectInjection",
      "outputs": [
        {
          "internalType": "bool",
          "name": "",
          "type": "bool"
        }
      ],
      "stateMutability": "nonpayable",
      "type": "function"
    },
    {
      "inputs": [
        {
          "internalType": "address",
          "name": "batchNo",
          "type": "address"
        }
      ],
      "name": "getVaccinationPersonData",
      "outputs": [
        {
          "internalType": "string",
          "name": "personName",
          "type": "string"
        },
        {
          "internalType": "uint256",
          "name": "age",
          "type": "uint256"
        },
        {
          "internalType": "uint256",
          "name": "identityCard",
          "type": "uint256"
        },
        {
          "internalType": "uint256",
          "name": "numberOfVaccinations",
          "type": "uint256"
        },
        {
          "internalType": "uint256",
          "name": "vaccinationDate",
          "type": "uint256"
        },
        {
          "internalType": "uint256",
          "name": "typeOfVaccine",
          "type": "uint256"
        }
      ],
      "stateMutability": "view",
      "type": "function",
      "constant": true
    }
  ],
  "bytecode": "0x608060405234801561001057600080fd5b50336000806101000a81548173ffffffffffffffffffffffffffffffffffffffff021916908373ffffffffffffffffffffffffffffffffffffffff1602179055506001600260003373ffffffffffffffffffffffffffffffffffffffff1673ffffffffffffffffffffffffffffffffffffffff16815260200190815260200160002060006101000a81548160ff021916908360ff1602179055506133ef806100b96000396000f3fe608060405234801561001057600080fd5b506004361061012c5760003560e01c80636f77926b116100ad578063de29e42111610071578063de29e421146103cc578063ed39343c14610401578063f2997d7614610431578063f2fde38b14610465578063fb7a20af146104815761012c565b80636f77926b1461030c578063715018a6146103405780637971ea421461034a5780638da5cb5b1461037e578063d1269da81461039c5761012c565b80632c388d5d116100f45780632c388d5d1461022e5780633480898b1461025e5780633e9fbeaf1461027c578063465aa703146102ac5780634d6b5e00146102dc5761012c565b80630e408c6714610131578063161d5c1b146101615780631bcd250a1461019857806323d1cc8a146101c857806327820851146101fe575b600080fd5b61014b60048036038101906101469190612a56565b6104b1565b6040516101589190612e71565b60405180910390f35b61017b6004803603810190610176919061282a565b6106ca565b60405161018f989796959493929190612f8c565b60405180910390f35b6101b260048036038101906101ad919061282a565b610977565b6040516101bf9190612e71565b60405180910390f35b6101e260048036038101906101dd919061282a565b610a6b565b6040516101f59796959493929190613080565b60405180910390f35b6102186004803603810190610213919061282a565b610beb565b6040516102259190612e8c565b60405180910390f35b6102486004803603810190610243919061282a565b610cbc565b6040516102559190612e71565b60405180910390f35b610266610db0565b6040516102739190612e56565b60405180910390f35b61029660048036038101906102919190612954565b610dd6565b6040516102a39190612e71565b60405180910390f35b6102c660048036038101906102c19190612be6565b61108c565b6040516102d39190612e71565b60405180910390f35b6102f660048036038101906102f1919061282a565b6112b6565b6040516103039190612e8c565b60405180910390f35b6103266004803603810190610321919061282a565b611387565b604051610337959493929190612eae565b60405180910390f35b6103486116a2565b005b610364600480360381019061035f919061282a565b6117a0565b6040516103759594939291906130f6565b60405180910390f35b610386611965565b6040516103939190612e56565b60405180910390f35b6103b660048036038101906103b19190612cab565b611989565b6040516103c39190612e56565b60405180910390f35b6103e660048036038101906103e1919061282a565b611c2e565b6040516103f896959493929190613018565b60405180910390f35b61041b60048036038101906104169190612b14565b611d7d565b6040516104289190612e71565b60405180910390f35b61044b6004803603810190610446919061282a565b611feb565b60405161045c959493929190612f1d565b60405180910390f35b61047f600480360381019061047a919061282a565b6122bf565b005b61049b60048036038101906104969190612857565b61240e565b6040516104a89190612e71565b60405180910390f35b600033600160006101000a81548173ffffffffffffffffffffffffffffffffffffffff021916908373ffffffffffffffffffffffffffffffffffffffff1602179055506001600260003373ffffffffffffffffffffffffffffffffffffffff1673ffffffffffffffffffffffffffffffffffffffff16815260200190815260200160002060009054906101000a900460ff1660ff161461055057600080fd5b86602b600001908051906020019061056992919061264b565b5085602b6001018190555084602b6002018190555083602b6003018190555082602b6004018190555081602b60050181905550602b600960008a73ffffffffffffffffffffffffffffffffffffffff1673ffffffffffffffffffffffffffffffffffffffff16815260200190815260200160002060008201816000019080546105f190613253565b6105fc9291906126d1565b5060018201548160010155600282015481600201556003820154816003015560048201548160040155600582015481600501559050506040518060400160405280600481526020017f444f4e4500000000000000000000000000000000000000000000000000000000815250600a60008a73ffffffffffffffffffffffffffffffffffffffff1673ffffffffffffffffffffffffffffffffffffffff16815260200190815260200160002090805190602001906106ba92919061264b565b5060019050979650505050505050565b6060806000806000806000806000600760008b73ffffffffffffffffffffffffffffffffffffffff1673ffffffffffffffffffffffffffffffffffffffff1681526020019081526020016000206040518061014001604052908160008201805461073390613253565b80601f016020809104026020016040519081016040528092919081815260200182805461075f90613253565b80156107ac5780601f10610781576101008083540402835291602001916107ac565b820191906000526020600020905b81548152906001019060200180831161078f57829003601f168201915b505050505081526020016001820180546107c590613253565b80601f01602080910402602001604051908101604052809291908181526020018280546107f190613253565b801561083e5780601f106108135761010080835404028352916020019161083e565b820191906000526020600020905b81548152906001019060200180831161082157829003601f168201915b5050505050815260200160028201805461085790613253565b80601f016020809104026020016040519081016040528092919081815260200182805461088390613253565b80156108d05780601f106108a5576101008083540402835291602001916108d0565b820191906000526020600020905b8154815290600101906020018083116108b357829003601f168201915b5050505050815260200160038201548152602001600482015481526020016005820154815260200160068201548152602001600782015481526020016008820160009054906101000a900460ff16151515158152602001600982015481525050905080602001518160400151826060015183608001518460a001518561012001518660c001518760e001519850985098509850985098509850985050919395975091939597565b60008060009054906101000a900473ffffffffffffffffffffffffffffffffffffffff1673ffffffffffffffffffffffffffffffffffffffff163373ffffffffffffffffffffffffffffffffffffffff16146109d257600080fd5b6000600260008473ffffffffffffffffffffffffffffffffffffffff1673ffffffffffffffffffffffffffffffffffffffff16815260200190815260200160002060006101000a81548160ff021916908360ff1602179055507f9e8ca6ff03906e81e8a6a03d4f96b7edb0b97f0ed9d07ef1b699fff63438549682604051610a5a9190612e56565b60405180910390a160019050919050565b60606000806000806000806000600660008a73ffffffffffffffffffffffffffffffffffffffff1673ffffffffffffffffffffffffffffffffffffffff16815260200190815260200160002060405180610100016040529081600082018054610ad390613253565b80601f0160208091040260200160405190810160405280929190818152602001828054610aff90613253565b8015610b4c5780601f10610b2157610100808354040283529160200191610b4c565b820191906000526020600020905b815481529060010190602001808311610b2f57829003601f168201915b5050505050815260200160018201548152602001600282015481526020016003820154815260200160048201548152602001600582015481526020016006820160009054906101000a900460ff161515151581526020016007820154815250509050806000015181602001518260400151836060015184608001518560a001518660c00151975097509750975097509750975050919395979092949650565b6060600460008373ffffffffffffffffffffffffffffffffffffffff1673ffffffffffffffffffffffffffffffffffffffff1681526020019081526020016000208054610c3790613253565b80601f0160208091040260200160405190810160405280929190818152602001828054610c6390613253565b8015610cb05780601f10610c8557610100808354040283529160200191610cb0565b820191906000526020600020905b815481529060010190602001808311610c9357829003601f168201915b50505050509050919050565b60008060009054906101000a900473ffffffffffffffffffffffffffffffffffffffff1673ffffffffffffffffffffffffffffffffffffffff163373ffffffffffffffffffffffffffffffffffffffff1614610d1757600080fd5b6001600260008473ffffffffffffffffffffffffffffffffffffffff1673ffffffffffffffffffffffffffffffffffffffff16815260200190815260200160002060006101000a81548160ff021916908360ff1602179055507f8afeca650897be3183b7c0d24eba96a1b990f75c4bd74a0cfb2c0a71aec48e6182604051610d9f9190612e56565b60405180910390a160019050919050565b600160009054906101000a900473ffffffffffffffffffffffffffffffffffffffff1681565b600033600160006101000a81548173ffffffffffffffffffffffffffffffffffffffff021916908373ffffffffffffffffffffffffffffffffffffffff1602179055506001600260003373ffffffffffffffffffffffffffffffffffffffff1673ffffffffffffffffffffffffffffffffffffffff16815260200190815260200160002060009054906101000a900460ff1660ff1614610e7557600080fd5b88601c6001019080519060200190610e8e92919061264b565b5087601c6002019080519060200190610ea892919061264b565b5086601c6003018190555085601c6004018190555084601c6005018190555083601c6009018190555082601c6006018190555081601c60070181905550601c600760008c73ffffffffffffffffffffffffffffffffffffffff1673ffffffffffffffffffffffffffffffffffffffff1681526020019081526020016000206000820181600001908054610f3a90613253565b610f459291906126d1565b506001820181600101908054610f5a90613253565b610f659291906126d1565b506002820181600201908054610f7a90613253565b610f859291906126d1565b5060038201548160030155600482015481600401556005820154816005015560068201548160060155600782015481600701556008820160009054906101000a900460ff168160080160006101000a81548160ff021916908315150217905550600982015481600901559050506040518060400160405280601381526020017f56414343494e4154494f4e5f53544154494f4e00000000000000000000000000815250600a60008c73ffffffffffffffffffffffffffffffffffffffff1673ffffffffffffffffffffffffffffffffffffffff168152602001908152602001600020908051906020019061107a92919061264b565b50600190509998505050505050505050565b600033600160006101000a81548173ffffffffffffffffffffffffffffffffffffffff021916908373ffffffffffffffffffffffffffffffffffffffff1602179055506001600260003373ffffffffffffffffffffffffffffffffffffffff1673ffffffffffffffffffffffffffffffffffffffff16815260200190815260200160002060009054906101000a900460ff1660ff161461112b57600080fd5b856026600001819055508460266001018190555083602660020181905550826026600301908051906020019061116292919061264b565b50816026600401908051906020019061117c92919061264b565b506026600860008973ffffffffffffffffffffffffffffffffffffffff1673ffffffffffffffffffffffffffffffffffffffff16815260200190815260200160002060008201548160000155600182015481600101556002820154816002015560038201816003019080546111f090613253565b6111fb9291906126d1565b50600482018160040190805461121090613253565b61121b9291906126d1565b509050506040518060400160405280601081526020017f4f424a4543545f494e4a454354494f4e00000000000000000000000000000000815250600a60008973ffffffffffffffffffffffffffffffffffffffff1673ffffffffffffffffffffffffffffffffffffffff16815260200190815260200160002090805190602001906112a792919061264b565b50600190509695505050505050565b6060600a60008373ffffffffffffffffffffffffffffffffffffffff1673ffffffffffffffffffffffffffffffffffffffff168152602001908152602001600020805461130290613253565b80601f016020809104026020016040519081016040528092919081815260200182805461132e90613253565b801561137b5780601f106113505761010080835404028352916020019161137b565b820191906000526020600020905b81548152906001019060200180831161135e57829003601f168201915b50505050509050919050565b6060806060600060606000600360008873ffffffffffffffffffffffffffffffffffffffff1673ffffffffffffffffffffffffffffffffffffffff1681526020019081526020016000206040518060800160405290816000820180546113ec90613253565b80601f016020809104026020016040519081016040528092919081815260200182805461141890613253565b80156114655780601f1061143a57610100808354040283529160200191611465565b820191906000526020600020905b81548152906001019060200180831161144857829003601f168201915b5050505050815260200160018201805461147e90613253565b80601f01602080910402602001604051908101604052809291908181526020018280546114aa90613253565b80156114f75780601f106114cc576101008083540402835291602001916114f7565b820191906000526020600020905b8154815290600101906020018083116114da57829003601f168201915b505050505081526020016002820160009054906101000a900460ff1615151515815260200160038201805461152b90613253565b80601f016020809104026020016040519081016040528092919081815260200182805461155790613253565b80156115a45780601f10611579576101008083540402835291602001916115a4565b820191906000526020600020905b81548152906001019060200180831161158757829003601f168201915b505050505081525050905080600001518160200151600460008a73ffffffffffffffffffffffffffffffffffffffff1673ffffffffffffffffffffffffffffffffffffffff1681526020019081526020016000208360400151846060015182805461160e90613253565b80601f016020809104026020016040519081016040528092919081815260200182805461163a90613253565b80156116875780601f1061165c57610100808354040283529160200191611687565b820191906000526020600020905b81548152906001019060200180831161166a57829003601f168201915b50505050509250955095509550955095505091939590929450565b60008054906101000a900473ffffffffffffffffffffffffffffffffffffffff1673ffffffffffffffffffffffffffffffffffffffff163373ffffffffffffffffffffffffffffffffffffffff16146116fa57600080fd5b60008054906101000a900473ffffffffffffffffffffffffffffffffffffffff1673ffffffffffffffffffffffffffffffffffffffff167ff8df31144d9c2f0f6b59d69b8b98abd5459d07f2742c4df920b25aae33c6482060405160405180910390a260008060006101000a81548173ffffffffffffffffffffffffffffffffffffffff021916908373ffffffffffffffffffffffffffffffffffffffff160217905550565b60008060006060806000600860008873ffffffffffffffffffffffffffffffffffffffff1673ffffffffffffffffffffffffffffffffffffffff1681526020019081526020016000206040518060a001604052908160008201548152602001600182015481526020016002820154815260200160038201805461182290613253565b80601f016020809104026020016040519081016040528092919081815260200182805461184e90613253565b801561189b5780601f106118705761010080835404028352916020019161189b565b820191906000526020600020905b81548152906001019060200180831161187e57829003601f168201915b505050505081526020016004820180546118b490613253565b80601f01602080910402602001604051908101604052809291908181526020018280546118e090613253565b801561192d5780601f106119025761010080835404028352916020019161192d565b820191906000526020600020905b81548152906001019060200180831161191057829003601f168201915b505050505081525050905080600001518160200151826040015183606001518460800151955095509550955095505091939590929450565b60008054906101000a900473ffffffffffffffffffffffffffffffffffffffff1681565b600033600160006101000a81548173ffffffffffffffffffffffffffffffffffffffff021916908373ffffffffffffffffffffffffffffffffffffffff1602179055506001600260003373ffffffffffffffffffffffffffffffffffffffff1673ffffffffffffffffffffffffffffffffffffffff16815260200190815260200160002060009054906101000a900460ff1660ff1614611a2857600080fd5b60003342604051602001611a3d929190612e2a565b6040516020818303038152906040528051906020012060001c905086600f6000019080519060200190611a7192919061264b565b5085600f6001019080519060200190611a8b92919061264b565b5084600f6002019080519060200190611aa592919061264b565b5083600f6003019080519060200190611abf92919061264b565b5082600f60040181905550600f600560008373ffffffffffffffffffffffffffffffffffffffff1673ffffffffffffffffffffffffffffffffffffffff1681526020019081526020016000206000820181600001908054611b1f90613253565b611b2a9291906126d1565b506001820181600101908054611b3f90613253565b611b4a9291906126d1565b506002820181600201908054611b5f90613253565b611b6a9291906126d1565b506003820181600301908054611b7f90613253565b611b8a9291906126d1565b50600482015481600401559050506040518060400160405280600a81526020017f57415245484f5553455200000000000000000000000000000000000000000000815250600a60008373ffffffffffffffffffffffffffffffffffffffff1673ffffffffffffffffffffffffffffffffffffffff1681526020019081526020016000209080519060200190611c2092919061264b565b508091505095945050505050565b6060600080600080600080600960008973ffffffffffffffffffffffffffffffffffffffff1673ffffffffffffffffffffffffffffffffffffffff1681526020019081526020016000206040518060c0016040529081600082018054611c9390613253565b80601f0160208091040260200160405190810160405280929190818152602001828054611cbf90613253565b8015611d0c5780601f10611ce157610100808354040283529160200191611d0c565b820191906000526020600020905b815481529060010190602001808311611cef57829003601f168201915b50505050508152602001600182015481526020016002820154815260200160038201548152602001600482015481526020016005820154815250509050806000015181602001518260400151836060015184608001518560a001519650965096509650965096505091939550919395565b600033600160006101000a81548173ffffffffffffffffffffffffffffffffffffffff021916908373ffffffffffffffffffffffffffffffffffffffff1602179055506001600260003373ffffffffffffffffffffffffffffffffffffffff1673ffffffffffffffffffffffffffffffffffffffff16815260200190815260200160002060009054906101000a900460ff1660ff1614611e1c57600080fd5b8760146000019080519060200190611e3592919061264b565b50866014600101819055508560146002018190555084601460030181905550836014600401819055508260146005018190555081601460060160006101000a81548160ff0219169083151502179055506014600660008b73ffffffffffffffffffffffffffffffffffffffff1673ffffffffffffffffffffffffffffffffffffffff1681526020019081526020016000206000820181600001908054611eda90613253565b611ee59291906126d1565b5060018201548160010155600282015481600201556003820154816003015560048201548160040155600582015481600501556006820160009054906101000a900460ff168160060160006101000a81548160ff021916908315150217905550600782015481600701559050506040518060400160405280600b81526020017f4449535452494255544f52000000000000000000000000000000000000000000815250600a60008b73ffffffffffffffffffffffffffffffffffffffff1673ffffffffffffffffffffffffffffffffffffffff1681526020019081526020016000209080519060200190611fda92919061264b565b506001905098975050505050505050565b606080606080600080600560008873ffffffffffffffffffffffffffffffffffffffff1673ffffffffffffffffffffffffffffffffffffffff1681526020019081526020016000206040518060a001604052908160008201805461204e90613253565b80601f016020809104026020016040519081016040528092919081815260200182805461207a90613253565b80156120c75780601f1061209c576101008083540402835291602001916120c7565b820191906000526020600020905b8154815290600101906020018083116120aa57829003601f168201915b505050505081526020016001820180546120e090613253565b80601f016020809104026020016040519081016040528092919081815260200182805461210c90613253565b80156121595780601f1061212e57610100808354040283529160200191612159565b820191906000526020600020905b81548152906001019060200180831161213c57829003601f168201915b5050505050815260200160028201805461217290613253565b80601f016020809104026020016040519081016040528092919081815260200182805461219e90613253565b80156121eb5780601f106121c0576101008083540402835291602001916121eb565b820191906000526020600020905b8154815290600101906020018083116121ce57829003601f168201915b5050505050815260200160038201805461220490613253565b80601f016020809104026020016040519081016040528092919081815260200182805461223090613253565b801561227d5780601f106122525761010080835404028352916020019161227d565b820191906000526020600020905b81548152906001019060200180831161226057829003601f168201915b50505050508152602001600482015481525050905080600001518160200151826040015183606001518460800151955095509550955095505091939590929450565b60008054906101000a900473ffffffffffffffffffffffffffffffffffffffff1673ffffffffffffffffffffffffffffffffffffffff163373ffffffffffffffffffffffffffffffffffffffff161461231757600080fd5b600073ffffffffffffffffffffffffffffffffffffffff168173ffffffffffffffffffffffffffffffffffffffff16141561235157600080fd5b8073ffffffffffffffffffffffffffffffffffffffff1660008054906101000a900473ffffffffffffffffffffffffffffffffffffffff1673ffffffffffffffffffffffffffffffffffffffff167f8be0079c531659141344cd1fd0a4f28419497f9722a3daafe3b4186f6b6457e060405160405180910390a3806000806101000a81548173ffffffffffffffffffffffffffffffffffffffff021916908373ffffffffffffffffffffffffffffffffffffffff16021790555050565b600033600160006101000a81548173ffffffffffffffffffffffffffffffffffffffff021916908373ffffffffffffffffffffffffffffffffffffffff1602179055506001600260003373ffffffffffffffffffffffffffffffffffffffff1673ffffffffffffffffffffffffffffffffffffffff16815260200190815260200160002060009054906101000a900460ff1660ff16146124ad57600080fd5b85600b60000190805190602001906124c692919061264b565b5084600b60010190805190602001906124e092919061264b565b5082600b60020160006101000a81548160ff02191690831515021790555081600b600301908051906020019061251792919061264b565b50600b600360008973ffffffffffffffffffffffffffffffffffffffff1673ffffffffffffffffffffffffffffffffffffffff168152602001908152602001600020600082018160000190805461256d90613253565b6125789291906126d1565b50600182018160010190805461258d90613253565b6125989291906126d1565b506002820160009054906101000a900460ff168160020160006101000a81548160ff02191690831515021790555060038201816003019080546125da90613253565b6125e59291906126d1565b5090505083600460008973ffffffffffffffffffffffffffffffffffffffff1673ffffffffffffffffffffffffffffffffffffffff168152602001908152602001600020908051906020019061263c92919061264b565b50600190509695505050505050565b82805461265790613253565b90600052602060002090601f01602090048101928261267957600085556126c0565b82601f1061269257805160ff19168380011785556126c0565b828001600101855582156126c0579182015b828111156126bf5782518255916020019190600101906126a4565b5b5090506126cd919061275e565b5090565b8280546126dd90613253565b90600052602060002090601f0160209004810192826126ff576000855561274d565b82601f10612710578054855561274d565b8280016001018555821561274d57600052602060002091601f016020900482015b8281111561274c578254825591600101919060010190612731565b5b50905061275a919061275e565b5090565b5b8082111561277757600081600090555060010161275f565b5090565b600061278e6127898461317c565b613157565b9050828152602081018484840111156127aa576127a9613347565b5b6127b5848285613211565b509392505050565b6000813590506127cc81613374565b92915050565b6000813590506127e18161338b565b92915050565b600082601f8301126127fc576127fb613342565b5b813561280c84826020860161277b565b91505092915050565b600081359050612824816133a2565b92915050565b6000602082840312156128405761283f613351565b5b600061284e848285016127bd565b91505092915050565b60008060008060008060c0878903121561287457612873613351565b5b600061288289828a016127bd565b965050602087013567ffffffffffffffff8111156128a3576128a261334c565b5b6128af89828a016127e7565b955050604087013567ffffffffffffffff8111156128d0576128cf61334c565b5b6128dc89828a016127e7565b945050606087013567ffffffffffffffff8111156128fd576128fc61334c565b5b61290989828a016127e7565b935050608061291a89828a016127d2565b92505060a087013567ffffffffffffffff81111561293b5761293a61334c565b5b61294789828a016127e7565b9150509295509295509295565b60008060008060008060008060006101208a8c03121561297757612976613351565b5b60006129858c828d016127bd565b99505060208a013567ffffffffffffffff8111156129a6576129a561334c565b5b6129b28c828d016127e7565b98505060408a013567ffffffffffffffff8111156129d3576129d261334c565b5b6129df8c828d016127e7565b97505060606129f08c828d01612815565b9650506080612a018c828d01612815565b95505060a0612a128c828d01612815565b94505060c0612a238c828d01612815565b93505060e0612a348c828d01612815565b925050610100612a468c828d01612815565b9150509295985092959850929598565b600080600080600080600060e0888a031215612a7557612a74613351565b5b6000612a838a828b016127bd565b975050602088013567ffffffffffffffff811115612aa457612aa361334c565b5b612ab08a828b016127e7565b9650506040612ac18a828b01612815565b9550506060612ad28a828b01612815565b9450506080612ae38a828b01612815565b93505060a0612af48a828b01612815565b92505060c0612b058a828b01612815565b91505092959891949750929550565b600080600080600080600080610100898b031215612b3557612b34613351565b5b6000612b438b828c016127bd565b985050602089013567ffffffffffffffff811115612b6457612b6361334c565b5b612b708b828c016127e7565b9750506040612b818b828c01612815565b9650506060612b928b828c01612815565b9550506080612ba38b828c01612815565b94505060a0612bb48b828c01612815565b93505060c0612bc58b828c01612815565b92505060e0612bd68b828c016127d2565b9150509295985092959890939650565b60008060008060008060c08789031215612c0357612c02613351565b5b6000612c1189828a016127bd565b9650506020612c2289828a01612815565b9550506040612c3389828a01612815565b9450506060612c4489828a01612815565b935050608087013567ffffffffffffffff811115612c6557612c6461334c565b5b612c7189828a016127e7565b92505060a087013567ffffffffffffffff811115612c9257612c9161334c565b5b612c9e89828a016127e7565b9150509295509295509295565b600080600080600060a08688031215612cc757612cc6613351565b5b600086013567ffffffffffffffff811115612ce557612ce461334c565b5b612cf1888289016127e7565b955050602086013567ffffffffffffffff811115612d1257612d1161334c565b5b612d1e888289016127e7565b945050604086013567ffffffffffffffff811115612d3f57612d3e61334c565b5b612d4b888289016127e7565b935050606086013567ffffffffffffffff811115612d6c57612d6b61334c565b5b612d78888289016127e7565b9250506080612d8988828901612815565b9150509295509295909350565b612d9f816131c9565b82525050565b612db6612db1826131c9565b6132b6565b82525050565b612dc5816131db565b82525050565b6000612dd6826131ad565b612de081856131b8565b9350612df0818560208601613220565b612df981613356565b840191505092915050565b612e0d81613207565b82525050565b612e24612e1f82613207565b6132da565b82525050565b6000612e368285612da5565b601482019150612e468284612e13565b6020820191508190509392505050565b6000602082019050612e6b6000830184612d96565b92915050565b6000602082019050612e866000830184612dbc565b92915050565b60006020820190508181036000830152612ea68184612dcb565b905092915050565b600060a0820190508181036000830152612ec88188612dcb565b90508181036020830152612edc8187612dcb565b90508181036040830152612ef08186612dcb565b9050612eff6060830185612dbc565b8181036080830152612f118184612dcb565b90509695505050505050565b600060a0820190508181036000830152612f378188612dcb565b90508181036020830152612f4b8187612dcb565b90508181036040830152612f5f8186612dcb565b90508181036060830152612f738185612dcb565b9050612f826080830184612e04565b9695505050505050565b6000610100820190508181036000830152612fa7818b612dcb565b90508181036020830152612fbb818a612dcb565b9050612fca6040830189612e04565b612fd76060830188612e04565b612fe46080830187612e04565b612ff160a0830186612e04565b612ffe60c0830185612e04565b61300b60e0830184612e04565b9998505050505050505050565b600060c08201905081810360008301526130328189612dcb565b90506130416020830188612e04565b61304e6040830187612e04565b61305b6060830186612e04565b6130686080830185612e04565b61307560a0830184612e04565b979650505050505050565b600060e082019050818103600083015261309a818a612dcb565b90506130a96020830189612e04565b6130b66040830188612e04565b6130c36060830187612e04565b6130d06080830186612e04565b6130dd60a0830185612e04565b6130ea60c0830184612dbc565b98975050505050505050565b600060a08201905061310b6000830188612e04565b6131186020830187612e04565b6131256040830186612e04565b81810360608301526131378185612dcb565b9050818103608083015261314b8184612dcb565b90509695505050505050565b6000613161613172565b905061316d8282613285565b919050565b6000604051905090565b600067ffffffffffffffff82111561319757613196613313565b5b6131a082613356565b9050602081019050919050565b600081519050919050565b600082825260208201905092915050565b60006131d4826131e7565b9050919050565b60008115159050919050565b600073ffffffffffffffffffffffffffffffffffffffff82169050919050565b6000819050919050565b82818337600083830152505050565b60005b8381101561323e578082015181840152602081019050613223565b8381111561324d576000848401525b50505050565b6000600282049050600182168061326b57607f821691505b6020821081141561327f5761327e6132e4565b5b50919050565b61328e82613356565b810181811067ffffffffffffffff821117156132ad576132ac613313565b5b80604052505050565b60006132c1826132c8565b9050919050565b60006132d382613367565b9050919050565b6000819050919050565b7f4e487b7100000000000000000000000000000000000000000000000000000000600052602260045260246000fd5b7f4e487b7100000000000000000000000000000000000000000000000000000000600052604160045260246000fd5b600080fd5b600080fd5b600080fd5b600080fd5b6000601f19601f8301169050919050565b60008160601b9050919050565b61337d816131c9565b811461338857600080fd5b50565b613394816131db565b811461339f57600080fd5b50565b6133ab81613207565b81146133b657600080fd5b5056fea2646970667358221220ef953f1202f6cb7065cc71d3d9e54203ec23d8c219309503082ac7b4b5b6c13564736f6c63430008070033",
  "immutableReferences": {},
  "source": "pragma solidity ^0.8.7;\r\n\r\nimport \"./Ownable.sol\";\r\n\r\ncontract VaccineSystemStorage is Ownable {\r\n    address public lastAccess;\r\n\r\n    constructor() public {\r\n        authorizedCaller[msg.sender] = 1;\r\n    }\r\n\r\n    /* Declare Events */\r\n    event AuthorizedCaller(address caller);\r\n    event DeAuthorizedCaller(address caller);\r\n\r\n    /* Declare Modifiers */\r\n    modifier onlyAuthCaller() {\r\n        lastAccess = msg.sender;\r\n        require(authorizedCaller[msg.sender] == 1);\r\n        _;\r\n    }\r\n\r\n    /* Caller Mapping */\r\n    mapping(address => uint8) authorizedCaller;\r\n\r\n    /* User Interface */\r\n    struct user {\r\n        string name;\r\n        string contactNo;\r\n        bool isActive;\r\n        string profileHash;\r\n    }\r\n\r\n    mapping(address => user) userDetails;\r\n    mapping(address => string) userRole;\r\n\r\n    /* Authorized Caller */\r\n    function authorizeCaller(address _caller) public onlyOwner returns (bool) {\r\n        authorizedCaller[_caller] = 1;\r\n        emit AuthorizedCaller(_caller);\r\n        return true;\r\n    }\r\n\r\n    /* De-Authorized Caller */\r\n    function deAuthorizeCaller(address _caller)\r\n        public\r\n        onlyOwner\r\n        returns (bool)\r\n    {\r\n        authorizedCaller[_caller] = 0;\r\n        emit DeAuthorizedCaller(_caller);\r\n        return true;\r\n    }\r\n\r\n    struct basicDetails {\r\n        string producerName;\r\n        string storageName;\r\n        string distributorName;\r\n        string vaccinationStationName;\r\n        uint256 totalWeight;\r\n    }\r\n\r\n    struct warehouser {\r\n        string vaccineName;\r\n        uint256 quantity;\r\n        uint256 price;\r\n        uint256 storageDate;\r\n        uint256 optimumTemp;\r\n        uint256 optimumHum;\r\n        bool isViolation;\r\n        uint256 warehouserId;\r\n    }\r\n\r\n    struct distributor {\r\n        string destinationAddress;\r\n        string shippingName;\r\n        string shippingNo;\r\n        uint256 quantity;\r\n        uint256 departureDateTime;\r\n        uint256 estimateDateTime;\r\n        uint256 optimumTemp;\r\n        uint256 optimumHum;\r\n        bool isViolation;\r\n        uint256 distributorId;\r\n    }\r\n\r\n    struct vaccinationStation {\r\n        uint256 quantity;\r\n        uint256 arrivalDateTime;\r\n        uint256 vaccinationStationId;\r\n        string shippingName;\r\n        string shippingNo;\r\n    }\r\n\r\n    struct vaccinatedPerson {\r\n        string personName;\r\n        uint256 age;\r\n        uint256 identityCard;\r\n        uint256 numberOfVaccinations;\r\n        uint256 vaccinationDate;\r\n        uint256 typeOfVaccine;\r\n    }\r\n\r\n    mapping(address => basicDetails) batchBasicDetails;\r\n    mapping(address => warehouser) batchWarehouser;\r\n    mapping(address => distributor) batchDistributor;\r\n    mapping(address => vaccinationStation) batchVaccinationStation;\r\n    mapping(address => vaccinatedPerson) batchVaccinatedPerson;\r\n    mapping(address => string) nextAction;\r\n\r\n    /* Init Struct Pointer */\r\n    user userDetail;\r\n    basicDetails basicDetailsData;\r\n    warehouser warehouserData;\r\n    distributor distributorData;\r\n    vaccinationStation vaccinationStationData;\r\n    vaccinatedPerson vaccinatedPersonData;\r\n\r\n    /* Get User Role */\r\n    function getUserRole(address _userAddress)\r\n        public\r\n        view\r\n        returns (string memory)\r\n    {\r\n        return userRole[_userAddress];\r\n    }\r\n\r\n    /* Get Next Action */\r\n    function getNextAction(address _batchNo)\r\n        public\r\n        view\r\n        returns (string memory)\r\n    {\r\n        return nextAction[_batchNo];\r\n    }\r\n\r\n    /* Set User Detail */\r\n    function setUser(\r\n        address _userAddress,\r\n        string memory _name,\r\n        string memory _contactNo,\r\n        string memory _role,\r\n        bool _isActive,\r\n        string memory _profileHash\r\n    ) public onlyAuthCaller returns (bool) {\r\n        /* Store Data User Into Struct - User */\r\n        userDetail.name = _name;\r\n        userDetail.contactNo = _contactNo;\r\n        userDetail.isActive = _isActive;\r\n        userDetail.profileHash = _profileHash;\r\n\r\n        /* Store Data User Into Mapping - User */\r\n        userDetails[_userAddress] = userDetail;\r\n        userRole[_userAddress] = _role;\r\n\r\n        return true;\r\n    }\r\n\r\n    /* Get User details */\r\n    function getUser(address _userAddress)\r\n        public\r\n        view\r\n        returns (\r\n            string memory name,\r\n            string memory contactNo,\r\n            string memory role,\r\n            bool isActive,\r\n            string memory profileHash\r\n        )\r\n    {\r\n        /* Get User Value From Struct */\r\n        user memory tmpData = userDetails[_userAddress];\r\n\r\n        return (\r\n            tmpData.name,\r\n            tmpData.contactNo,\r\n            userRole[_userAddress],\r\n            tmpData.isActive,\r\n            tmpData.profileHash\r\n        );\r\n    }\r\n\r\n    /* Get Batch Basic Details */\r\n    function getBasicDetails(address _batchNo)\r\n        public\r\n        view\r\n        returns (\r\n            string memory producerName,\r\n            string memory storageName,\r\n            string memory distributorName,\r\n            string memory vaccinationStationName,\r\n            uint256 totalWeight\r\n        )\r\n    {\r\n        basicDetails memory tmpData = batchBasicDetails[_batchNo];\r\n\r\n        return (\r\n            tmpData.producerName,\r\n            tmpData.storageName,\r\n            tmpData.distributorName,\r\n            tmpData.vaccinationStationName,\r\n            tmpData.totalWeight\r\n        );\r\n    }\r\n\r\n    /* Set Batch Basic Detail */\r\n    function setBasicDetails(\r\n        string memory _producerName,\r\n        string memory _storageName,\r\n        string memory _distributorName,\r\n        string memory _vaccinationStationName,\r\n        uint256 _totalWeight\r\n    ) public onlyAuthCaller returns (address) {\r\n        address batchNo = address(\r\n            uint160(\r\n                uint256(\r\n                    keccak256(abi.encodePacked(msg.sender, block.timestamp))\r\n                )\r\n            )\r\n        );\r\n\r\n        basicDetailsData.producerName = _producerName;\r\n        basicDetailsData.storageName = _storageName;\r\n        basicDetailsData.distributorName = _distributorName;\r\n        basicDetailsData.vaccinationStationName = _vaccinationStationName;\r\n        basicDetailsData.totalWeight = _totalWeight;\r\n\r\n        batchBasicDetails[batchNo] = basicDetailsData;\r\n\r\n        nextAction[batchNo] = \"WAREHOUSER\";\r\n        return batchNo;\r\n    }\r\n\r\n    /* Set Warehouser */\r\n    function setWarehouser(\r\n        address batchNo,\r\n        string memory _vaccineName,\r\n        uint256 _quantity,\r\n        uint256 _price,\r\n        uint256 _storageDate,\r\n        uint256 _optimumTemp,\r\n        uint256 _optimumHum,\r\n        bool _isViolation\r\n    ) public onlyAuthCaller returns (bool) {\r\n        warehouserData.vaccineName = _vaccineName;\r\n        warehouserData.quantity = _quantity;\r\n        warehouserData.price = _price;\r\n        warehouserData.storageDate = _storageDate;\r\n        warehouserData.optimumTemp = _optimumTemp;\r\n        warehouserData.optimumHum = _optimumHum;\r\n        warehouserData.isViolation = _isViolation;\r\n\r\n        batchWarehouser[batchNo] = warehouserData;\r\n\r\n        nextAction[batchNo] = \"DISTRIBUTOR\";\r\n\r\n        return true;\r\n    }\r\n\r\n    /* Get Warehouser */\r\n    function getWarehouserData(address batchNo)\r\n        public\r\n        view\r\n        returns (\r\n            string memory vaccineName,\r\n            uint256 quantity,\r\n            uint256 price,\r\n            uint256 storageDate,\r\n            uint256 optimumTemp,\r\n            uint256 optimumHum,\r\n            bool isViolation\r\n        )\r\n    {\r\n        warehouser memory tmpData = batchWarehouser[batchNo];\r\n\r\n        return (\r\n            tmpData.vaccineName,\r\n            tmpData.quantity,\r\n            tmpData.price,\r\n            tmpData.storageDate,\r\n            tmpData.optimumTemp,\r\n            tmpData.optimumHum,\r\n            tmpData.isViolation\r\n        );\r\n    }\r\n\r\n    /* Set Distributor */\r\n    function setDistributor(\r\n        address batchNo,\r\n        string memory _shippingName,\r\n        string memory _shippingNo,\r\n        uint256 _quantity,\r\n        uint256 _departureDateTime, \r\n        uint256 _estimateDateTime,\r\n        uint256 _distributorId,\r\n        uint256 _optimumTemp,\r\n        uint256 _optimumHum\r\n    ) public onlyAuthCaller returns (bool) {\r\n        distributorData.shippingName = _shippingName;\r\n        distributorData.shippingNo = _shippingNo;\r\n        distributorData.quantity = _quantity;\r\n        distributorData.departureDateTime = _departureDateTime;\r\n        distributorData.estimateDateTime = _estimateDateTime;\r\n        distributorData.distributorId = _distributorId;\r\n        distributorData.optimumTemp = _optimumTemp;\r\n        distributorData.optimumHum = _optimumHum;\r\n\r\n        batchDistributor[batchNo] = distributorData;\r\n\r\n        nextAction[batchNo] = \"VACCINATION_STATION\";\r\n\r\n        return true;\r\n    }\r\n\r\n    /* Get Distributor Data */\r\n    function getDistributorData(address batchNo) public view returns(\r\n        string memory shippingName,\r\n        string memory shippingNo,\r\n        uint256 quantity,\r\n        uint256 departureDateTime,\r\n        uint256 estimateDateTime,\r\n        uint256 distributorId,\r\n        uint256 optimumTemp,\r\n        uint256 optimumHum\r\n    ) {\r\n        distributor memory tmpData = batchDistributor[batchNo];\r\n\r\n        return (\r\n            tmpData.shippingName,\r\n            tmpData.shippingNo,\r\n            tmpData.quantity,\r\n            tmpData.departureDateTime,\r\n            tmpData.estimateDateTime,\r\n            tmpData.distributorId,\r\n            tmpData.optimumTemp,\r\n            tmpData.optimumHum\r\n        );\r\n    }\r\n\r\n    /* Set Vaccination Station */\r\n    function setVaccinationStation(\r\n        address batchNo,\r\n        uint256 _quantity,\r\n        uint256 _arrivalDateTime,\r\n        uint256 _vaccinationStationId,\r\n        string memory _shippingName,\r\n        string memory _shippingNo\r\n    ) public onlyAuthCaller returns(bool) {\r\n        vaccinationStationData.quantity = _quantity;\r\n        vaccinationStationData.arrivalDateTime = _arrivalDateTime;\r\n        vaccinationStationData.vaccinationStationId = _vaccinationStationId;\r\n        vaccinationStationData.shippingName = _shippingName;\r\n        vaccinationStationData.shippingNo = _shippingNo;\r\n\r\n        batchVaccinationStation[batchNo] = vaccinationStationData;\r\n\r\n        nextAction[batchNo] = \"OBJECT_INJECTION\";\r\n\r\n        return true;\r\n    }\r\n\r\n    /* Get Vaccination Station Data */\r\n    function getVaccinationStationData(address batchNo) public view returns (\r\n        uint256 quantity,\r\n        uint256 arrivalDateTime,\r\n        uint256 vaccinationStationId,\r\n        string memory shippingName,\r\n        string memory shippingNo\r\n    ) {\r\n        vaccinationStation memory tmpData = batchVaccinationStation[batchNo];\r\n\r\n        return (\r\n            tmpData.quantity,\r\n            tmpData.arrivalDateTime,\r\n            tmpData.vaccinationStationId,\r\n            tmpData.shippingName,\r\n            tmpData.shippingNo\r\n        );\r\n    }\r\n\r\n    /* Set Vaccinated Person*/\r\n    function setObjectInjection(\r\n        address batchNo, \r\n        string memory _personName,\r\n        uint256 _age,\r\n        uint256 _identityCard,\r\n        uint256 _numberOfVaccinations,\r\n        uint256 _vaccinationDate,\r\n        uint256 _typeOfVaccine\r\n    ) public onlyAuthCaller returns (bool) {\r\n        vaccinatedPersonData.personName = _personName;\r\n        vaccinatedPersonData.age = _age;\r\n        vaccinatedPersonData.identityCard = _identityCard;\r\n        vaccinatedPersonData.numberOfVaccinations = _numberOfVaccinations;\r\n        vaccinatedPersonData.vaccinationDate = _vaccinationDate;\r\n        vaccinatedPersonData.typeOfVaccine = _typeOfVaccine;\r\n\r\n        batchVaccinatedPerson[batchNo] = vaccinatedPersonData;\r\n\r\n        nextAction[batchNo] = \"DONE\";\r\n\r\n        return true;\r\n    }\r\n\r\n    /* Get Vaccinated Person Data */\r\n    function getVaccinationPersonData(address batchNo) public view returns (\r\n        string memory personName,\r\n        uint256 age,\r\n        uint256 identityCard,\r\n        uint256 numberOfVaccinations,\r\n        uint256 vaccinationDate,\r\n        uint256 typeOfVaccine\r\n    ) {\r\n        vaccinatedPerson memory tmpData = batchVaccinatedPerson[batchNo];\r\n\r\n        return (\r\n            tmpData.personName,\r\n            tmpData.age,\r\n            tmpData.identityCard,\r\n            tmpData.numberOfVaccinations,\r\n            tmpData.vaccinationDate,\r\n            tmpData.typeOfVaccine\r\n        );\r\n    }\r\n}\r\n",
  "sourcePath": "D:\\Learn\\UIT\\Dissertation\\Source\\packages\\dissertation_smartcontract\\contracts\\VaccineSystemStorage.sol",
  "compiler": {
    "name": "solc",
    "version": "0.8.7+commit.e28d00a7.Emscripten.clang"
  },
  "schemaVersion": "3.4.3",
  "updatedAt": "2021-10-18T15:07:22.478Z",
  "networkType": "ethereum",
  "devdoc": {
    "kind": "dev",
    "methods": {
      "renounceOwnership()": {
        "details": "Allows the current owner to relinquish control of the contract."
      },
      "transferOwnership(address)": {
        "details": "Allows the current owner to transfer control of the contract to a newOwner.",
        "params": {
          "newOwner": "The address to transfer ownership to."
        }
      }
    },
    "version": 1
  },
  "userdoc": {
    "kind": "user",
    "methods": {},
    "version": 1
  }
}