{
  "contractName": "VaccineUserAttend",
  "abi": [
    {
      "inputs": [
        {
          "internalType": "address",
          "name": "_vaccineSystemAddress",
          "type": "address"
        }
      ],
      "stateMutability": "nonpayable",
      "type": "constructor"
    },
    {
      "anonymous": false,
      "inputs": [
        {
          "indexed": true,
          "internalType": "address",
          "name": "previousOwner",
          "type": "address"
        }
      ],
      "name": "OwnershipRenounced",
      "type": "event"
    },
    {
      "anonymous": false,
      "inputs": [
        {
          "indexed": true,
          "internalType": "address",
          "name": "previousOwner",
          "type": "address"
        },
        {
          "indexed": true,
          "internalType": "address",
          "name": "newOwner",
          "type": "address"
        }
      ],
      "name": "OwnershipTransferred",
      "type": "event"
    },
    {
      "anonymous": false,
      "inputs": [
        {
          "indexed": true,
          "internalType": "address",
          "name": "user",
          "type": "address"
        },
        {
          "indexed": false,
          "internalType": "string",
          "name": "role",
          "type": "string"
        }
      ],
      "name": "UserRoleUpdate",
      "type": "event"
    },
    {
      "anonymous": false,
      "inputs": [
        {
          "indexed": true,
          "internalType": "address",
          "name": "user",
          "type": "address"
        },
        {
          "indexed": false,
          "internalType": "string",
          "name": "name",
          "type": "string"
        },
        {
          "indexed": false,
          "internalType": "string",
          "name": "contactNo",
          "type": "string"
        },
        {
          "indexed": false,
          "internalType": "string",
          "name": "role",
          "type": "string"
        },
        {
          "indexed": false,
          "internalType": "bool",
          "name": "isActive",
          "type": "bool"
        },
        {
          "indexed": false,
          "internalType": "string",
          "name": "profileHash",
          "type": "string"
        }
      ],
      "name": "UserUpdate",
      "type": "event"
    },
    {
      "inputs": [],
      "name": "owner",
      "outputs": [
        {
          "internalType": "address",
          "name": "",
          "type": "address"
        }
      ],
      "stateMutability": "view",
      "type": "function",
      "constant": true
    },
    {
      "inputs": [],
      "name": "renounceOwnership",
      "outputs": [],
      "stateMutability": "nonpayable",
      "type": "function"
    },
    {
      "inputs": [
        {
          "internalType": "address",
          "name": "newOwner",
          "type": "address"
        }
      ],
      "name": "transferOwnership",
      "outputs": [],
      "stateMutability": "nonpayable",
      "type": "function"
    },
    {
      "inputs": [
        {
          "internalType": "string",
          "name": "_name",
          "type": "string"
        },
        {
          "internalType": "string",
          "name": "_contactNo",
          "type": "string"
        },
        {
          "internalType": "string",
          "name": "_role",
          "type": "string"
        },
        {
          "internalType": "bool",
          "name": "_isActive",
          "type": "bool"
        },
        {
          "internalType": "string",
          "name": "_profileHash",
          "type": "string"
        }
      ],
      "name": "updateUser",
      "outputs": [
        {
          "internalType": "bool",
          "name": "",
          "type": "bool"
        }
      ],
      "stateMutability": "nonpayable",
      "type": "function"
    },
    {
      "inputs": [
        {
          "internalType": "address",
          "name": "_userAddress",
          "type": "address"
        },
        {
          "internalType": "string",
          "name": "_name",
          "type": "string"
        },
        {
          "internalType": "string",
          "name": "_contactNo",
          "type": "string"
        },
        {
          "internalType": "string",
          "name": "_role",
          "type": "string"
        },
        {
          "internalType": "bool",
          "name": "_isActive",
          "type": "bool"
        },
        {
          "internalType": "string",
          "name": "_profileHash",
          "type": "string"
        }
      ],
      "name": "updateUserForAdmin",
      "outputs": [
        {
          "internalType": "bool",
          "name": "",
          "type": "bool"
        }
      ],
      "stateMutability": "nonpayable",
      "type": "function"
    },
    {
      "inputs": [
        {
          "internalType": "address",
          "name": "_userAddress",
          "type": "address"
        }
      ],
      "name": "getUser",
      "outputs": [
        {
          "internalType": "string",
          "name": "name",
          "type": "string"
        },
        {
          "internalType": "string",
          "name": "contactNo",
          "type": "string"
        },
        {
          "internalType": "string",
          "name": "role",
          "type": "string"
        },
        {
          "internalType": "bool",
          "name": "isActive",
          "type": "bool"
        },
        {
          "internalType": "string",
          "name": "profileHash",
          "type": "string"
        }
      ],
      "stateMutability": "view",
      "type": "function",
      "constant": true
    }
  ],
  "bytecode": "0x608060405234801561001057600080fd5b50604051610b8f380380610b8f83398101604081905261002f91610062565b60008054336001600160a01b031991821617909155600180549091166001600160a01b0392909216919091179055610092565b60006020828403121561007457600080fd5b81516001600160a01b038116811461008b57600080fd5b9392505050565b610aee806100a16000396000f3fe608060405234801561001057600080fd5b50600436106100725760003560e01c80638da5cb5b116100505780638da5cb5b146100cd578063f2fde38b146100f8578063f5c8dee91461010b57600080fd5b80631e7d76aa146100775780636f77926b1461009f578063715018a6146100c3575b600080fd5b61008a610085366004610697565b61011e565b60405190151581526020015b60405180910390f35b6100b26100ad366004610675565b61026d565b6040516100969594939291906109a7565b6100cb610362565b005b6000546100e0906001600160a01b031681565b6040516001600160a01b039091168152602001610096565b6100cb610106366004610675565b6103c1565b61008a610119366004610781565b610446565b600080546001600160a01b0316331461013657600080fd5b6001600160a01b03871661014957600080fd5b60015460405163fb7a20af60e01b81526000916001600160a01b03169063fb7a20af90610184908b908b908b908b908b908b90600401610923565b602060405180830381600087803b15801561019e57600080fd5b505af11580156101b2573d6000803e3d6000fd5b505050506040513d601f19601f820116820180604052508101906101d69190610764565b9050876001600160a01b03167f913673700610456ef7bb668e20badb980d1e4df0ba5bfbdbb6e7bfb0ddbcc6c988888888886040516102199594939291906109a7565b60405180910390a2336001600160a01b03167f3b419384c2ac88d62e2daac72f8c6e6398c474d91c63e814a307e3641762c8de8660405161025a9190610994565b60405180910390a2979650505050505050565b606080806000816001600160a01b0386166102cf5760405162461bcd60e51b815260206004820152601760248201527f55736572204164647265737320497320496e76616c696400000000000000000060448201526064015b60405180910390fd5b600154604051636f77926b60e01b81526001600160a01b03888116600483015290911690636f77926b9060240160006040518083038186803b15801561031457600080fd5b505afa158015610328573d6000803e3d6000fd5b505050506040513d6000823e601f3d908101601f191682016040526103509190810190610843565b939a9299509097509550909350915050565b6000546001600160a01b0316331461037957600080fd5b600080546040516001600160a01b03909116917ff8df31144d9c2f0f6b59d69b8b98abd5459d07f2742c4df920b25aae33c6482091a2600080546001600160a01b0319169055565b6000546001600160a01b031633146103d857600080fd5b6001600160a01b0381166103eb57600080fd5b600080546040516001600160a01b03808516939216917f8be0079c531659141344cd1fd0a4f28419497f9722a3daafe3b4186f6b6457e091a3600080546001600160a01b0319166001600160a01b0392909216919091179055565b6000336104885760405162461bcd60e51b815260206004820152601060248201526f155cd95c88125cc8125b8815985b1a5960821b60448201526064016102c6565b60015460405163fb7a20af60e01b81526000916001600160a01b03169063fb7a20af906104c39033908b908b908b908b908b90600401610923565b602060405180830381600087803b1580156104dd57600080fd5b505af11580156104f1573d6000803e3d6000fd5b505050506040513d601f19601f820116820180604052508101906105159190610764565b9050336001600160a01b03167f913673700610456ef7bb668e20badb980d1e4df0ba5bfbdbb6e7bfb0ddbcc6c988888888886040516105589594939291906109a7565b60405180910390a2336001600160a01b03167f3b419384c2ac88d62e2daac72f8c6e6398c474d91c63e814a307e3641762c8de866040516105999190610994565b60405180910390a29695505050505050565b80356001600160a01b03811681146105c257600080fd5b919050565b80356105c281610aa7565b600082601f8301126105e357600080fd5b81356105f66105f182610a39565b610a08565b81815284602083860101111561060b57600080fd5b816020850160208301376000918101602001919091529392505050565b600082601f83011261063957600080fd5b81516106476105f182610a39565b81815284602083860101111561065c57600080fd5b61066d826020830160208701610a61565b949350505050565b60006020828403121561068757600080fd5b610690826105ab565b9392505050565b60008060008060008060c087890312156106b057600080fd5b6106b9876105ab565b9550602087013567ffffffffffffffff808211156106d657600080fd5b6106e28a838b016105d2565b965060408901359150808211156106f857600080fd5b6107048a838b016105d2565b9550606089013591508082111561071a57600080fd5b6107268a838b016105d2565b945061073460808a016105c7565b935060a089013591508082111561074a57600080fd5b5061075789828a016105d2565b9150509295509295509295565b60006020828403121561077657600080fd5b815161069081610aa7565b600080600080600060a0868803121561079957600080fd5b853567ffffffffffffffff808211156107b157600080fd5b6107bd89838a016105d2565b965060208801359150808211156107d357600080fd5b6107df89838a016105d2565b955060408801359150808211156107f557600080fd5b61080189838a016105d2565b94506060880135915061081382610aa7565b9092506080870135908082111561082957600080fd5b50610836888289016105d2565b9150509295509295909350565b600080600080600060a0868803121561085b57600080fd5b855167ffffffffffffffff8082111561087357600080fd5b61087f89838a01610628565b9650602088015191508082111561089557600080fd5b6108a189838a01610628565b955060408801519150808211156108b757600080fd5b6108c389838a01610628565b9450606088015191506108d582610aa7565b6080880151919350808211156108ea57600080fd5b5061083688828901610628565b6000815180845261090f816020860160208601610a61565b601f01601f19169290920160200192915050565b6001600160a01b038716815260c06020820152600061094560c08301886108f7565b828103604084015261095781886108f7565b9050828103606084015261096b81876108f7565b9050841515608084015282810360a084015261098781856108f7565b9998505050505050505050565b60208152600061069060208301846108f7565b60a0815260006109ba60a08301886108f7565b82810360208401526109cc81886108f7565b905082810360408401526109e081876108f7565b9050841515606084015282810360808401526109fc81856108f7565b98975050505050505050565b604051601f8201601f1916810167ffffffffffffffff81118282101715610a3157610a31610a91565b604052919050565b600067ffffffffffffffff821115610a5357610a53610a91565b50601f01601f191660200190565b60005b83811015610a7c578181015183820152602001610a64565b83811115610a8b576000848401525b50505050565b634e487b7160e01b600052604160045260246000fd5b8015158114610ab557600080fd5b5056fea2646970667358221220eed82b2cb1667af34b100182dda86d0d0e187c50441a3580f51a5507b3e2f8aa64736f6c63430008070033",
  "immutableReferences": {},
  "source": "// SPDX-License-Identifier: MIT\r\npragma solidity ^0.8.7;\r\nimport \"./VaccineSystemStorage.sol\";\r\nimport \"./Ownable.sol\";\r\n\r\ncontract VaccineUserAttend is Ownable {\r\n    /* Event Declare */\r\n    event UserUpdate(\r\n        address indexed user,\r\n        string name,\r\n        string contactNo,\r\n        string role,\r\n        bool isActive,\r\n        string profileHash\r\n    );\r\n    event UserRoleUpdate(address indexed user, string role);\r\n\r\n    /* Storage Variable */\r\n    VaccineSystemStorage vaccineSystemStorage;\r\n\r\n    constructor(address _vaccineSystemAddress) {\r\n        vaccineSystemStorage = VaccineSystemStorage(_vaccineSystemAddress);\r\n    }\r\n\r\n    /* Create/Update An User */\r\n    function updateUser(\r\n        string memory _name,\r\n        string memory _contactNo,\r\n        string memory _role,\r\n        bool _isActive,\r\n        string memory _profileHash\r\n    ) public returns (bool) {\r\n        require(msg.sender != address(0), \"User Is In Valid\");\r\n\r\n        /* Call Storage COntract */\r\n        bool status = vaccineSystemStorage.setUser(\r\n            msg.sender,\r\n            _name,\r\n            _contactNo,\r\n            _role,\r\n            _isActive,\r\n            _profileHash\r\n        );\r\n\r\n        /* Call Event */\r\n        emit UserUpdate(\r\n            msg.sender,\r\n            _name,\r\n            _contactNo,\r\n            _role,\r\n            _isActive,\r\n            _profileHash\r\n        );\r\n\r\n        emit UserRoleUpdate(msg.sender, _role);\r\n\r\n        return status;\r\n    }\r\n\r\n    /* Create/Update User For Admin */\r\n    function updateUserForAdmin(\r\n        address _userAddress,\r\n        string memory _name,\r\n        string memory _contactNo,\r\n        string memory _role,\r\n        bool _isActive,\r\n        string memory _profileHash\r\n    ) public onlyOwner returns (bool) {\r\n        require(_userAddress != address(0));\r\n\r\n        /* Call Storage Contract */\r\n        bool status = vaccineSystemStorage.setUser(\r\n            _userAddress,\r\n            _name,\r\n            _contactNo,\r\n            _role,\r\n            _isActive,\r\n            _profileHash\r\n        );\r\n\r\n        /* Call Event */\r\n        /* Call Event */\r\n        emit UserUpdate(\r\n            _userAddress,\r\n            _name,\r\n            _contactNo,\r\n            _role,\r\n            _isActive,\r\n            _profileHash\r\n        );\r\n\r\n        emit UserRoleUpdate(msg.sender, _role);\r\n\r\n        return status;\r\n    }\r\n\r\n    /* Get User */\r\n    function getUser(address _userAddress) public view returns(\r\n        string memory name,\r\n        string memory contactNo,\r\n        string memory role,\r\n        bool isActive,\r\n        string memory profileHash\r\n    ) {\r\n        require(_userAddress != address(0), \"User Address Is Invalid\");\r\n\r\n        /* Getting value from struct */\r\n        (name, contactNo, role, isActive, profileHash) = vaccineSystemStorage.getUser(_userAddress);\r\n        return (name, contactNo, role, isActive, profileHash);\r\n    }\r\n}\r\n",
  "sourcePath": "D:\\Learn , Research, Explore\\UIT\\Dissertation\\Source\\packages\\dissertation_smartcontract\\contracts\\VaccineUserAttend.sol",
  "compiler": {
    "name": "solc",
    "version": "0.8.7+commit.e28d00a7.Emscripten.clang"
  },
  "schemaVersion": "3.4.3",
  "updatedAt": "2021-11-06T05:50:39.845Z",
  "networkType": "ethereum",
  "devdoc": {
    "kind": "dev",
    "methods": {
      "renounceOwnership()": {
        "details": "Allows the current owner to relinquish control of the contract."
      },
      "transferOwnership(address)": {
        "details": "Allows the current owner to transfer control of the contract to a newOwner.",
        "params": {
          "newOwner": "The address to transfer ownership to."
        }
      }
    },
    "version": 1
  },
  "userdoc": {
    "kind": "user",
    "methods": {},
    "version": 1
  }
}