{
  "contractName": "VaccineSupplyChain",
  "abi": [
    {
      "inputs": [
        {
          "internalType": "address",
          "name": "_vaccineSystemAddress",
          "type": "address"
        }
      ],
      "stateMutability": "nonpayable",
      "type": "constructor"
    },
    {
      "anonymous": false,
      "inputs": [
        {
          "indexed": true,
          "internalType": "address",
          "name": "user",
          "type": "address"
        },
        {
          "indexed": true,
          "internalType": "address",
          "name": "batchNo",
          "type": "address"
        }
      ],
      "name": "CompleteBasicDetail",
      "type": "event"
    },
    {
      "anonymous": false,
      "inputs": [
        {
          "indexed": true,
          "internalType": "address",
          "name": "user",
          "type": "address"
        },
        {
          "indexed": true,
          "internalType": "address",
          "name": "batchNo",
          "type": "address"
        }
      ],
      "name": "CompleteDistributor",
      "type": "event"
    },
    {
      "anonymous": false,
      "inputs": [
        {
          "indexed": true,
          "internalType": "address",
          "name": "user",
          "type": "address"
        },
        {
          "indexed": true,
          "internalType": "address",
          "name": "batchNo",
          "type": "address"
        }
      ],
      "name": "CompleteVaccinatePerson",
      "type": "event"
    },
    {
      "anonymous": false,
      "inputs": [
        {
          "indexed": true,
          "internalType": "address",
          "name": "user",
          "type": "address"
        },
        {
          "indexed": true,
          "internalType": "address",
          "name": "batchNo",
          "type": "address"
        }
      ],
      "name": "CompleteVaccinationStation",
      "type": "event"
    },
    {
      "anonymous": false,
      "inputs": [
        {
          "indexed": true,
          "internalType": "address",
          "name": "user",
          "type": "address"
        },
        {
          "indexed": true,
          "internalType": "address",
          "name": "batchNo",
          "type": "address"
        }
      ],
      "name": "CompleteWarehouser",
      "type": "event"
    },
    {
      "anonymous": false,
      "inputs": [
        {
          "indexed": true,
          "internalType": "address",
          "name": "previousOwner",
          "type": "address"
        }
      ],
      "name": "OwnershipRenounced",
      "type": "event"
    },
    {
      "anonymous": false,
      "inputs": [
        {
          "indexed": true,
          "internalType": "address",
          "name": "previousOwner",
          "type": "address"
        },
        {
          "indexed": true,
          "internalType": "address",
          "name": "newOwner",
          "type": "address"
        }
      ],
      "name": "OwnershipTransferred",
      "type": "event"
    },
    {
      "inputs": [],
      "name": "owner",
      "outputs": [
        {
          "internalType": "address",
          "name": "",
          "type": "address"
        }
      ],
      "stateMutability": "view",
      "type": "function",
      "constant": true
    },
    {
      "inputs": [],
      "name": "renounceOwnership",
      "outputs": [],
      "stateMutability": "nonpayable",
      "type": "function"
    },
    {
      "inputs": [
        {
          "internalType": "address",
          "name": "newOwner",
          "type": "address"
        }
      ],
      "name": "transferOwnership",
      "outputs": [],
      "stateMutability": "nonpayable",
      "type": "function"
    },
    {
      "inputs": [],
      "name": "getBalance",
      "outputs": [
        {
          "internalType": "uint256",
          "name": "",
          "type": "uint256"
        }
      ],
      "stateMutability": "nonpayable",
      "type": "function"
    },
    {
      "inputs": [
        {
          "internalType": "address",
          "name": "_batchNo",
          "type": "address"
        }
      ],
      "name": "getNextAction",
      "outputs": [
        {
          "internalType": "string",
          "name": "action",
          "type": "string"
        }
      ],
      "stateMutability": "view",
      "type": "function",
      "constant": true
    },
    {
      "inputs": [
        {
          "internalType": "address",
          "name": "_batchNo",
          "type": "address"
        }
      ],
      "name": "getBasicDetailsData",
      "outputs": [
        {
          "internalType": "string",
          "name": "producerName",
          "type": "string"
        },
        {
          "internalType": "string",
          "name": "storageName",
          "type": "string"
        },
        {
          "internalType": "string",
          "name": "distributorName",
          "type": "string"
        },
        {
          "internalType": "string",
          "name": "vaccinationStationName",
          "type": "string"
        },
        {
          "internalType": "uint256",
          "name": "totalWeight",
          "type": "uint256"
        }
      ],
      "stateMutability": "view",
      "type": "function",
      "constant": true
    },
    {
      "inputs": [
        {
          "internalType": "string",
          "name": "_producerName",
          "type": "string"
        },
        {
          "internalType": "string",
          "name": "_storageName",
          "type": "string"
        },
        {
          "internalType": "string",
          "name": "_distributorName",
          "type": "string"
        },
        {
          "internalType": "string",
          "name": "_vaccinationStationName",
          "type": "string"
        },
        {
          "internalType": "uint256",
          "name": "_totalWeight",
          "type": "uint256"
        }
      ],
      "name": "addBasicDetails",
      "outputs": [
        {
          "internalType": "address",
          "name": "",
          "type": "address"
        }
      ],
      "stateMutability": "nonpayable",
      "type": "function"
    },
    {
      "inputs": [
        {
          "internalType": "address",
          "name": "_batchNo",
          "type": "address"
        }
      ],
      "name": "getWarehouserData",
      "outputs": [
        {
          "internalType": "string",
          "name": "vaccineName",
          "type": "string"
        },
        {
          "internalType": "uint256",
          "name": "quantity",
          "type": "uint256"
        },
        {
          "internalType": "uint256",
          "name": "price",
          "type": "uint256"
        },
        {
          "internalType": "uint256",
          "name": "optimumTemp",
          "type": "uint256"
        },
        {
          "internalType": "uint256",
          "name": "optimumHum",
          "type": "uint256"
        },
        {
          "internalType": "uint256",
          "name": "storageDate",
          "type": "uint256"
        },
        {
          "internalType": "bool",
          "name": "isViolation",
          "type": "bool"
        }
      ],
      "stateMutability": "view",
      "type": "function",
      "constant": true
    },
    {
      "inputs": [
        {
          "internalType": "address",
          "name": "_batchNo",
          "type": "address"
        },
        {
          "internalType": "string",
          "name": "_vaccineName",
          "type": "string"
        },
        {
          "internalType": "uint256",
          "name": "_quantity",
          "type": "uint256"
        },
        {
          "internalType": "uint256",
          "name": "_price",
          "type": "uint256"
        },
        {
          "internalType": "uint256",
          "name": "_optimumTemp",
          "type": "uint256"
        },
        {
          "internalType": "uint256",
          "name": "_optimumHum",
          "type": "uint256"
        },
        {
          "internalType": "uint256",
          "name": "_storageDate",
          "type": "uint256"
        },
        {
          "internalType": "bool",
          "name": "_isViolation",
          "type": "bool"
        }
      ],
      "name": "updateWarehouser",
      "outputs": [
        {
          "internalType": "bool",
          "name": "",
          "type": "bool"
        }
      ],
      "stateMutability": "nonpayable",
      "type": "function"
    },
    {
      "inputs": [
        {
          "internalType": "address",
          "name": "_batchNo",
          "type": "address"
        }
      ],
      "name": "getDistributorData",
      "outputs": [
        {
          "internalType": "string",
          "name": "shippingName",
          "type": "string"
        },
        {
          "internalType": "string",
          "name": "shippingNo",
          "type": "string"
        },
        {
          "internalType": "uint256",
          "name": "quantity",
          "type": "uint256"
        },
        {
          "internalType": "uint256",
          "name": "departureDateTime",
          "type": "uint256"
        },
        {
          "internalType": "uint256",
          "name": "estimateDateTime",
          "type": "uint256"
        },
        {
          "internalType": "uint256",
          "name": "distributorId",
          "type": "uint256"
        },
        {
          "internalType": "uint256",
          "name": "optimumTemp",
          "type": "uint256"
        },
        {
          "internalType": "uint256",
          "name": "optimumHum",
          "type": "uint256"
        }
      ],
      "stateMutability": "view",
      "type": "function",
      "constant": true
    },
    {
      "inputs": [
        {
          "internalType": "address",
          "name": "_batchNo",
          "type": "address"
        },
        {
          "internalType": "string",
          "name": "_shippingName",
          "type": "string"
        },
        {
          "internalType": "string",
          "name": "_shippingNo",
          "type": "string"
        },
        {
          "internalType": "uint256",
          "name": "_quantity",
          "type": "uint256"
        },
        {
          "internalType": "uint256",
          "name": "_departureDateTime",
          "type": "uint256"
        },
        {
          "internalType": "uint256",
          "name": "_estimateDateTime",
          "type": "uint256"
        },
        {
          "internalType": "uint256",
          "name": "_distributorId",
          "type": "uint256"
        },
        {
          "internalType": "uint256",
          "name": "_optimumTemp",
          "type": "uint256"
        },
        {
          "internalType": "uint256",
          "name": "_optimumHum",
          "type": "uint256"
        }
      ],
      "name": "updateDistributorData",
      "outputs": [
        {
          "internalType": "bool",
          "name": "",
          "type": "bool"
        }
      ],
      "stateMutability": "nonpayable",
      "type": "function"
    },
    {
      "inputs": [
        {
          "internalType": "address",
          "name": "_batchNo",
          "type": "address"
        }
      ],
      "name": "getVaccinationStation",
      "outputs": [
        {
          "internalType": "uint256",
          "name": "quantity",
          "type": "uint256"
        },
        {
          "internalType": "uint256",
          "name": "arrivalDateTime",
          "type": "uint256"
        },
        {
          "internalType": "uint256",
          "name": "vaccinationStationId",
          "type": "uint256"
        },
        {
          "internalType": "string",
          "name": "shippingName",
          "type": "string"
        },
        {
          "internalType": "string",
          "name": "shippingNo",
          "type": "string"
        }
      ],
      "stateMutability": "view",
      "type": "function",
      "constant": true
    },
    {
      "inputs": [
        {
          "internalType": "address",
          "name": "_batchNo",
          "type": "address"
        },
        {
          "internalType": "uint256",
          "name": "_quantity",
          "type": "uint256"
        },
        {
          "internalType": "uint256",
          "name": "_arrivalDateTime",
          "type": "uint256"
        },
        {
          "internalType": "uint256",
          "name": "_vaccinationStationId",
          "type": "uint256"
        },
        {
          "internalType": "string",
          "name": "_shippingName",
          "type": "string"
        },
        {
          "internalType": "string",
          "name": "_shippingNo",
          "type": "string"
        }
      ],
      "name": "updateVaccinationStation",
      "outputs": [
        {
          "internalType": "bool",
          "name": "",
          "type": "bool"
        }
      ],
      "stateMutability": "nonpayable",
      "type": "function"
    },
    {
      "inputs": [
        {
          "internalType": "address",
          "name": "_batchNo",
          "type": "address"
        }
      ],
      "name": "getVaccinateData",
      "outputs": [
        {
          "internalType": "string",
          "name": "personName",
          "type": "string"
        },
        {
          "internalType": "uint256",
          "name": "age",
          "type": "uint256"
        },
        {
          "internalType": "uint256",
          "name": "identityCard",
          "type": "uint256"
        },
        {
          "internalType": "uint256",
          "name": "numberOfVaccinations",
          "type": "uint256"
        },
        {
          "internalType": "uint256",
          "name": "vaccinationDate",
          "type": "uint256"
        },
        {
          "internalType": "uint256",
          "name": "typeOfVaccine",
          "type": "uint256"
        }
      ],
      "stateMutability": "view",
      "type": "function",
      "constant": true
    },
    {
      "inputs": [
        {
          "internalType": "address",
          "name": "_batchNo",
          "type": "address"
        },
        {
          "internalType": "string",
          "name": "_personName",
          "type": "string"
        },
        {
          "internalType": "uint256",
          "name": "_age",
          "type": "uint256"
        },
        {
          "internalType": "uint256",
          "name": "_identityCard",
          "type": "uint256"
        },
        {
          "internalType": "uint256",
          "name": "_numberOfVaccinations",
          "type": "uint256"
        },
        {
          "internalType": "uint256",
          "name": "_vaccinationDate",
          "type": "uint256"
        },
        {
          "internalType": "uint256",
          "name": "_typeOfVaccine",
          "type": "uint256"
        }
      ],
      "name": "updateVaccinatePerson",
      "outputs": [
        {
          "internalType": "bool",
          "name": "",
          "type": "bool"
        }
      ],
      "stateMutability": "nonpayable",
      "type": "function"
    }
  ],
  "bytecode": "0x60806040523480156200001157600080fd5b5060405162002d7838038062002d788339818101604052810190620000379190620000d6565b336000806101000a81548173ffffffffffffffffffffffffffffffffffffffff021916908373ffffffffffffffffffffffffffffffffffffffff16021790555080600160006101000a81548173ffffffffffffffffffffffffffffffffffffffff021916908373ffffffffffffffffffffffffffffffffffffffff160217905550506200015b565b600081519050620000d08162000141565b92915050565b600060208284031215620000ef57620000ee6200013c565b5b6000620000ff84828501620000bf565b91505092915050565b600062000115826200011c565b9050919050565b600073ffffffffffffffffffffffffffffffffffffffff82169050919050565b600080fd5b6200014c8162000108565b81146200015857600080fd5b50565b612c0d806200016b6000396000f3fe608060405234801561001057600080fd5b50600436106100f55760003560e01c80638da5cb5b11610097578063da89e49d11610066578063da89e49d146102da578063eaa581d61461030a578063ef59a3171461033a578063f2fde38b1461036a576100f5565b80638da5cb5b14610228578063948a5e1214610246578063aa6ce5d714610276578063b8fbbc37146102a6576100f5565b806323d1cc8a116100d357806323d1cc8a1461018357806329c62de3146101b95780634d6b5e00146101ee578063715018a61461021e576100f5565b806312065fe0146100fa578063161d5c1b146101185780632159dffa1461014f575b600080fd5b610102610386565b60405161010f919061298a565b60405180910390f35b610132600480360381019061012d9190611ba1565b61038e565b604051610146989796959493929190612820565b60405180910390f35b61016960048036038101906101649190611ba1565b610475565b60405161017a9594939291906127b1565b60405180910390f35b61019d60048036038101906101989190611ba1565b61054a565b6040516101b09796959493929190612914565b60405180910390f35b6101d360048036038101906101ce9190611ba1565b61062c565b6040516101e5969594939291906128ac565b60405180910390f35b61020860048036038101906102039190611ba1565b610707565b604051610215919061278f565b60405180910390f35b6102266107c0565b005b6102306108be565b60405161023d9190612554565b60405180910390f35b610260600480360381019061025b9190611cfd565b6108e2565b60405161026d9190612774565b60405180910390f35b610290600480360381019061028b9190611dbb565b610c51565b60405161029d9190612774565b60405180910390f35b6102c060048036038101906102bb9190611ba1565b610fc3565b6040516102d19594939291906129a5565b60405180910390f35b6102f460048036038101906102ef9190611fc8565b611098565b6040516103019190612554565b60405180910390f35b610324600480360381019061031f9190611bfb565b611213565b6040516103319190612774565b60405180910390f35b610354600480360381019061034f9190611e8d565b611588565b6040516103619190612774565b60405180910390f35b610384600480360381019061037f9190611ba1565b6118f4565b005b600047905090565b606080600080600080600080600160009054906101000a900473ffffffffffffffffffffffffffffffffffffffff1673ffffffffffffffffffffffffffffffffffffffff1663161d5c1b8a6040518263ffffffff1660e01b81526004016103f59190612554565b60006040518083038186803b15801561040d57600080fd5b505afa158015610421573d6000803e3d6000fd5b505050506040513d6000823e3d601f19601f8201168201806040525081019061044a919061219e565b809850819950829a50839b50849c50859d50869e50879f505050505050505050919395975091939597565b6060806060806000600160009054906101000a900473ffffffffffffffffffffffffffffffffffffffff1673ffffffffffffffffffffffffffffffffffffffff1663f2997d76876040518263ffffffff1660e01b81526004016104d89190612554565b60006040518083038186803b1580156104f057600080fd5b505afa158015610504573d6000803e3d6000fd5b505050506040513d6000823e3d601f19601f8201168201806040525081019061052d91906120b3565b809550819650829750839850849950505050505091939590929450565b6060600080600080600080600160009054906101000a900473ffffffffffffffffffffffffffffffffffffffff1673ffffffffffffffffffffffffffffffffffffffff166323d1cc8a896040518263ffffffff1660e01b81526004016105b09190612554565b60006040518083038186803b1580156105c857600080fd5b505afa1580156105dc573d6000803e3d6000fd5b505050506040513d6000823e3d601f19601f820116820180604052508101906106059190612335565b809750819850829950839a50849b50859c50869d5050505050505050919395979092949650565b60606000806000806000600160009054906101000a900473ffffffffffffffffffffffffffffffffffffffff1673ffffffffffffffffffffffffffffffffffffffff1663de29e421886040518263ffffffff1660e01b81526004016106919190612554565b60006040518083038186803b1580156106a957600080fd5b505afa1580156106bd573d6000803e3d6000fd5b505050506040513d6000823e3d601f19601f820116820180604052508101906106e6919061228c565b809650819750829850839950849a50859b5050505050505091939550919395565b6060600160009054906101000a900473ffffffffffffffffffffffffffffffffffffffff1673ffffffffffffffffffffffffffffffffffffffff16634d6b5e00836040518263ffffffff1660e01b81526004016107649190612554565b60006040518083038186803b15801561077c57600080fd5b505afa158015610790573d6000803e3d6000fd5b505050506040513d6000823e3d601f19601f820116820180604052508101906107b99190611f7f565b9050919050565b60008054906101000a900473ffffffffffffffffffffffffffffffffffffffff1673ffffffffffffffffffffffffffffffffffffffff163373ffffffffffffffffffffffffffffffffffffffff161461081857600080fd5b60008054906101000a900473ffffffffffffffffffffffffffffffffffffffff1673ffffffffffffffffffffffffffffffffffffffff167ff8df31144d9c2f0f6b59d69b8b98abd5459d07f2742c4df920b25aae33c6482060405160405180910390a260008060006101000a81548173ffffffffffffffffffffffffffffffffffffffff021916908373ffffffffffffffffffffffffffffffffffffffff160217905550565b60008054906101000a900473ffffffffffffffffffffffffffffffffffffffff1681565b6000876040518060400160405280600481526020017f444f4e45000000000000000000000000000000000000000000000000000000008152508060405160200161092c919061253d565b60405160208183030381529060405280519060200120600160009054906101000a900473ffffffffffffffffffffffffffffffffffffffff1673ffffffffffffffffffffffffffffffffffffffff166327820851336040518263ffffffff1660e01b815260040161099d9190612554565b60006040518083038186803b1580156109b557600080fd5b505afa1580156109c9573d6000803e3d6000fd5b505050506040513d6000823e3d601f19601f820116820180604052508101906109f29190611f7f565b604051602001610a02919061253d565b6040516020818303038152906040528051906020012014610a2257600080fd5b80604051602001610a33919061253d565b60405160208183030381529060405280519060200120600160009054906101000a900473ffffffffffffffffffffffffffffffffffffffff1673ffffffffffffffffffffffffffffffffffffffff16634d6b5e00846040518263ffffffff1660e01b8152600401610aa49190612554565b60006040518083038186803b158015610abc57600080fd5b505afa158015610ad0573d6000803e3d6000fd5b505050506040513d6000823e3d601f19601f82011682018060405250810190610af99190611f7f565b604051602001610b09919061253d565b6040516020818303038152906040528051906020012014610b2957600080fd5b6000600160009054906101000a900473ffffffffffffffffffffffffffffffffffffffff1673ffffffffffffffffffffffffffffffffffffffff16630e408c678c8c8c8c8c8c8c6040518863ffffffff1660e01b8152600401610b92979695949392919061260a565b602060405180830381600087803b158015610bac57600080fd5b505af1158015610bc0573d6000803e3d6000fd5b505050506040513d601f19601f82011682018060405250810190610be49190611f52565b90508a73ffffffffffffffffffffffffffffffffffffffff163373ffffffffffffffffffffffffffffffffffffffff167f99e8a31c7f3cd6afd636531c2a23b9fe61514da05f1307d746f9ffa62b03221760405160405180910390a3809350505050979650505050505050565b6000886040518060400160405280600a81526020017f57415245484f555345520000000000000000000000000000000000000000000081525080604051602001610c9b919061253d565b60405160208183030381529060405280519060200120600160009054906101000a900473ffffffffffffffffffffffffffffffffffffffff1673ffffffffffffffffffffffffffffffffffffffff166327820851336040518263ffffffff1660e01b8152600401610d0c9190612554565b60006040518083038186803b158015610d2457600080fd5b505afa158015610d38573d6000803e3d6000fd5b505050506040513d6000823e3d601f19601f82011682018060405250810190610d619190611f7f565b604051602001610d71919061253d565b6040516020818303038152906040528051906020012014610d9157600080fd5b80604051602001610da2919061253d565b60405160208183030381529060405280519060200120600160009054906101000a900473ffffffffffffffffffffffffffffffffffffffff1673ffffffffffffffffffffffffffffffffffffffff16634d6b5e00846040518263ffffffff1660e01b8152600401610e139190612554565b60006040518083038186803b158015610e2b57600080fd5b505afa158015610e3f573d6000803e3d6000fd5b505050506040513d6000823e3d601f19601f82011682018060405250810190610e689190611f7f565b604051602001610e78919061253d565b6040516020818303038152906040528051906020012014610e9857600080fd5b6000600160009054906101000a900473ffffffffffffffffffffffffffffffffffffffff1673ffffffffffffffffffffffffffffffffffffffff1663ed39343c8d8d8d8d8b8e8e8d6040518963ffffffff1660e01b8152600401610f03989796959493929190612680565b602060405180830381600087803b158015610f1d57600080fd5b505af1158015610f31573d6000803e3d6000fd5b505050506040513d601f19601f82011682018060405250810190610f559190611f52565b90508b73ffffffffffffffffffffffffffffffffffffffff163373ffffffffffffffffffffffffffffffffffffffff167f180cdb24bb44378642a35eab010c770c833cf19674dd4e0efafb99b5ea22ed6b60405160405180910390a380935050505098975050505050505050565b6000806000606080600160009054906101000a900473ffffffffffffffffffffffffffffffffffffffff1673ffffffffffffffffffffffffffffffffffffffff16637971ea42876040518263ffffffff1660e01b81526004016110269190612554565b60006040518083038186803b15801561103e57600080fd5b505afa158015611052573d6000803e3d6000fd5b505050506040513d6000823e3d601f19601f8201168201806040525081019061107b91906123f3565b809550819650829750839850849950505050505091939590929450565b60008060009054906101000a900473ffffffffffffffffffffffffffffffffffffffff1673ffffffffffffffffffffffffffffffffffffffff163373ffffffffffffffffffffffffffffffffffffffff16146110f357600080fd5b6000600160009054906101000a900473ffffffffffffffffffffffffffffffffffffffff1673ffffffffffffffffffffffffffffffffffffffff1663d1269da888888888886040518663ffffffff1660e01b81526004016111589594939291906127b1565b602060405180830381600087803b15801561117257600080fd5b505af1158015611186573d6000803e3d6000fd5b505050506040513d601f19601f820116820180604052508101906111aa9190611bce565b90508073ffffffffffffffffffffffffffffffffffffffff163373ffffffffffffffffffffffffffffffffffffffff167f537f22db2b3b13a2af924ad1a2cfb5666cfa48ee6892c71849737fd108ce674a60405160405180910390a38091505095945050505050565b6000896040518060400160405280600b81526020017f4449535452494255544f520000000000000000000000000000000000000000008152508060405160200161125d919061253d565b60405160208183030381529060405280519060200120600160009054906101000a900473ffffffffffffffffffffffffffffffffffffffff1673ffffffffffffffffffffffffffffffffffffffff166327820851336040518263ffffffff1660e01b81526004016112ce9190612554565b60006040518083038186803b1580156112e657600080fd5b505afa1580156112fa573d6000803e3d6000fd5b505050506040513d6000823e3d601f19601f820116820180604052508101906113239190611f7f565b604051602001611333919061253d565b604051602081830303815290604052805190602001201461135357600080fd5b80604051602001611364919061253d565b60405160208183030381529060405280519060200120600160009054906101000a900473ffffffffffffffffffffffffffffffffffffffff1673ffffffffffffffffffffffffffffffffffffffff16634d6b5e00846040518263ffffffff1660e01b81526004016113d59190612554565b60006040518083038186803b1580156113ed57600080fd5b505afa158015611401573d6000803e3d6000fd5b505050506040513d6000823e3d601f19601f8201168201806040525081019061142a9190611f7f565b60405160200161143a919061253d565b604051602081830303815290604052805190602001201461145a57600080fd5b6000600160009054906101000a900473ffffffffffffffffffffffffffffffffffffffff1673ffffffffffffffffffffffffffffffffffffffff16633e9fbeaf8e8e8e8e8e8e8e8e8e6040518a63ffffffff1660e01b81526004016114c79998979695949392919061256f565b602060405180830381600087803b1580156114e157600080fd5b505af11580156114f5573d6000803e3d6000fd5b505050506040513d601f19601f820116820180604052508101906115199190611f52565b90508c73ffffffffffffffffffffffffffffffffffffffff163373ffffffffffffffffffffffffffffffffffffffff167febf746471ae1c228971b077b22e020787d4f8653a4a9a971c001830f7328ba2460405160405180910390a38093505050509998505050505050505050565b6000866040518060400160405280601381526020017f56414343494e4154494f4e5f53544154494f4e00000000000000000000000000815250806040516020016115d2919061253d565b60405160208183030381529060405280519060200120600160009054906101000a900473ffffffffffffffffffffffffffffffffffffffff1673ffffffffffffffffffffffffffffffffffffffff166327820851336040518263ffffffff1660e01b81526004016116439190612554565b60006040518083038186803b15801561165b57600080fd5b505afa15801561166f573d6000803e3d6000fd5b505050506040513d6000823e3d601f19601f820116820180604052508101906116989190611f7f565b6040516020016116a8919061253d565b60405160208183030381529060405280519060200120146116c857600080fd5b806040516020016116d9919061253d565b60405160208183030381529060405280519060200120600160009054906101000a900473ffffffffffffffffffffffffffffffffffffffff1673ffffffffffffffffffffffffffffffffffffffff16634d6b5e00846040518263ffffffff1660e01b815260040161174a9190612554565b60006040518083038186803b15801561176257600080fd5b505afa158015611776573d6000803e3d6000fd5b505050506040513d6000823e3d601f19601f8201168201806040525081019061179f9190611f7f565b6040516020016117af919061253d565b60405160208183030381529060405280519060200120146117cf57600080fd5b6000600160009054906101000a900473ffffffffffffffffffffffffffffffffffffffff1673ffffffffffffffffffffffffffffffffffffffff1663465aa7038b8b8b8b8b8b6040518763ffffffff1660e01b815260040161183696959493929190612705565b602060405180830381600087803b15801561185057600080fd5b505af1158015611864573d6000803e3d6000fd5b505050506040513d601f19601f820116820180604052508101906118889190611f52565b90508973ffffffffffffffffffffffffffffffffffffffff163373ffffffffffffffffffffffffffffffffffffffff167f5f6b507fa5444f53ba18e6da7561c594402b8ca43dfe8dab3fab501dae30f15760405160405180910390a38093505050509695505050505050565b60008054906101000a900473ffffffffffffffffffffffffffffffffffffffff1673ffffffffffffffffffffffffffffffffffffffff163373ffffffffffffffffffffffffffffffffffffffff161461194c57600080fd5b600073ffffffffffffffffffffffffffffffffffffffff168173ffffffffffffffffffffffffffffffffffffffff16141561198657600080fd5b8073ffffffffffffffffffffffffffffffffffffffff1660008054906101000a900473ffffffffffffffffffffffffffffffffffffffff1673ffffffffffffffffffffffffffffffffffffffff167f8be0079c531659141344cd1fd0a4f28419497f9722a3daafe3b4186f6b6457e060405160405180910390a3806000806101000a81548173ffffffffffffffffffffffffffffffffffffffff021916908373ffffffffffffffffffffffffffffffffffffffff16021790555050565b6000611a56611a5184612a2b565b612a06565b905082815260208101848484011115611a7257611a71612b72565b5b611a7d848285612acb565b509392505050565b6000611a98611a9384612a2b565b612a06565b905082815260208101848484011115611ab457611ab3612b72565b5b611abf848285612ada565b509392505050565b600081359050611ad681612b92565b92915050565b600081519050611aeb81612b92565b92915050565b600081359050611b0081612ba9565b92915050565b600081519050611b1581612ba9565b92915050565b600082601f830112611b3057611b2f612b6d565b5b8135611b40848260208601611a43565b91505092915050565b600082601f830112611b5e57611b5d612b6d565b5b8151611b6e848260208601611a85565b91505092915050565b600081359050611b8681612bc0565b92915050565b600081519050611b9b81612bc0565b92915050565b600060208284031215611bb757611bb6612b7c565b5b6000611bc584828501611ac7565b91505092915050565b600060208284031215611be457611be3612b7c565b5b6000611bf284828501611adc565b91505092915050565b60008060008060008060008060006101208a8c031215611c1e57611c1d612b7c565b5b6000611c2c8c828d01611ac7565b99505060208a013567ffffffffffffffff811115611c4d57611c4c612b77565b5b611c598c828d01611b1b565b98505060408a013567ffffffffffffffff811115611c7a57611c79612b77565b5b611c868c828d01611b1b565b9750506060611c978c828d01611b77565b9650506080611ca88c828d01611b77565b95505060a0611cb98c828d01611b77565b94505060c0611cca8c828d01611b77565b93505060e0611cdb8c828d01611b77565b925050610100611ced8c828d01611b77565b9150509295985092959850929598565b600080600080600080600060e0888a031215611d1c57611d1b612b7c565b5b6000611d2a8a828b01611ac7565b975050602088013567ffffffffffffffff811115611d4b57611d4a612b77565b5b611d578a828b01611b1b565b9650506040611d688a828b01611b77565b9550506060611d798a828b01611b77565b9450506080611d8a8a828b01611b77565b93505060a0611d9b8a828b01611b77565b92505060c0611dac8a828b01611b77565b91505092959891949750929550565b600080600080600080600080610100898b031215611ddc57611ddb612b7c565b5b6000611dea8b828c01611ac7565b985050602089013567ffffffffffffffff811115611e0b57611e0a612b77565b5b611e178b828c01611b1b565b9750506040611e288b828c01611b77565b9650506060611e398b828c01611b77565b9550506080611e4a8b828c01611b77565b94505060a0611e5b8b828c01611b77565b93505060c0611e6c8b828c01611b77565b92505060e0611e7d8b828c01611af1565b9150509295985092959890939650565b60008060008060008060c08789031215611eaa57611ea9612b7c565b5b6000611eb889828a01611ac7565b9650506020611ec989828a01611b77565b9550506040611eda89828a01611b77565b9450506060611eeb89828a01611b77565b935050608087013567ffffffffffffffff811115611f0c57611f0b612b77565b5b611f1889828a01611b1b565b92505060a087013567ffffffffffffffff811115611f3957611f38612b77565b5b611f4589828a01611b1b565b9150509295509295509295565b600060208284031215611f6857611f67612b7c565b5b6000611f7684828501611b06565b91505092915050565b600060208284031215611f9557611f94612b7c565b5b600082015167ffffffffffffffff811115611fb357611fb2612b77565b5b611fbf84828501611b49565b91505092915050565b600080600080600060a08688031215611fe457611fe3612b7c565b5b600086013567ffffffffffffffff81111561200257612001612b77565b5b61200e88828901611b1b565b955050602086013567ffffffffffffffff81111561202f5761202e612b77565b5b61203b88828901611b1b565b945050604086013567ffffffffffffffff81111561205c5761205b612b77565b5b61206888828901611b1b565b935050606086013567ffffffffffffffff81111561208957612088612b77565b5b61209588828901611b1b565b92505060806120a688828901611b77565b9150509295509295909350565b600080600080600060a086880312156120cf576120ce612b7c565b5b600086015167ffffffffffffffff8111156120ed576120ec612b77565b5b6120f988828901611b49565b955050602086015167ffffffffffffffff81111561211a57612119612b77565b5b61212688828901611b49565b945050604086015167ffffffffffffffff81111561214757612146612b77565b5b61215388828901611b49565b935050606086015167ffffffffffffffff81111561217457612173612b77565b5b61218088828901611b49565b925050608061219188828901611b8c565b9150509295509295909350565b600080600080600080600080610100898b0312156121bf576121be612b7c565b5b600089015167ffffffffffffffff8111156121dd576121dc612b77565b5b6121e98b828c01611b49565b985050602089015167ffffffffffffffff81111561220a57612209612b77565b5b6122168b828c01611b49565b97505060406122278b828c01611b8c565b96505060606122388b828c01611b8c565b95505060806122498b828c01611b8c565b94505060a061225a8b828c01611b8c565b93505060c061226b8b828c01611b8c565b92505060e061227c8b828c01611b8c565b9150509295985092959890939650565b60008060008060008060c087890312156122a9576122a8612b7c565b5b600087015167ffffffffffffffff8111156122c7576122c6612b77565b5b6122d389828a01611b49565b96505060206122e489828a01611b8c565b95505060406122f589828a01611b8c565b945050606061230689828a01611b8c565b935050608061231789828a01611b8c565b92505060a061232889828a01611b8c565b9150509295509295509295565b600080600080600080600060e0888a03121561235457612353612b7c565b5b600088015167ffffffffffffffff81111561237257612371612b77565b5b61237e8a828b01611b49565b975050602061238f8a828b01611b8c565b96505060406123a08a828b01611b8c565b95505060606123b18a828b01611b8c565b94505060806123c28a828b01611b8c565b93505060a06123d38a828b01611b8c565b92505060c06123e48a828b01611b06565b91505092959891949750929550565b600080600080600060a0868803121561240f5761240e612b7c565b5b600061241d88828901611b8c565b955050602061242e88828901611b8c565b945050604061243f88828901611b8c565b935050606086015167ffffffffffffffff8111156124605761245f612b77565b5b61246c88828901611b49565b925050608086015167ffffffffffffffff81111561248d5761248c612b77565b5b61249988828901611b49565b9150509295509295909350565b6124af81612a83565b82525050565b6124be81612a95565b82525050565b60006124cf82612a5c565b6124d98185612a67565b93506124e9818560208601612ada565b6124f281612b81565b840191505092915050565b600061250882612a5c565b6125128185612a78565b9350612522818560208601612ada565b80840191505092915050565b61253781612ac1565b82525050565b600061254982846124fd565b915081905092915050565b600060208201905061256960008301846124a6565b92915050565b600061012082019050612585600083018c6124a6565b8181036020830152612597818b6124c4565b905081810360408301526125ab818a6124c4565b90506125ba606083018961252e565b6125c7608083018861252e565b6125d460a083018761252e565b6125e160c083018661252e565b6125ee60e083018561252e565b6125fc61010083018461252e565b9a9950505050505050505050565b600060e08201905061261f600083018a6124a6565b818103602083015261263181896124c4565b9050612640604083018861252e565b61264d606083018761252e565b61265a608083018661252e565b61266760a083018561252e565b61267460c083018461252e565b98975050505050505050565b600061010082019050612696600083018b6124a6565b81810360208301526126a8818a6124c4565b90506126b7604083018961252e565b6126c4606083018861252e565b6126d1608083018761252e565b6126de60a083018661252e565b6126eb60c083018561252e565b6126f860e08301846124b5565b9998505050505050505050565b600060c08201905061271a60008301896124a6565b612727602083018861252e565b612734604083018761252e565b612741606083018661252e565b818103608083015261275381856124c4565b905081810360a083015261276781846124c4565b9050979650505050505050565b600060208201905061278960008301846124b5565b92915050565b600060208201905081810360008301526127a981846124c4565b905092915050565b600060a08201905081810360008301526127cb81886124c4565b905081810360208301526127df81876124c4565b905081810360408301526127f381866124c4565b9050818103606083015261280781856124c4565b9050612816608083018461252e565b9695505050505050565b600061010082019050818103600083015261283b818b6124c4565b9050818103602083015261284f818a6124c4565b905061285e604083018961252e565b61286b606083018861252e565b612878608083018761252e565b61288560a083018661252e565b61289260c083018561252e565b61289f60e083018461252e565b9998505050505050505050565b600060c08201905081810360008301526128c681896124c4565b90506128d5602083018861252e565b6128e2604083018761252e565b6128ef606083018661252e565b6128fc608083018561252e565b61290960a083018461252e565b979650505050505050565b600060e082019050818103600083015261292e818a6124c4565b905061293d602083018961252e565b61294a604083018861252e565b612957606083018761252e565b612964608083018661252e565b61297160a083018561252e565b61297e60c08301846124b5565b98975050505050505050565b600060208201905061299f600083018461252e565b92915050565b600060a0820190506129ba600083018861252e565b6129c7602083018761252e565b6129d4604083018661252e565b81810360608301526129e681856124c4565b905081810360808301526129fa81846124c4565b90509695505050505050565b6000612a10612a21565b9050612a1c8282612b0d565b919050565b6000604051905090565b600067ffffffffffffffff821115612a4657612a45612b3e565b5b612a4f82612b81565b9050602081019050919050565b600081519050919050565b600082825260208201905092915050565b600081905092915050565b6000612a8e82612aa1565b9050919050565b60008115159050919050565b600073ffffffffffffffffffffffffffffffffffffffff82169050919050565b6000819050919050565b82818337600083830152505050565b60005b83811015612af8578082015181840152602081019050612add565b83811115612b07576000848401525b50505050565b612b1682612b81565b810181811067ffffffffffffffff82111715612b3557612b34612b3e565b5b80604052505050565b7f4e487b7100000000000000000000000000000000000000000000000000000000600052604160045260246000fd5b600080fd5b600080fd5b600080fd5b600080fd5b6000601f19601f8301169050919050565b612b9b81612a83565b8114612ba657600080fd5b50565b612bb281612a95565b8114612bbd57600080fd5b50565b612bc981612ac1565b8114612bd457600080fd5b5056fea2646970667358221220437af54ad3f4fc42b8c39c5adca07fde366c22fa64cdcbd79c873bb24c5f1afa64736f6c63430008070033",
  "immutableReferences": {},
  "source": "pragma solidity ^0.8.7;\r\nimport \"./VaccineSystemStorage.sol\";\r\nimport \"./Ownable.sol\";\r\n\r\ncontract VaccineSupplyChain is Ownable {\r\n    event CompleteBasicDetail(address indexed user, address indexed batchNo);\r\n    event CompleteWarehouser(address indexed user, address indexed batchNo);\r\n    event CompleteDistributor(address indexed user, address indexed batchNo);\r\n    event CompleteVaccinationStation(\r\n        address indexed user,\r\n        address indexed batchNo\r\n    );\r\n    event CompleteVaccinatePerson(\r\n        address indexed user,\r\n        address indexed batchNo\r\n    );\r\n\r\n    /* Declare Modifier */\r\n    modifier isValidPerformer(address batchNo, string memory role) {\r\n        require(\r\n            keccak256(\r\n                abi.encodePacked(vaccineSystemStorage.getUserRole(msg.sender))\r\n            ) == keccak256(abi.encodePacked(role))\r\n        );\r\n        require(\r\n            keccak256(\r\n                abi.encodePacked(vaccineSystemStorage.getNextAction(batchNo))\r\n            ) == keccak256(abi.encodePacked(role))\r\n        );\r\n        _;\r\n    }\r\n\r\n    /* Storage Variables */\r\n    VaccineSystemStorage vaccineSystemStorage;\r\n\r\n    constructor(address _vaccineSystemAddress) public {\r\n        vaccineSystemStorage = VaccineSystemStorage(_vaccineSystemAddress);\r\n    }\r\n\r\n    function getBalance() public returns (uint256) {\r\n        return (address(this).balance);\r\n    }\r\n\r\n    /* Get Next Action */\r\n\r\n    function getNextAction(address _batchNo)\r\n        public\r\n        view\r\n        returns (string memory action)\r\n    {\r\n        (action) = vaccineSystemStorage.getNextAction(_batchNo);\r\n        return (action);\r\n    }\r\n\r\n    /* Get Basic Details */\r\n    function getBasicDetailsData(address _batchNo)\r\n        public\r\n        view\r\n        returns (\r\n            string memory producerName,\r\n            string memory storageName,\r\n            string memory distributorName,\r\n            string memory vaccinationStationName,\r\n            uint256 totalWeight\r\n        )\r\n    {\r\n        /* Call Storage Contract */\r\n        (\r\n            producerName,\r\n            storageName,\r\n            distributorName,\r\n            vaccinationStationName,\r\n            totalWeight\r\n        ) = vaccineSystemStorage.getBasicDetails(_batchNo);\r\n        return (\r\n            producerName,\r\n            storageName,\r\n            distributorName,\r\n            vaccinationStationName,\r\n            totalWeight\r\n        );\r\n    }\r\n\r\n    /* Add Basic Details */\r\n    function addBasicDetails(\r\n        string memory _producerName,\r\n        string memory _storageName,\r\n        string memory _distributorName,\r\n        string memory _vaccinationStationName,\r\n        uint256 _totalWeight\r\n    ) public onlyOwner returns (address) {\r\n        address batchNo = vaccineSystemStorage.setBasicDetails(\r\n            _producerName,\r\n            _storageName,\r\n            _distributorName,\r\n            _vaccinationStationName,\r\n            _totalWeight\r\n        );\r\n\r\n        /* Call Emit Event */\r\n        emit CompleteBasicDetail(msg.sender, batchNo);\r\n\r\n        return batchNo;\r\n    }\r\n\r\n    /* Get Warehouser */\r\n    function getWarehouserData(address _batchNo)\r\n        public\r\n        view\r\n        returns (\r\n            string memory vaccineName,\r\n            uint256 quantity,\r\n            uint256 price,\r\n            uint256 optimumTemp,\r\n            uint256 optimumHum,\r\n            uint256 storageDate,\r\n            bool isViolation\r\n        )\r\n    {\r\n        /* Call Storage Contract */\r\n        (\r\n            vaccineName,\r\n            quantity,\r\n            price,\r\n            optimumTemp,\r\n            optimumHum,\r\n            storageDate,\r\n            isViolation\r\n        ) = vaccineSystemStorage.getWarehouserData(_batchNo);\r\n        return (\r\n            vaccineName,\r\n            quantity,\r\n            price,\r\n            optimumTemp,\r\n            optimumHum,\r\n            storageDate,\r\n            isViolation\r\n        );\r\n    }\r\n\r\n    /* Update Warehouser */\r\n    function updateWarehouser(\r\n        address _batchNo,\r\n        string memory _vaccineName,\r\n        uint256 _quantity,\r\n        uint256 _price,\r\n        uint256 _optimumTemp,\r\n        uint256 _optimumHum,\r\n        uint256 _storageDate,\r\n        bool _isViolation\r\n    ) public isValidPerformer(_batchNo, \"WAREHOUSER\") returns (bool) {\r\n        bool status = vaccineSystemStorage.setWarehouser(\r\n            _batchNo,\r\n            _vaccineName,\r\n            _quantity,\r\n            _price,\r\n            _storageDate,\r\n            _optimumTemp,\r\n            _optimumHum,\r\n            _isViolation\r\n        );\r\n\r\n        emit CompleteWarehouser(msg.sender, _batchNo);\r\n        return (status);\r\n    }\r\n\r\n    /* Get Distributor */\r\n    function getDistributorData(address _batchNo)\r\n        public\r\n        view\r\n        returns (\r\n            string memory shippingName,\r\n            string memory shippingNo,\r\n            uint256 quantity,\r\n            uint256 departureDateTime,\r\n            uint256 estimateDateTime,\r\n            uint256 distributorId,\r\n            uint256 optimumTemp,\r\n            uint256 optimumHum\r\n        )\r\n    {\r\n        /* Call Storage Contract */\r\n        (\r\n            shippingName,\r\n            shippingNo,\r\n            quantity,\r\n            departureDateTime,\r\n            estimateDateTime,\r\n            distributorId,\r\n            optimumTemp,\r\n            optimumHum\r\n        ) = vaccineSystemStorage.getDistributorData(_batchNo);\r\n        return (\r\n            shippingName,\r\n            shippingNo,\r\n            quantity,\r\n            departureDateTime,\r\n            estimateDateTime,\r\n            distributorId,\r\n            optimumTemp,\r\n            optimumHum\r\n        );\r\n    }\r\n\r\n    /* Update Distributor */\r\n    function updateDistributorData(\r\n        address _batchNo,\r\n        string memory _shippingName,\r\n        string memory _shippingNo,\r\n        uint256 _quantity,\r\n        uint256 _departureDateTime,\r\n        uint256 _estimateDateTime,\r\n        uint256 _distributorId,\r\n        uint256 _optimumTemp,\r\n        uint256 _optimumHum\r\n    ) public isValidPerformer(_batchNo, \"DISTRIBUTOR\") returns (bool) {\r\n        bool status = vaccineSystemStorage.setDistributor(\r\n            _batchNo,\r\n            _shippingName,\r\n            _shippingNo,\r\n            _quantity,\r\n            _departureDateTime,\r\n            _estimateDateTime,\r\n            _distributorId,\r\n            _optimumTemp,\r\n            _optimumHum\r\n        );\r\n        emit CompleteDistributor(msg.sender, _batchNo);\r\n\r\n        return (status);\r\n    }\r\n\r\n    /* Get Vaccination Station */\r\n    function getVaccinationStation(address _batchNo)\r\n        public\r\n        view\r\n        returns (\r\n            uint256 quantity,\r\n            uint256 arrivalDateTime,\r\n            uint256 vaccinationStationId,\r\n            string memory shippingName,\r\n            string memory shippingNo\r\n        )\r\n    {\r\n        /* Call Storage Contract */\r\n        (\r\n            quantity,\r\n            arrivalDateTime,\r\n            vaccinationStationId,\r\n            shippingName,\r\n            shippingNo\r\n        ) = vaccineSystemStorage.getVaccinationStationData(_batchNo);\r\n\r\n        return (\r\n            quantity,\r\n            arrivalDateTime,\r\n            vaccinationStationId,\r\n            shippingName,\r\n            shippingNo\r\n        );\r\n    }\r\n\r\n    /* Update Vaccination Station */\r\n    function updateVaccinationStation(\r\n        address _batchNo,\r\n        uint256 _quantity,\r\n        uint256 _arrivalDateTime,\r\n        uint256 _vaccinationStationId,\r\n        string memory _shippingName,\r\n        string memory _shippingNo\r\n    ) public isValidPerformer(_batchNo, \"VACCINATION_STATION\") returns (bool) {\r\n        bool status = vaccineSystemStorage.setVaccinationStation(\r\n            _batchNo,\r\n            _quantity,\r\n            _arrivalDateTime,\r\n            _vaccinationStationId,\r\n            _shippingName,\r\n            _shippingNo\r\n        );\r\n\r\n        /* Emit Event */\r\n        emit CompleteVaccinationStation(msg.sender, _batchNo);\r\n        return (status);\r\n    }\r\n\r\n    /* Get Vaccinate Person Data */\r\n    function getVaccinateData(address _batchNo)\r\n        public\r\n        view\r\n        returns (\r\n            string memory personName,\r\n            uint256 age,\r\n            uint256 identityCard,\r\n            uint256 numberOfVaccinations,\r\n            uint256 vaccinationDate,\r\n            uint256 typeOfVaccine\r\n        )\r\n    {\r\n        /* Call Storage Contract */\r\n        (\r\n            personName,\r\n            age,\r\n            identityCard,\r\n            numberOfVaccinations,\r\n            vaccinationDate,\r\n            typeOfVaccine\r\n        ) = vaccineSystemStorage.getVaccinationPersonData(_batchNo);\r\n\r\n        return (\r\n            personName,\r\n            age,\r\n            identityCard,\r\n            numberOfVaccinations,\r\n            vaccinationDate,\r\n            typeOfVaccine\r\n        );\r\n    }\r\n\r\n    /* Update Vaccinate Person */\r\n    function updateVaccinatePerson(\r\n        address _batchNo,\r\n        string memory _personName,\r\n        uint256 _age,\r\n        uint256 _identityCard,\r\n        uint256 _numberOfVaccinations,\r\n        uint256 _vaccinationDate,\r\n        uint256 _typeOfVaccine\r\n    ) public isValidPerformer(_batchNo, \"DONE\") returns (bool) {\r\n        bool status = vaccineSystemStorage.setObjectInjection(\r\n            _batchNo,\r\n            _personName,\r\n            _age,\r\n            _identityCard,\r\n            _numberOfVaccinations,\r\n            _vaccinationDate,\r\n            _typeOfVaccine\r\n        );\r\n\r\n        /* Emit Event */\r\n        emit CompleteVaccinatePerson(msg.sender, _batchNo);\r\n        return (status);\r\n    }\r\n}\r\n",
  "sourcePath": "D:\\Learn\\UIT\\Dissertation\\Source\\packages\\dissertation_smartcontract\\contracts\\VaccineSupplyChain.sol",
  "compiler": {
    "name": "solc",
    "version": "0.8.7+commit.e28d00a7.Emscripten.clang"
  },
  "schemaVersion": "3.4.3",
  "updatedAt": "2021-10-18T15:07:22.503Z",
  "networkType": "ethereum",
  "devdoc": {
    "kind": "dev",
    "methods": {
      "renounceOwnership()": {
        "details": "Allows the current owner to relinquish control of the contract."
      },
      "transferOwnership(address)": {
        "details": "Allows the current owner to transfer control of the contract to a newOwner.",
        "params": {
          "newOwner": "The address to transfer ownership to."
        }
      }
    },
    "version": 1
  },
  "userdoc": {
    "kind": "user",
    "methods": {},
    "version": 1
  }
}