{
  "contractName": "VaccineSupplyChain",
  "abi": [
    {
      "inputs": [
        {
          "internalType": "address",
          "name": "_vaccineSystemAddress",
          "type": "address"
        }
      ],
      "stateMutability": "nonpayable",
      "type": "constructor"
    },
    {
      "anonymous": false,
      "inputs": [
        {
          "indexed": true,
          "internalType": "address",
          "name": "user",
          "type": "address"
        },
        {
          "indexed": true,
          "internalType": "address",
          "name": "batchNo",
          "type": "address"
        }
      ],
      "name": "CompleteBasicDetail",
      "type": "event"
    },
    {
      "anonymous": false,
      "inputs": [
        {
          "indexed": true,
          "internalType": "address",
          "name": "user",
          "type": "address"
        },
        {
          "indexed": true,
          "internalType": "address",
          "name": "batchNo",
          "type": "address"
        }
      ],
      "name": "CompleteDistributor",
      "type": "event"
    },
    {
      "anonymous": false,
      "inputs": [
        {
          "indexed": true,
          "internalType": "address",
          "name": "user",
          "type": "address"
        },
        {
          "indexed": true,
          "internalType": "address",
          "name": "batchNo",
          "type": "address"
        }
      ],
      "name": "CompleteVaccinatePerson",
      "type": "event"
    },
    {
      "anonymous": false,
      "inputs": [
        {
          "indexed": true,
          "internalType": "address",
          "name": "user",
          "type": "address"
        },
        {
          "indexed": true,
          "internalType": "address",
          "name": "batchNo",
          "type": "address"
        }
      ],
      "name": "CompleteVaccinationStation",
      "type": "event"
    },
    {
      "anonymous": false,
      "inputs": [
        {
          "indexed": true,
          "internalType": "address",
          "name": "user",
          "type": "address"
        },
        {
          "indexed": true,
          "internalType": "address",
          "name": "batchNo",
          "type": "address"
        }
      ],
      "name": "CompleteWarehouser",
      "type": "event"
    },
    {
      "anonymous": false,
      "inputs": [
        {
          "indexed": true,
          "internalType": "address",
          "name": "previousOwner",
          "type": "address"
        }
      ],
      "name": "OwnershipRenounced",
      "type": "event"
    },
    {
      "anonymous": false,
      "inputs": [
        {
          "indexed": true,
          "internalType": "address",
          "name": "previousOwner",
          "type": "address"
        },
        {
          "indexed": true,
          "internalType": "address",
          "name": "newOwner",
          "type": "address"
        }
      ],
      "name": "OwnershipTransferred",
      "type": "event"
    },
    {
      "inputs": [],
      "name": "owner",
      "outputs": [
        {
          "internalType": "address",
          "name": "",
          "type": "address"
        }
      ],
      "stateMutability": "view",
      "type": "function",
      "constant": true
    },
    {
      "inputs": [],
      "name": "renounceOwnership",
      "outputs": [],
      "stateMutability": "nonpayable",
      "type": "function"
    },
    {
      "inputs": [
        {
          "internalType": "address",
          "name": "newOwner",
          "type": "address"
        }
      ],
      "name": "transferOwnership",
      "outputs": [],
      "stateMutability": "nonpayable",
      "type": "function"
    },
    {
      "inputs": [],
      "name": "getBalance",
      "outputs": [
        {
          "internalType": "uint256",
          "name": "",
          "type": "uint256"
        }
      ],
      "stateMutability": "view",
      "type": "function",
      "constant": true
    },
    {
      "inputs": [
        {
          "internalType": "address",
          "name": "_batchNo",
          "type": "address"
        }
      ],
      "name": "getNextAction",
      "outputs": [
        {
          "internalType": "string",
          "name": "action",
          "type": "string"
        }
      ],
      "stateMutability": "view",
      "type": "function",
      "constant": true
    },
    {
      "inputs": [
        {
          "internalType": "address",
          "name": "_batchNo",
          "type": "address"
        }
      ],
      "name": "getBasicDetailsData",
      "outputs": [
        {
          "internalType": "string",
          "name": "producerName",
          "type": "string"
        },
        {
          "internalType": "string",
          "name": "storageName",
          "type": "string"
        },
        {
          "internalType": "string",
          "name": "distributorName",
          "type": "string"
        },
        {
          "internalType": "string",
          "name": "vaccinationStationName",
          "type": "string"
        },
        {
          "internalType": "uint256",
          "name": "quantity",
          "type": "uint256"
        },
        {
          "internalType": "string",
          "name": "optimumRangeTemp",
          "type": "string"
        },
        {
          "internalType": "string",
          "name": "optimumRangeHum",
          "type": "string"
        }
      ],
      "stateMutability": "view",
      "type": "function",
      "constant": true
    },
    {
      "inputs": [
        {
          "internalType": "string",
          "name": "_producerName",
          "type": "string"
        },
        {
          "internalType": "string",
          "name": "_storageName",
          "type": "string"
        },
        {
          "internalType": "string",
          "name": "_distributorName",
          "type": "string"
        },
        {
          "internalType": "string",
          "name": "_vaccinationStationName",
          "type": "string"
        },
        {
          "internalType": "uint256",
          "name": "_quantity",
          "type": "uint256"
        },
        {
          "internalType": "string",
          "name": "_optimumRangeTemp",
          "type": "string"
        },
        {
          "internalType": "string",
          "name": "_optimumRangeHum",
          "type": "string"
        }
      ],
      "name": "addBasicDetails",
      "outputs": [
        {
          "internalType": "address",
          "name": "",
          "type": "address"
        }
      ],
      "stateMutability": "nonpayable",
      "type": "function"
    },
    {
      "inputs": [
        {
          "internalType": "address",
          "name": "_batchNo",
          "type": "address"
        }
      ],
      "name": "getWarehouserData",
      "outputs": [
        {
          "internalType": "string",
          "name": "vaccineName",
          "type": "string"
        },
        {
          "internalType": "uint256",
          "name": "quantity",
          "type": "uint256"
        },
        {
          "internalType": "uint256",
          "name": "price",
          "type": "uint256"
        },
        {
          "internalType": "uint256",
          "name": "storageDate",
          "type": "uint256"
        },
        {
          "internalType": "string",
          "name": "optimumRangeTemp",
          "type": "string"
        },
        {
          "internalType": "string",
          "name": "optimumRangeHum",
          "type": "string"
        },
        {
          "internalType": "bool",
          "name": "isViolation",
          "type": "bool"
        }
      ],
      "stateMutability": "view",
      "type": "function",
      "constant": true
    },
    {
      "inputs": [
        {
          "internalType": "address",
          "name": "_batchNo",
          "type": "address"
        },
        {
          "internalType": "string",
          "name": "_vaccineName",
          "type": "string"
        },
        {
          "internalType": "uint256",
          "name": "_quantity",
          "type": "uint256"
        },
        {
          "internalType": "uint256",
          "name": "_price",
          "type": "uint256"
        },
        {
          "internalType": "uint256",
          "name": "_storageDate",
          "type": "uint256"
        },
        {
          "internalType": "string",
          "name": "_optimumRangeTemp",
          "type": "string"
        },
        {
          "internalType": "string",
          "name": "_optimumRangeHum",
          "type": "string"
        },
        {
          "internalType": "bool",
          "name": "_isViolation",
          "type": "bool"
        }
      ],
      "name": "updateWarehouser",
      "outputs": [
        {
          "internalType": "bool",
          "name": "",
          "type": "bool"
        }
      ],
      "stateMutability": "nonpayable",
      "type": "function"
    },
    {
      "inputs": [
        {
          "internalType": "address",
          "name": "_batchNo",
          "type": "address"
        }
      ],
      "name": "getDistributorData",
      "outputs": [
        {
          "internalType": "string",
          "name": "destinationAddress",
          "type": "string"
        },
        {
          "internalType": "string",
          "name": "shippingName",
          "type": "string"
        },
        {
          "internalType": "uint256",
          "name": "quantity",
          "type": "uint256"
        },
        {
          "internalType": "uint256",
          "name": "departureDateTime",
          "type": "uint256"
        },
        {
          "internalType": "uint256",
          "name": "estimateDateTime",
          "type": "uint256"
        },
        {
          "internalType": "string",
          "name": "optimumRangeTemp",
          "type": "string"
        },
        {
          "internalType": "string",
          "name": "optimumRangeHum",
          "type": "string"
        }
      ],
      "stateMutability": "view",
      "type": "function",
      "constant": true
    },
    {
      "inputs": [
        {
          "internalType": "address",
          "name": "_batchNo",
          "type": "address"
        },
        {
          "internalType": "string",
          "name": "_destinationAddress",
          "type": "string"
        },
        {
          "internalType": "string",
          "name": "_shippingName",
          "type": "string"
        },
        {
          "internalType": "uint256",
          "name": "_quantity",
          "type": "uint256"
        },
        {
          "internalType": "uint256",
          "name": "_departureDateTime",
          "type": "uint256"
        },
        {
          "internalType": "uint256",
          "name": "_estimateDateTime",
          "type": "uint256"
        },
        {
          "internalType": "string",
          "name": "_optimumRangeTemp",
          "type": "string"
        },
        {
          "internalType": "string",
          "name": "_optimumRangeHum",
          "type": "string"
        }
      ],
      "name": "updateDistributorData",
      "outputs": [
        {
          "internalType": "bool",
          "name": "",
          "type": "bool"
        }
      ],
      "stateMutability": "nonpayable",
      "type": "function"
    },
    {
      "inputs": [
        {
          "internalType": "address",
          "name": "_batchNo",
          "type": "address"
        }
      ],
      "name": "getVaccinationStation",
      "outputs": [
        {
          "internalType": "uint256",
          "name": "quantity",
          "type": "uint256"
        },
        {
          "internalType": "uint256",
          "name": "arrivalDateTime",
          "type": "uint256"
        },
        {
          "internalType": "uint256",
          "name": "vaccinationStationId",
          "type": "uint256"
        },
        {
          "internalType": "string",
          "name": "shippingName",
          "type": "string"
        },
        {
          "internalType": "string",
          "name": "shippingNo",
          "type": "string"
        },
        {
          "internalType": "string",
          "name": "locationAddress",
          "type": "string"
        }
      ],
      "stateMutability": "view",
      "type": "function",
      "constant": true
    },
    {
      "inputs": [
        {
          "internalType": "address",
          "name": "_batchNo",
          "type": "address"
        },
        {
          "internalType": "uint256",
          "name": "_quantity",
          "type": "uint256"
        },
        {
          "internalType": "uint256",
          "name": "_arrivalDateTime",
          "type": "uint256"
        },
        {
          "internalType": "uint256",
          "name": "_vaccinationStationId",
          "type": "uint256"
        },
        {
          "internalType": "string",
          "name": "_shippingName",
          "type": "string"
        },
        {
          "internalType": "string",
          "name": "_shippingNo",
          "type": "string"
        },
        {
          "internalType": "string",
          "name": "_locationAddress",
          "type": "string"
        }
      ],
      "name": "updateVaccinationStation",
      "outputs": [
        {
          "internalType": "bool",
          "name": "",
          "type": "bool"
        }
      ],
      "stateMutability": "nonpayable",
      "type": "function"
    },
    {
      "inputs": [
        {
          "internalType": "address",
          "name": "_batchNo",
          "type": "address"
        }
      ],
      "name": "getVaccinateData",
      "outputs": [
        {
          "internalType": "string",
          "name": "personName",
          "type": "string"
        },
        {
          "internalType": "uint256",
          "name": "age",
          "type": "uint256"
        },
        {
          "internalType": "uint256",
          "name": "identityCard",
          "type": "uint256"
        },
        {
          "internalType": "uint256",
          "name": "numberOfVaccinations",
          "type": "uint256"
        },
        {
          "internalType": "uint256",
          "name": "vaccinationDate",
          "type": "uint256"
        },
        {
          "internalType": "string",
          "name": "typeOfVaccine",
          "type": "string"
        },
        {
          "internalType": "string",
          "name": "phoneNumber",
          "type": "string"
        }
      ],
      "stateMutability": "view",
      "type": "function",
      "constant": true
    },
    {
      "inputs": [
        {
          "internalType": "address",
          "name": "_batchNo",
          "type": "address"
        },
        {
          "internalType": "string",
          "name": "_personName",
          "type": "string"
        },
        {
          "internalType": "uint256",
          "name": "_age",
          "type": "uint256"
        },
        {
          "internalType": "uint256",
          "name": "_identityCard",
          "type": "uint256"
        },
        {
          "internalType": "uint256",
          "name": "_numberOfVaccinations",
          "type": "uint256"
        },
        {
          "internalType": "uint256",
          "name": "_vaccinationDate",
          "type": "uint256"
        },
        {
          "internalType": "string",
          "name": "_typeOfVaccine",
          "type": "string"
        },
        {
          "internalType": "string",
          "name": "_phoneNumber",
          "type": "string"
        }
      ],
      "name": "updateVaccinatePerson",
      "outputs": [
        {
          "internalType": "bool",
          "name": "",
          "type": "bool"
        }
      ],
      "stateMutability": "nonpayable",
      "type": "function"
    }
  ],
  "bytecode": "0x60806040523480156200001157600080fd5b506040516200308b3803806200308b8339818101604052810190620000379190620000d6565b336000806101000a81548173ffffffffffffffffffffffffffffffffffffffff021916908373ffffffffffffffffffffffffffffffffffffffff16021790555080600160006101000a81548173ffffffffffffffffffffffffffffffffffffffff021916908373ffffffffffffffffffffffffffffffffffffffff160217905550506200015b565b600081519050620000d08162000141565b92915050565b600060208284031215620000ef57620000ee6200013c565b5b6000620000ff84828501620000bf565b91505092915050565b600062000115826200011c565b9050919050565b600073ffffffffffffffffffffffffffffffffffffffff82169050919050565b600080fd5b6200014c8162000108565b81146200015857600080fd5b50565b612f20806200016b6000396000f3fe608060405234801561001057600080fd5b50600436106100f55760003560e01c80634d6b5e0011610097578063b8fbbc3711610066578063b8fbbc37146102d8578063c09782cb1461030d578063dd25206f1461033d578063f2fde38b1461036d576100f5565b80634d6b5e0014610250578063715018a6146102805780638da5cb5b1461028a578063a7c87efa146102a8576100f5565b806323d1cc8a116100d357806323d1cc8a1461018457806329c62de3146101ba5780632cfd3739146101f057806346eb8a1314610220576100f5565b806312065fe0146100fa578063161d5c1b146101185780632159dffa1461014e575b600080fd5b610102610389565b60405161010f9190612c88565b60405180910390f35b610132600480360381019061012d9190611b9f565b610391565b6040516101459796959493929190612af5565b60405180910390f35b61016860048036038101906101639190611b9f565b610473565b60405161017b9796959493929190612a5c565b60405180910390f35b61019e60048036038101906101999190611b9f565b610555565b6040516101b19796959493929190612b80565b60405180910390f35b6101d460048036038101906101cf9190611b9f565b610638565b6040516101e79796959493929190612c04565b60405180910390f35b61020a60048036038101906102059190611e29565b61071a565b6040516102179190612a1f565b60405180910390f35b61023a60048036038101906102359190611f33565b610983565b6040516102479190612a1f565b60405180910390f35b61026a60048036038101906102659190611b9f565b610cf2565b6040516102779190612a3a565b60405180910390f35b610288610dab565b005b610292610ea9565b60405161029f91906127c0565b60405180910390f35b6102c260048036038101906102bd9190611d1f565b610ecd565b6040516102cf9190612a1f565b60405180910390f35b6102f260048036038101906102ed9190611b9f565b61123f565b60405161030496959493929190612ca3565b60405180910390f35b61032760048036038101906103229190611bf9565b61131a565b6040516103349190612a1f565b60405180910390f35b6103576004803603810190610352919061209f565b61168c565b60405161036491906127c0565b60405180910390f35b61038760048036038101906103829190611b9f565b6118f2565b005b600047905090565b6060806000806000606080600160009054906101000a900473ffffffffffffffffffffffffffffffffffffffff1673ffffffffffffffffffffffffffffffffffffffff1663161d5c1b896040518263ffffffff1660e01b81526004016103f791906127c0565b60006040518083038186803b15801561040f57600080fd5b505afa158015610423573d6000803e3d6000fd5b505050506040513d6000823e3d601f19601f8201168201806040525081019061044c9190612333565b809750819850829950839a50849b50859c50869d5050505050505050919395979092949650565b6060806060806000606080600160009054906101000a900473ffffffffffffffffffffffffffffffffffffffff1673ffffffffffffffffffffffffffffffffffffffff1663f2997d76896040518263ffffffff1660e01b81526004016104d991906127c0565b60006040518083038186803b1580156104f157600080fd5b505afa158015610505573d6000803e3d6000fd5b505050506040513d6000823e3d601f19601f8201168201806040525081019061052e91906121e9565b809750819850829950839a50849b50859c50869d5050505050505050919395979092949650565b606060008060006060806000600160009054906101000a900473ffffffffffffffffffffffffffffffffffffffff1673ffffffffffffffffffffffffffffffffffffffff166323d1cc8a896040518263ffffffff1660e01b81526004016105bc91906127c0565b60006040518083038186803b1580156105d457600080fd5b505afa1580156105e8573d6000803e3d6000fd5b505050506040513d6000823e3d601f19601f820116820180604052508101906106119190612445565b809750819850829950839a50849b50859c50869d5050505050505050919395979092949650565b6060600080600080606080600160009054906101000a900473ffffffffffffffffffffffffffffffffffffffff1673ffffffffffffffffffffffffffffffffffffffff1663de29e421896040518263ffffffff1660e01b815260040161069e91906127c0565b60006040518083038186803b1580156106b657600080fd5b505afa1580156106ca573d6000803e3d6000fd5b505050506040513d6000823e3d601f19601f820116820180604052508101906106f3919061253b565b809750819850829950839a50849b50859c50869d5050505050505050919395979092949650565b60006040518060400160405280601081526020017f4f424a4543545f494e4a454354494f4e000000000000000000000000000000008152508060405160200161076391906127a9565b60405160208183030381529060405280519060200120600160009054906101000a900473ffffffffffffffffffffffffffffffffffffffff1673ffffffffffffffffffffffffffffffffffffffff166327820851336040518263ffffffff1660e01b81526004016107d491906127c0565b60006040518083038186803b1580156107ec57600080fd5b505afa158015610800573d6000803e3d6000fd5b505050506040513d6000823e3d601f19601f820116820180604052508101906108299190612056565b60405160200161083991906127a9565b604051602081830303815290604052805190602001201461085957600080fd5b6000600160009054906101000a900473ffffffffffffffffffffffffffffffffffffffff1673ffffffffffffffffffffffffffffffffffffffff16631faa332b8c8c8c8c8c8c8c8c6040518963ffffffff1660e01b81526004016108c4989796959493929190612908565b602060405180830381600087803b1580156108de57600080fd5b505af11580156108f2573d6000803e3d6000fd5b505050506040513d601f19601f820116820180604052508101906109169190612029565b90508a73ffffffffffffffffffffffffffffffffffffffff163373ffffffffffffffffffffffffffffffffffffffff167f99e8a31c7f3cd6afd636531c2a23b9fe61514da05f1307d746f9ffa62b03221760405160405180910390a3809250505098975050505050505050565b6000876040518060400160405280601381526020017f56414343494e4154494f4e5f53544154494f4e00000000000000000000000000815250806040516020016109cd91906127a9565b60405160208183030381529060405280519060200120600160009054906101000a900473ffffffffffffffffffffffffffffffffffffffff1673ffffffffffffffffffffffffffffffffffffffff166327820851336040518263ffffffff1660e01b8152600401610a3e91906127c0565b60006040518083038186803b158015610a5657600080fd5b505afa158015610a6a573d6000803e3d6000fd5b505050506040513d6000823e3d601f19601f82011682018060405250810190610a939190612056565b604051602001610aa391906127a9565b6040516020818303038152906040528051906020012014610ac357600080fd5b80604051602001610ad491906127a9565b60405160208183030381529060405280519060200120600160009054906101000a900473ffffffffffffffffffffffffffffffffffffffff1673ffffffffffffffffffffffffffffffffffffffff16634d6b5e00846040518263ffffffff1660e01b8152600401610b4591906127c0565b60006040518083038186803b158015610b5d57600080fd5b505afa158015610b71573d6000803e3d6000fd5b505050506040513d6000823e3d601f19601f82011682018060405250810190610b9a9190612056565b604051602001610baa91906127a9565b6040516020818303038152906040528051906020012014610bca57600080fd5b6000600160009054906101000a900473ffffffffffffffffffffffffffffffffffffffff1673ffffffffffffffffffffffffffffffffffffffff16631c99eafa8c8c8c8c8c8c8c6040518863ffffffff1660e01b8152600401610c33979695949392919061299b565b602060405180830381600087803b158015610c4d57600080fd5b505af1158015610c61573d6000803e3d6000fd5b505050506040513d601f19601f82011682018060405250810190610c859190612029565b90508a73ffffffffffffffffffffffffffffffffffffffff163373ffffffffffffffffffffffffffffffffffffffff167f5f6b507fa5444f53ba18e6da7561c594402b8ca43dfe8dab3fab501dae30f15760405160405180910390a3809350505050979650505050505050565b6060600160009054906101000a900473ffffffffffffffffffffffffffffffffffffffff1673ffffffffffffffffffffffffffffffffffffffff16634d6b5e00836040518263ffffffff1660e01b8152600401610d4f91906127c0565b60006040518083038186803b158015610d6757600080fd5b505afa158015610d7b573d6000803e3d6000fd5b505050506040513d6000823e3d601f19601f82011682018060405250810190610da49190612056565b9050919050565b60008054906101000a900473ffffffffffffffffffffffffffffffffffffffff1673ffffffffffffffffffffffffffffffffffffffff163373ffffffffffffffffffffffffffffffffffffffff1614610e0357600080fd5b60008054906101000a900473ffffffffffffffffffffffffffffffffffffffff1673ffffffffffffffffffffffffffffffffffffffff167ff8df31144d9c2f0f6b59d69b8b98abd5459d07f2742c4df920b25aae33c6482060405160405180910390a260008060006101000a81548173ffffffffffffffffffffffffffffffffffffffff021916908373ffffffffffffffffffffffffffffffffffffffff160217905550565b60008054906101000a900473ffffffffffffffffffffffffffffffffffffffff1681565b6000886040518060400160405280600a81526020017f57415245484f555345520000000000000000000000000000000000000000000081525080604051602001610f1791906127a9565b60405160208183030381529060405280519060200120600160009054906101000a900473ffffffffffffffffffffffffffffffffffffffff1673ffffffffffffffffffffffffffffffffffffffff166327820851336040518263ffffffff1660e01b8152600401610f8891906127c0565b60006040518083038186803b158015610fa057600080fd5b505afa158015610fb4573d6000803e3d6000fd5b505050506040513d6000823e3d601f19601f82011682018060405250810190610fdd9190612056565b604051602001610fed91906127a9565b604051602081830303815290604052805190602001201461100d57600080fd5b8060405160200161101e91906127a9565b60405160208183030381529060405280519060200120600160009054906101000a900473ffffffffffffffffffffffffffffffffffffffff1673ffffffffffffffffffffffffffffffffffffffff16634d6b5e00846040518263ffffffff1660e01b815260040161108f91906127c0565b60006040518083038186803b1580156110a757600080fd5b505afa1580156110bb573d6000803e3d6000fd5b505050506040513d6000823e3d601f19601f820116820180604052508101906110e49190612056565b6040516020016110f491906127a9565b604051602081830303815290604052805190602001201461111457600080fd5b6000600160009054906101000a900473ffffffffffffffffffffffffffffffffffffffff1673ffffffffffffffffffffffffffffffffffffffff1663062518c88d8d8d8d8d8d8d8d6040518963ffffffff1660e01b815260040161117f989796959493929190612875565b602060405180830381600087803b15801561119957600080fd5b505af11580156111ad573d6000803e3d6000fd5b505050506040513d601f19601f820116820180604052508101906111d19190612029565b90508b73ffffffffffffffffffffffffffffffffffffffff163373ffffffffffffffffffffffffffffffffffffffff167f180cdb24bb44378642a35eab010c770c833cf19674dd4e0efafb99b5ea22ed6b60405160405180910390a380935050505098975050505050505050565b60008060006060806060600160009054906101000a900473ffffffffffffffffffffffffffffffffffffffff1673ffffffffffffffffffffffffffffffffffffffff16637971ea42886040518263ffffffff1660e01b81526004016112a491906127c0565b60006040518083038186803b1580156112bc57600080fd5b505afa1580156112d0573d6000803e3d6000fd5b505050506040513d6000823e3d601f19601f820116820180604052508101906112f99190612631565b809650819750829850839950849a50859b5050505050505091939550919395565b6000886040518060400160405280600b81526020017f4449535452494255544f520000000000000000000000000000000000000000008152508060405160200161136491906127a9565b60405160208183030381529060405280519060200120600160009054906101000a900473ffffffffffffffffffffffffffffffffffffffff1673ffffffffffffffffffffffffffffffffffffffff166327820851336040518263ffffffff1660e01b81526004016113d591906127c0565b60006040518083038186803b1580156113ed57600080fd5b505afa158015611401573d6000803e3d6000fd5b505050506040513d6000823e3d601f19601f8201168201806040525081019061142a9190612056565b60405160200161143a91906127a9565b604051602081830303815290604052805190602001201461145a57600080fd5b8060405160200161146b91906127a9565b60405160208183030381529060405280519060200120600160009054906101000a900473ffffffffffffffffffffffffffffffffffffffff1673ffffffffffffffffffffffffffffffffffffffff16634d6b5e00846040518263ffffffff1660e01b81526004016114dc91906127c0565b60006040518083038186803b1580156114f457600080fd5b505afa158015611508573d6000803e3d6000fd5b505050506040513d6000823e3d601f19601f820116820180604052508101906115319190612056565b60405160200161154191906127a9565b604051602081830303815290604052805190602001201461156157600080fd5b6000600160009054906101000a900473ffffffffffffffffffffffffffffffffffffffff1673ffffffffffffffffffffffffffffffffffffffff1663b439d2388d8d8d8d8d8d8d8d6040518963ffffffff1660e01b81526004016115cc9897969594939291906127db565b602060405180830381600087803b1580156115e657600080fd5b505af11580156115fa573d6000803e3d6000fd5b505050506040513d601f19601f8201168201806040525081019061161e9190612029565b90508b73ffffffffffffffffffffffffffffffffffffffff163373ffffffffffffffffffffffffffffffffffffffff167febf746471ae1c228971b077b22e020787d4f8653a4a9a971c001830f7328ba2460405160405180910390a380935050505098975050505050505050565b60006040518060400160405280600881526020017f50524f4455434552000000000000000000000000000000000000000000000000815250806040516020016116d591906127a9565b60405160208183030381529060405280519060200120600160009054906101000a900473ffffffffffffffffffffffffffffffffffffffff1673ffffffffffffffffffffffffffffffffffffffff166327820851336040518263ffffffff1660e01b815260040161174691906127c0565b60006040518083038186803b15801561175e57600080fd5b505afa158015611772573d6000803e3d6000fd5b505050506040513d6000823e3d601f19601f8201168201806040525081019061179b9190612056565b6040516020016117ab91906127a9565b60405160208183030381529060405280519060200120146117cb57600080fd5b6000600160009054906101000a900473ffffffffffffffffffffffffffffffffffffffff1673ffffffffffffffffffffffffffffffffffffffff16635703dc2d8b8b8b8b8b8b8b6040518863ffffffff1660e01b81526004016118349796959493929190612a5c565b602060405180830381600087803b15801561184e57600080fd5b505af1158015611862573d6000803e3d6000fd5b505050506040513d601f19601f820116820180604052508101906118869190611bcc565b90508073ffffffffffffffffffffffffffffffffffffffff163373ffffffffffffffffffffffffffffffffffffffff167f537f22db2b3b13a2af924ad1a2cfb5666cfa48ee6892c71849737fd108ce674a60405160405180910390a38092505050979650505050505050565b60008054906101000a900473ffffffffffffffffffffffffffffffffffffffff1673ffffffffffffffffffffffffffffffffffffffff163373ffffffffffffffffffffffffffffffffffffffff161461194a57600080fd5b600073ffffffffffffffffffffffffffffffffffffffff168173ffffffffffffffffffffffffffffffffffffffff16141561198457600080fd5b8073ffffffffffffffffffffffffffffffffffffffff1660008054906101000a900473ffffffffffffffffffffffffffffffffffffffff1673ffffffffffffffffffffffffffffffffffffffff167f8be0079c531659141344cd1fd0a4f28419497f9722a3daafe3b4186f6b6457e060405160405180910390a3806000806101000a81548173ffffffffffffffffffffffffffffffffffffffff021916908373ffffffffffffffffffffffffffffffffffffffff16021790555050565b6000611a54611a4f84612d3e565b612d19565b905082815260208101848484011115611a7057611a6f612e85565b5b611a7b848285612dde565b509392505050565b6000611a96611a9184612d3e565b612d19565b905082815260208101848484011115611ab257611ab1612e85565b5b611abd848285612ded565b509392505050565b600081359050611ad481612ea5565b92915050565b600081519050611ae981612ea5565b92915050565b600081359050611afe81612ebc565b92915050565b600081519050611b1381612ebc565b92915050565b600082601f830112611b2e57611b2d612e80565b5b8135611b3e848260208601611a41565b91505092915050565b600082601f830112611b5c57611b5b612e80565b5b8151611b6c848260208601611a83565b91505092915050565b600081359050611b8481612ed3565b92915050565b600081519050611b9981612ed3565b92915050565b600060208284031215611bb557611bb4612e8f565b5b6000611bc384828501611ac5565b91505092915050565b600060208284031215611be257611be1612e8f565b5b6000611bf084828501611ada565b91505092915050565b600080600080600080600080610100898b031215611c1a57611c19612e8f565b5b6000611c288b828c01611ac5565b985050602089013567ffffffffffffffff811115611c4957611c48612e8a565b5b611c558b828c01611b19565b975050604089013567ffffffffffffffff811115611c7657611c75612e8a565b5b611c828b828c01611b19565b9650506060611c938b828c01611b75565b9550506080611ca48b828c01611b75565b94505060a0611cb58b828c01611b75565b93505060c089013567ffffffffffffffff811115611cd657611cd5612e8a565b5b611ce28b828c01611b19565b92505060e089013567ffffffffffffffff811115611d0357611d02612e8a565b5b611d0f8b828c01611b19565b9150509295985092959890939650565b600080600080600080600080610100898b031215611d4057611d3f612e8f565b5b6000611d4e8b828c01611ac5565b985050602089013567ffffffffffffffff811115611d6f57611d6e612e8a565b5b611d7b8b828c01611b19565b9750506040611d8c8b828c01611b75565b9650506060611d9d8b828c01611b75565b9550506080611dae8b828c01611b75565b94505060a089013567ffffffffffffffff811115611dcf57611dce612e8a565b5b611ddb8b828c01611b19565b93505060c089013567ffffffffffffffff811115611dfc57611dfb612e8a565b5b611e088b828c01611b19565b92505060e0611e198b828c01611aef565b9150509295985092959890939650565b600080600080600080600080610100898b031215611e4a57611e49612e8f565b5b6000611e588b828c01611ac5565b985050602089013567ffffffffffffffff811115611e7957611e78612e8a565b5b611e858b828c01611b19565b9750506040611e968b828c01611b75565b9650506060611ea78b828c01611b75565b9550506080611eb88b828c01611b75565b94505060a0611ec98b828c01611b75565b93505060c089013567ffffffffffffffff811115611eea57611ee9612e8a565b5b611ef68b828c01611b19565b92505060e089013567ffffffffffffffff811115611f1757611f16612e8a565b5b611f238b828c01611b19565b9150509295985092959890939650565b600080600080600080600060e0888a031215611f5257611f51612e8f565b5b6000611f608a828b01611ac5565b9750506020611f718a828b01611b75565b9650506040611f828a828b01611b75565b9550506060611f938a828b01611b75565b945050608088013567ffffffffffffffff811115611fb457611fb3612e8a565b5b611fc08a828b01611b19565b93505060a088013567ffffffffffffffff811115611fe157611fe0612e8a565b5b611fed8a828b01611b19565b92505060c088013567ffffffffffffffff81111561200e5761200d612e8a565b5b61201a8a828b01611b19565b91505092959891949750929550565b60006020828403121561203f5761203e612e8f565b5b600061204d84828501611b04565b91505092915050565b60006020828403121561206c5761206b612e8f565b5b600082015167ffffffffffffffff81111561208a57612089612e8a565b5b61209684828501611b47565b91505092915050565b600080600080600080600060e0888a0312156120be576120bd612e8f565b5b600088013567ffffffffffffffff8111156120dc576120db612e8a565b5b6120e88a828b01611b19565b975050602088013567ffffffffffffffff81111561210957612108612e8a565b5b6121158a828b01611b19565b965050604088013567ffffffffffffffff81111561213657612135612e8a565b5b6121428a828b01611b19565b955050606088013567ffffffffffffffff81111561216357612162612e8a565b5b61216f8a828b01611b19565b94505060806121808a828b01611b75565b93505060a088013567ffffffffffffffff8111156121a1576121a0612e8a565b5b6121ad8a828b01611b19565b92505060c088013567ffffffffffffffff8111156121ce576121cd612e8a565b5b6121da8a828b01611b19565b91505092959891949750929550565b600080600080600080600060e0888a03121561220857612207612e8f565b5b600088015167ffffffffffffffff81111561222657612225612e8a565b5b6122328a828b01611b47565b975050602088015167ffffffffffffffff81111561225357612252612e8a565b5b61225f8a828b01611b47565b965050604088015167ffffffffffffffff8111156122805761227f612e8a565b5b61228c8a828b01611b47565b955050606088015167ffffffffffffffff8111156122ad576122ac612e8a565b5b6122b98a828b01611b47565b94505060806122ca8a828b01611b8a565b93505060a088015167ffffffffffffffff8111156122eb576122ea612e8a565b5b6122f78a828b01611b47565b92505060c088015167ffffffffffffffff81111561231857612317612e8a565b5b6123248a828b01611b47565b91505092959891949750929550565b600080600080600080600060e0888a03121561235257612351612e8f565b5b600088015167ffffffffffffffff8111156123705761236f612e8a565b5b61237c8a828b01611b47565b975050602088015167ffffffffffffffff81111561239d5761239c612e8a565b5b6123a98a828b01611b47565b96505060406123ba8a828b01611b8a565b95505060606123cb8a828b01611b8a565b94505060806123dc8a828b01611b8a565b93505060a088015167ffffffffffffffff8111156123fd576123fc612e8a565b5b6124098a828b01611b47565b92505060c088015167ffffffffffffffff81111561242a57612429612e8a565b5b6124368a828b01611b47565b91505092959891949750929550565b600080600080600080600060e0888a03121561246457612463612e8f565b5b600088015167ffffffffffffffff81111561248257612481612e8a565b5b61248e8a828b01611b47565b975050602061249f8a828b01611b8a565b96505060406124b08a828b01611b8a565b95505060606124c18a828b01611b8a565b945050608088015167ffffffffffffffff8111156124e2576124e1612e8a565b5b6124ee8a828b01611b47565b93505060a088015167ffffffffffffffff81111561250f5761250e612e8a565b5b61251b8a828b01611b47565b92505060c061252c8a828b01611b04565b91505092959891949750929550565b600080600080600080600060e0888a03121561255a57612559612e8f565b5b600088015167ffffffffffffffff81111561257857612577612e8a565b5b6125848a828b01611b47565b97505060206125958a828b01611b8a565b96505060406125a68a828b01611b8a565b95505060606125b78a828b01611b8a565b94505060806125c88a828b01611b8a565b93505060a088015167ffffffffffffffff8111156125e9576125e8612e8a565b5b6125f58a828b01611b47565b92505060c088015167ffffffffffffffff81111561261657612615612e8a565b5b6126228a828b01611b47565b91505092959891949750929550565b60008060008060008060c0878903121561264e5761264d612e8f565b5b600061265c89828a01611b8a565b965050602061266d89828a01611b8a565b955050604061267e89828a01611b8a565b945050606087015167ffffffffffffffff81111561269f5761269e612e8a565b5b6126ab89828a01611b47565b935050608087015167ffffffffffffffff8111156126cc576126cb612e8a565b5b6126d889828a01611b47565b92505060a087015167ffffffffffffffff8111156126f9576126f8612e8a565b5b61270589828a01611b47565b9150509295509295509295565b61271b81612d96565b82525050565b61272a81612da8565b82525050565b600061273b82612d6f565b6127458185612d7a565b9350612755818560208601612ded565b61275e81612e94565b840191505092915050565b600061277482612d6f565b61277e8185612d8b565b935061278e818560208601612ded565b80840191505092915050565b6127a381612dd4565b82525050565b60006127b58284612769565b915081905092915050565b60006020820190506127d56000830184612712565b92915050565b6000610100820190506127f1600083018b612712565b8181036020830152612803818a612730565b905081810360408301526128178189612730565b9050612826606083018861279a565b612833608083018761279a565b61284060a083018661279a565b81810360c08301526128528185612730565b905081810360e08301526128668184612730565b90509998505050505050505050565b60006101008201905061288b600083018b612712565b818103602083015261289d818a612730565b90506128ac604083018961279a565b6128b9606083018861279a565b6128c6608083018761279a565b81810360a08301526128d88186612730565b905081810360c08301526128ec8185612730565b90506128fb60e0830184612721565b9998505050505050505050565b60006101008201905061291e600083018b612712565b8181036020830152612930818a612730565b905061293f604083018961279a565b61294c606083018861279a565b612959608083018761279a565b61296660a083018661279a565b81810360c08301526129788185612730565b905081810360e083015261298c8184612730565b90509998505050505050505050565b600060e0820190506129b0600083018a612712565b6129bd602083018961279a565b6129ca604083018861279a565b6129d7606083018761279a565b81810360808301526129e98186612730565b905081810360a08301526129fd8185612730565b905081810360c0830152612a118184612730565b905098975050505050505050565b6000602082019050612a346000830184612721565b92915050565b60006020820190508181036000830152612a548184612730565b905092915050565b600060e0820190508181036000830152612a76818a612730565b90508181036020830152612a8a8189612730565b90508181036040830152612a9e8188612730565b90508181036060830152612ab28187612730565b9050612ac1608083018661279a565b81810360a0830152612ad38185612730565b905081810360c0830152612ae78184612730565b905098975050505050505050565b600060e0820190508181036000830152612b0f818a612730565b90508181036020830152612b238189612730565b9050612b32604083018861279a565b612b3f606083018761279a565b612b4c608083018661279a565b81810360a0830152612b5e8185612730565b905081810360c0830152612b728184612730565b905098975050505050505050565b600060e0820190508181036000830152612b9a818a612730565b9050612ba9602083018961279a565b612bb6604083018861279a565b612bc3606083018761279a565b8181036080830152612bd58186612730565b905081810360a0830152612be98185612730565b9050612bf860c0830184612721565b98975050505050505050565b600060e0820190508181036000830152612c1e818a612730565b9050612c2d602083018961279a565b612c3a604083018861279a565b612c47606083018761279a565b612c54608083018661279a565b81810360a0830152612c668185612730565b905081810360c0830152612c7a8184612730565b905098975050505050505050565b6000602082019050612c9d600083018461279a565b92915050565b600060c082019050612cb8600083018961279a565b612cc5602083018861279a565b612cd2604083018761279a565b8181036060830152612ce48186612730565b90508181036080830152612cf88185612730565b905081810360a0830152612d0c8184612730565b9050979650505050505050565b6000612d23612d34565b9050612d2f8282612e20565b919050565b6000604051905090565b600067ffffffffffffffff821115612d5957612d58612e51565b5b612d6282612e94565b9050602081019050919050565b600081519050919050565b600082825260208201905092915050565b600081905092915050565b6000612da182612db4565b9050919050565b60008115159050919050565b600073ffffffffffffffffffffffffffffffffffffffff82169050919050565b6000819050919050565b82818337600083830152505050565b60005b83811015612e0b578082015181840152602081019050612df0565b83811115612e1a576000848401525b50505050565b612e2982612e94565b810181811067ffffffffffffffff82111715612e4857612e47612e51565b5b80604052505050565b7f4e487b7100000000000000000000000000000000000000000000000000000000600052604160045260246000fd5b600080fd5b600080fd5b600080fd5b600080fd5b6000601f19601f8301169050919050565b612eae81612d96565b8114612eb957600080fd5b50565b612ec581612da8565b8114612ed057600080fd5b50565b612edc81612dd4565b8114612ee757600080fd5b5056fea2646970667358221220d30324d940c4ed2a4db394b32d88130db81dd994de8738902b7390cb4c177da464736f6c63430008070033",
  "immutableReferences": {},
  "source": "// SPDX-License-Identifier: MIT\r\npragma solidity ^0.8.7;\r\nimport \"./VaccineSystemStorage.sol\";\r\nimport \"./Ownable.sol\";\r\n\r\ncontract VaccineSupplyChain is Ownable {\r\n    event CompleteBasicDetail(address indexed user, address indexed batchNo);\r\n    event CompleteWarehouser(address indexed user, address indexed batchNo);\r\n    event CompleteDistributor(address indexed user, address indexed batchNo);\r\n    event CompleteVaccinationStation(\r\n        address indexed user,\r\n        address indexed batchNo\r\n    );\r\n    event CompleteVaccinatePerson(\r\n        address indexed user,\r\n        address indexed batchNo\r\n    );\r\n\r\n    /* Declare Modifier */\r\n    modifier isValidPerformer(address batchNo, string memory role) {\r\n        require(\r\n            keccak256(\r\n                abi.encodePacked(vaccineSystemStorage.getUserRole(msg.sender))\r\n            ) == keccak256(abi.encodePacked(role))\r\n        );\r\n        require(\r\n            keccak256(\r\n                abi.encodePacked(vaccineSystemStorage.getNextAction(batchNo))\r\n            ) == keccak256(abi.encodePacked(role))\r\n        );\r\n        _;\r\n    }\r\n\r\n    modifier onlyProducer(string memory role) {\r\n        require(\r\n            keccak256(\r\n                abi.encodePacked(vaccineSystemStorage.getUserRole(msg.sender))\r\n            ) == keccak256(abi.encodePacked(role))\r\n        );\r\n        _;\r\n    }\r\n\r\n    modifier onlyObjectInjection(string memory role) {\r\n        require(\r\n            keccak256(\r\n                abi.encodePacked(vaccineSystemStorage.getUserRole(msg.sender))\r\n            ) == keccak256(abi.encodePacked(role))\r\n        );\r\n        _;\r\n    }\r\n\r\n    /* Storage Variables */\r\n    VaccineSystemStorage vaccineSystemStorage;\r\n\r\n    constructor(address _vaccineSystemAddress) public {\r\n        vaccineSystemStorage = VaccineSystemStorage(_vaccineSystemAddress);\r\n    }\r\n\r\n    function getBalance() public view returns (uint256) {\r\n        return (address(this).balance);\r\n    }\r\n\r\n    /* Get Next Action */\r\n\r\n    function getNextAction(address _batchNo)\r\n        public\r\n        view\r\n        returns (string memory action)\r\n    {\r\n        (action) = vaccineSystemStorage.getNextAction(_batchNo);\r\n        return (action);\r\n    }\r\n\r\n    /* Get Basic Details */\r\n    function getBasicDetailsData(address _batchNo)\r\n        public\r\n        view\r\n        returns (\r\n            string memory producerName,\r\n            string memory storageName,\r\n            string memory distributorName,\r\n            string memory vaccinationStationName,\r\n            uint256 quantity,\r\n            string memory optimumRangeTemp,\r\n            string memory optimumRangeHum\r\n        )\r\n    {\r\n        /* Call Storage Contract */\r\n        (\r\n            producerName,\r\n            storageName,\r\n            distributorName,\r\n            vaccinationStationName,\r\n            quantity,\r\n            optimumRangeTemp,\r\n            optimumRangeHum\r\n        ) = vaccineSystemStorage.getBasicDetails(_batchNo);\r\n        return (\r\n            producerName,\r\n            storageName,\r\n            distributorName,\r\n            vaccinationStationName,\r\n            quantity,\r\n            optimumRangeTemp,\r\n            optimumRangeHum\r\n        );\r\n    }\r\n\r\n    /* Add Basic Details */\r\n    function addBasicDetails(\r\n        string memory _producerName,\r\n        string memory _storageName,\r\n        string memory _distributorName,\r\n        string memory _vaccinationStationName,\r\n        uint256 _quantity,\r\n        string memory _optimumRangeTemp,\r\n        string memory _optimumRangeHum\r\n    ) public onlyProducer(\"PRODUCER\") returns (address) {\r\n        address batchNo = vaccineSystemStorage.setBasicDetails(\r\n            _producerName,\r\n            _storageName,\r\n            _distributorName,\r\n            _vaccinationStationName,\r\n            _quantity,\r\n            _optimumRangeTemp,\r\n            _optimumRangeHum\r\n        );\r\n\r\n        /* Call Emit Event */\r\n        emit CompleteBasicDetail(msg.sender, batchNo);\r\n\r\n        return batchNo;\r\n    }\r\n\r\n    /* Get Warehouser */\r\n    function getWarehouserData(address _batchNo)\r\n        public\r\n        view\r\n        returns (\r\n            string memory vaccineName,\r\n            uint256 quantity,\r\n            uint256 price,\r\n            uint256 storageDate,\r\n            string memory optimumRangeTemp,\r\n            string memory optimumRangeHum,\r\n            bool isViolation\r\n        )\r\n    {\r\n        /* Call Storage Contract */\r\n        (\r\n            vaccineName,\r\n            quantity,\r\n            price,\r\n            storageDate,\r\n            optimumRangeTemp,\r\n            optimumRangeHum,\r\n            isViolation\r\n        ) = vaccineSystemStorage.getWarehouserData(_batchNo);\r\n        return (\r\n            vaccineName,\r\n            quantity,\r\n            price,\r\n            storageDate,\r\n            optimumRangeTemp,\r\n            optimumRangeHum,\r\n            isViolation\r\n        );\r\n    }\r\n\r\n    /* Update Warehouser */\r\n    function updateWarehouser(\r\n        address _batchNo,\r\n        string memory _vaccineName,\r\n        uint256 _quantity,\r\n        uint256 _price,\r\n        uint256 _storageDate,\r\n        string memory _optimumRangeTemp,\r\n        string memory _optimumRangeHum,\r\n        bool _isViolation\r\n    ) public isValidPerformer(_batchNo, \"WAREHOUSER\") returns (bool) {\r\n        bool status = vaccineSystemStorage.setWarehouser(\r\n            _batchNo,\r\n            _vaccineName,\r\n            _quantity,\r\n            _price,\r\n            _storageDate,\r\n            _optimumRangeTemp,\r\n            _optimumRangeHum,\r\n            _isViolation\r\n        );\r\n\r\n        emit CompleteWarehouser(msg.sender, _batchNo);\r\n        return (status);\r\n    }\r\n\r\n    /* Get Distributor */\r\n    function getDistributorData(address _batchNo)\r\n        public\r\n        view\r\n        returns (\r\n            string memory destinationAddress,\r\n            string memory shippingName,\r\n            uint256 quantity,\r\n            uint256 departureDateTime,\r\n            uint256 estimateDateTime,\r\n            string memory optimumRangeTemp,\r\n            string memory optimumRangeHum\r\n        )\r\n    {\r\n        /* Call Storage Contract */\r\n        (\r\n            destinationAddress,\r\n            shippingName,\r\n            quantity,\r\n            departureDateTime,\r\n            estimateDateTime,\r\n            optimumRangeTemp,\r\n            optimumRangeHum\r\n        ) = vaccineSystemStorage.getDistributorData(_batchNo);\r\n        return (\r\n            destinationAddress,\r\n            shippingName,\r\n            quantity,\r\n            departureDateTime,\r\n            estimateDateTime,\r\n            optimumRangeTemp,\r\n            optimumRangeHum\r\n        );\r\n    }\r\n\r\n    /* Update Distributor */\r\n    function updateDistributorData(\r\n        address _batchNo,\r\n        string memory _destinationAddress,\r\n        string memory _shippingName,\r\n        uint256 _quantity,\r\n        uint256 _departureDateTime,\r\n        uint256 _estimateDateTime,\r\n        string memory _optimumRangeTemp,\r\n        string memory _optimumRangeHum\r\n    ) public isValidPerformer(_batchNo, \"DISTRIBUTOR\") returns (bool) {\r\n        bool status = vaccineSystemStorage.setDistributor(\r\n            _batchNo,\r\n            _destinationAddress,\r\n            _shippingName,\r\n            _quantity,\r\n            _departureDateTime,\r\n            _estimateDateTime,\r\n            _optimumRangeTemp,\r\n            _optimumRangeHum\r\n        );\r\n        emit CompleteDistributor(msg.sender, _batchNo);\r\n\r\n        return (status);\r\n    }\r\n\r\n    /* Get Vaccination Station */\r\n    function getVaccinationStation(address _batchNo)\r\n        public\r\n        view\r\n        returns (\r\n            uint256 quantity,\r\n            uint256 arrivalDateTime,\r\n            uint256 vaccinationStationId,\r\n            string memory shippingName,\r\n            string memory shippingNo,\r\n            string memory locationAddress\r\n        )\r\n    {\r\n        /* Call Storage Contract */\r\n        (\r\n            quantity,\r\n            arrivalDateTime,\r\n            vaccinationStationId,\r\n            shippingName,\r\n            shippingNo,\r\n            locationAddress\r\n        ) = vaccineSystemStorage.getVaccinationStationData(_batchNo);\r\n\r\n        return (\r\n            quantity,\r\n            arrivalDateTime,\r\n            vaccinationStationId,\r\n            shippingName,\r\n            shippingNo,\r\n            locationAddress\r\n        );\r\n    }\r\n\r\n    /* Update Vaccination Station */\r\n    function updateVaccinationStation(\r\n        address _batchNo,\r\n        uint256 _quantity,\r\n        uint256 _arrivalDateTime,\r\n        uint256 _vaccinationStationId,\r\n        string memory _shippingName,\r\n        string memory _shippingNo,\r\n        string memory _locationAddress\r\n    ) public isValidPerformer(_batchNo, \"VACCINATION_STATION\") returns (bool) {\r\n        bool status = vaccineSystemStorage.setVaccinationStation(\r\n            _batchNo,\r\n            _quantity,\r\n            _arrivalDateTime,\r\n            _vaccinationStationId,\r\n            _shippingName,\r\n            _shippingNo,\r\n            _locationAddress\r\n        );\r\n\r\n        /* Emit Event */\r\n        emit CompleteVaccinationStation(msg.sender, _batchNo);\r\n        return (status);\r\n    }\r\n\r\n    /* Get Vaccinate Person Data */\r\n    function getVaccinateData(address _batchNo)\r\n        public\r\n        view\r\n        returns (\r\n            string memory personName,\r\n            uint256 age,\r\n            uint256 identityCard,\r\n            uint256 numberOfVaccinations,\r\n            uint256 vaccinationDate,\r\n            string memory typeOfVaccine,\r\n            string memory phoneNumber\r\n        )\r\n    {\r\n        /* Call Storage Contract */\r\n        (\r\n            personName,\r\n            age,\r\n            identityCard,\r\n            numberOfVaccinations,\r\n            vaccinationDate,\r\n            typeOfVaccine,\r\n            phoneNumber\r\n        ) = vaccineSystemStorage.getVaccinationPersonData(_batchNo);\r\n\r\n        return (\r\n            personName,\r\n            age,\r\n            identityCard,\r\n            numberOfVaccinations,\r\n            vaccinationDate,\r\n            typeOfVaccine,\r\n            phoneNumber\r\n        );\r\n    }\r\n\r\n    /* Update Vaccinate Person */\r\n    function updateVaccinatePerson(\r\n        address _batchNo,\r\n        string memory _personName,\r\n        uint256 _age,\r\n        uint256 _identityCard,\r\n        uint256 _numberOfVaccinations,\r\n        uint256 _vaccinationDate,\r\n        string memory _typeOfVaccine,\r\n        string memory _phoneNumber\r\n    ) public onlyObjectInjection(\"OBJECT_INJECTION\") returns (bool) {\r\n        bool status = vaccineSystemStorage.setObjectInjection(\r\n            _batchNo,\r\n            _personName,\r\n            _age,\r\n            _identityCard,\r\n            _numberOfVaccinations,\r\n            _vaccinationDate,\r\n            _typeOfVaccine,\r\n            _phoneNumber\r\n        );\r\n\r\n        /* Emit Event */\r\n        emit CompleteVaccinatePerson(msg.sender, _batchNo);\r\n        return (status);\r\n    }\r\n}\r\n",
  "sourcePath": "D:\\Learn , Research, Explore\\UIT\\Dissertation\\Source\\packages\\dissertation_smartcontract\\contracts\\VaccineSupplyChain.sol",
  "compiler": {
    "name": "solc",
    "version": "0.8.7+commit.e28d00a7.Emscripten.clang"
  },
  "schemaVersion": "3.4.3",
  "updatedAt": "2021-11-07T06:51:22.682Z",
  "networkType": "ethereum",
  "devdoc": {
    "kind": "dev",
    "methods": {
      "renounceOwnership()": {
        "details": "Allows the current owner to relinquish control of the contract."
      },
      "transferOwnership(address)": {
        "details": "Allows the current owner to transfer control of the contract to a newOwner.",
        "params": {
          "newOwner": "The address to transfer ownership to."
        }
      }
    },
    "version": 1
  },
  "userdoc": {
    "kind": "user",
    "methods": {},
    "version": 1
  }
}