{
  "contractName": "VaccineSystemStorage",
  "abi": [
    {
      "inputs": [],
      "stateMutability": "nonpayable",
      "type": "constructor"
    },
    {
      "anonymous": false,
      "inputs": [
        {
          "indexed": false,
          "internalType": "address",
          "name": "caller",
          "type": "address"
        }
      ],
      "name": "AuthorizedCaller",
      "type": "event"
    },
    {
      "anonymous": false,
      "inputs": [
        {
          "indexed": false,
          "internalType": "address",
          "name": "caller",
          "type": "address"
        }
      ],
      "name": "DeAuthorizedCaller",
      "type": "event"
    },
    {
      "anonymous": false,
      "inputs": [
        {
          "indexed": true,
          "internalType": "address",
          "name": "previousOwner",
          "type": "address"
        }
      ],
      "name": "OwnershipRenounced",
      "type": "event"
    },
    {
      "anonymous": false,
      "inputs": [
        {
          "indexed": true,
          "internalType": "address",
          "name": "previousOwner",
          "type": "address"
        },
        {
          "indexed": true,
          "internalType": "address",
          "name": "newOwner",
          "type": "address"
        }
      ],
      "name": "OwnershipTransferred",
      "type": "event"
    },
    {
      "inputs": [],
      "name": "lastAccess",
      "outputs": [
        {
          "internalType": "address",
          "name": "",
          "type": "address"
        }
      ],
      "stateMutability": "view",
      "type": "function",
      "constant": true
    },
    {
      "inputs": [],
      "name": "owner",
      "outputs": [
        {
          "internalType": "address",
          "name": "",
          "type": "address"
        }
      ],
      "stateMutability": "view",
      "type": "function",
      "constant": true
    },
    {
      "inputs": [],
      "name": "renounceOwnership",
      "outputs": [],
      "stateMutability": "nonpayable",
      "type": "function"
    },
    {
      "inputs": [
        {
          "internalType": "address",
          "name": "newOwner",
          "type": "address"
        }
      ],
      "name": "transferOwnership",
      "outputs": [],
      "stateMutability": "nonpayable",
      "type": "function"
    },
    {
      "inputs": [
        {
          "internalType": "address",
          "name": "_caller",
          "type": "address"
        }
      ],
      "name": "authorizeCaller",
      "outputs": [
        {
          "internalType": "bool",
          "name": "",
          "type": "bool"
        }
      ],
      "stateMutability": "nonpayable",
      "type": "function"
    },
    {
      "inputs": [
        {
          "internalType": "address",
          "name": "_caller",
          "type": "address"
        }
      ],
      "name": "deAuthorizeCaller",
      "outputs": [
        {
          "internalType": "bool",
          "name": "",
          "type": "bool"
        }
      ],
      "stateMutability": "nonpayable",
      "type": "function"
    },
    {
      "inputs": [
        {
          "internalType": "address",
          "name": "_userAddress",
          "type": "address"
        }
      ],
      "name": "getUserRole",
      "outputs": [
        {
          "internalType": "string",
          "name": "",
          "type": "string"
        }
      ],
      "stateMutability": "view",
      "type": "function",
      "constant": true
    },
    {
      "inputs": [
        {
          "internalType": "address",
          "name": "_batchNo",
          "type": "address"
        }
      ],
      "name": "getNextAction",
      "outputs": [
        {
          "internalType": "string",
          "name": "",
          "type": "string"
        }
      ],
      "stateMutability": "view",
      "type": "function",
      "constant": true
    },
    {
      "inputs": [
        {
          "internalType": "address",
          "name": "_userAddress",
          "type": "address"
        },
        {
          "internalType": "string",
          "name": "_name",
          "type": "string"
        },
        {
          "internalType": "string",
          "name": "_contactNo",
          "type": "string"
        },
        {
          "internalType": "string",
          "name": "_role",
          "type": "string"
        },
        {
          "internalType": "bool",
          "name": "_isActive",
          "type": "bool"
        },
        {
          "internalType": "string",
          "name": "_profileHash",
          "type": "string"
        }
      ],
      "name": "setUser",
      "outputs": [
        {
          "internalType": "bool",
          "name": "",
          "type": "bool"
        }
      ],
      "stateMutability": "nonpayable",
      "type": "function"
    },
    {
      "inputs": [
        {
          "internalType": "address",
          "name": "_userAddress",
          "type": "address"
        }
      ],
      "name": "getUser",
      "outputs": [
        {
          "internalType": "string",
          "name": "name",
          "type": "string"
        },
        {
          "internalType": "string",
          "name": "contactNo",
          "type": "string"
        },
        {
          "internalType": "string",
          "name": "role",
          "type": "string"
        },
        {
          "internalType": "bool",
          "name": "isActive",
          "type": "bool"
        },
        {
          "internalType": "string",
          "name": "profileHash",
          "type": "string"
        }
      ],
      "stateMutability": "view",
      "type": "function",
      "constant": true
    },
    {
      "inputs": [
        {
          "internalType": "address",
          "name": "_batchNo",
          "type": "address"
        }
      ],
      "name": "getBasicDetails",
      "outputs": [
        {
          "internalType": "string",
          "name": "producerName",
          "type": "string"
        },
        {
          "internalType": "string",
          "name": "storageName",
          "type": "string"
        },
        {
          "internalType": "string",
          "name": "distributorName",
          "type": "string"
        },
        {
          "internalType": "string",
          "name": "vaccinationStationName",
          "type": "string"
        },
        {
          "internalType": "uint256",
          "name": "quantity",
          "type": "uint256"
        },
        {
          "internalType": "string",
          "name": "optimumRangeTemp",
          "type": "string"
        },
        {
          "internalType": "string",
          "name": "optimumRangeHum",
          "type": "string"
        }
      ],
      "stateMutability": "view",
      "type": "function",
      "constant": true
    },
    {
      "inputs": [
        {
          "internalType": "string",
          "name": "_producerName",
          "type": "string"
        },
        {
          "internalType": "string",
          "name": "_storageName",
          "type": "string"
        },
        {
          "internalType": "string",
          "name": "_distributorName",
          "type": "string"
        },
        {
          "internalType": "string",
          "name": "_vaccinationStationName",
          "type": "string"
        },
        {
          "internalType": "uint256",
          "name": "_quantity",
          "type": "uint256"
        },
        {
          "internalType": "string",
          "name": "_optimumRangeTemp",
          "type": "string"
        },
        {
          "internalType": "string",
          "name": "_optimumRangeHum",
          "type": "string"
        }
      ],
      "name": "setBasicDetails",
      "outputs": [
        {
          "internalType": "address",
          "name": "",
          "type": "address"
        }
      ],
      "stateMutability": "nonpayable",
      "type": "function"
    },
    {
      "inputs": [
        {
          "internalType": "address",
          "name": "batchNo",
          "type": "address"
        },
        {
          "internalType": "string",
          "name": "_vaccineName",
          "type": "string"
        },
        {
          "internalType": "uint256",
          "name": "_quantity",
          "type": "uint256"
        },
        {
          "internalType": "uint256",
          "name": "_price",
          "type": "uint256"
        },
        {
          "internalType": "uint256",
          "name": "_storageDate",
          "type": "uint256"
        },
        {
          "internalType": "string",
          "name": "_optimumRangeTemp",
          "type": "string"
        },
        {
          "internalType": "string",
          "name": "_optimumRangeHum",
          "type": "string"
        },
        {
          "internalType": "bool",
          "name": "_isViolation",
          "type": "bool"
        },
        {
          "internalType": "string",
          "name": "_locationAddress",
          "type": "string"
        }
      ],
      "name": "setWarehouser",
      "outputs": [
        {
          "internalType": "bool",
          "name": "",
          "type": "bool"
        }
      ],
      "stateMutability": "nonpayable",
      "type": "function"
    },
    {
      "inputs": [
        {
          "internalType": "address",
          "name": "batchNo",
          "type": "address"
        }
      ],
      "name": "getWarehouserData",
      "outputs": [
        {
          "internalType": "string",
          "name": "vaccineName",
          "type": "string"
        },
        {
          "internalType": "uint256",
          "name": "quantity",
          "type": "uint256"
        },
        {
          "internalType": "uint256",
          "name": "price",
          "type": "uint256"
        },
        {
          "internalType": "uint256",
          "name": "storageDate",
          "type": "uint256"
        },
        {
          "internalType": "string",
          "name": "optimumRangeTemp",
          "type": "string"
        },
        {
          "internalType": "string",
          "name": "optimumRangeHum",
          "type": "string"
        },
        {
          "internalType": "bool",
          "name": "isViolation",
          "type": "bool"
        },
        {
          "internalType": "string",
          "name": "locationAddress",
          "type": "string"
        }
      ],
      "stateMutability": "view",
      "type": "function",
      "constant": true
    },
    {
      "inputs": [
        {
          "internalType": "address",
          "name": "batchNo",
          "type": "address"
        },
        {
          "internalType": "string",
          "name": "_destinationAddress",
          "type": "string"
        },
        {
          "internalType": "string",
          "name": "_shippingName",
          "type": "string"
        },
        {
          "internalType": "uint256",
          "name": "_quantity",
          "type": "uint256"
        },
        {
          "internalType": "uint256",
          "name": "_departureDateTime",
          "type": "uint256"
        },
        {
          "internalType": "uint256",
          "name": "_estimateDateTime",
          "type": "uint256"
        },
        {
          "internalType": "string",
          "name": "_optimumRangeTemp",
          "type": "string"
        },
        {
          "internalType": "string",
          "name": "_optimumRangeHum",
          "type": "string"
        }
      ],
      "name": "setDistributor",
      "outputs": [
        {
          "internalType": "bool",
          "name": "",
          "type": "bool"
        }
      ],
      "stateMutability": "nonpayable",
      "type": "function"
    },
    {
      "inputs": [
        {
          "internalType": "address",
          "name": "batchNo",
          "type": "address"
        }
      ],
      "name": "getDistributorData",
      "outputs": [
        {
          "internalType": "string",
          "name": "destinationAddress",
          "type": "string"
        },
        {
          "internalType": "string",
          "name": "shippingName",
          "type": "string"
        },
        {
          "internalType": "uint256",
          "name": "quantity",
          "type": "uint256"
        },
        {
          "internalType": "uint256",
          "name": "departureDateTime",
          "type": "uint256"
        },
        {
          "internalType": "uint256",
          "name": "estimateDateTime",
          "type": "uint256"
        },
        {
          "internalType": "string",
          "name": "optimumRangeTemp",
          "type": "string"
        },
        {
          "internalType": "string",
          "name": "optimumRangeHum",
          "type": "string"
        },
        {
          "internalType": "bool",
          "name": "isViolation",
          "type": "bool"
        }
      ],
      "stateMutability": "view",
      "type": "function",
      "constant": true
    },
    {
      "inputs": [
        {
          "internalType": "address",
          "name": "batchNo",
          "type": "address"
        },
        {
          "internalType": "uint256",
          "name": "_quantity",
          "type": "uint256"
        },
        {
          "internalType": "uint256",
          "name": "_arrivalDateTime",
          "type": "uint256"
        },
        {
          "internalType": "uint256",
          "name": "_vaccinationStationId",
          "type": "uint256"
        },
        {
          "internalType": "string",
          "name": "_shippingName",
          "type": "string"
        },
        {
          "internalType": "string",
          "name": "_shippingNo",
          "type": "string"
        },
        {
          "internalType": "string",
          "name": "_locationAddress",
          "type": "string"
        }
      ],
      "name": "setVaccinationStation",
      "outputs": [
        {
          "internalType": "bool",
          "name": "",
          "type": "bool"
        }
      ],
      "stateMutability": "nonpayable",
      "type": "function"
    },
    {
      "inputs": [
        {
          "internalType": "address",
          "name": "batchNo",
          "type": "address"
        }
      ],
      "name": "getVaccinationStationData",
      "outputs": [
        {
          "internalType": "uint256",
          "name": "quantity",
          "type": "uint256"
        },
        {
          "internalType": "uint256",
          "name": "arrivalDateTime",
          "type": "uint256"
        },
        {
          "internalType": "uint256",
          "name": "vaccinationStationId",
          "type": "uint256"
        },
        {
          "internalType": "string",
          "name": "shippingName",
          "type": "string"
        },
        {
          "internalType": "string",
          "name": "shippingNo",
          "type": "string"
        },
        {
          "internalType": "string",
          "name": "locationAddress",
          "type": "string"
        }
      ],
      "stateMutability": "view",
      "type": "function",
      "constant": true
    },
    {
      "inputs": [
        {
          "internalType": "address",
          "name": "batchNo",
          "type": "address"
        },
        {
          "internalType": "string",
          "name": "_personName",
          "type": "string"
        },
        {
          "internalType": "uint256",
          "name": "_age",
          "type": "uint256"
        },
        {
          "internalType": "uint256",
          "name": "_identityCard",
          "type": "uint256"
        },
        {
          "internalType": "uint256",
          "name": "_numberOfVaccinations",
          "type": "uint256"
        },
        {
          "internalType": "uint256",
          "name": "_vaccinationDate",
          "type": "uint256"
        },
        {
          "internalType": "string",
          "name": "_typeOfVaccine",
          "type": "string"
        },
        {
          "internalType": "string",
          "name": "_phoneNumber",
          "type": "string"
        }
      ],
      "name": "setObjectInjection",
      "outputs": [
        {
          "internalType": "bool",
          "name": "",
          "type": "bool"
        }
      ],
      "stateMutability": "nonpayable",
      "type": "function"
    },
    {
      "inputs": [
        {
          "internalType": "address",
          "name": "batchNo",
          "type": "address"
        }
      ],
      "name": "getVaccinationPersonData",
      "outputs": [
        {
          "internalType": "string",
          "name": "personName",
          "type": "string"
        },
        {
          "internalType": "uint256",
          "name": "age",
          "type": "uint256"
        },
        {
          "internalType": "uint256",
          "name": "identityCard",
          "type": "uint256"
        },
        {
          "internalType": "uint256",
          "name": "numberOfVaccinations",
          "type": "uint256"
        },
        {
          "internalType": "uint256",
          "name": "vaccinationDate",
          "type": "uint256"
        },
        {
          "internalType": "string",
          "name": "typeOfVaccine",
          "type": "string"
        },
        {
          "internalType": "string",
          "name": "phoneNumber",
          "type": "string"
        }
      ],
      "stateMutability": "view",
      "type": "function",
      "constant": true
    }
  ],
  "bytecode": "0x608060405234801561001057600080fd5b50600080546001600160a01b0319163390811782558152600260205260409020805460ff191660011790556129b28061004a6000396000f3fe608060405234801561001057600080fd5b506004361061012c5760003560e01c80635703dc2d116100ad578063b439d23811610071578063b439d238146102ce578063de29e421146102e1578063f2997d7614610307578063f2fde38b1461032d578063fb7a20af1461034057600080fd5b80635703dc2d146102555780636f77926b14610268578063715018a61461028c5780637971ea42146102965780638da5cb5b146102bb57600080fd5b806327820851116100f457806327820851146101d157806327a6eaa3146101f15780632c388d5d146102045780633480898b146102175780634d6b5e001461024257600080fd5b8063161d5c1b146101315780631bcd250a146101615780631c99eafa146101845780631faa332b1461019757806323d1cc8a146101aa575b600080fd5b61014461013f3660046121aa565b610353565b6040516101589897969594939291906127a3565b60405180910390f35b61017461016f3660046121aa565b61064e565b6040519015158152602001610158565b6101746101923660046124e1565b6106c4565b6101746101a5366004612460565b610833565b6101bd6101b83660046121aa565b6109ac565b60405161015898979695949392919061281d565b6101e46101df3660046121aa565b610cac565b60405161015891906126a6565b6101746101ff366004612374565b610d58565b6101746102123660046121aa565b610f28565b60015461022a906001600160a01b031681565b6040516001600160a01b039091168152602001610158565b6101e46102503660046121aa565b610f94565b61022a610263366004612597565b610fbb565b61027b6102763660046121aa565b6111e5565b6040516101589594939291906126b9565b6102946114c4565b005b6102a96102a43660046121aa565b611523565b604051610158969594939291906128d3565b60005461022a906001600160a01b031681565b6101746102dc366004612299565b611766565b6102f46102ef3660046121aa565b611919565b6040516101589796959493929190612896565b61031a6103153660046121aa565b611b73565b604051610158979695949392919061271a565b61029461033b3660046121aa565b611e12565b61017461034e3660046121cc565b611e97565b6060806000806000606080600080600760008b6001600160a01b03166001600160a01b03168152602001908152602001600020604051806101000160405290816000820180546103a29061292b565b80601f01602080910402602001604051908101604052809291908181526020018280546103ce9061292b565b801561041b5780601f106103f05761010080835404028352916020019161041b565b820191906000526020600020905b8154815290600101906020018083116103fe57829003601f168201915b505050505081526020016001820180546104349061292b565b80601f01602080910402602001604051908101604052809291908181526020018280546104609061292b565b80156104ad5780601f10610482576101008083540402835291602001916104ad565b820191906000526020600020905b81548152906001019060200180831161049057829003601f168201915b505050505081526020016002820154815260200160038201548152602001600482015481526020016005820180546104e49061292b565b80601f01602080910402602001604051908101604052809291908181526020018280546105109061292b565b801561055d5780601f106105325761010080835404028352916020019161055d565b820191906000526020600020905b81548152906001019060200180831161054057829003601f168201915b505050505081526020016006820180546105769061292b565b80601f01602080910402602001604051908101604052809291908181526020018280546105a29061292b565b80156105ef5780601f106105c4576101008083540402835291602001916105ef565b820191906000526020600020905b8154815290600101906020018083116105d257829003601f168201915b50505091835250506007919091015460ff16151560209182015281519082015160408301516060840151608085015160a086015160c087015160e090970151959f50939d50919b50995097509550909350915050919395975091939597565b600080546001600160a01b0316331461066657600080fd5b6001600160a01b038216600081815260026020908152604091829020805460ff1916905590519182527f9e8ca6ff03906e81e8a6a03d4f96b7edb0b97f0ed9d07ef1b699fff63438549691015b60405180910390a15060015b919050565b600180546001600160a01b031916339081178255600090815260026020526040812054909160ff909116146106f857600080fd5b602687905560278690556028859055835161071a906029906020870190611fe2565b50825161072e90602a906020860190611fe2565b50815161074290602b906020850190611fe2565b506001600160a01b038816600090815260086020526040902060268054825560275460018301556028546002830155602980549192916003830191906107879061292b565b610792929190612066565b5060048201816004019080546107a79061292b565b6107b2929190612066565b5060058201816005019080546107c79061292b565b6107d2929190612066565b5050604080518082018252601081526f27a12522a1aa2fa4a72522a1aa24a7a760811b60208083019182526001600160a01b038d166000908152600a9091529290922090516108249350909190611fe2565b50600198975050505050505050565b600180546001600160a01b031916339081178255600090815260026020526040812054909160ff9091161461086757600080fd5b875161087a90602c9060208b0190611fe2565b50602d879055602e869055602f859055603084905582516108a2906031906020860190611fe2565b5081516108b6906032906020850190611fe2565b506001600160a01b0389166000908152600960205260409020602c8054909190819083906108e39061292b565b6108ee929190612066565b5060018201548160010155600282015481600201556003820154816003015560048201548160040155600582018160050190805461092b9061292b565b610936929190612066565b50600682018160060190805461094b9061292b565b610956929190612066565b50506040805180820182526004815263444f4e4560e01b60208083019182526001600160a01b038e166000908152600a90915292909220905161099c9350909190611fe2565b5060019998505050505050505050565b60606000806000606080600060606000600660008b6001600160a01b03166001600160a01b03168152602001908152602001600020604051806101000160405290816000820180546109fd9061292b565b80601f0160208091040260200160405190810160405280929190818152602001828054610a299061292b565b8015610a765780601f10610a4b57610100808354040283529160200191610a76565b820191906000526020600020905b815481529060010190602001808311610a5957829003601f168201915b50505050508152602001600182015481526020016002820154815260200160038201548152602001600482018054610aad9061292b565b80601f0160208091040260200160405190810160405280929190818152602001828054610ad99061292b565b8015610b265780601f10610afb57610100808354040283529160200191610b26565b820191906000526020600020905b815481529060010190602001808311610b0957829003601f168201915b50505050508152602001600582018054610b3f9061292b565b80601f0160208091040260200160405190810160405280929190818152602001828054610b6b9061292b565b8015610bb85780601f10610b8d57610100808354040283529160200191610bb8565b820191906000526020600020905b815481529060010190602001808311610b9b57829003601f168201915b5050509183525050600682015460ff1615156020820152600782018054604090920191610be49061292b565b80601f0160208091040260200160405190810160405280929190818152602001828054610c109061292b565b8015610c5d5780601f10610c3257610100808354040283529160200191610c5d565b820191906000526020600020905b815481529060010190602001808311610c4057829003601f168201915b5050505050815250509050806000015181602001518260400151836060015184608001518560a001518660c001518760e001519850985098509850985098509850985050919395975091939597565b6001600160a01b0381166000908152600460205260409020805460609190610cd39061292b565b80601f0160208091040260200160405190810160405280929190818152602001828054610cff9061292b565b8015610d4c5780601f10610d2157610100808354040283529160200191610d4c565b820191906000526020600020905b815481529060010190602001808311610d2f57829003601f168201915b50505050509050919050565b600180546001600160a01b031916339081178255600090815260026020526040812054909160ff90911614610d8c57600080fd5b8851610d9f9060169060208c0190611fe2565b506017889055601887905560198690558451610dc290601a906020880190611fe2565b508351610dd690601b906020870190611fe2565b50601c805460ff19168415151790558151610df890601d906020850190611fe2565b506001600160a01b038a1660009081526006602052604090206016805490919081908390610e259061292b565b610e30929190612066565b506001820154816001015560028201548160020155600382015481600301556004820181600401908054610e639061292b565b610e6e929190612066565b506005820181600501908054610e839061292b565b610e8e929190612066565b50600682810154908201805460ff191660ff90921615159190911790556007808301805491830191610ebf9061292b565b610eca929190612066565b5050604080518082018252600b81526a2224a9aa2924a12aaa27a960a91b60208083019182526001600160a01b038f166000908152600a909152929092209051610f179350909190611fe2565b5060019a9950505050505050505050565b600080546001600160a01b03163314610f4057600080fd5b6001600160a01b038216600081815260026020908152604091829020805460ff1916600117905590519182527f8afeca650897be3183b7c0d24eba96a1b990f75c4bd74a0cfb2c0a71aec48e6191016106b3565b6001600160a01b0381166000908152600a60205260409020805460609190610cd39061292b565b600180546001600160a01b031916339081178255600090815260026020526040812054909160ff90911614610fef57600080fd5b6040516bffffffffffffffffffffffff193360601b16602082015242603482015260009060540160408051601f1981840301815291905280516020918201208a5190925061104391600f91908c0190611fe2565b5087516110579060109060208b0190611fe2565b50865161106b9060119060208a0190611fe2565b50855161107f906012906020890190611fe2565b5060138590558351611098906014906020870190611fe2565b5082516110ac906015906020860190611fe2565b506001600160a01b0381166000908152600560205260409020600f8054909190819083906110d99061292b565b6110e4929190612066565b5060018201816001019080546110f99061292b565b611104929190612066565b5060028201816002019080546111199061292b565b611124929190612066565b5060038201816003019080546111399061292b565b611144929190612066565b506004820154816004015560058201816005019080546111639061292b565b61116e929190612066565b5060068201816006019080546111839061292b565b61118e929190612066565b5050604080518082018252600a808252692ba0a922a427aaa9a2a960b11b60208084019182526001600160a01b038716600090815292905292902090516111d89350909190611fe2565b5098975050505050505050565b606080606060006060600060036000886001600160a01b03166001600160a01b031681526020019081526020016000206040518060800160405290816000820180546112309061292b565b80601f016020809104026020016040519081016040528092919081815260200182805461125c9061292b565b80156112a95780601f1061127e576101008083540402835291602001916112a9565b820191906000526020600020905b81548152906001019060200180831161128c57829003601f168201915b505050505081526020016001820180546112c29061292b565b80601f01602080910402602001604051908101604052809291908181526020018280546112ee9061292b565b801561133b5780601f106113105761010080835404028352916020019161133b565b820191906000526020600020905b81548152906001019060200180831161131e57829003601f168201915b5050509183525050600282015460ff16151560208201526003820180546040909201916113679061292b565b80601f01602080910402602001604051908101604052809291908181526020018280546113939061292b565b80156113e05780601f106113b5576101008083540402835291602001916113e0565b820191906000526020600020905b8154815290600101906020018083116113c357829003601f168201915b505050505081525050905080600001518160200151600460008a6001600160a01b03166001600160a01b03168152602001908152602001600020836040015184606001518280546114309061292b565b80601f016020809104026020016040519081016040528092919081815260200182805461145c9061292b565b80156114a95780601f1061147e576101008083540402835291602001916114a9565b820191906000526020600020905b81548152906001019060200180831161148c57829003601f168201915b50505050509250955095509550955095505091939590929450565b6000546001600160a01b031633146114db57600080fd5b600080546040516001600160a01b03909116917ff8df31144d9c2f0f6b59d69b8b98abd5459d07f2742c4df920b25aae33c6482091a2600080546001600160a01b0319169055565b60008060006060806060600060086000896001600160a01b03166001600160a01b031681526020019081526020016000206040518060c001604052908160008201548152602001600182015481526020016002820154815260200160038201805461158d9061292b565b80601f01602080910402602001604051908101604052809291908181526020018280546115b99061292b565b80156116065780601f106115db57610100808354040283529160200191611606565b820191906000526020600020905b8154815290600101906020018083116115e957829003601f168201915b5050505050815260200160048201805461161f9061292b565b80601f016020809104026020016040519081016040528092919081815260200182805461164b9061292b565b80156116985780601f1061166d57610100808354040283529160200191611698565b820191906000526020600020905b81548152906001019060200180831161167b57829003601f168201915b505050505081526020016005820180546116b19061292b565b80601f01602080910402602001604051908101604052809291908181526020018280546116dd9061292b565b801561172a5780601f106116ff5761010080835404028352916020019161172a565b820191906000526020600020905b81548152906001019060200180831161170d57829003601f168201915b5050509190925250508151602083015160408401516060850151608086015160a090960151939e929d50909b5099509297509550909350505050565b600180546001600160a01b031916339081178255600090815260026020526040812054909160ff9091161461179a57600080fd5b87516117ad90601e9060208b0190611fe2565b5086516117c190601f9060208a0190611fe2565b5060208681556021869055602285905583516117e39160239190860190611fe2565b5081516117f7906024906020850190611fe2565b506001600160a01b0389166000908152600760205260409020601e8054909190819083906118249061292b565b61182f929190612066565b5060018201816001019080546118449061292b565b61184f929190612066565b5060028201548160020155600382015481600301556004820154816004015560058201816005019080546118829061292b565b61188d929190612066565b5060068201816006019080546118a29061292b565b6118ad929190612066565b506007918201549101805460ff191660ff909216151591909117905560408051808201825260138152722b20a1a1a4a720aa24a7a72fa9aa20aa24a7a760691b60208083019182526001600160a01b038d166000908152600a90915292909220905161099c9290611fe2565b60606000806000806060806000600960008a6001600160a01b03166001600160a01b031681526020019081526020016000206040518060e00160405290816000820180546119669061292b565b80601f01602080910402602001604051908101604052809291908181526020018280546119929061292b565b80156119df5780601f106119b4576101008083540402835291602001916119df565b820191906000526020600020905b8154815290600101906020018083116119c257829003601f168201915b5050505050815260200160018201548152602001600282015481526020016003820154815260200160048201548152602001600582018054611a209061292b565b80601f0160208091040260200160405190810160405280929190818152602001828054611a4c9061292b565b8015611a995780601f10611a6e57610100808354040283529160200191611a99565b820191906000526020600020905b815481529060010190602001808311611a7c57829003601f168201915b50505050508152602001600682018054611ab29061292b565b80601f0160208091040260200160405190810160405280929190818152602001828054611ade9061292b565b8015611b2b5780601f10611b0057610100808354040283529160200191611b2b565b820191906000526020600020905b815481529060010190602001808311611b0e57829003601f168201915b5050505050815250509050806000015181602001518260400151836060015184608001518560a001518660c00151975097509750975097509750975050919395979092949650565b60608060608060006060806000600560008a6001600160a01b03166001600160a01b031681526020019081526020016000206040518060e0016040529081600082018054611bc09061292b565b80601f0160208091040260200160405190810160405280929190818152602001828054611bec9061292b565b8015611c395780601f10611c0e57610100808354040283529160200191611c39565b820191906000526020600020905b815481529060010190602001808311611c1c57829003601f168201915b50505050508152602001600182018054611c529061292b565b80601f0160208091040260200160405190810160405280929190818152602001828054611c7e9061292b565b8015611ccb5780601f10611ca057610100808354040283529160200191611ccb565b820191906000526020600020905b815481529060010190602001808311611cae57829003601f168201915b50505050508152602001600282018054611ce49061292b565b80601f0160208091040260200160405190810160405280929190818152602001828054611d109061292b565b8015611d5d5780601f10611d3257610100808354040283529160200191611d5d565b820191906000526020600020905b815481529060010190602001808311611d4057829003601f168201915b50505050508152602001600382018054611d769061292b565b80601f0160208091040260200160405190810160405280929190818152602001828054611da29061292b565b8015611def5780601f10611dc457610100808354040283529160200191611def565b820191906000526020600020905b815481529060010190602001808311611dd257829003601f168201915b5050505050815260200160048201548152602001600582018054611a209061292b565b6000546001600160a01b03163314611e2957600080fd5b6001600160a01b038116611e3c57600080fd5b600080546040516001600160a01b03808516939216917f8be0079c531659141344cd1fd0a4f28419497f9722a3daafe3b4186f6b6457e091a3600080546001600160a01b0319166001600160a01b0392909216919091179055565b600180546001600160a01b031916339081178255600090815260026020526040812054909160ff90911614611ecb57600080fd5b8551611ede90600b906020890190611fe2565b508451611ef290600c906020880190611fe2565b50600d805460ff19168415151790558151611f1490600e906020850190611fe2565b506001600160a01b0387166000908152600360205260409020600b805490919081908390611f419061292b565b611f4c929190612066565b506001820181600101908054611f619061292b565b611f6c929190612066565b50600282810154908201805460ff191660ff90921615159190911790556003808301805491830191611f9d9061292b565b611fa8929190612066565b5050506001600160a01b03871660009081526004602090815260409091208551611fd492870190611fe2565b506001979650505050505050565b828054611fee9061292b565b90600052602060002090601f0160209004810192826120105760008555612056565b82601f1061202957805160ff1916838001178555612056565b82800160010185558215612056579182015b8281111561205657825182559160200191906001019061203b565b506120629291506120e1565b5090565b8280546120729061292b565b90600052602060002090601f0160209004810192826120945760008555612056565b82601f106120a55780548555612056565b8280016001018555821561205657600052602060002091601f016020900482015b828111156120565782548255916001019190600101906120c6565b5b8082111561206257600081556001016120e2565b80356001600160a01b03811681146106bf57600080fd5b803580151581146106bf57600080fd5b600082601f83011261212e57600080fd5b813567ffffffffffffffff8082111561214957612149612966565b604051601f8301601f19908116603f0116810190828211818310171561217157612171612966565b8160405283815286602085880101111561218a57600080fd5b836020870160208301376000602085830101528094505050505092915050565b6000602082840312156121bc57600080fd5b6121c5826120f6565b9392505050565b60008060008060008060c087890312156121e557600080fd5b6121ee876120f6565b9550602087013567ffffffffffffffff8082111561220b57600080fd5b6122178a838b0161211d565b9650604089013591508082111561222d57600080fd5b6122398a838b0161211d565b9550606089013591508082111561224f57600080fd5b61225b8a838b0161211d565b945061226960808a0161210d565b935060a089013591508082111561227f57600080fd5b5061228c89828a0161211d565b9150509295509295509295565b600080600080600080600080610100898b0312156122b657600080fd5b6122bf896120f6565b9750602089013567ffffffffffffffff808211156122dc57600080fd5b6122e88c838d0161211d565b985060408b01359150808211156122fe57600080fd5b61230a8c838d0161211d565b975060608b0135965060808b0135955060a08b0135945060c08b013591508082111561233557600080fd5b6123418c838d0161211d565b935060e08b013591508082111561235757600080fd5b506123648b828c0161211d565b9150509295985092959890939650565b60008060008060008060008060006101208a8c03121561239357600080fd5b61239c8a6120f6565b985060208a013567ffffffffffffffff808211156123b957600080fd5b6123c58d838e0161211d565b995060408c0135985060608c0135975060808c0135965060a08c01359150808211156123f057600080fd5b6123fc8d838e0161211d565b955060c08c013591508082111561241257600080fd5b61241e8d838e0161211d565b945061242c60e08d0161210d565b93506101008c013591508082111561244357600080fd5b506124508c828d0161211d565b9150509295985092959850929598565b600080600080600080600080610100898b03121561247d57600080fd5b612486896120f6565b9750602089013567ffffffffffffffff808211156124a357600080fd5b6124af8c838d0161211d565b985060408b0135975060608b0135965060808b0135955060a08b0135945060c08b013591508082111561233557600080fd5b600080600080600080600060e0888a0312156124fc57600080fd5b612505886120f6565b9650602088013595506040880135945060608801359350608088013567ffffffffffffffff8082111561253757600080fd5b6125438b838c0161211d565b945060a08a013591508082111561255957600080fd5b6125658b838c0161211d565b935060c08a013591508082111561257b57600080fd5b506125888a828b0161211d565b91505092959891949750929550565b600080600080600080600060e0888a0312156125b257600080fd5b873567ffffffffffffffff808211156125ca57600080fd5b6125d68b838c0161211d565b985060208a01359150808211156125ec57600080fd5b6125f88b838c0161211d565b975060408a013591508082111561260e57600080fd5b61261a8b838c0161211d565b965060608a013591508082111561263057600080fd5b61263c8b838c0161211d565b955060808a0135945060a08a013591508082111561255957600080fd5b6000815180845260005b8181101561267f57602081850181015186830182015201612663565b81811115612691576000602083870101525b50601f01601f19169290920160200192915050565b6020815260006121c56020830184612659565b60a0815260006126cc60a0830188612659565b82810360208401526126de8188612659565b905082810360408401526126f28187612659565b90508415156060840152828103608084015261270e8185612659565b98975050505050505050565b60e08152600061272d60e083018a612659565b828103602084015261273f818a612659565b905082810360408401526127538189612659565b905082810360608401526127678188612659565b905085608084015282810360a08401526127818186612659565b905082810360c08401526127958185612659565b9a9950505050505050505050565b60006101008083526127b78184018c612659565b905082810360208401526127cb818b612659565b905088604084015287606084015286608084015282810360a08401526127f18187612659565b905082810360c08401526128058186612659565b91505082151560e08301529998505050505050505050565b60006101008083526128318184018c612659565b905089602084015288604084015287606084015282810360808401526128578188612659565b905082810360a084015261286b8187612659565b905084151560c084015282810360e08401526128878185612659565b9b9a5050505050505050505050565b60e0815260006128a960e083018a612659565b88602084015287604084015286606084015285608084015282810360a08401526127818186612659565b86815285602082015284604082015260c0606082015260006128f860c0830186612659565b828103608084015261290a8186612659565b905082810360a084015261291e8185612659565b9998505050505050505050565b600181811c9082168061293f57607f821691505b6020821081141561296057634e487b7160e01b600052602260045260246000fd5b50919050565b634e487b7160e01b600052604160045260246000fdfea26469706673582212200412b31f6c999c03287911e6f938c07ad9941fc3ca819ab281d196280b556c1864736f6c63430008070033",
  "immutableReferences": {},
  "source": "// SPDX-License-Identifier: MIT\r\npragma solidity ^0.8.7;\r\n\r\nimport \"./Ownable.sol\";\r\n\r\ncontract VaccineSystemStorage is Ownable {\r\n    address public lastAccess;\r\n\r\n    constructor() {\r\n        authorizedCaller[msg.sender] = 1;\r\n    }\r\n\r\n    /* Declare Events */\r\n    event AuthorizedCaller(address caller);\r\n    event DeAuthorizedCaller(address caller);\r\n\r\n    /* Declare Modifiers */\r\n    modifier onlyAuthCaller() {\r\n        lastAccess = msg.sender;\r\n        require(authorizedCaller[msg.sender] == 1);\r\n        _;\r\n    }\r\n\r\n    /* Caller Mapping */\r\n    mapping(address => uint8) authorizedCaller;\r\n\r\n    /* User Interface */\r\n    struct user {\r\n        string name;\r\n        string contactNo;\r\n        bool isActive;\r\n        string profileHash;\r\n    }\r\n\r\n    mapping(address => user) userDetails;\r\n    mapping(address => string) userRole;\r\n\r\n    /* Authorized Caller */\r\n    function authorizeCaller(address _caller) public onlyOwner returns (bool) {\r\n        authorizedCaller[_caller] = 1;\r\n        emit AuthorizedCaller(_caller);\r\n        return true;\r\n    }\r\n\r\n    /* De-Authorized Caller */\r\n    function deAuthorizeCaller(address _caller)\r\n        public\r\n        onlyOwner\r\n        returns (bool)\r\n    {\r\n        authorizedCaller[_caller] = 0;\r\n        emit DeAuthorizedCaller(_caller);\r\n        return true;\r\n    }\r\n\r\n    struct basicDetails {\r\n        string producerName;\r\n        string storageName;\r\n        string distributorName;\r\n        string vaccinationStationName;\r\n        uint256 quantity;\r\n        string optimumRangeTemp;\r\n        string optimumRangeHum;\r\n    }\r\n\r\n    struct warehouser {\r\n        string vaccineName;\r\n        uint256 quantity;\r\n        uint256 price;\r\n        uint256 storageDate;\r\n        string optimumRangeTemp;\r\n        string optimumRangeHum;\r\n        bool isViolation;\r\n        string locationAddress;\r\n    }\r\n\r\n    struct distributor {\r\n        string destinationAddress;\r\n        string shippingName;\r\n        uint256 quantity;\r\n        uint256 departureDateTime;\r\n        uint256 estimateDateTime;\r\n        string optimumRangeTemp;\r\n        string optimumRangeHum;\r\n        bool isViolation;\r\n    }\r\n\r\n    struct vaccinationStation {\r\n        uint256 quantity;\r\n        uint256 arrivalDateTime;\r\n        uint256 vaccinationStationId;\r\n        string shippingName;\r\n        string shippingNo;\r\n        string locationAddress;\r\n    }\r\n\r\n    struct vaccinatedPerson {\r\n        string personName;\r\n        uint256 age;\r\n        uint256 identityCard;\r\n        uint256 numberOfVaccinations;\r\n        uint256 vaccinationDate;\r\n        string typeOfVaccine;\r\n        string phoneNumber;\r\n    }\r\n\r\n    mapping(address => basicDetails) batchBasicDetails;\r\n    mapping(address => warehouser) batchWarehouser;\r\n    mapping(address => distributor) batchDistributor;\r\n    mapping(address => vaccinationStation) batchVaccinationStation;\r\n    mapping(address => vaccinatedPerson) batchVaccinatedPerson;\r\n    mapping(address => string) nextAction;\r\n\r\n    /* Init Struct Pointer */\r\n    user userDetail;\r\n    basicDetails basicDetailsData;\r\n    warehouser warehouserData;\r\n    distributor distributorData;\r\n    vaccinationStation vaccinationStationData;\r\n    vaccinatedPerson vaccinatedPersonData;\r\n\r\n    /* Get User Role */\r\n    function getUserRole(address _userAddress)\r\n        public\r\n        view\r\n        returns (string memory)\r\n    {\r\n        return userRole[_userAddress];\r\n    }\r\n\r\n    /* Get Next Action */\r\n    function getNextAction(address _batchNo)\r\n        public\r\n        view\r\n        returns (string memory)\r\n    {\r\n        return nextAction[_batchNo];\r\n    }\r\n\r\n    /* Set User Detail */\r\n    function setUser(\r\n        address _userAddress,\r\n        string memory _name,\r\n        string memory _contactNo,\r\n        string memory _role,\r\n        bool _isActive,\r\n        string memory _profileHash\r\n    ) public onlyAuthCaller returns (bool) {\r\n        /* Store Data User Into Struct - User */\r\n        userDetail.name = _name;\r\n        userDetail.contactNo = _contactNo;\r\n        userDetail.isActive = _isActive;\r\n        userDetail.profileHash = _profileHash;\r\n\r\n        /* Store Data User Into Mapping - User */\r\n        userDetails[_userAddress] = userDetail;\r\n        userRole[_userAddress] = _role;\r\n\r\n        return true;\r\n    }\r\n\r\n    /* Get User details */\r\n    function getUser(address _userAddress)\r\n        public\r\n        view\r\n        returns (\r\n            string memory name,\r\n            string memory contactNo,\r\n            string memory role,\r\n            bool isActive,\r\n            string memory profileHash\r\n        )\r\n    {\r\n        /* Get User Value From Struct */\r\n        user memory tmpData = userDetails[_userAddress];\r\n\r\n        return (\r\n            tmpData.name,\r\n            tmpData.contactNo,\r\n            userRole[_userAddress],\r\n            tmpData.isActive,\r\n            tmpData.profileHash\r\n        );\r\n    }\r\n\r\n    /* Get Batch Basic Details */\r\n    function getBasicDetails(address _batchNo)\r\n        public\r\n        view\r\n        returns (\r\n            string memory producerName,\r\n            string memory storageName,\r\n            string memory distributorName,\r\n            string memory vaccinationStationName,\r\n            uint256 quantity,\r\n            string memory optimumRangeTemp,\r\n            string memory optimumRangeHum\r\n        )\r\n    {\r\n        basicDetails memory tmpData = batchBasicDetails[_batchNo];\r\n\r\n        return (\r\n            tmpData.producerName,\r\n            tmpData.storageName,\r\n            tmpData.distributorName,\r\n            tmpData.vaccinationStationName,\r\n            tmpData.quantity,\r\n            tmpData.optimumRangeTemp,\r\n            tmpData.optimumRangeHum\r\n        );\r\n    }\r\n\r\n    /* Set Batch Basic Detail */\r\n    function setBasicDetails(\r\n        string memory _producerName,\r\n        string memory _storageName,\r\n        string memory _distributorName,\r\n        string memory _vaccinationStationName,\r\n        uint256 _quantity,\r\n        string memory _optimumRangeTemp,\r\n        string memory _optimumRangeHum\r\n    ) public onlyAuthCaller returns (address) {\r\n        address batchNo = address(\r\n            uint160(\r\n                uint256(\r\n                    keccak256(abi.encodePacked(msg.sender, block.timestamp))\r\n                )\r\n            )\r\n        );\r\n\r\n        basicDetailsData.producerName = _producerName;\r\n        basicDetailsData.storageName = _storageName;\r\n        basicDetailsData.distributorName = _distributorName;\r\n        basicDetailsData.vaccinationStationName = _vaccinationStationName;\r\n        basicDetailsData.quantity = _quantity;\r\n        basicDetailsData.optimumRangeTemp = _optimumRangeTemp;\r\n        basicDetailsData.optimumRangeHum = _optimumRangeHum;\r\n\r\n        batchBasicDetails[batchNo] = basicDetailsData;\r\n\r\n        nextAction[batchNo] = \"WAREHOUSER\";\r\n        return batchNo;\r\n    }\r\n\r\n    /* Set Warehouser */\r\n    function setWarehouser(\r\n        address batchNo,\r\n        string memory _vaccineName,\r\n        uint256 _quantity,\r\n        uint256 _price,\r\n        uint256 _storageDate,\r\n        string memory _optimumRangeTemp,\r\n        string memory _optimumRangeHum,\r\n        bool _isViolation,\r\n        string memory _locationAddress\r\n    ) public onlyAuthCaller returns (bool) {\r\n        warehouserData.vaccineName = _vaccineName;\r\n        warehouserData.quantity = _quantity;\r\n        warehouserData.price = _price;\r\n        warehouserData.storageDate = _storageDate;\r\n        warehouserData.optimumRangeTemp = _optimumRangeTemp;\r\n        warehouserData.optimumRangeHum = _optimumRangeHum;\r\n        warehouserData.isViolation = _isViolation;\r\n        warehouserData.locationAddress = _locationAddress;\r\n\r\n        batchWarehouser[batchNo] = warehouserData;\r\n\r\n        nextAction[batchNo] = \"DISTRIBUTOR\";\r\n\r\n        return true;\r\n    }\r\n\r\n    /* Get Warehouser */\r\n    function getWarehouserData(address batchNo)\r\n        public\r\n        view\r\n        returns (\r\n            string memory vaccineName,\r\n            uint256 quantity,\r\n            uint256 price,\r\n            uint256 storageDate,\r\n            string memory optimumRangeTemp,\r\n            string memory optimumRangeHum,\r\n            bool isViolation,\r\n            string memory locationAddress\r\n        )\r\n    {\r\n        warehouser memory tmpData = batchWarehouser[batchNo];\r\n\r\n        return (\r\n            tmpData.vaccineName,\r\n            tmpData.quantity,\r\n            tmpData.price,\r\n            tmpData.storageDate,\r\n            tmpData.optimumRangeTemp,\r\n            tmpData.optimumRangeHum,\r\n            tmpData.isViolation,\r\n            tmpData.locationAddress\r\n        );\r\n    }\r\n\r\n    /* Set Distributor */\r\n    function setDistributor(\r\n        address batchNo,\r\n        string memory _destinationAddress,\r\n        string memory _shippingName,\r\n        uint256 _quantity,\r\n        uint256 _departureDateTime,\r\n        uint256 _estimateDateTime,\r\n        string memory _optimumRangeTemp,\r\n        string memory _optimumRangeHum\r\n    ) public onlyAuthCaller returns (bool) {\r\n        distributorData.destinationAddress = _destinationAddress;\r\n        distributorData.shippingName = _shippingName;\r\n        distributorData.quantity = _quantity;\r\n        distributorData.departureDateTime = _departureDateTime;\r\n        distributorData.estimateDateTime = _estimateDateTime;\r\n        distributorData.optimumRangeTemp = _optimumRangeTemp;\r\n        distributorData.optimumRangeHum = _optimumRangeHum;\r\n        batchDistributor[batchNo] = distributorData;\r\n\r\n        nextAction[batchNo] = \"VACCINATION_STATION\";\r\n\r\n        return true;\r\n    }\r\n\r\n    /* Get Distributor Data */\r\n    function getDistributorData(address batchNo)\r\n        public\r\n        view\r\n        returns (\r\n            string memory destinationAddress,\r\n            string memory shippingName,\r\n            uint256 quantity,\r\n            uint256 departureDateTime,\r\n            uint256 estimateDateTime,\r\n            string memory optimumRangeTemp,\r\n            string memory optimumRangeHum,\r\n            bool isViolation\r\n        )\r\n    {\r\n        distributor memory tmpData = batchDistributor[batchNo];\r\n\r\n        return (\r\n            tmpData.destinationAddress,\r\n            tmpData.shippingName,\r\n            tmpData.quantity,\r\n            tmpData.departureDateTime,\r\n            tmpData.estimateDateTime,\r\n            tmpData.optimumRangeTemp,\r\n            tmpData.optimumRangeHum,\r\n            tmpData.isViolation\r\n        );\r\n    }\r\n\r\n    /* Set Vaccination Station */\r\n    function setVaccinationStation(\r\n        address batchNo,\r\n        uint256 _quantity,\r\n        uint256 _arrivalDateTime,\r\n        uint256 _vaccinationStationId,\r\n        string memory _shippingName,\r\n        string memory _shippingNo,\r\n        string memory _locationAddress\r\n    ) public onlyAuthCaller returns (bool) {\r\n        vaccinationStationData.quantity = _quantity;\r\n        vaccinationStationData.arrivalDateTime = _arrivalDateTime;\r\n        vaccinationStationData.vaccinationStationId = _vaccinationStationId;\r\n        vaccinationStationData.shippingName = _shippingName;\r\n        vaccinationStationData.shippingNo = _shippingNo;\r\n        vaccinationStationData.locationAddress = _locationAddress;\r\n\r\n        batchVaccinationStation[batchNo] = vaccinationStationData;\r\n\r\n        nextAction[batchNo] = \"OBJECT_INJECTION\";\r\n\r\n        return true;\r\n    }\r\n\r\n    /* Get Vaccination Station Data */\r\n    function getVaccinationStationData(address batchNo)\r\n        public\r\n        view\r\n        returns (\r\n            uint256 quantity,\r\n            uint256 arrivalDateTime,\r\n            uint256 vaccinationStationId,\r\n            string memory shippingName,\r\n            string memory shippingNo,\r\n            string memory locationAddress\r\n        )\r\n    {\r\n        vaccinationStation memory tmpData = batchVaccinationStation[batchNo];\r\n\r\n        return (\r\n            tmpData.quantity,\r\n            tmpData.arrivalDateTime,\r\n            tmpData.vaccinationStationId,\r\n            tmpData.shippingName,\r\n            tmpData.shippingNo,\r\n            tmpData.locationAddress\r\n        );\r\n    }\r\n\r\n    /* Set Vaccinated Person*/\r\n    function setObjectInjection(\r\n        address batchNo,\r\n        string memory _personName,\r\n        uint256 _age,\r\n        uint256 _identityCard,\r\n        uint256 _numberOfVaccinations,\r\n        uint256 _vaccinationDate,\r\n        string memory _typeOfVaccine,\r\n        string memory _phoneNumber\r\n    ) public onlyAuthCaller returns (bool) {\r\n        vaccinatedPersonData.personName = _personName;\r\n        vaccinatedPersonData.age = _age;\r\n        vaccinatedPersonData.identityCard = _identityCard;\r\n        vaccinatedPersonData.numberOfVaccinations = _numberOfVaccinations;\r\n        vaccinatedPersonData.vaccinationDate = _vaccinationDate;\r\n        vaccinatedPersonData.typeOfVaccine = _typeOfVaccine;\r\n        vaccinatedPersonData.phoneNumber = _phoneNumber;\r\n\r\n        batchVaccinatedPerson[batchNo] = vaccinatedPersonData;\r\n\r\n        nextAction[batchNo] = \"DONE\";\r\n\r\n        return true;\r\n    }\r\n\r\n    /* Get Vaccinated Person Data */\r\n    function getVaccinationPersonData(address batchNo)\r\n        public\r\n        view\r\n        returns (\r\n            string memory personName,\r\n            uint256 age,\r\n            uint256 identityCard,\r\n            uint256 numberOfVaccinations,\r\n            uint256 vaccinationDate,\r\n            string memory typeOfVaccine,\r\n            string memory phoneNumber\r\n        )\r\n    {\r\n        vaccinatedPerson memory tmpData = batchVaccinatedPerson[batchNo];\r\n\r\n        return (\r\n            tmpData.personName,\r\n            tmpData.age,\r\n            tmpData.identityCard,\r\n            tmpData.numberOfVaccinations,\r\n            tmpData.vaccinationDate,\r\n            tmpData.typeOfVaccine,\r\n            tmpData.phoneNumber\r\n        );\r\n    }\r\n}\r\n",
  "sourcePath": "D:\\Learn , Research, Explore\\UIT\\Dissertation\\Source\\packages\\dissertation_smartcontract\\contracts\\VaccineSystemStorage.sol",
  "compiler": {
    "name": "solc",
    "version": "0.8.7+commit.e28d00a7.Emscripten.clang"
  },
  "schemaVersion": "3.4.3",
  "updatedAt": "2021-11-06T05:50:39.803Z",
  "networkType": "ethereum",
  "devdoc": {
    "kind": "dev",
    "methods": {
      "renounceOwnership()": {
        "details": "Allows the current owner to relinquish control of the contract."
      },
      "transferOwnership(address)": {
        "details": "Allows the current owner to transfer control of the contract to a newOwner.",
        "params": {
          "newOwner": "The address to transfer ownership to."
        }
      }
    },
    "version": 1
  },
  "userdoc": {
    "kind": "user",
    "methods": {},
    "version": 1
  }
}