{
  "contractName": "VaccineSupplyChain",
  "abi": [
    {
      "inputs": [
        {
          "internalType": "address",
          "name": "_vaccineSystemAddress",
          "type": "address"
        }
      ],
      "stateMutability": "nonpayable",
      "type": "constructor"
    },
    {
      "anonymous": false,
      "inputs": [
        {
          "indexed": true,
          "internalType": "address",
          "name": "user",
          "type": "address"
        },
        {
          "indexed": true,
          "internalType": "address",
          "name": "batchNo",
          "type": "address"
        }
      ],
      "name": "CompleteBasicDetail",
      "type": "event"
    },
    {
      "anonymous": false,
      "inputs": [
        {
          "indexed": true,
          "internalType": "address",
          "name": "user",
          "type": "address"
        },
        {
          "indexed": true,
          "internalType": "address",
          "name": "batchNo",
          "type": "address"
        }
      ],
      "name": "CompleteDistributor",
      "type": "event"
    },
    {
      "anonymous": false,
      "inputs": [
        {
          "indexed": true,
          "internalType": "address",
          "name": "user",
          "type": "address"
        },
        {
          "indexed": true,
          "internalType": "address",
          "name": "batchNo",
          "type": "address"
        }
      ],
      "name": "CompleteVaccinatePerson",
      "type": "event"
    },
    {
      "anonymous": false,
      "inputs": [
        {
          "indexed": true,
          "internalType": "address",
          "name": "user",
          "type": "address"
        },
        {
          "indexed": true,
          "internalType": "address",
          "name": "batchNo",
          "type": "address"
        }
      ],
      "name": "CompleteVaccinationStation",
      "type": "event"
    },
    {
      "anonymous": false,
      "inputs": [
        {
          "indexed": true,
          "internalType": "address",
          "name": "user",
          "type": "address"
        },
        {
          "indexed": true,
          "internalType": "address",
          "name": "batchNo",
          "type": "address"
        }
      ],
      "name": "CompleteWarehouser",
      "type": "event"
    },
    {
      "anonymous": false,
      "inputs": [
        {
          "indexed": true,
          "internalType": "address",
          "name": "previousOwner",
          "type": "address"
        }
      ],
      "name": "OwnershipRenounced",
      "type": "event"
    },
    {
      "anonymous": false,
      "inputs": [
        {
          "indexed": true,
          "internalType": "address",
          "name": "previousOwner",
          "type": "address"
        },
        {
          "indexed": true,
          "internalType": "address",
          "name": "newOwner",
          "type": "address"
        }
      ],
      "name": "OwnershipTransferred",
      "type": "event"
    },
    {
      "inputs": [],
      "name": "owner",
      "outputs": [
        {
          "internalType": "address",
          "name": "",
          "type": "address"
        }
      ],
      "stateMutability": "view",
      "type": "function",
      "constant": true
    },
    {
      "inputs": [],
      "name": "renounceOwnership",
      "outputs": [],
      "stateMutability": "nonpayable",
      "type": "function"
    },
    {
      "inputs": [
        {
          "internalType": "address",
          "name": "newOwner",
          "type": "address"
        }
      ],
      "name": "transferOwnership",
      "outputs": [],
      "stateMutability": "nonpayable",
      "type": "function"
    },
    {
      "inputs": [],
      "name": "getBalance",
      "outputs": [
        {
          "internalType": "uint256",
          "name": "",
          "type": "uint256"
        }
      ],
      "stateMutability": "view",
      "type": "function",
      "constant": true
    },
    {
      "inputs": [
        {
          "internalType": "address",
          "name": "_batchNo",
          "type": "address"
        }
      ],
      "name": "getNextAction",
      "outputs": [
        {
          "internalType": "string",
          "name": "action",
          "type": "string"
        }
      ],
      "stateMutability": "view",
      "type": "function",
      "constant": true
    },
    {
      "inputs": [
        {
          "internalType": "address",
          "name": "_batchNo",
          "type": "address"
        }
      ],
      "name": "getBasicDetailsData",
      "outputs": [
        {
          "internalType": "string",
          "name": "producerName",
          "type": "string"
        },
        {
          "internalType": "uint256",
          "name": "quantity",
          "type": "uint256"
        },
        {
          "internalType": "string",
          "name": "optimumRangeTemp",
          "type": "string"
        },
        {
          "internalType": "string",
          "name": "optimumRangeHum",
          "type": "string"
        }
      ],
      "stateMutability": "view",
      "type": "function",
      "constant": true
    },
    {
      "inputs": [
        {
          "internalType": "string",
          "name": "_producerName",
          "type": "string"
        },
        {
          "internalType": "uint256",
          "name": "_quantity",
          "type": "uint256"
        },
        {
          "internalType": "string",
          "name": "_optimumRangeTemp",
          "type": "string"
        },
        {
          "internalType": "string",
          "name": "_optimumRangeHum",
          "type": "string"
        }
      ],
      "name": "addBasicDetails",
      "outputs": [
        {
          "internalType": "address",
          "name": "",
          "type": "address"
        }
      ],
      "stateMutability": "nonpayable",
      "type": "function"
    },
    {
      "inputs": [
        {
          "internalType": "address",
          "name": "_batchNo",
          "type": "address"
        }
      ],
      "name": "getWarehouserData",
      "outputs": [
        {
          "internalType": "string",
          "name": "vaccineName",
          "type": "string"
        },
        {
          "internalType": "uint256",
          "name": "quantity",
          "type": "uint256"
        },
        {
          "internalType": "uint256",
          "name": "storageDate",
          "type": "uint256"
        },
        {
          "internalType": "string",
          "name": "optimumRangeTemp",
          "type": "string"
        },
        {
          "internalType": "string",
          "name": "optimumRangeHum",
          "type": "string"
        },
        {
          "internalType": "bool",
          "name": "isViolation",
          "type": "bool"
        }
      ],
      "stateMutability": "view",
      "type": "function",
      "constant": true
    },
    {
      "inputs": [
        {
          "internalType": "address",
          "name": "_batchNo",
          "type": "address"
        },
        {
          "internalType": "string",
          "name": "_vaccineName",
          "type": "string"
        },
        {
          "internalType": "uint256",
          "name": "_quantity",
          "type": "uint256"
        },
        {
          "internalType": "uint256",
          "name": "_storageDate",
          "type": "uint256"
        },
        {
          "internalType": "string",
          "name": "_optimumRangeTemp",
          "type": "string"
        },
        {
          "internalType": "string",
          "name": "_optimumRangeHum",
          "type": "string"
        },
        {
          "internalType": "bool",
          "name": "_isViolation",
          "type": "bool"
        }
      ],
      "name": "updateWarehouser",
      "outputs": [
        {
          "internalType": "bool",
          "name": "",
          "type": "bool"
        }
      ],
      "stateMutability": "nonpayable",
      "type": "function"
    },
    {
      "inputs": [
        {
          "internalType": "address",
          "name": "_batchNo",
          "type": "address"
        }
      ],
      "name": "getDistributorData",
      "outputs": [
        {
          "internalType": "string",
          "name": "destinationAddress",
          "type": "string"
        },
        {
          "internalType": "string",
          "name": "shippingName",
          "type": "string"
        },
        {
          "internalType": "uint256",
          "name": "quantity",
          "type": "uint256"
        },
        {
          "internalType": "uint256",
          "name": "departureDateTime",
          "type": "uint256"
        },
        {
          "internalType": "uint256",
          "name": "estimateDateTime",
          "type": "uint256"
        },
        {
          "internalType": "string",
          "name": "optimumRangeTemp",
          "type": "string"
        },
        {
          "internalType": "string",
          "name": "optimumRangeHum",
          "type": "string"
        }
      ],
      "stateMutability": "view",
      "type": "function",
      "constant": true
    },
    {
      "inputs": [
        {
          "internalType": "address",
          "name": "_batchNo",
          "type": "address"
        },
        {
          "internalType": "string",
          "name": "_destinationAddress",
          "type": "string"
        },
        {
          "internalType": "string",
          "name": "_shippingName",
          "type": "string"
        },
        {
          "internalType": "uint256",
          "name": "_quantity",
          "type": "uint256"
        },
        {
          "internalType": "uint256",
          "name": "_departureDateTime",
          "type": "uint256"
        },
        {
          "internalType": "uint256",
          "name": "_estimateDateTime",
          "type": "uint256"
        },
        {
          "internalType": "string",
          "name": "_optimumRangeTemp",
          "type": "string"
        },
        {
          "internalType": "string",
          "name": "_optimumRangeHum",
          "type": "string"
        }
      ],
      "name": "updateDistributorData",
      "outputs": [
        {
          "internalType": "bool",
          "name": "",
          "type": "bool"
        }
      ],
      "stateMutability": "nonpayable",
      "type": "function"
    },
    {
      "inputs": [
        {
          "internalType": "address",
          "name": "_batchNo",
          "type": "address"
        }
      ],
      "name": "getVaccinationStation",
      "outputs": [
        {
          "internalType": "uint256",
          "name": "quantity",
          "type": "uint256"
        },
        {
          "internalType": "uint256",
          "name": "arrivalDateTime",
          "type": "uint256"
        },
        {
          "internalType": "uint256",
          "name": "vaccinationStationId",
          "type": "uint256"
        },
        {
          "internalType": "string",
          "name": "shippingName",
          "type": "string"
        },
        {
          "internalType": "string",
          "name": "shippingNo",
          "type": "string"
        },
        {
          "internalType": "string",
          "name": "locationAddress",
          "type": "string"
        }
      ],
      "stateMutability": "view",
      "type": "function",
      "constant": true
    },
    {
      "inputs": [
        {
          "internalType": "address",
          "name": "_batchNo",
          "type": "address"
        },
        {
          "internalType": "uint256",
          "name": "_quantity",
          "type": "uint256"
        },
        {
          "internalType": "uint256",
          "name": "_arrivalDateTime",
          "type": "uint256"
        },
        {
          "internalType": "uint256",
          "name": "_vaccinationStationId",
          "type": "uint256"
        },
        {
          "internalType": "string",
          "name": "_shippingName",
          "type": "string"
        },
        {
          "internalType": "string",
          "name": "_shippingNo",
          "type": "string"
        },
        {
          "internalType": "string",
          "name": "_locationAddress",
          "type": "string"
        }
      ],
      "name": "updateVaccinationStation",
      "outputs": [
        {
          "internalType": "bool",
          "name": "",
          "type": "bool"
        }
      ],
      "stateMutability": "nonpayable",
      "type": "function"
    },
    {
      "inputs": [
        {
          "internalType": "address",
          "name": "_batchNo",
          "type": "address"
        }
      ],
      "name": "getVaccinateData",
      "outputs": [
        {
          "internalType": "string",
          "name": "personName",
          "type": "string"
        },
        {
          "internalType": "uint256",
          "name": "age",
          "type": "uint256"
        },
        {
          "internalType": "uint256",
          "name": "identityCard",
          "type": "uint256"
        },
        {
          "internalType": "uint256",
          "name": "numberOfVaccinations",
          "type": "uint256"
        },
        {
          "internalType": "uint256",
          "name": "vaccinationDate",
          "type": "uint256"
        },
        {
          "internalType": "string",
          "name": "typeOfVaccine",
          "type": "string"
        },
        {
          "internalType": "string",
          "name": "phoneNumber",
          "type": "string"
        }
      ],
      "stateMutability": "view",
      "type": "function",
      "constant": true
    },
    {
      "inputs": [
        {
          "internalType": "address",
          "name": "_batchNo",
          "type": "address"
        },
        {
          "internalType": "string",
          "name": "_personName",
          "type": "string"
        },
        {
          "internalType": "uint256",
          "name": "_age",
          "type": "uint256"
        },
        {
          "internalType": "uint256",
          "name": "_identityCard",
          "type": "uint256"
        },
        {
          "internalType": "uint256",
          "name": "_numberOfVaccinations",
          "type": "uint256"
        },
        {
          "internalType": "uint256",
          "name": "_vaccinationDate",
          "type": "uint256"
        },
        {
          "internalType": "string",
          "name": "_typeOfVaccine",
          "type": "string"
        },
        {
          "internalType": "string",
          "name": "_phoneNumber",
          "type": "string"
        }
      ],
      "name": "updateVaccinatePerson",
      "outputs": [
        {
          "internalType": "bool",
          "name": "",
          "type": "bool"
        }
      ],
      "stateMutability": "nonpayable",
      "type": "function"
    }
  ],
  "bytecode": "0x60806040523480156200001157600080fd5b5060405162002ebc38038062002ebc8339818101604052810190620000379190620000d6565b336000806101000a81548173ffffffffffffffffffffffffffffffffffffffff021916908373ffffffffffffffffffffffffffffffffffffffff16021790555080600160006101000a81548173ffffffffffffffffffffffffffffffffffffffff021916908373ffffffffffffffffffffffffffffffffffffffff160217905550506200015b565b600081519050620000d08162000141565b92915050565b600060208284031215620000ef57620000ee6200013c565b5b6000620000ff84828501620000bf565b91505092915050565b600062000115826200011c565b9050919050565b600073ffffffffffffffffffffffffffffffffffffffff82169050919050565b600080fd5b6200014c8162000108565b81146200015857600080fd5b50565b612d51806200016b6000396000f3fe608060405234801561001057600080fd5b50600436106100f55760003560e01c806346eb8a13116100975780638da5cb5b116100665780638da5cb5b146102e6578063b8fbbc3714610304578063c09782cb14610339578063f2fde38b14610369576100f5565b806346eb8a131461024c5780634d6b5e001461027c578063617296ff146102ac578063715018a6146102dc576100f5565b806323d1cc8a116100d357806323d1cc8a1461018157806329c62de3146101b65780632cfd3739146101ec578063323b801e1461021c576100f5565b806312065fe0146100fa578063161d5c1b146101185780632159dffa1461014e575b600080fd5b610102610385565b60405161010f9190612ab9565b60405180910390f35b610132600480360381019061012d9190611b73565b61038d565b60405161014597969594939291906128da565b60405180910390f35b61016860048036038101906101639190611b73565b61046f565b6040516101789493929190612965565b60405180910390f35b61019b60048036038101906101969190611b73565b61053d565b6040516101ad969594939291906129bf565b60405180910390f35b6101d060048036038101906101cb9190611b73565b610618565b6040516101e39796959493929190612a35565b60405180910390f35b61020660048036038101906102019190611de9565b6106fa565b604051610213919061289d565b60405180910390f35b61023660048036038101906102319190612171565b610963565b604051610243919061264d565b60405180910390f35b61026660048036038101906102619190611ef3565b610bc0565b604051610273919061289d565b60405180910390f35b61029660048036038101906102919190611b73565b610f2f565b6040516102a391906128b8565b60405180910390f35b6102c660048036038101906102c19190611cf3565b610fe8565b6040516102d3919061289d565b60405180910390f35b6102e4611357565b005b6102ee611455565b6040516102fb919061264d565b60405180910390f35b61031e60048036038101906103199190611b73565b611479565b60405161033096959493929190612ad4565b60405180910390f35b610353600480360381019061034e9190611bcd565b611554565b604051610360919061289d565b60405180910390f35b610383600480360381019061037e9190611b73565b6118c6565b005b600047905090565b6060806000806000606080600160009054906101000a900473ffffffffffffffffffffffffffffffffffffffff1673ffffffffffffffffffffffffffffffffffffffff1663161d5c1b896040518263ffffffff1660e01b81526004016103f3919061264d565b60006040518083038186803b15801561040b57600080fd5b505afa15801561041f573d6000803e3d6000fd5b505050506040513d6000823e3d601f19601f82011682018060405250810190610448919061205f565b809750819850829950839a50849b50859c50869d5050505050505050919395979092949650565b60606000606080600160009054906101000a900473ffffffffffffffffffffffffffffffffffffffff1673ffffffffffffffffffffffffffffffffffffffff1663f2997d76866040518263ffffffff1660e01b81526004016104d1919061264d565b60006040518083038186803b1580156104e957600080fd5b505afa1580156104fd573d6000803e3d6000fd5b505050506040513d6000823e3d601f19601f82011682018060405250810190610526919061222c565b809450819550829650839750505050509193509193565b60606000806060806000600160009054906101000a900473ffffffffffffffffffffffffffffffffffffffff1673ffffffffffffffffffffffffffffffffffffffff166323d1cc8a886040518263ffffffff1660e01b81526004016105a2919061264d565b60006040518083038186803b1580156105ba57600080fd5b505afa1580156105ce573d6000803e3d6000fd5b505050506040513d6000823e3d601f19601f820116820180604052508101906105f791906122e7565b809650819750829850839950849a50859b5050505050505091939550919395565b6060600080600080606080600160009054906101000a900473ffffffffffffffffffffffffffffffffffffffff1673ffffffffffffffffffffffffffffffffffffffff1663de29e421896040518263ffffffff1660e01b815260040161067e919061264d565b60006040518083038186803b15801561069657600080fd5b505afa1580156106aa573d6000803e3d6000fd5b505050506040513d6000823e3d601f19601f820116820180604052508101906106d391906123c8565b809750819850829950839a50849b50859c50869d5050505050505050919395979092949650565b60006040518060400160405280601081526020017f4f424a4543545f494e4a454354494f4e00000000000000000000000000000000815250806040516020016107439190612636565b60405160208183030381529060405280519060200120600160009054906101000a900473ffffffffffffffffffffffffffffffffffffffff1673ffffffffffffffffffffffffffffffffffffffff166327820851336040518263ffffffff1660e01b81526004016107b4919061264d565b60006040518083038186803b1580156107cc57600080fd5b505afa1580156107e0573d6000803e3d6000fd5b505050506040513d6000823e3d601f19601f820116820180604052508101906108099190612016565b6040516020016108199190612636565b604051602081830303815290604052805190602001201461083957600080fd5b6000600160009054906101000a900473ffffffffffffffffffffffffffffffffffffffff1673ffffffffffffffffffffffffffffffffffffffff16631faa332b8c8c8c8c8c8c8c8c6040518963ffffffff1660e01b81526004016108a4989796959493929190612786565b602060405180830381600087803b1580156108be57600080fd5b505af11580156108d2573d6000803e3d6000fd5b505050506040513d601f19601f820116820180604052508101906108f69190611fe9565b90508a73ffffffffffffffffffffffffffffffffffffffff163373ffffffffffffffffffffffffffffffffffffffff167f99e8a31c7f3cd6afd636531c2a23b9fe61514da05f1307d746f9ffa62b03221760405160405180910390a3809250505098975050505050505050565b60006040518060400160405280600881526020017f50524f4455434552000000000000000000000000000000000000000000000000815250806040516020016109ac9190612636565b60405160208183030381529060405280519060200120600160009054906101000a900473ffffffffffffffffffffffffffffffffffffffff1673ffffffffffffffffffffffffffffffffffffffff166327820851336040518263ffffffff1660e01b8152600401610a1d919061264d565b60006040518083038186803b158015610a3557600080fd5b505afa158015610a49573d6000803e3d6000fd5b505050506040513d6000823e3d601f19601f82011682018060405250810190610a729190612016565b604051602001610a829190612636565b6040516020818303038152906040528051906020012014610aa257600080fd5b6000600160009054906101000a900473ffffffffffffffffffffffffffffffffffffffff1673ffffffffffffffffffffffffffffffffffffffff16639b98dace888888886040518563ffffffff1660e01b8152600401610b059493929190612965565b602060405180830381600087803b158015610b1f57600080fd5b505af1158015610b33573d6000803e3d6000fd5b505050506040513d601f19601f82011682018060405250810190610b579190611ba0565b90508073ffffffffffffffffffffffffffffffffffffffff163373ffffffffffffffffffffffffffffffffffffffff167f537f22db2b3b13a2af924ad1a2cfb5666cfa48ee6892c71849737fd108ce674a60405160405180910390a38092505050949350505050565b6000876040518060400160405280601381526020017f56414343494e4154494f4e5f53544154494f4e0000000000000000000000000081525080604051602001610c0a9190612636565b60405160208183030381529060405280519060200120600160009054906101000a900473ffffffffffffffffffffffffffffffffffffffff1673ffffffffffffffffffffffffffffffffffffffff166327820851336040518263ffffffff1660e01b8152600401610c7b919061264d565b60006040518083038186803b158015610c9357600080fd5b505afa158015610ca7573d6000803e3d6000fd5b505050506040513d6000823e3d601f19601f82011682018060405250810190610cd09190612016565b604051602001610ce09190612636565b6040516020818303038152906040528051906020012014610d0057600080fd5b80604051602001610d119190612636565b60405160208183030381529060405280519060200120600160009054906101000a900473ffffffffffffffffffffffffffffffffffffffff1673ffffffffffffffffffffffffffffffffffffffff16634d6b5e00846040518263ffffffff1660e01b8152600401610d82919061264d565b60006040518083038186803b158015610d9a57600080fd5b505afa158015610dae573d6000803e3d6000fd5b505050506040513d6000823e3d601f19601f82011682018060405250810190610dd79190612016565b604051602001610de79190612636565b6040516020818303038152906040528051906020012014610e0757600080fd5b6000600160009054906101000a900473ffffffffffffffffffffffffffffffffffffffff1673ffffffffffffffffffffffffffffffffffffffff16631c99eafa8c8c8c8c8c8c8c6040518863ffffffff1660e01b8152600401610e709796959493929190612819565b602060405180830381600087803b158015610e8a57600080fd5b505af1158015610e9e573d6000803e3d6000fd5b505050506040513d601f19601f82011682018060405250810190610ec29190611fe9565b90508a73ffffffffffffffffffffffffffffffffffffffff163373ffffffffffffffffffffffffffffffffffffffff167f5f6b507fa5444f53ba18e6da7561c594402b8ca43dfe8dab3fab501dae30f15760405160405180910390a3809350505050979650505050505050565b6060600160009054906101000a900473ffffffffffffffffffffffffffffffffffffffff1673ffffffffffffffffffffffffffffffffffffffff16634d6b5e00836040518263ffffffff1660e01b8152600401610f8c919061264d565b60006040518083038186803b158015610fa457600080fd5b505afa158015610fb8573d6000803e3d6000fd5b505050506040513d6000823e3d601f19601f82011682018060405250810190610fe19190612016565b9050919050565b6000876040518060400160405280600a81526020017f57415245484f5553455200000000000000000000000000000000000000000000815250806040516020016110329190612636565b60405160208183030381529060405280519060200120600160009054906101000a900473ffffffffffffffffffffffffffffffffffffffff1673ffffffffffffffffffffffffffffffffffffffff166327820851336040518263ffffffff1660e01b81526004016110a3919061264d565b60006040518083038186803b1580156110bb57600080fd5b505afa1580156110cf573d6000803e3d6000fd5b505050506040513d6000823e3d601f19601f820116820180604052508101906110f89190612016565b6040516020016111089190612636565b604051602081830303815290604052805190602001201461112857600080fd5b806040516020016111399190612636565b60405160208183030381529060405280519060200120600160009054906101000a900473ffffffffffffffffffffffffffffffffffffffff1673ffffffffffffffffffffffffffffffffffffffff16634d6b5e00846040518263ffffffff1660e01b81526004016111aa919061264d565b60006040518083038186803b1580156111c257600080fd5b505afa1580156111d6573d6000803e3d6000fd5b505050506040513d6000823e3d601f19601f820116820180604052508101906111ff9190612016565b60405160200161120f9190612636565b604051602081830303815290604052805190602001201461122f57600080fd5b6000600160009054906101000a900473ffffffffffffffffffffffffffffffffffffffff1673ffffffffffffffffffffffffffffffffffffffff16638e71b2258c8c8c8c8c8c8c6040518863ffffffff1660e01b81526004016112989796959493929190612702565b602060405180830381600087803b1580156112b257600080fd5b505af11580156112c6573d6000803e3d6000fd5b505050506040513d601f19601f820116820180604052508101906112ea9190611fe9565b90508a73ffffffffffffffffffffffffffffffffffffffff163373ffffffffffffffffffffffffffffffffffffffff167f180cdb24bb44378642a35eab010c770c833cf19674dd4e0efafb99b5ea22ed6b60405160405180910390a3809350505050979650505050505050565b60008054906101000a900473ffffffffffffffffffffffffffffffffffffffff1673ffffffffffffffffffffffffffffffffffffffff163373ffffffffffffffffffffffffffffffffffffffff16146113af57600080fd5b60008054906101000a900473ffffffffffffffffffffffffffffffffffffffff1673ffffffffffffffffffffffffffffffffffffffff167ff8df31144d9c2f0f6b59d69b8b98abd5459d07f2742c4df920b25aae33c6482060405160405180910390a260008060006101000a81548173ffffffffffffffffffffffffffffffffffffffff021916908373ffffffffffffffffffffffffffffffffffffffff160217905550565b60008054906101000a900473ffffffffffffffffffffffffffffffffffffffff1681565b60008060006060806060600160009054906101000a900473ffffffffffffffffffffffffffffffffffffffff1673ffffffffffffffffffffffffffffffffffffffff16637971ea42886040518263ffffffff1660e01b81526004016114de919061264d565b60006040518083038186803b1580156114f657600080fd5b505afa15801561150a573d6000803e3d6000fd5b505050506040513d6000823e3d601f19601f8201168201806040525081019061153391906124be565b809650819750829850839950849a50859b5050505050505091939550919395565b6000886040518060400160405280600b81526020017f4449535452494255544f520000000000000000000000000000000000000000008152508060405160200161159e9190612636565b60405160208183030381529060405280519060200120600160009054906101000a900473ffffffffffffffffffffffffffffffffffffffff1673ffffffffffffffffffffffffffffffffffffffff166327820851336040518263ffffffff1660e01b815260040161160f919061264d565b60006040518083038186803b15801561162757600080fd5b505afa15801561163b573d6000803e3d6000fd5b505050506040513d6000823e3d601f19601f820116820180604052508101906116649190612016565b6040516020016116749190612636565b604051602081830303815290604052805190602001201461169457600080fd5b806040516020016116a59190612636565b60405160208183030381529060405280519060200120600160009054906101000a900473ffffffffffffffffffffffffffffffffffffffff1673ffffffffffffffffffffffffffffffffffffffff16634d6b5e00846040518263ffffffff1660e01b8152600401611716919061264d565b60006040518083038186803b15801561172e57600080fd5b505afa158015611742573d6000803e3d6000fd5b505050506040513d6000823e3d601f19601f8201168201806040525081019061176b9190612016565b60405160200161177b9190612636565b604051602081830303815290604052805190602001201461179b57600080fd5b6000600160009054906101000a900473ffffffffffffffffffffffffffffffffffffffff1673ffffffffffffffffffffffffffffffffffffffff1663b439d2388d8d8d8d8d8d8d8d6040518963ffffffff1660e01b8152600401611806989796959493929190612668565b602060405180830381600087803b15801561182057600080fd5b505af1158015611834573d6000803e3d6000fd5b505050506040513d601f19601f820116820180604052508101906118589190611fe9565b90508b73ffffffffffffffffffffffffffffffffffffffff163373ffffffffffffffffffffffffffffffffffffffff167febf746471ae1c228971b077b22e020787d4f8653a4a9a971c001830f7328ba2460405160405180910390a380935050505098975050505050505050565b60008054906101000a900473ffffffffffffffffffffffffffffffffffffffff1673ffffffffffffffffffffffffffffffffffffffff163373ffffffffffffffffffffffffffffffffffffffff161461191e57600080fd5b600073ffffffffffffffffffffffffffffffffffffffff168173ffffffffffffffffffffffffffffffffffffffff16141561195857600080fd5b8073ffffffffffffffffffffffffffffffffffffffff1660008054906101000a900473ffffffffffffffffffffffffffffffffffffffff1673ffffffffffffffffffffffffffffffffffffffff167f8be0079c531659141344cd1fd0a4f28419497f9722a3daafe3b4186f6b6457e060405160405180910390a3806000806101000a81548173ffffffffffffffffffffffffffffffffffffffff021916908373ffffffffffffffffffffffffffffffffffffffff16021790555050565b6000611a28611a2384612b6f565b612b4a565b905082815260208101848484011115611a4457611a43612cb6565b5b611a4f848285612c0f565b509392505050565b6000611a6a611a6584612b6f565b612b4a565b905082815260208101848484011115611a8657611a85612cb6565b5b611a91848285612c1e565b509392505050565b600081359050611aa881612cd6565b92915050565b600081519050611abd81612cd6565b92915050565b600081359050611ad281612ced565b92915050565b600081519050611ae781612ced565b92915050565b600082601f830112611b0257611b01612cb1565b5b8135611b12848260208601611a15565b91505092915050565b600082601f830112611b3057611b2f612cb1565b5b8151611b40848260208601611a57565b91505092915050565b600081359050611b5881612d04565b92915050565b600081519050611b6d81612d04565b92915050565b600060208284031215611b8957611b88612cc0565b5b6000611b9784828501611a99565b91505092915050565b600060208284031215611bb657611bb5612cc0565b5b6000611bc484828501611aae565b91505092915050565b600080600080600080600080610100898b031215611bee57611bed612cc0565b5b6000611bfc8b828c01611a99565b985050602089013567ffffffffffffffff811115611c1d57611c1c612cbb565b5b611c298b828c01611aed565b975050604089013567ffffffffffffffff811115611c4a57611c49612cbb565b5b611c568b828c01611aed565b9650506060611c678b828c01611b49565b9550506080611c788b828c01611b49565b94505060a0611c898b828c01611b49565b93505060c089013567ffffffffffffffff811115611caa57611ca9612cbb565b5b611cb68b828c01611aed565b92505060e089013567ffffffffffffffff811115611cd757611cd6612cbb565b5b611ce38b828c01611aed565b9150509295985092959890939650565b600080600080600080600060e0888a031215611d1257611d11612cc0565b5b6000611d208a828b01611a99565b975050602088013567ffffffffffffffff811115611d4157611d40612cbb565b5b611d4d8a828b01611aed565b9650506040611d5e8a828b01611b49565b9550506060611d6f8a828b01611b49565b945050608088013567ffffffffffffffff811115611d9057611d8f612cbb565b5b611d9c8a828b01611aed565b93505060a088013567ffffffffffffffff811115611dbd57611dbc612cbb565b5b611dc98a828b01611aed565b92505060c0611dda8a828b01611ac3565b91505092959891949750929550565b600080600080600080600080610100898b031215611e0a57611e09612cc0565b5b6000611e188b828c01611a99565b985050602089013567ffffffffffffffff811115611e3957611e38612cbb565b5b611e458b828c01611aed565b9750506040611e568b828c01611b49565b9650506060611e678b828c01611b49565b9550506080611e788b828c01611b49565b94505060a0611e898b828c01611b49565b93505060c089013567ffffffffffffffff811115611eaa57611ea9612cbb565b5b611eb68b828c01611aed565b92505060e089013567ffffffffffffffff811115611ed757611ed6612cbb565b5b611ee38b828c01611aed565b9150509295985092959890939650565b600080600080600080600060e0888a031215611f1257611f11612cc0565b5b6000611f208a828b01611a99565b9750506020611f318a828b01611b49565b9650506040611f428a828b01611b49565b9550506060611f538a828b01611b49565b945050608088013567ffffffffffffffff811115611f7457611f73612cbb565b5b611f808a828b01611aed565b93505060a088013567ffffffffffffffff811115611fa157611fa0612cbb565b5b611fad8a828b01611aed565b92505060c088013567ffffffffffffffff811115611fce57611fcd612cbb565b5b611fda8a828b01611aed565b91505092959891949750929550565b600060208284031215611fff57611ffe612cc0565b5b600061200d84828501611ad8565b91505092915050565b60006020828403121561202c5761202b612cc0565b5b600082015167ffffffffffffffff81111561204a57612049612cbb565b5b61205684828501611b1b565b91505092915050565b600080600080600080600060e0888a03121561207e5761207d612cc0565b5b600088015167ffffffffffffffff81111561209c5761209b612cbb565b5b6120a88a828b01611b1b565b975050602088015167ffffffffffffffff8111156120c9576120c8612cbb565b5b6120d58a828b01611b1b565b96505060406120e68a828b01611b5e565b95505060606120f78a828b01611b5e565b94505060806121088a828b01611b5e565b93505060a088015167ffffffffffffffff81111561212957612128612cbb565b5b6121358a828b01611b1b565b92505060c088015167ffffffffffffffff81111561215657612155612cbb565b5b6121628a828b01611b1b565b91505092959891949750929550565b6000806000806080858703121561218b5761218a612cc0565b5b600085013567ffffffffffffffff8111156121a9576121a8612cbb565b5b6121b587828801611aed565b94505060206121c687828801611b49565b935050604085013567ffffffffffffffff8111156121e7576121e6612cbb565b5b6121f387828801611aed565b925050606085013567ffffffffffffffff81111561221457612213612cbb565b5b61222087828801611aed565b91505092959194509250565b6000806000806080858703121561224657612245612cc0565b5b600085015167ffffffffffffffff81111561226457612263612cbb565b5b61227087828801611b1b565b945050602061228187828801611b5e565b935050604085015167ffffffffffffffff8111156122a2576122a1612cbb565b5b6122ae87828801611b1b565b925050606085015167ffffffffffffffff8111156122cf576122ce612cbb565b5b6122db87828801611b1b565b91505092959194509250565b60008060008060008060c0878903121561230457612303612cc0565b5b600087015167ffffffffffffffff81111561232257612321612cbb565b5b61232e89828a01611b1b565b965050602061233f89828a01611b5e565b955050604061235089828a01611b5e565b945050606087015167ffffffffffffffff81111561237157612370612cbb565b5b61237d89828a01611b1b565b935050608087015167ffffffffffffffff81111561239e5761239d612cbb565b5b6123aa89828a01611b1b565b92505060a06123bb89828a01611ad8565b9150509295509295509295565b600080600080600080600060e0888a0312156123e7576123e6612cc0565b5b600088015167ffffffffffffffff81111561240557612404612cbb565b5b6124118a828b01611b1b565b97505060206124228a828b01611b5e565b96505060406124338a828b01611b5e565b95505060606124448a828b01611b5e565b94505060806124558a828b01611b5e565b93505060a088015167ffffffffffffffff81111561247657612475612cbb565b5b6124828a828b01611b1b565b92505060c088015167ffffffffffffffff8111156124a3576124a2612cbb565b5b6124af8a828b01611b1b565b91505092959891949750929550565b60008060008060008060c087890312156124db576124da612cc0565b5b60006124e989828a01611b5e565b96505060206124fa89828a01611b5e565b955050604061250b89828a01611b5e565b945050606087015167ffffffffffffffff81111561252c5761252b612cbb565b5b61253889828a01611b1b565b935050608087015167ffffffffffffffff81111561255957612558612cbb565b5b61256589828a01611b1b565b92505060a087015167ffffffffffffffff81111561258657612585612cbb565b5b61259289828a01611b1b565b9150509295509295509295565b6125a881612bc7565b82525050565b6125b781612bd9565b82525050565b60006125c882612ba0565b6125d28185612bab565b93506125e2818560208601612c1e565b6125eb81612cc5565b840191505092915050565b600061260182612ba0565b61260b8185612bbc565b935061261b818560208601612c1e565b80840191505092915050565b61263081612c05565b82525050565b600061264282846125f6565b915081905092915050565b6000602082019050612662600083018461259f565b92915050565b60006101008201905061267e600083018b61259f565b8181036020830152612690818a6125bd565b905081810360408301526126a481896125bd565b90506126b36060830188612627565b6126c06080830187612627565b6126cd60a0830186612627565b81810360c08301526126df81856125bd565b905081810360e08301526126f381846125bd565b90509998505050505050505050565b600060e082019050612717600083018a61259f565b818103602083015261272981896125bd565b90506127386040830188612627565b6127456060830187612627565b818103608083015261275781866125bd565b905081810360a083015261276b81856125bd565b905061277a60c08301846125ae565b98975050505050505050565b60006101008201905061279c600083018b61259f565b81810360208301526127ae818a6125bd565b90506127bd6040830189612627565b6127ca6060830188612627565b6127d76080830187612627565b6127e460a0830186612627565b81810360c08301526127f681856125bd565b905081810360e083015261280a81846125bd565b90509998505050505050505050565b600060e08201905061282e600083018a61259f565b61283b6020830189612627565b6128486040830188612627565b6128556060830187612627565b818103608083015261286781866125bd565b905081810360a083015261287b81856125bd565b905081810360c083015261288f81846125bd565b905098975050505050505050565b60006020820190506128b260008301846125ae565b92915050565b600060208201905081810360008301526128d281846125bd565b905092915050565b600060e08201905081810360008301526128f4818a6125bd565b9050818103602083015261290881896125bd565b90506129176040830188612627565b6129246060830187612627565b6129316080830186612627565b81810360a083015261294381856125bd565b905081810360c083015261295781846125bd565b905098975050505050505050565b6000608082019050818103600083015261297f81876125bd565b905061298e6020830186612627565b81810360408301526129a081856125bd565b905081810360608301526129b481846125bd565b905095945050505050565b600060c08201905081810360008301526129d981896125bd565b90506129e86020830188612627565b6129f56040830187612627565b8181036060830152612a0781866125bd565b90508181036080830152612a1b81856125bd565b9050612a2a60a08301846125ae565b979650505050505050565b600060e0820190508181036000830152612a4f818a6125bd565b9050612a5e6020830189612627565b612a6b6040830188612627565b612a786060830187612627565b612a856080830186612627565b81810360a0830152612a9781856125bd565b905081810360c0830152612aab81846125bd565b905098975050505050505050565b6000602082019050612ace6000830184612627565b92915050565b600060c082019050612ae96000830189612627565b612af66020830188612627565b612b036040830187612627565b8181036060830152612b1581866125bd565b90508181036080830152612b2981856125bd565b905081810360a0830152612b3d81846125bd565b9050979650505050505050565b6000612b54612b65565b9050612b608282612c51565b919050565b6000604051905090565b600067ffffffffffffffff821115612b8a57612b89612c82565b5b612b9382612cc5565b9050602081019050919050565b600081519050919050565b600082825260208201905092915050565b600081905092915050565b6000612bd282612be5565b9050919050565b60008115159050919050565b600073ffffffffffffffffffffffffffffffffffffffff82169050919050565b6000819050919050565b82818337600083830152505050565b60005b83811015612c3c578082015181840152602081019050612c21565b83811115612c4b576000848401525b50505050565b612c5a82612cc5565b810181811067ffffffffffffffff82111715612c7957612c78612c82565b5b80604052505050565b7f4e487b7100000000000000000000000000000000000000000000000000000000600052604160045260246000fd5b600080fd5b600080fd5b600080fd5b600080fd5b6000601f19601f8301169050919050565b612cdf81612bc7565b8114612cea57600080fd5b50565b612cf681612bd9565b8114612d0157600080fd5b50565b612d0d81612c05565b8114612d1857600080fd5b5056fea2646970667358221220f9c752512b2333f1a5452abd6a0984d69f129614b708b170fabdb1b48005e6cd64736f6c63430008070033",
  "immutableReferences": {},
  "source": "// SPDX-License-Identifier: MIT\r\npragma solidity ^0.8.7;\r\nimport \"./VaccineSystemStorage.sol\";\r\nimport \"./Ownable.sol\";\r\n\r\ncontract VaccineSupplyChain is Ownable {\r\n    event CompleteBasicDetail(address indexed user, address indexed batchNo);\r\n    event CompleteWarehouser(address indexed user, address indexed batchNo);\r\n    event CompleteDistributor(address indexed user, address indexed batchNo);\r\n    event CompleteVaccinationStation(\r\n        address indexed user,\r\n        address indexed batchNo\r\n    );\r\n    event CompleteVaccinatePerson(\r\n        address indexed user,\r\n        address indexed batchNo\r\n    );\r\n\r\n    /* Declare Modifier */\r\n    modifier isValidPerformer(address batchNo, string memory role) {\r\n        require(\r\n            keccak256(\r\n                abi.encodePacked(vaccineSystemStorage.getUserRole(msg.sender))\r\n            ) == keccak256(abi.encodePacked(role))\r\n        );\r\n        require(\r\n            keccak256(\r\n                abi.encodePacked(vaccineSystemStorage.getNextAction(batchNo))\r\n            ) == keccak256(abi.encodePacked(role))\r\n        );\r\n        _;\r\n    }\r\n\r\n    modifier onlyProducer(string memory role) {\r\n        require(\r\n            keccak256(\r\n                abi.encodePacked(vaccineSystemStorage.getUserRole(msg.sender))\r\n            ) == keccak256(abi.encodePacked(role))\r\n        );\r\n        _;\r\n    }\r\n\r\n    modifier onlyObjectInjection(string memory role) {\r\n        require(\r\n            keccak256(\r\n                abi.encodePacked(vaccineSystemStorage.getUserRole(msg.sender))\r\n            ) == keccak256(abi.encodePacked(role))\r\n        );\r\n        _;\r\n    }\r\n\r\n    /* Storage Variables */\r\n    VaccineSystemStorage vaccineSystemStorage;\r\n\r\n    constructor(address _vaccineSystemAddress) public {\r\n        vaccineSystemStorage = VaccineSystemStorage(_vaccineSystemAddress);\r\n    }\r\n\r\n    function getBalance() public view returns (uint256) {\r\n        return (address(this).balance);\r\n    }\r\n\r\n    /* Get Next Action */\r\n\r\n    function getNextAction(address _batchNo)\r\n        public\r\n        view\r\n        returns (string memory action)\r\n    {\r\n        (action) = vaccineSystemStorage.getNextAction(_batchNo);\r\n        return (action);\r\n    }\r\n\r\n    /* Get Basic Details */\r\n    function getBasicDetailsData(address _batchNo)\r\n        public\r\n        view\r\n        returns (\r\n            string memory producerName,\r\n            uint256 quantity,\r\n            string memory optimumRangeTemp,\r\n            string memory optimumRangeHum\r\n        )\r\n    {\r\n        /* Call Storage Contract */\r\n        (\r\n            producerName,\r\n            quantity,\r\n            optimumRangeTemp,\r\n            optimumRangeHum\r\n        ) = vaccineSystemStorage.getBasicDetails(_batchNo);\r\n        return (\r\n            producerName,\r\n            quantity,\r\n            optimumRangeTemp,\r\n            optimumRangeHum\r\n        );\r\n    }\r\n\r\n    /* Add Basic Details */\r\n    function addBasicDetails(\r\n        string memory _producerName,\r\n        uint256 _quantity,\r\n        string memory _optimumRangeTemp,\r\n        string memory _optimumRangeHum\r\n    ) public onlyProducer(\"PRODUCER\") returns (address) {\r\n        address batchNo = vaccineSystemStorage.setBasicDetails(\r\n            _producerName,\r\n            _quantity,\r\n            _optimumRangeTemp,\r\n            _optimumRangeHum\r\n        );\r\n\r\n        /* Call Emit Event */\r\n        emit CompleteBasicDetail(msg.sender, batchNo);\r\n\r\n        return batchNo;\r\n    }\r\n\r\n    /* Get Warehouser */\r\n    function getWarehouserData(address _batchNo)\r\n        public\r\n        view\r\n        returns (\r\n            string memory vaccineName,\r\n            uint256 quantity,\r\n            uint256 storageDate,\r\n            string memory optimumRangeTemp,\r\n            string memory optimumRangeHum,\r\n            bool isViolation\r\n        )\r\n    {\r\n        /* Call Storage Contract */\r\n        (\r\n            vaccineName,\r\n            quantity,\r\n            storageDate,\r\n            optimumRangeTemp,\r\n            optimumRangeHum,\r\n            isViolation\r\n        ) = vaccineSystemStorage.getWarehouserData(_batchNo);\r\n        return (\r\n            vaccineName,\r\n            quantity,\r\n            storageDate,\r\n            optimumRangeTemp,\r\n            optimumRangeHum,\r\n            isViolation\r\n        );\r\n    }\r\n\r\n    /* Update Warehouser */\r\n    function updateWarehouser(\r\n        address _batchNo,\r\n        string memory _vaccineName,\r\n        uint256 _quantity,\r\n        uint256 _storageDate,\r\n        string memory _optimumRangeTemp,\r\n        string memory _optimumRangeHum,\r\n        bool _isViolation\r\n    ) public isValidPerformer(_batchNo, \"WAREHOUSER\") returns (bool) {\r\n        bool status = vaccineSystemStorage.setWarehouser(\r\n            _batchNo,\r\n            _vaccineName,\r\n            _quantity,\r\n            _storageDate,\r\n            _optimumRangeTemp,\r\n            _optimumRangeHum,\r\n            _isViolation\r\n        );\r\n\r\n        emit CompleteWarehouser(msg.sender, _batchNo);\r\n        return (status);\r\n    }\r\n\r\n    /* Get Distributor */\r\n    function getDistributorData(address _batchNo)\r\n        public\r\n        view\r\n        returns (\r\n            string memory destinationAddress,\r\n            string memory shippingName,\r\n            uint256 quantity,\r\n            uint256 departureDateTime,\r\n            uint256 estimateDateTime,\r\n            string memory optimumRangeTemp,\r\n            string memory optimumRangeHum\r\n        )\r\n    {\r\n        /* Call Storage Contract */\r\n        (\r\n            destinationAddress,\r\n            shippingName,\r\n            quantity,\r\n            departureDateTime,\r\n            estimateDateTime,\r\n            optimumRangeTemp,\r\n            optimumRangeHum\r\n        ) = vaccineSystemStorage.getDistributorData(_batchNo);\r\n        return (\r\n            destinationAddress,\r\n            shippingName,\r\n            quantity,\r\n            departureDateTime,\r\n            estimateDateTime,\r\n            optimumRangeTemp,\r\n            optimumRangeHum\r\n        );\r\n    }\r\n\r\n    /* Update Distributor */\r\n    function updateDistributorData(\r\n        address _batchNo,\r\n        string memory _destinationAddress,\r\n        string memory _shippingName,\r\n        uint256 _quantity,\r\n        uint256 _departureDateTime,\r\n        uint256 _estimateDateTime,\r\n        string memory _optimumRangeTemp,\r\n        string memory _optimumRangeHum\r\n    ) public isValidPerformer(_batchNo, \"DISTRIBUTOR\") returns (bool) {\r\n        bool status = vaccineSystemStorage.setDistributor(\r\n            _batchNo,\r\n            _destinationAddress,\r\n            _shippingName,\r\n            _quantity,\r\n            _departureDateTime,\r\n            _estimateDateTime,\r\n            _optimumRangeTemp,\r\n            _optimumRangeHum\r\n        );\r\n        emit CompleteDistributor(msg.sender, _batchNo);\r\n\r\n        return (status);\r\n    }\r\n\r\n    /* Get Vaccination Station */\r\n    function getVaccinationStation(address _batchNo)\r\n        public\r\n        view\r\n        returns (\r\n            uint256 quantity,\r\n            uint256 arrivalDateTime,\r\n            uint256 vaccinationStationId,\r\n            string memory shippingName,\r\n            string memory shippingNo,\r\n            string memory locationAddress\r\n        )\r\n    {\r\n        /* Call Storage Contract */\r\n        (\r\n            quantity,\r\n            arrivalDateTime,\r\n            vaccinationStationId,\r\n            shippingName,\r\n            shippingNo,\r\n            locationAddress\r\n        ) = vaccineSystemStorage.getVaccinationStationData(_batchNo);\r\n\r\n        return (\r\n            quantity,\r\n            arrivalDateTime,\r\n            vaccinationStationId,\r\n            shippingName,\r\n            shippingNo,\r\n            locationAddress\r\n        );\r\n    }\r\n\r\n    /* Update Vaccination Station */\r\n    function updateVaccinationStation(\r\n        address _batchNo,\r\n        uint256 _quantity,\r\n        uint256 _arrivalDateTime,\r\n        uint256 _vaccinationStationId,\r\n        string memory _shippingName,\r\n        string memory _shippingNo,\r\n        string memory _locationAddress\r\n    ) public isValidPerformer(_batchNo, \"VACCINATION_STATION\") returns (bool) {\r\n        bool status = vaccineSystemStorage.setVaccinationStation(\r\n            _batchNo,\r\n            _quantity,\r\n            _arrivalDateTime,\r\n            _vaccinationStationId,\r\n            _shippingName,\r\n            _shippingNo,\r\n            _locationAddress\r\n        );\r\n\r\n        /* Emit Event */\r\n        emit CompleteVaccinationStation(msg.sender, _batchNo);\r\n        return (status);\r\n    }\r\n\r\n    /* Get Vaccinate Person Data */\r\n    function getVaccinateData(address _batchNo)\r\n        public\r\n        view\r\n        returns (\r\n            string memory personName,\r\n            uint256 age,\r\n            uint256 identityCard,\r\n            uint256 numberOfVaccinations,\r\n            uint256 vaccinationDate,\r\n            string memory typeOfVaccine,\r\n            string memory phoneNumber\r\n        )\r\n    {\r\n        /* Call Storage Contract */\r\n        (\r\n            personName,\r\n            age,\r\n            identityCard,\r\n            numberOfVaccinations,\r\n            vaccinationDate,\r\n            typeOfVaccine,\r\n            phoneNumber\r\n        ) = vaccineSystemStorage.getVaccinationPersonData(_batchNo);\r\n\r\n        return (\r\n            personName,\r\n            age,\r\n            identityCard,\r\n            numberOfVaccinations,\r\n            vaccinationDate,\r\n            typeOfVaccine,\r\n            phoneNumber\r\n        );\r\n    }\r\n\r\n    /* Update Vaccinate Person */\r\n    function updateVaccinatePerson(\r\n        address _batchNo,\r\n        string memory _personName,\r\n        uint256 _age,\r\n        uint256 _identityCard,\r\n        uint256 _numberOfVaccinations,\r\n        uint256 _vaccinationDate,\r\n        string memory _typeOfVaccine,\r\n        string memory _phoneNumber\r\n    ) public onlyObjectInjection(\"OBJECT_INJECTION\") returns (bool) {\r\n        bool status = vaccineSystemStorage.setObjectInjection(\r\n            _batchNo,\r\n            _personName,\r\n            _age,\r\n            _identityCard,\r\n            _numberOfVaccinations,\r\n            _vaccinationDate,\r\n            _typeOfVaccine,\r\n            _phoneNumber\r\n        );\r\n\r\n        /* Emit Event */\r\n        emit CompleteVaccinatePerson(msg.sender, _batchNo);\r\n        return (status);\r\n    }\r\n}\r\n",
  "sourcePath": "D:\\Learn , Research, Explore\\UIT\\Dissertation\\Source\\packages\\dissertation_smartcontract\\contracts\\VaccineSupplyChain.sol",
  "compiler": {
    "name": "solc",
    "version": "0.8.7+commit.e28d00a7.Emscripten.clang"
  },
  "schemaVersion": "3.4.3",
  "updatedAt": "2021-11-11T03:08:50.346Z",
  "networkType": "ethereum",
  "devdoc": {
    "kind": "dev",
    "methods": {
      "renounceOwnership()": {
        "details": "Allows the current owner to relinquish control of the contract."
      },
      "transferOwnership(address)": {
        "details": "Allows the current owner to transfer control of the contract to a newOwner.",
        "params": {
          "newOwner": "The address to transfer ownership to."
        }
      }
    },
    "version": 1
  },
  "userdoc": {
    "kind": "user",
    "methods": {},
    "version": 1
  }
}