{
  "contractName": "VaccineUserAttend",
  "abi": [
    {
      "inputs": [
        {
          "internalType": "address",
          "name": "_vaccineSystemAddress",
          "type": "address"
        }
      ],
      "stateMutability": "nonpayable",
      "type": "constructor"
    },
    {
      "anonymous": false,
      "inputs": [
        {
          "indexed": true,
          "internalType": "address",
          "name": "previousOwner",
          "type": "address"
        }
      ],
      "name": "OwnershipRenounced",
      "type": "event"
    },
    {
      "anonymous": false,
      "inputs": [
        {
          "indexed": true,
          "internalType": "address",
          "name": "previousOwner",
          "type": "address"
        },
        {
          "indexed": true,
          "internalType": "address",
          "name": "newOwner",
          "type": "address"
        }
      ],
      "name": "OwnershipTransferred",
      "type": "event"
    },
    {
      "anonymous": false,
      "inputs": [
        {
          "indexed": true,
          "internalType": "address",
          "name": "user",
          "type": "address"
        },
        {
          "indexed": false,
          "internalType": "string",
          "name": "role",
          "type": "string"
        }
      ],
      "name": "UserRoleUpdate",
      "type": "event"
    },
    {
      "anonymous": false,
      "inputs": [
        {
          "indexed": true,
          "internalType": "address",
          "name": "user",
          "type": "address"
        },
        {
          "indexed": false,
          "internalType": "string",
          "name": "name",
          "type": "string"
        },
        {
          "indexed": false,
          "internalType": "string",
          "name": "contactNo",
          "type": "string"
        },
        {
          "indexed": false,
          "internalType": "string",
          "name": "role",
          "type": "string"
        },
        {
          "indexed": false,
          "internalType": "bool",
          "name": "isActive",
          "type": "bool"
        },
        {
          "indexed": false,
          "internalType": "string",
          "name": "profileHash",
          "type": "string"
        }
      ],
      "name": "UserUpdate",
      "type": "event"
    },
    {
      "inputs": [],
      "name": "owner",
      "outputs": [
        {
          "internalType": "address",
          "name": "",
          "type": "address"
        }
      ],
      "stateMutability": "view",
      "type": "function",
      "constant": true
    },
    {
      "inputs": [],
      "name": "renounceOwnership",
      "outputs": [],
      "stateMutability": "nonpayable",
      "type": "function"
    },
    {
      "inputs": [
        {
          "internalType": "address",
          "name": "newOwner",
          "type": "address"
        }
      ],
      "name": "transferOwnership",
      "outputs": [],
      "stateMutability": "nonpayable",
      "type": "function"
    },
    {
      "inputs": [
        {
          "internalType": "string",
          "name": "_name",
          "type": "string"
        },
        {
          "internalType": "string",
          "name": "_contactNo",
          "type": "string"
        },
        {
          "internalType": "string",
          "name": "_role",
          "type": "string"
        },
        {
          "internalType": "bool",
          "name": "_isActive",
          "type": "bool"
        },
        {
          "internalType": "string",
          "name": "_profileHash",
          "type": "string"
        }
      ],
      "name": "updateUser",
      "outputs": [
        {
          "internalType": "bool",
          "name": "",
          "type": "bool"
        }
      ],
      "stateMutability": "nonpayable",
      "type": "function"
    },
    {
      "inputs": [
        {
          "internalType": "address",
          "name": "_userAddress",
          "type": "address"
        },
        {
          "internalType": "string",
          "name": "_name",
          "type": "string"
        },
        {
          "internalType": "string",
          "name": "_contactNo",
          "type": "string"
        },
        {
          "internalType": "string",
          "name": "_role",
          "type": "string"
        },
        {
          "internalType": "bool",
          "name": "_isActive",
          "type": "bool"
        },
        {
          "internalType": "string",
          "name": "_profileHash",
          "type": "string"
        }
      ],
      "name": "updateUserForAdmin",
      "outputs": [
        {
          "internalType": "bool",
          "name": "",
          "type": "bool"
        }
      ],
      "stateMutability": "nonpayable",
      "type": "function"
    },
    {
      "inputs": [
        {
          "internalType": "address",
          "name": "_userAddress",
          "type": "address"
        }
      ],
      "name": "getUser",
      "outputs": [
        {
          "internalType": "string",
          "name": "name",
          "type": "string"
        },
        {
          "internalType": "string",
          "name": "contactNo",
          "type": "string"
        },
        {
          "internalType": "string",
          "name": "role",
          "type": "string"
        },
        {
          "internalType": "bool",
          "name": "isActive",
          "type": "bool"
        },
        {
          "internalType": "string",
          "name": "profileHash",
          "type": "string"
        }
      ],
      "stateMutability": "view",
      "type": "function",
      "constant": true
    }
  ],
  "bytecode": "0x60806040523480156200001157600080fd5b50604051620012da380380620012da8339818101604052810190620000379190620000d6565b336000806101000a81548173ffffffffffffffffffffffffffffffffffffffff021916908373ffffffffffffffffffffffffffffffffffffffff16021790555080600160006101000a81548173ffffffffffffffffffffffffffffffffffffffff021916908373ffffffffffffffffffffffffffffffffffffffff160217905550506200015b565b600081519050620000d08162000141565b92915050565b600060208284031215620000ef57620000ee6200013c565b5b6000620000ff84828501620000bf565b91505092915050565b600062000115826200011c565b9050919050565b600073ffffffffffffffffffffffffffffffffffffffff82169050919050565b600080fd5b6200014c8162000108565b81146200015857600080fd5b50565b61116f806200016b6000396000f3fe608060405234801561001057600080fd5b50600436106100625760003560e01c80631e7d76aa146100675780636f77926b14610097578063715018a6146100cb5780638da5cb5b146100d5578063f2fde38b146100f3578063f5c8dee91461010f575b600080fd5b610081600480360381019061007c9190610a21565b61013f565b60405161008e9190610e56565b60405180910390f35b6100b160048036038101906100ac91906109f4565b610341565b6040516100c2959493929190610e93565b60405180910390f35b6100d3610487565b005b6100dd610585565b6040516100ea9190610dbe565b60405180910390f35b61010d600480360381019061010891906109f4565b6105a9565b005b61012960048036038101906101249190610b4b565b6106f8565b6040516101369190610e56565b60405180910390f35b60008060009054906101000a900473ffffffffffffffffffffffffffffffffffffffff1673ffffffffffffffffffffffffffffffffffffffff163373ffffffffffffffffffffffffffffffffffffffff161461019a57600080fd5b600073ffffffffffffffffffffffffffffffffffffffff168773ffffffffffffffffffffffffffffffffffffffff1614156101d457600080fd5b6000600160009054906101000a900473ffffffffffffffffffffffffffffffffffffffff1673ffffffffffffffffffffffffffffffffffffffff1663fb7a20af8989898989896040518763ffffffff1660e01b815260040161023b96959493929190610dd9565b602060405180830381600087803b15801561025557600080fd5b505af1158015610269573d6000803e3d6000fd5b505050506040513d601f19601f8201168201806040525081019061028d9190610b1e565b90508773ffffffffffffffffffffffffffffffffffffffff167f913673700610456ef7bb668e20badb980d1e4df0ba5bfbdbb6e7bfb0ddbcc6c988888888886040516102dd959493929190610e93565b60405180910390a23373ffffffffffffffffffffffffffffffffffffffff167f3b419384c2ac88d62e2daac72f8c6e6398c474d91c63e814a307e3641762c8de8660405161032b9190610e71565b60405180910390a2809150509695505050505050565b606080606060006060600073ffffffffffffffffffffffffffffffffffffffff168673ffffffffffffffffffffffffffffffffffffffff1614156103ba576040517f08c379a00000000000000000000000000000000000000000000000000000000081526004016103b190610f02565b60405180910390fd5b600160009054906101000a900473ffffffffffffffffffffffffffffffffffffffff1673ffffffffffffffffffffffffffffffffffffffff16636f77926b876040518263ffffffff1660e01b81526004016104159190610dbe565b60006040518083038186803b15801561042d57600080fd5b505afa158015610441573d6000803e3d6000fd5b505050506040513d6000823e3d601f19601f8201168201806040525081019061046a9190610c36565b809550819650829750839850849950505050505091939590929450565b60008054906101000a900473ffffffffffffffffffffffffffffffffffffffff1673ffffffffffffffffffffffffffffffffffffffff163373ffffffffffffffffffffffffffffffffffffffff16146104df57600080fd5b60008054906101000a900473ffffffffffffffffffffffffffffffffffffffff1673ffffffffffffffffffffffffffffffffffffffff167ff8df31144d9c2f0f6b59d69b8b98abd5459d07f2742c4df920b25aae33c6482060405160405180910390a260008060006101000a81548173ffffffffffffffffffffffffffffffffffffffff021916908373ffffffffffffffffffffffffffffffffffffffff160217905550565b60008054906101000a900473ffffffffffffffffffffffffffffffffffffffff1681565b60008054906101000a900473ffffffffffffffffffffffffffffffffffffffff1673ffffffffffffffffffffffffffffffffffffffff163373ffffffffffffffffffffffffffffffffffffffff161461060157600080fd5b600073ffffffffffffffffffffffffffffffffffffffff168173ffffffffffffffffffffffffffffffffffffffff16141561063b57600080fd5b8073ffffffffffffffffffffffffffffffffffffffff1660008054906101000a900473ffffffffffffffffffffffffffffffffffffffff1673ffffffffffffffffffffffffffffffffffffffff167f8be0079c531659141344cd1fd0a4f28419497f9722a3daafe3b4186f6b6457e060405160405180910390a3806000806101000a81548173ffffffffffffffffffffffffffffffffffffffff021916908373ffffffffffffffffffffffffffffffffffffffff16021790555050565b60008073ffffffffffffffffffffffffffffffffffffffff163373ffffffffffffffffffffffffffffffffffffffff161415610769576040517f08c379a000000000000000000000000000000000000000000000000000000000815260040161076090610f22565b60405180910390fd5b6000600160009054906101000a900473ffffffffffffffffffffffffffffffffffffffff1673ffffffffffffffffffffffffffffffffffffffff1663fb7a20af3389898989896040518763ffffffff1660e01b81526004016107d096959493929190610dd9565b602060405180830381600087803b1580156107ea57600080fd5b505af11580156107fe573d6000803e3d6000fd5b505050506040513d601f19601f820116820180604052508101906108229190610b1e565b90503373ffffffffffffffffffffffffffffffffffffffff167f913673700610456ef7bb668e20badb980d1e4df0ba5bfbdbb6e7bfb0ddbcc6c98888888888604051610872959493929190610e93565b60405180910390a23373ffffffffffffffffffffffffffffffffffffffff167f3b419384c2ac88d62e2daac72f8c6e6398c474d91c63e814a307e3641762c8de866040516108c09190610e71565b60405180910390a28091505095945050505050565b60006108e86108e384610f67565b610f42565b90508281526020810184848401111561090457610903611099565b5b61090f848285610ff2565b509392505050565b600061092a61092584610f67565b610f42565b90508281526020810184848401111561094657610945611099565b5b610951848285611001565b509392505050565b6000813590506109688161110b565b92915050565b60008135905061097d81611122565b92915050565b60008151905061099281611122565b92915050565b600082601f8301126109ad576109ac611094565b5b81356109bd8482602086016108d5565b91505092915050565b600082601f8301126109db576109da611094565b5b81516109eb848260208601610917565b91505092915050565b600060208284031215610a0a57610a096110a3565b5b6000610a1884828501610959565b91505092915050565b60008060008060008060c08789031215610a3e57610a3d6110a3565b5b6000610a4c89828a01610959565b965050602087013567ffffffffffffffff811115610a6d57610a6c61109e565b5b610a7989828a01610998565b955050604087013567ffffffffffffffff811115610a9a57610a9961109e565b5b610aa689828a01610998565b945050606087013567ffffffffffffffff811115610ac757610ac661109e565b5b610ad389828a01610998565b9350506080610ae489828a0161096e565b92505060a087013567ffffffffffffffff811115610b0557610b0461109e565b5b610b1189828a01610998565b9150509295509295509295565b600060208284031215610b3457610b336110a3565b5b6000610b4284828501610983565b91505092915050565b600080600080600060a08688031215610b6757610b666110a3565b5b600086013567ffffffffffffffff811115610b8557610b8461109e565b5b610b9188828901610998565b955050602086013567ffffffffffffffff811115610bb257610bb161109e565b5b610bbe88828901610998565b945050604086013567ffffffffffffffff811115610bdf57610bde61109e565b5b610beb88828901610998565b9350506060610bfc8882890161096e565b925050608086013567ffffffffffffffff811115610c1d57610c1c61109e565b5b610c2988828901610998565b9150509295509295909350565b600080600080600060a08688031215610c5257610c516110a3565b5b600086015167ffffffffffffffff811115610c7057610c6f61109e565b5b610c7c888289016109c6565b955050602086015167ffffffffffffffff811115610c9d57610c9c61109e565b5b610ca9888289016109c6565b945050604086015167ffffffffffffffff811115610cca57610cc961109e565b5b610cd6888289016109c6565b9350506060610ce788828901610983565b925050608086015167ffffffffffffffff811115610d0857610d0761109e565b5b610d14888289016109c6565b9150509295509295909350565b610d2a81610fb4565b82525050565b610d3981610fc6565b82525050565b6000610d4a82610f98565b610d548185610fa3565b9350610d64818560208601611001565b610d6d816110a8565b840191505092915050565b6000610d85601783610fa3565b9150610d90826110b9565b602082019050919050565b6000610da8601083610fa3565b9150610db3826110e2565b602082019050919050565b6000602082019050610dd36000830184610d21565b92915050565b600060c082019050610dee6000830189610d21565b8181036020830152610e008188610d3f565b90508181036040830152610e148187610d3f565b90508181036060830152610e288186610d3f565b9050610e376080830185610d30565b81810360a0830152610e498184610d3f565b9050979650505050505050565b6000602082019050610e6b6000830184610d30565b92915050565b60006020820190508181036000830152610e8b8184610d3f565b905092915050565b600060a0820190508181036000830152610ead8188610d3f565b90508181036020830152610ec18187610d3f565b90508181036040830152610ed58186610d3f565b9050610ee46060830185610d30565b8181036080830152610ef68184610d3f565b90509695505050505050565b60006020820190508181036000830152610f1b81610d78565b9050919050565b60006020820190508181036000830152610f3b81610d9b565b9050919050565b6000610f4c610f5d565b9050610f588282611034565b919050565b6000604051905090565b600067ffffffffffffffff821115610f8257610f81611065565b5b610f8b826110a8565b9050602081019050919050565b600081519050919050565b600082825260208201905092915050565b6000610fbf82610fd2565b9050919050565b60008115159050919050565b600073ffffffffffffffffffffffffffffffffffffffff82169050919050565b82818337600083830152505050565b60005b8381101561101f578082015181840152602081019050611004565b8381111561102e576000848401525b50505050565b61103d826110a8565b810181811067ffffffffffffffff8211171561105c5761105b611065565b5b80604052505050565b7f4e487b7100000000000000000000000000000000000000000000000000000000600052604160045260246000fd5b600080fd5b600080fd5b600080fd5b600080fd5b6000601f19601f8301169050919050565b7f55736572204164647265737320497320496e76616c6964000000000000000000600082015250565b7f5573657220497320496e2056616c696400000000000000000000000000000000600082015250565b61111481610fb4565b811461111f57600080fd5b50565b61112b81610fc6565b811461113657600080fd5b5056fea2646970667358221220c6ed81bddaa01f69d9026aff3da5c00c0c0700cff5702d35546beaf696d447c164736f6c63430008070033",
  "immutableReferences": {},
  "source": "// SPDX-License-Identifier: MIT\r\npragma solidity ^0.8.7;\r\nimport \"./VaccineSystemStorage.sol\";\r\nimport \"./Ownable.sol\";\r\n\r\ncontract VaccineUserAttend is Ownable {\r\n    /* Event Declare */\r\n    event UserUpdate(\r\n        address indexed user,\r\n        string name,\r\n        string contactNo,\r\n        string role,\r\n        bool isActive,\r\n        string profileHash\r\n    );\r\n    event UserRoleUpdate(address indexed user, string role);\r\n\r\n    /* Storage Variable */\r\n    VaccineSystemStorage vaccineSystemStorage;\r\n\r\n    constructor(address _vaccineSystemAddress) {\r\n        vaccineSystemStorage = VaccineSystemStorage(_vaccineSystemAddress);\r\n    }\r\n\r\n    /* Create/Update An User */\r\n    function updateUser(\r\n        string memory _name,\r\n        string memory _contactNo,\r\n        string memory _role,\r\n        bool _isActive,\r\n        string memory _profileHash\r\n    ) public returns (bool) {\r\n        require(msg.sender != address(0), \"User Is In Valid\");\r\n\r\n        /* Call Storage COntract */\r\n        bool status = vaccineSystemStorage.setUser(\r\n            msg.sender,\r\n            _name,\r\n            _contactNo,\r\n            _role,\r\n            _isActive,\r\n            _profileHash\r\n        );\r\n\r\n        /* Call Event */\r\n        emit UserUpdate(\r\n            msg.sender,\r\n            _name,\r\n            _contactNo,\r\n            _role,\r\n            _isActive,\r\n            _profileHash\r\n        );\r\n\r\n        emit UserRoleUpdate(msg.sender, _role);\r\n\r\n        return status;\r\n    }\r\n\r\n    /* Create/Update User For Admin */\r\n    function updateUserForAdmin(\r\n        address _userAddress,\r\n        string memory _name,\r\n        string memory _contactNo,\r\n        string memory _role,\r\n        bool _isActive,\r\n        string memory _profileHash\r\n    ) public onlyOwner returns (bool) {\r\n        require(_userAddress != address(0));\r\n\r\n        /* Call Storage Contract */\r\n        bool status = vaccineSystemStorage.setUser(\r\n            _userAddress,\r\n            _name,\r\n            _contactNo,\r\n            _role,\r\n            _isActive,\r\n            _profileHash\r\n        );\r\n\r\n        /* Call Event */\r\n        /* Call Event */\r\n        emit UserUpdate(\r\n            _userAddress,\r\n            _name,\r\n            _contactNo,\r\n            _role,\r\n            _isActive,\r\n            _profileHash\r\n        );\r\n\r\n        emit UserRoleUpdate(msg.sender, _role);\r\n\r\n        return status;\r\n    }\r\n\r\n    /* Get User */\r\n    function getUser(address _userAddress) public view returns(\r\n        string memory name,\r\n        string memory contactNo,\r\n        string memory role,\r\n        bool isActive,\r\n        string memory profileHash\r\n    ) {\r\n        require(_userAddress != address(0), \"User Address Is Invalid\");\r\n\r\n        /* Getting value from struct */\r\n        (name, contactNo, role, isActive, profileHash) = vaccineSystemStorage.getUser(_userAddress);\r\n        return (name, contactNo, role, isActive, profileHash);\r\n    }\r\n}\r\n",
  "sourcePath": "D:\\Learn , Research, Explore\\UIT\\Dissertation\\Source\\packages\\dissertation_smartcontract\\contracts\\VaccineUserAttend.sol",
  "compiler": {
    "name": "solc",
    "version": "0.8.7+commit.e28d00a7.Emscripten.clang"
  },
  "schemaVersion": "3.4.3",
  "updatedAt": "2021-11-11T03:08:50.366Z",
  "networkType": "ethereum",
  "devdoc": {
    "kind": "dev",
    "methods": {
      "renounceOwnership()": {
        "details": "Allows the current owner to relinquish control of the contract."
      },
      "transferOwnership(address)": {
        "details": "Allows the current owner to transfer control of the contract to a newOwner.",
        "params": {
          "newOwner": "The address to transfer ownership to."
        }
      }
    },
    "version": 1
  },
  "userdoc": {
    "kind": "user",
    "methods": {},
    "version": 1
  }
}