{
  "contractName": "VaccineSupplyChain",
  "abi": [
    {
      "inputs": [
        {
          "internalType": "address",
          "name": "_vaccineSystemAddress",
          "type": "address"
        }
      ],
      "stateMutability": "nonpayable",
      "type": "constructor"
    },
    {
      "anonymous": false,
      "inputs": [
        {
          "indexed": true,
          "internalType": "address",
          "name": "user",
          "type": "address"
        },
        {
          "indexed": true,
          "internalType": "address",
          "name": "batchNo",
          "type": "address"
        }
      ],
      "name": "CompleteBasicDetail",
      "type": "event"
    },
    {
      "anonymous": false,
      "inputs": [
        {
          "indexed": true,
          "internalType": "address",
          "name": "user",
          "type": "address"
        },
        {
          "indexed": true,
          "internalType": "address",
          "name": "batchNo",
          "type": "address"
        }
      ],
      "name": "CompleteDistributor",
      "type": "event"
    },
    {
      "anonymous": false,
      "inputs": [
        {
          "indexed": true,
          "internalType": "address",
          "name": "user",
          "type": "address"
        },
        {
          "indexed": true,
          "internalType": "address",
          "name": "batchNo",
          "type": "address"
        }
      ],
      "name": "CompleteVaccinatePerson",
      "type": "event"
    },
    {
      "anonymous": false,
      "inputs": [
        {
          "indexed": true,
          "internalType": "address",
          "name": "user",
          "type": "address"
        },
        {
          "indexed": true,
          "internalType": "address",
          "name": "batchNo",
          "type": "address"
        }
      ],
      "name": "CompleteVaccinationStation",
      "type": "event"
    },
    {
      "anonymous": false,
      "inputs": [
        {
          "indexed": true,
          "internalType": "address",
          "name": "user",
          "type": "address"
        },
        {
          "indexed": true,
          "internalType": "address",
          "name": "batchNo",
          "type": "address"
        }
      ],
      "name": "CompleteWarehouser",
      "type": "event"
    },
    {
      "anonymous": false,
      "inputs": [
        {
          "indexed": true,
          "internalType": "address",
          "name": "previousOwner",
          "type": "address"
        }
      ],
      "name": "OwnershipRenounced",
      "type": "event"
    },
    {
      "anonymous": false,
      "inputs": [
        {
          "indexed": true,
          "internalType": "address",
          "name": "previousOwner",
          "type": "address"
        },
        {
          "indexed": true,
          "internalType": "address",
          "name": "newOwner",
          "type": "address"
        }
      ],
      "name": "OwnershipTransferred",
      "type": "event"
    },
    {
      "inputs": [],
      "name": "owner",
      "outputs": [
        {
          "internalType": "address",
          "name": "",
          "type": "address"
        }
      ],
      "stateMutability": "view",
      "type": "function",
      "constant": true
    },
    {
      "inputs": [],
      "name": "renounceOwnership",
      "outputs": [],
      "stateMutability": "nonpayable",
      "type": "function"
    },
    {
      "inputs": [
        {
          "internalType": "address",
          "name": "newOwner",
          "type": "address"
        }
      ],
      "name": "transferOwnership",
      "outputs": [],
      "stateMutability": "nonpayable",
      "type": "function"
    },
    {
      "inputs": [],
      "name": "getBalance",
      "outputs": [
        {
          "internalType": "uint256",
          "name": "",
          "type": "uint256"
        }
      ],
      "stateMutability": "view",
      "type": "function",
      "constant": true
    },
    {
      "inputs": [
        {
          "internalType": "address",
          "name": "_batchNo",
          "type": "address"
        }
      ],
      "name": "getNextAction",
      "outputs": [
        {
          "internalType": "string",
          "name": "action",
          "type": "string"
        }
      ],
      "stateMutability": "view",
      "type": "function",
      "constant": true
    },
    {
      "inputs": [
        {
          "internalType": "address",
          "name": "_batchNo",
          "type": "address"
        }
      ],
      "name": "getBasicDetailsData",
      "outputs": [
        {
          "internalType": "string",
          "name": "producerName",
          "type": "string"
        },
        {
          "internalType": "string",
          "name": "storageName",
          "type": "string"
        },
        {
          "internalType": "string",
          "name": "distributorName",
          "type": "string"
        },
        {
          "internalType": "string",
          "name": "vaccinationStationName",
          "type": "string"
        },
        {
          "internalType": "uint256",
          "name": "quantity",
          "type": "uint256"
        },
        {
          "internalType": "string",
          "name": "optimumRangeTemp",
          "type": "string"
        },
        {
          "internalType": "string",
          "name": "optimumRangeHum",
          "type": "string"
        }
      ],
      "stateMutability": "view",
      "type": "function",
      "constant": true
    },
    {
      "inputs": [
        {
          "internalType": "string",
          "name": "_producerName",
          "type": "string"
        },
        {
          "internalType": "string",
          "name": "_storageName",
          "type": "string"
        },
        {
          "internalType": "string",
          "name": "_distributorName",
          "type": "string"
        },
        {
          "internalType": "string",
          "name": "_vaccinationStationName",
          "type": "string"
        },
        {
          "internalType": "uint256",
          "name": "_quantity",
          "type": "uint256"
        },
        {
          "internalType": "string",
          "name": "_optimumRangeTemp",
          "type": "string"
        },
        {
          "internalType": "string",
          "name": "_optimumRangeHum",
          "type": "string"
        }
      ],
      "name": "addBasicDetails",
      "outputs": [
        {
          "internalType": "address",
          "name": "",
          "type": "address"
        }
      ],
      "stateMutability": "nonpayable",
      "type": "function"
    },
    {
      "inputs": [
        {
          "internalType": "address",
          "name": "_batchNo",
          "type": "address"
        }
      ],
      "name": "getWarehouserData",
      "outputs": [
        {
          "internalType": "string",
          "name": "vaccineName",
          "type": "string"
        },
        {
          "internalType": "uint256",
          "name": "quantity",
          "type": "uint256"
        },
        {
          "internalType": "uint256",
          "name": "price",
          "type": "uint256"
        },
        {
          "internalType": "uint256",
          "name": "storageDate",
          "type": "uint256"
        },
        {
          "internalType": "string",
          "name": "optimumRangeTemp",
          "type": "string"
        },
        {
          "internalType": "string",
          "name": "optimumRangeHum",
          "type": "string"
        },
        {
          "internalType": "bool",
          "name": "isViolation",
          "type": "bool"
        },
        {
          "internalType": "string",
          "name": "locationAddress",
          "type": "string"
        }
      ],
      "stateMutability": "view",
      "type": "function",
      "constant": true
    },
    {
      "inputs": [
        {
          "internalType": "address",
          "name": "_batchNo",
          "type": "address"
        },
        {
          "internalType": "string",
          "name": "_vaccineName",
          "type": "string"
        },
        {
          "internalType": "uint256",
          "name": "_quantity",
          "type": "uint256"
        },
        {
          "internalType": "uint256",
          "name": "_price",
          "type": "uint256"
        },
        {
          "internalType": "uint256",
          "name": "_storageDate",
          "type": "uint256"
        },
        {
          "internalType": "string",
          "name": "_optimumRangeTemp",
          "type": "string"
        },
        {
          "internalType": "string",
          "name": "_optimumRangeHum",
          "type": "string"
        },
        {
          "internalType": "bool",
          "name": "_isViolation",
          "type": "bool"
        },
        {
          "internalType": "string",
          "name": "_locationAddress",
          "type": "string"
        }
      ],
      "name": "updateWarehouser",
      "outputs": [
        {
          "internalType": "bool",
          "name": "",
          "type": "bool"
        }
      ],
      "stateMutability": "nonpayable",
      "type": "function"
    },
    {
      "inputs": [
        {
          "internalType": "address",
          "name": "_batchNo",
          "type": "address"
        }
      ],
      "name": "getDistributorData",
      "outputs": [
        {
          "internalType": "string",
          "name": "destinationAddress",
          "type": "string"
        },
        {
          "internalType": "string",
          "name": "shippingName",
          "type": "string"
        },
        {
          "internalType": "uint256",
          "name": "quantity",
          "type": "uint256"
        },
        {
          "internalType": "uint256",
          "name": "departureDateTime",
          "type": "uint256"
        },
        {
          "internalType": "uint256",
          "name": "estimateDateTime",
          "type": "uint256"
        },
        {
          "internalType": "string",
          "name": "optimumRangeTemp",
          "type": "string"
        },
        {
          "internalType": "string",
          "name": "optimumRangeHum",
          "type": "string"
        },
        {
          "internalType": "bool",
          "name": "isViolation",
          "type": "bool"
        }
      ],
      "stateMutability": "view",
      "type": "function",
      "constant": true
    },
    {
      "inputs": [
        {
          "internalType": "address",
          "name": "_batchNo",
          "type": "address"
        },
        {
          "internalType": "string",
          "name": "_destinationAddress",
          "type": "string"
        },
        {
          "internalType": "string",
          "name": "_shippingName",
          "type": "string"
        },
        {
          "internalType": "uint256",
          "name": "_quantity",
          "type": "uint256"
        },
        {
          "internalType": "uint256",
          "name": "_departureDateTime",
          "type": "uint256"
        },
        {
          "internalType": "uint256",
          "name": "_estimateDateTime",
          "type": "uint256"
        },
        {
          "internalType": "string",
          "name": "_optimumRangeTemp",
          "type": "string"
        },
        {
          "internalType": "string",
          "name": "_optimumRangeHum",
          "type": "string"
        }
      ],
      "name": "updateDistributorData",
      "outputs": [
        {
          "internalType": "bool",
          "name": "",
          "type": "bool"
        }
      ],
      "stateMutability": "nonpayable",
      "type": "function"
    },
    {
      "inputs": [
        {
          "internalType": "address",
          "name": "_batchNo",
          "type": "address"
        }
      ],
      "name": "getVaccinationStation",
      "outputs": [
        {
          "internalType": "uint256",
          "name": "quantity",
          "type": "uint256"
        },
        {
          "internalType": "uint256",
          "name": "arrivalDateTime",
          "type": "uint256"
        },
        {
          "internalType": "uint256",
          "name": "vaccinationStationId",
          "type": "uint256"
        },
        {
          "internalType": "string",
          "name": "shippingName",
          "type": "string"
        },
        {
          "internalType": "string",
          "name": "shippingNo",
          "type": "string"
        },
        {
          "internalType": "string",
          "name": "locationAddress",
          "type": "string"
        }
      ],
      "stateMutability": "view",
      "type": "function",
      "constant": true
    },
    {
      "inputs": [
        {
          "internalType": "address",
          "name": "_batchNo",
          "type": "address"
        },
        {
          "internalType": "uint256",
          "name": "_quantity",
          "type": "uint256"
        },
        {
          "internalType": "uint256",
          "name": "_arrivalDateTime",
          "type": "uint256"
        },
        {
          "internalType": "uint256",
          "name": "_vaccinationStationId",
          "type": "uint256"
        },
        {
          "internalType": "string",
          "name": "_shippingName",
          "type": "string"
        },
        {
          "internalType": "string",
          "name": "_shippingNo",
          "type": "string"
        },
        {
          "internalType": "string",
          "name": "_locationAddress",
          "type": "string"
        }
      ],
      "name": "updateVaccinationStation",
      "outputs": [
        {
          "internalType": "bool",
          "name": "",
          "type": "bool"
        }
      ],
      "stateMutability": "nonpayable",
      "type": "function"
    },
    {
      "inputs": [
        {
          "internalType": "address",
          "name": "_batchNo",
          "type": "address"
        }
      ],
      "name": "getVaccinateData",
      "outputs": [
        {
          "internalType": "string",
          "name": "personName",
          "type": "string"
        },
        {
          "internalType": "uint256",
          "name": "age",
          "type": "uint256"
        },
        {
          "internalType": "uint256",
          "name": "identityCard",
          "type": "uint256"
        },
        {
          "internalType": "uint256",
          "name": "numberOfVaccinations",
          "type": "uint256"
        },
        {
          "internalType": "uint256",
          "name": "vaccinationDate",
          "type": "uint256"
        },
        {
          "internalType": "string",
          "name": "typeOfVaccine",
          "type": "string"
        },
        {
          "internalType": "string",
          "name": "phoneNumber",
          "type": "string"
        }
      ],
      "stateMutability": "view",
      "type": "function",
      "constant": true
    },
    {
      "inputs": [
        {
          "internalType": "address",
          "name": "_batchNo",
          "type": "address"
        },
        {
          "internalType": "string",
          "name": "_personName",
          "type": "string"
        },
        {
          "internalType": "uint256",
          "name": "_age",
          "type": "uint256"
        },
        {
          "internalType": "uint256",
          "name": "_identityCard",
          "type": "uint256"
        },
        {
          "internalType": "uint256",
          "name": "_numberOfVaccinations",
          "type": "uint256"
        },
        {
          "internalType": "uint256",
          "name": "_vaccinationDate",
          "type": "uint256"
        },
        {
          "internalType": "string",
          "name": "_typeOfVaccine",
          "type": "string"
        },
        {
          "internalType": "string",
          "name": "_phoneNumber",
          "type": "string"
        }
      ],
      "name": "updateVaccinatePerson",
      "outputs": [
        {
          "internalType": "bool",
          "name": "",
          "type": "bool"
        }
      ],
      "stateMutability": "nonpayable",
      "type": "function"
    }
  ],
  "bytecode": "0x608060405234801561001057600080fd5b50604051620021623803806200216283398101604081905261003191610064565b60008054336001600160a01b031991821617909155600180549091166001600160a01b0392909216919091179055610094565b60006020828403121561007657600080fd5b81516001600160a01b038116811461008d57600080fd5b9392505050565b6120be80620000a46000396000f3fe608060405234801561001057600080fd5b50600436106100f55760003560e01c80634d6b5e0011610097578063b8fbbc3711610066578063b8fbbc3714610245578063c09782cb1461026a578063dd25206f1461027d578063f2fde38b1461029057600080fd5b80634d6b5e00146101dd578063715018a6146101fd5780638392e2a5146102075780638da5cb5b1461021a57600080fd5b806323d1cc8a116100d357806323d1cc8a1461015a57806329c62de3146101815780632cfd3739146101a757806346eb8a13146101ca57600080fd5b806312065fe0146100fa578063161d5c1b1461010d5780632159dffa14610134575b600080fd5b6040514781526020015b60405180910390f35b61012061011b3660046113c6565b6102a3565b604051610104989796959493929190611e4a565b6101476101423660046113c6565b610354565b6040516101049796959493929190611de3565b61016d6101683660046113c6565b6103fa565b604051610104989796959493929190611ec4565b61019461018f3660046113c6565b61048c565b6040516101049796959493929190611f2e565b6101ba6101b53660046115ce565b61051b565b6040519015158152602001610104565b6101ba6101d836600461164f565b6106f6565b6101f06101eb3660046113c6565b6109ab565b6040516101049190611dd0565b610205610a32565b005b6101ba6102153660046114e2565b610a91565b60005461022d906001600160a01b031681565b6040516001600160a01b039091168152602001610104565b6102586102533660046113c6565b610d55565b60405161010496959493929190611f6b565b6101ba610278366004611407565b610df8565b61022d61028b366004611759565b6110a8565b61020561029e3660046113c6565b611278565b60015460405163161d5c1b60e01b81526001600160a01b03838116600483015260609283926000928392839286928392859291169063161d5c1b9060240160006040518083038186803b1580156102f957600080fd5b505afa15801561030d573d6000803e3d6000fd5b505050506040513d6000823e601f3d908101601f19168201604052610335919081019061190c565b969e50949c50929a509098509650945092509050919395975091939597565b60015460405163794cbebb60e11b81526001600160a01b03838116600483015260609283928392839260009284928392169063f2997d769060240160006040518083038186803b1580156103a757600080fd5b505afa1580156103bb573d6000803e3d6000fd5b505050506040513d6000823e601f3d908101601f191682016040526103e3919081019061181b565b959e949d50929b5090995097509550909350915050565b6001546040516311e8e64560e11b81526001600160a01b0383811660048301526060926000928392839286928392859284929116906323d1cc8a9060240160006040518083038186803b15801561045057600080fd5b505afa158015610464573d6000803e3d6000fd5b505050506040513d6000823e601f3d908101601f1916820160405261033591908101906119e7565b60015460405163de29e42160e01b81526001600160a01b03838116600483015260609260009283928392839287928392169063de29e4219060240160006040518083038186803b1580156104df57600080fd5b505afa1580156104f3573d6000803e3d6000fd5b505050506040513d6000823e601f3d908101601f191682016040526103e39190810190611ab2565b60006040518060400160405280601081526020016f27a12522a1aa2fa4a72522a1aa24a7a760811b815250806040516020016105579190611bf3565b60408051808303601f19018152908290528051602090910120600154632782085160e01b835233600484015290916001600160a01b039091169063278208519060240160006040518083038186803b1580156105b257600080fd5b505afa1580156105c6573d6000803e3d6000fd5b505050506040513d6000823e601f3d908101601f191682016040526105ee9190810190611724565b6040516020016105fe9190611bf3565b604051602081830303815290604052805190602001201461061e57600080fd5b600154604051631faa332b60e01b81526000916001600160a01b031690631faa332b9061065d908e908e908e908e908e908e908e908e90600401611d19565b602060405180830381600087803b15801561067757600080fd5b505af115801561068b573d6000803e3d6000fd5b505050506040513d601f19601f820116820180604052508101906106af9190611707565b6040519091506001600160a01b038c169033907f99e8a31c7f3cd6afd636531c2a23b9fe61514da05f1307d746f9ffa62b03221790600090a39a9950505050505050505050565b600087604051806040016040528060138152602001722b20a1a1a4a720aa24a7a72fa9aa20aa24a7a760691b815250806040516020016107369190611bf3565b60408051808303601f19018152908290528051602090910120600154632782085160e01b835233600484015290916001600160a01b039091169063278208519060240160006040518083038186803b15801561079157600080fd5b505afa1580156107a5573d6000803e3d6000fd5b505050506040513d6000823e601f3d908101601f191682016040526107cd9190810190611724565b6040516020016107dd9190611bf3565b60405160208183030381529060405280519060200120146107fd57600080fd5b8060405160200161080e9190611bf3565b60408051808303601f190181529082905280516020909101206001546226b5af60e91b83526001600160a01b0385811660048501529192911690634d6b5e009060240160006040518083038186803b15801561086957600080fd5b505afa15801561087d573d6000803e3d6000fd5b505050506040513d6000823e601f3d908101601f191682016040526108a59190810190611724565b6040516020016108b59190611bf3565b60405160208183030381529060405280519060200120146108d557600080fd5b600154604051630e4cf57d60e11b81526000916001600160a01b031690631c99eafa90610912908e908e908e908e908e908e908e90600401611d68565b602060405180830381600087803b15801561092c57600080fd5b505af1158015610940573d6000803e3d6000fd5b505050506040513d601f19601f820116820180604052508101906109649190611707565b6040519091506001600160a01b038c169033907f5f6b507fa5444f53ba18e6da7561c594402b8ca43dfe8dab3fab501dae30f15790600090a39a9950505050505050505050565b6001546040516226b5af60e91b81526001600160a01b0383811660048301526060921690634d6b5e009060240160006040518083038186803b1580156109f057600080fd5b505afa158015610a04573d6000803e3d6000fd5b505050506040513d6000823e601f3d908101601f19168201604052610a2c9190810190611724565b92915050565b6000546001600160a01b03163314610a4957600080fd5b600080546040516001600160a01b03909116917ff8df31144d9c2f0f6b59d69b8b98abd5459d07f2742c4df920b25aae33c6482091a2600080546001600160a01b0319169055565b6000896040518060400160405280600a8152602001692ba0a922a427aaa9a2a960b11b81525080604051602001610ac89190611bf3565b60408051808303601f19018152908290528051602090910120600154632782085160e01b835233600484015290916001600160a01b039091169063278208519060240160006040518083038186803b158015610b2357600080fd5b505afa158015610b37573d6000803e3d6000fd5b505050506040513d6000823e601f3d908101601f19168201604052610b5f9190810190611724565b604051602001610b6f9190611bf3565b6040516020818303038152906040528051906020012014610b8f57600080fd5b80604051602001610ba09190611bf3565b60408051808303601f190181529082905280516020909101206001546226b5af60e91b83526001600160a01b0385811660048501529192911690634d6b5e009060240160006040518083038186803b158015610bfb57600080fd5b505afa158015610c0f573d6000803e3d6000fd5b505050506040513d6000823e601f3d908101601f19168201604052610c379190810190611724565b604051602001610c479190611bf3565b6040516020818303038152906040528051906020012014610c6757600080fd5b6000600160009054906101000a90046001600160a01b03166001600160a01b03166327a6eaa38e8e8e8e8e8e8e8e8e6040518a63ffffffff1660e01b8152600401610cba99989796959493929190611c8f565b602060405180830381600087803b158015610cd457600080fd5b505af1158015610ce8573d6000803e3d6000fd5b505050506040513d601f19601f82011682018060405250810190610d0c9190611707565b6040519091506001600160a01b038e169033907f180cdb24bb44378642a35eab010c770c833cf19674dd4e0efafb99b5ea22ed6b90600090a39c9b505050505050505050505050565b600154604051633cb8f52160e11b81526001600160a01b038381166004830152600092839283926060928392839290911690637971ea429060240160006040518083038186803b158015610da857600080fd5b505afa158015610dbc573d6000803e3d6000fd5b505050506040513d6000823e601f3d908101601f19168201604052610de49190810190611b23565b949c939b5091995097509550909350915050565b6000886040518060400160405280600b81526020016a2224a9aa2924a12aaa27a960a91b81525080604051602001610e309190611bf3565b60408051808303601f19018152908290528051602090910120600154632782085160e01b835233600484015290916001600160a01b039091169063278208519060240160006040518083038186803b158015610e8b57600080fd5b505afa158015610e9f573d6000803e3d6000fd5b505050506040513d6000823e601f3d908101601f19168201604052610ec79190810190611724565b604051602001610ed79190611bf3565b6040516020818303038152906040528051906020012014610ef757600080fd5b80604051602001610f089190611bf3565b60408051808303601f190181529082905280516020909101206001546226b5af60e91b83526001600160a01b0385811660048501529192911690634d6b5e009060240160006040518083038186803b158015610f6357600080fd5b505afa158015610f77573d6000803e3d6000fd5b505050506040513d6000823e601f3d908101601f19168201604052610f9f9190810190611724565b604051602001610faf9190611bf3565b6040516020818303038152906040528051906020012014610fcf57600080fd5b6001546040516316873a4760e31b81526000916001600160a01b03169063b439d2389061100e908f908f908f908f908f908f908f908f90600401611c0f565b602060405180830381600087803b15801561102857600080fd5b505af115801561103c573d6000803e3d6000fd5b505050506040513d601f19601f820116820180604052508101906110609190611707565b6040519091506001600160a01b038d169033907febf746471ae1c228971b077b22e020787d4f8653a4a9a971c001830f7328ba2490600090a39b9a5050505050505050505050565b600060405180604001604052806008815260200167282927a22aa1a2a960c11b815250806040516020016110dc9190611bf3565b60408051808303601f19018152908290528051602090910120600154632782085160e01b835233600484015290916001600160a01b039091169063278208519060240160006040518083038186803b15801561113757600080fd5b505afa15801561114b573d6000803e3d6000fd5b505050506040513d6000823e601f3d908101601f191682016040526111739190810190611724565b6040516020016111839190611bf3565b60405160208183030381529060405280519060200120146111a357600080fd5b600154604051635703dc2d60e01b81526000916001600160a01b031690635703dc2d906111e0908d908d908d908d908d908d908d90600401611de3565b602060405180830381600087803b1580156111fa57600080fd5b505af115801561120e573d6000803e3d6000fd5b505050506040513d601f19601f8201168201806040525081019061123291906113ea565b6040519091506001600160a01b0382169033907f537f22db2b3b13a2af924ad1a2cfb5666cfa48ee6892c71849737fd108ce674a90600090a39998505050505050505050565b6000546001600160a01b0316331461128f57600080fd5b6001600160a01b0381166112a257600080fd5b600080546040516001600160a01b03808516939216917f8be0079c531659141344cd1fd0a4f28419497f9722a3daafe3b4186f6b6457e091a3600080546001600160a01b0319166001600160a01b0392909216919091179055565b803561130881612062565b919050565b80356113088161207a565b80516113088161207a565b600082601f83011261133457600080fd5b813561134761134282611ff4565b611fc3565b81815284602083860101111561135c57600080fd5b816020850160208301376000918101602001919091529392505050565b600082601f83011261138a57600080fd5b815161139861134282611ff4565b8181528460208386010111156113ad57600080fd5b6113be82602083016020870161201c565b949350505050565b6000602082840312156113d857600080fd5b81356113e381612062565b9392505050565b6000602082840312156113fc57600080fd5b81516113e381612062565b600080600080600080600080610100898b03121561142457600080fd5b61142d896112fd565b9750602089013567ffffffffffffffff8082111561144a57600080fd5b6114568c838d01611323565b985060408b013591508082111561146c57600080fd5b6114788c838d01611323565b975060608b0135965060808b0135955060a08b0135945060c08b01359150808211156114a357600080fd5b6114af8c838d01611323565b935060e08b01359150808211156114c557600080fd5b506114d28b828c01611323565b9150509295985092959890939650565b60008060008060008060008060006101208a8c03121561150157600080fd5b61150a8a6112fd565b985060208a013567ffffffffffffffff8082111561152757600080fd5b6115338d838e01611323565b995060408c0135985060608c0135975060808c0135965060a08c013591508082111561155e57600080fd5b61156a8d838e01611323565b955060c08c013591508082111561158057600080fd5b61158c8d838e01611323565b945061159a60e08d0161130d565b93506101008c01359150808211156115b157600080fd5b506115be8c828d01611323565b9150509295985092959850929598565b600080600080600080600080610100898b0312156115eb57600080fd5b6115f4896112fd565b9750602089013567ffffffffffffffff8082111561161157600080fd5b61161d8c838d01611323565b985060408b0135975060608b0135965060808b0135955060a08b0135945060c08b01359150808211156114a357600080fd5b600080600080600080600060e0888a03121561166a57600080fd5b873561167581612062565b9650602088013595506040880135945060608801359350608088013567ffffffffffffffff808211156116a757600080fd5b6116b38b838c01611323565b945060a08a01359150808211156116c957600080fd5b6116d58b838c01611323565b935060c08a01359150808211156116eb57600080fd5b506116f88a828b01611323565b91505092959891949750929550565b60006020828403121561171957600080fd5b81516113e38161207a565b60006020828403121561173657600080fd5b815167ffffffffffffffff81111561174d57600080fd5b6113be84828501611379565b600080600080600080600060e0888a03121561177457600080fd5b873567ffffffffffffffff8082111561178c57600080fd5b6117988b838c01611323565b985060208a01359150808211156117ae57600080fd5b6117ba8b838c01611323565b975060408a01359150808211156117d057600080fd5b6117dc8b838c01611323565b965060608a01359150808211156117f257600080fd5b6117fe8b838c01611323565b955060808a0135945060a08a01359150808211156116c957600080fd5b600080600080600080600060e0888a03121561183657600080fd5b875167ffffffffffffffff8082111561184e57600080fd5b61185a8b838c01611379565b985060208a015191508082111561187057600080fd5b61187c8b838c01611379565b975060408a015191508082111561189257600080fd5b61189e8b838c01611379565b965060608a01519150808211156118b457600080fd5b6118c08b838c01611379565b955060808a0151945060a08a01519150808211156118dd57600080fd5b6118e98b838c01611379565b935060c08a01519150808211156118ff57600080fd5b506116f88a828b01611379565b600080600080600080600080610100898b03121561192957600080fd5b885167ffffffffffffffff8082111561194157600080fd5b61194d8c838d01611379565b995060208b015191508082111561196357600080fd5b61196f8c838d01611379565b985060408b0151975060608b0151965060808b0151955060a08b015191508082111561199a57600080fd5b6119a68c838d01611379565b945060c08b01519150808211156119bc57600080fd5b506119c98b828c01611379565b9250506119d860e08a01611318565b90509295985092959890939650565b600080600080600080600080610100898b031215611a0457600080fd5b885167ffffffffffffffff80821115611a1c57600080fd5b611a288c838d01611379565b995060208b0151985060408b0151975060608b0151965060808b0151915080821115611a5357600080fd5b611a5f8c838d01611379565b955060a08b0151915080821115611a7557600080fd5b611a818c838d01611379565b9450611a8f60c08c01611318565b935060e08b0151915080821115611aa557600080fd5b506114d28b828c01611379565b600080600080600080600060e0888a031215611acd57600080fd5b875167ffffffffffffffff80821115611ae557600080fd5b611af18b838c01611379565b985060208a0151975060408a0151965060608a0151955060808a0151945060a08a01519150808211156118dd57600080fd5b60008060008060008060c08789031215611b3c57600080fd5b865195506020870151945060408701519350606087015167ffffffffffffffff80821115611b6957600080fd5b611b758a838b01611379565b94506080890151915080821115611b8b57600080fd5b611b978a838b01611379565b935060a0890151915080821115611bad57600080fd5b50611bba89828a01611379565b9150509295509295509295565b60008151808452611bdf81602086016020860161201c565b601f01601f19169290920160200192915050565b60008251611c0581846020870161201c565b9190910192915050565b60006101006001600160a01b038b168352806020840152611c328184018b611bc7565b90508281036040840152611c46818a611bc7565b90508760608401528660808401528560a084015282810360c0840152611c6c8186611bc7565b905082810360e0840152611c808185611bc7565b9b9a5050505050505050505050565b60006101206001600160a01b038c168352806020840152611cb28184018c611bc7565b905089604084015288606084015287608084015282810360a0840152611cd88188611bc7565b905082810360c0840152611cec8187611bc7565b905084151560e0840152828103610100840152611d098185611bc7565b9c9b505050505050505050505050565b60006101006001600160a01b038b168352806020840152611d3c8184018b611bc7565b90508860408401528760608401528660808401528560a084015282810360c0840152611c6c8186611bc7565b6001600160a01b038816815286602082015285604082015284606082015260e060808201526000611d9c60e0830186611bc7565b82810360a0840152611dae8186611bc7565b905082810360c0840152611dc28185611bc7565b9a9950505050505050505050565b6020815260006113e36020830184611bc7565b60e081526000611df660e083018a611bc7565b8281036020840152611e08818a611bc7565b90508281036040840152611e1c8189611bc7565b90508281036060840152611e308188611bc7565b905085608084015282810360a0840152611dae8186611bc7565b6000610100808352611e5e8184018c611bc7565b90508281036020840152611e72818b611bc7565b905088604084015287606084015286608084015282810360a0840152611e988187611bc7565b905082810360c0840152611eac8186611bc7565b91505082151560e08301529998505050505050505050565b6000610100808352611ed88184018c611bc7565b90508960208401528860408401528760608401528281036080840152611efe8188611bc7565b905082810360a0840152611f128187611bc7565b905084151560c084015282810360e0840152611c808185611bc7565b60e081526000611f4160e083018a611bc7565b88602084015287604084015286606084015285608084015282810360a0840152611dae8186611bc7565b86815285602082015284604082015260c060608201526000611f9060c0830186611bc7565b8281036080840152611fa28186611bc7565b905082810360a0840152611fb68185611bc7565b9998505050505050505050565b604051601f8201601f1916810167ffffffffffffffff81118282101715611fec57611fec61204c565b604052919050565b600067ffffffffffffffff82111561200e5761200e61204c565b50601f01601f191660200190565b60005b8381101561203757818101518382015260200161201f565b83811115612046576000848401525b50505050565b634e487b7160e01b600052604160045260246000fd5b6001600160a01b038116811461207757600080fd5b50565b801515811461207757600080fdfea26469706673582212204c3c9f242e8beba383e94fa011e0b1658769d03c4fd5eb6a9d9558518e32caa764736f6c63430008070033",
  "immutableReferences": {},
  "source": "// SPDX-License-Identifier: MIT\r\npragma solidity ^0.8.7;\r\nimport \"./VaccineSystemStorage.sol\";\r\nimport \"./Ownable.sol\";\r\n\r\ncontract VaccineSupplyChain is Ownable {\r\n    event CompleteBasicDetail(address indexed user, address indexed batchNo);\r\n    event CompleteWarehouser(address indexed user, address indexed batchNo);\r\n    event CompleteDistributor(address indexed user, address indexed batchNo);\r\n    event CompleteVaccinationStation(\r\n        address indexed user,\r\n        address indexed batchNo\r\n    );\r\n    event CompleteVaccinatePerson(\r\n        address indexed user,\r\n        address indexed batchNo\r\n    );\r\n\r\n    /* Declare Modifier */\r\n    modifier isValidPerformer(address batchNo, string memory role) {\r\n        require(\r\n            keccak256(\r\n                abi.encodePacked(vaccineSystemStorage.getUserRole(msg.sender))\r\n            ) == keccak256(abi.encodePacked(role))\r\n        );\r\n        require(\r\n            keccak256(\r\n                abi.encodePacked(vaccineSystemStorage.getNextAction(batchNo))\r\n            ) == keccak256(abi.encodePacked(role))\r\n        );\r\n        _;\r\n    }\r\n\r\n    modifier onlyProducer(string memory role) {\r\n        require(\r\n            keccak256(\r\n                abi.encodePacked(vaccineSystemStorage.getUserRole(msg.sender))\r\n            ) == keccak256(abi.encodePacked(role))\r\n        );\r\n        _;\r\n    }\r\n\r\n    modifier onlyObjectInjection(string memory role) {\r\n        require(\r\n            keccak256(\r\n                abi.encodePacked(vaccineSystemStorage.getUserRole(msg.sender))\r\n            ) == keccak256(abi.encodePacked(role))\r\n        );\r\n        _;\r\n    }\r\n\r\n    /* Storage Variables */\r\n    VaccineSystemStorage vaccineSystemStorage;\r\n\r\n    constructor(address _vaccineSystemAddress) public {\r\n        vaccineSystemStorage = VaccineSystemStorage(_vaccineSystemAddress);\r\n    }\r\n\r\n    function getBalance() public view returns (uint256) {\r\n        return (address(this).balance);\r\n    }\r\n\r\n    /* Get Next Action */\r\n\r\n    function getNextAction(address _batchNo)\r\n        public\r\n        view\r\n        returns (string memory action)\r\n    {\r\n        (action) = vaccineSystemStorage.getNextAction(_batchNo);\r\n        return (action);\r\n    }\r\n\r\n    /* Get Basic Details */\r\n    function getBasicDetailsData(address _batchNo)\r\n        public\r\n        view\r\n        returns (\r\n            string memory producerName,\r\n            string memory storageName,\r\n            string memory distributorName,\r\n            string memory vaccinationStationName,\r\n            uint256 quantity,\r\n            string memory optimumRangeTemp,\r\n            string memory optimumRangeHum\r\n        )\r\n    {\r\n        /* Call Storage Contract */\r\n        (\r\n            producerName,\r\n            storageName,\r\n            distributorName,\r\n            vaccinationStationName,\r\n            quantity,\r\n            optimumRangeTemp,\r\n            optimumRangeHum\r\n        ) = vaccineSystemStorage.getBasicDetails(_batchNo);\r\n        return (\r\n            producerName,\r\n            storageName,\r\n            distributorName,\r\n            vaccinationStationName,\r\n            quantity,\r\n            optimumRangeTemp,\r\n            optimumRangeHum\r\n        );\r\n    }\r\n\r\n    /* Add Basic Details */\r\n    function addBasicDetails(\r\n        string memory _producerName,\r\n        string memory _storageName,\r\n        string memory _distributorName,\r\n        string memory _vaccinationStationName,\r\n        uint256 _quantity,\r\n        string memory _optimumRangeTemp,\r\n        string memory _optimumRangeHum\r\n    ) public onlyProducer(\"PRODUCER\") returns (address) {\r\n        address batchNo = vaccineSystemStorage.setBasicDetails(\r\n            _producerName,\r\n            _storageName,\r\n            _distributorName,\r\n            _vaccinationStationName,\r\n            _quantity,\r\n            _optimumRangeTemp,\r\n            _optimumRangeHum\r\n        );\r\n\r\n        /* Call Emit Event */\r\n        emit CompleteBasicDetail(msg.sender, batchNo);\r\n\r\n        return batchNo;\r\n    }\r\n\r\n    /* Get Warehouser */\r\n    function getWarehouserData(address _batchNo)\r\n        public\r\n        view\r\n        returns (\r\n            string memory vaccineName,\r\n            uint256 quantity,\r\n            uint256 price,\r\n            uint256 storageDate,\r\n            string memory optimumRangeTemp,\r\n            string memory optimumRangeHum,\r\n            bool isViolation,\r\n            string memory locationAddress\r\n        )\r\n    {\r\n        /* Call Storage Contract */\r\n        (\r\n            vaccineName,\r\n            quantity,\r\n            price,\r\n            storageDate,\r\n            optimumRangeTemp,\r\n            optimumRangeHum,\r\n            isViolation,\r\n            locationAddress\r\n        ) = vaccineSystemStorage.getWarehouserData(_batchNo);\r\n        return (\r\n            vaccineName,\r\n            quantity,\r\n            price,\r\n            storageDate,\r\n            optimumRangeTemp,\r\n            optimumRangeHum,\r\n            isViolation,\r\n            locationAddress\r\n        );\r\n    }\r\n\r\n    /* Update Warehouser */\r\n    function updateWarehouser(\r\n        address _batchNo,\r\n        string memory _vaccineName,\r\n        uint256 _quantity,\r\n        uint256 _price,\r\n        uint256 _storageDate,\r\n        string memory _optimumRangeTemp,\r\n        string memory _optimumRangeHum,\r\n        bool _isViolation,\r\n        string memory _locationAddress\r\n    ) public isValidPerformer(_batchNo, \"WAREHOUSER\") returns (bool) {\r\n        bool status = vaccineSystemStorage.setWarehouser(\r\n            _batchNo,\r\n            _vaccineName,\r\n            _quantity,\r\n            _price,\r\n            _storageDate,\r\n            _optimumRangeTemp,\r\n            _optimumRangeHum,\r\n            _isViolation,\r\n            _locationAddress\r\n        );\r\n\r\n        emit CompleteWarehouser(msg.sender, _batchNo);\r\n        return (status);\r\n    }\r\n\r\n    /* Get Distributor */\r\n    function getDistributorData(address _batchNo)\r\n        public\r\n        view\r\n        returns (\r\n            string memory destinationAddress,\r\n            string memory shippingName,\r\n            uint256 quantity,\r\n            uint256 departureDateTime,\r\n            uint256 estimateDateTime,\r\n            string memory optimumRangeTemp,\r\n            string memory optimumRangeHum,\r\n            bool isViolation\r\n        )\r\n    {\r\n        /* Call Storage Contract */\r\n        (\r\n            destinationAddress,\r\n            shippingName,\r\n            quantity,\r\n            departureDateTime,\r\n            estimateDateTime,\r\n            optimumRangeTemp,\r\n            optimumRangeHum,\r\n            isViolation\r\n        ) = vaccineSystemStorage.getDistributorData(_batchNo);\r\n        return (\r\n            destinationAddress,\r\n            shippingName,\r\n            quantity,\r\n            departureDateTime,\r\n            estimateDateTime,\r\n            optimumRangeTemp,\r\n            optimumRangeHum,\r\n            isViolation\r\n        );\r\n    }\r\n\r\n    /* Update Distributor */\r\n    function updateDistributorData(\r\n        address _batchNo,\r\n        string memory _destinationAddress,\r\n        string memory _shippingName,\r\n        uint256 _quantity,\r\n        uint256 _departureDateTime,\r\n        uint256 _estimateDateTime,\r\n        string memory _optimumRangeTemp,\r\n        string memory _optimumRangeHum\r\n    ) public isValidPerformer(_batchNo, \"DISTRIBUTOR\") returns (bool) {\r\n        bool status = vaccineSystemStorage.setDistributor(\r\n            _batchNo,\r\n            _destinationAddress,\r\n            _shippingName,\r\n            _quantity,\r\n            _departureDateTime,\r\n            _estimateDateTime,\r\n            _optimumRangeTemp,\r\n            _optimumRangeHum\r\n        );\r\n        emit CompleteDistributor(msg.sender, _batchNo);\r\n\r\n        return (status);\r\n    }\r\n\r\n    /* Get Vaccination Station */\r\n    function getVaccinationStation(address _batchNo)\r\n        public\r\n        view\r\n        returns (\r\n            uint256 quantity,\r\n            uint256 arrivalDateTime,\r\n            uint256 vaccinationStationId,\r\n            string memory shippingName,\r\n            string memory shippingNo,\r\n            string memory locationAddress\r\n        )\r\n    {\r\n        /* Call Storage Contract */\r\n        (\r\n            quantity,\r\n            arrivalDateTime,\r\n            vaccinationStationId,\r\n            shippingName,\r\n            shippingNo,\r\n            locationAddress\r\n        ) = vaccineSystemStorage.getVaccinationStationData(_batchNo);\r\n\r\n        return (\r\n            quantity,\r\n            arrivalDateTime,\r\n            vaccinationStationId,\r\n            shippingName,\r\n            shippingNo,\r\n            locationAddress\r\n        );\r\n    }\r\n\r\n    /* Update Vaccination Station */\r\n    function updateVaccinationStation(\r\n        address _batchNo,\r\n        uint256 _quantity,\r\n        uint256 _arrivalDateTime,\r\n        uint256 _vaccinationStationId,\r\n        string memory _shippingName,\r\n        string memory _shippingNo,\r\n        string memory _locationAddress\r\n    ) public isValidPerformer(_batchNo, \"VACCINATION_STATION\") returns (bool) {\r\n        bool status = vaccineSystemStorage.setVaccinationStation(\r\n            _batchNo,\r\n            _quantity,\r\n            _arrivalDateTime,\r\n            _vaccinationStationId,\r\n            _shippingName,\r\n            _shippingNo,\r\n            _locationAddress\r\n        );\r\n\r\n        /* Emit Event */\r\n        emit CompleteVaccinationStation(msg.sender, _batchNo);\r\n        return (status);\r\n    }\r\n\r\n    /* Get Vaccinate Person Data */\r\n    function getVaccinateData(address _batchNo)\r\n        public\r\n        view\r\n        returns (\r\n            string memory personName,\r\n            uint256 age,\r\n            uint256 identityCard,\r\n            uint256 numberOfVaccinations,\r\n            uint256 vaccinationDate,\r\n            string memory typeOfVaccine,\r\n            string memory phoneNumber\r\n        )\r\n    {\r\n        /* Call Storage Contract */\r\n        (\r\n            personName,\r\n            age,\r\n            identityCard,\r\n            numberOfVaccinations,\r\n            vaccinationDate,\r\n            typeOfVaccine,\r\n            phoneNumber\r\n        ) = vaccineSystemStorage.getVaccinationPersonData(_batchNo);\r\n\r\n        return (\r\n            personName,\r\n            age,\r\n            identityCard,\r\n            numberOfVaccinations,\r\n            vaccinationDate,\r\n            typeOfVaccine,\r\n            phoneNumber\r\n        );\r\n    }\r\n\r\n    /* Update Vaccinate Person */\r\n    function updateVaccinatePerson(\r\n        address _batchNo,\r\n        string memory _personName,\r\n        uint256 _age,\r\n        uint256 _identityCard,\r\n        uint256 _numberOfVaccinations,\r\n        uint256 _vaccinationDate,\r\n        string memory _typeOfVaccine,\r\n        string memory _phoneNumber\r\n    ) public onlyObjectInjection(\"OBJECT_INJECTION\") returns (bool) {\r\n        bool status = vaccineSystemStorage.setObjectInjection(\r\n            _batchNo,\r\n            _personName,\r\n            _age,\r\n            _identityCard,\r\n            _numberOfVaccinations,\r\n            _vaccinationDate,\r\n            _typeOfVaccine,\r\n            _phoneNumber\r\n        );\r\n\r\n        /* Emit Event */\r\n        emit CompleteVaccinatePerson(msg.sender, _batchNo);\r\n        return (status);\r\n    }\r\n}\r\n",
  "sourcePath": "D:\\Learn , Research, Explore\\UIT\\Dissertation\\Source\\packages\\dissertation_smartcontract\\contracts\\VaccineSupplyChain.sol",
  "compiler": {
    "name": "solc",
    "version": "0.8.7+commit.e28d00a7.Emscripten.clang"
  },
  "schemaVersion": "3.4.3",
  "updatedAt": "2021-11-06T05:50:39.825Z",
  "networkType": "ethereum",
  "devdoc": {
    "kind": "dev",
    "methods": {
      "renounceOwnership()": {
        "details": "Allows the current owner to relinquish control of the contract."
      },
      "transferOwnership(address)": {
        "details": "Allows the current owner to transfer control of the contract to a newOwner.",
        "params": {
          "newOwner": "The address to transfer ownership to."
        }
      }
    },
    "version": 1
  },
  "userdoc": {
    "kind": "user",
    "methods": {},
    "version": 1
  }
}