{
  "contractName": "VaccineSupplyChain",
  "abi": [
    {
      "inputs": [
        {
          "internalType": "address",
          "name": "_vaccineSystemAddress",
          "type": "address"
        }
      ],
      "stateMutability": "nonpayable",
      "type": "constructor"
    },
    {
      "anonymous": false,
      "inputs": [
        {
          "indexed": true,
          "internalType": "address",
          "name": "user",
          "type": "address"
        },
        {
          "indexed": true,
          "internalType": "address",
          "name": "batchNo",
          "type": "address"
        }
      ],
      "name": "CompleteBasicDetail",
      "type": "event"
    },
    {
      "anonymous": false,
      "inputs": [
        {
          "indexed": true,
          "internalType": "address",
          "name": "user",
          "type": "address"
        },
        {
          "indexed": true,
          "internalType": "address",
          "name": "batchNo",
          "type": "address"
        }
      ],
      "name": "CompleteDistributor",
      "type": "event"
    },
    {
      "anonymous": false,
      "inputs": [
        {
          "indexed": true,
          "internalType": "address",
          "name": "user",
          "type": "address"
        },
        {
          "indexed": true,
          "internalType": "address",
          "name": "batchNo",
          "type": "address"
        }
      ],
      "name": "CompleteVaccinatePerson",
      "type": "event"
    },
    {
      "anonymous": false,
      "inputs": [
        {
          "indexed": true,
          "internalType": "address",
          "name": "user",
          "type": "address"
        },
        {
          "indexed": true,
          "internalType": "address",
          "name": "batchNo",
          "type": "address"
        }
      ],
      "name": "CompleteVaccinationStation",
      "type": "event"
    },
    {
      "anonymous": false,
      "inputs": [
        {
          "indexed": true,
          "internalType": "address",
          "name": "user",
          "type": "address"
        },
        {
          "indexed": true,
          "internalType": "address",
          "name": "batchNo",
          "type": "address"
        }
      ],
      "name": "CompleteWarehouser",
      "type": "event"
    },
    {
      "anonymous": false,
      "inputs": [
        {
          "indexed": true,
          "internalType": "address",
          "name": "previousOwner",
          "type": "address"
        }
      ],
      "name": "OwnershipRenounced",
      "type": "event"
    },
    {
      "anonymous": false,
      "inputs": [
        {
          "indexed": true,
          "internalType": "address",
          "name": "previousOwner",
          "type": "address"
        },
        {
          "indexed": true,
          "internalType": "address",
          "name": "newOwner",
          "type": "address"
        }
      ],
      "name": "OwnershipTransferred",
      "type": "event"
    },
    {
      "inputs": [],
      "name": "owner",
      "outputs": [
        {
          "internalType": "address",
          "name": "",
          "type": "address"
        }
      ],
      "stateMutability": "view",
      "type": "function",
      "constant": true
    },
    {
      "inputs": [],
      "name": "renounceOwnership",
      "outputs": [],
      "stateMutability": "nonpayable",
      "type": "function"
    },
    {
      "inputs": [
        {
          "internalType": "address",
          "name": "newOwner",
          "type": "address"
        }
      ],
      "name": "transferOwnership",
      "outputs": [],
      "stateMutability": "nonpayable",
      "type": "function"
    },
    {
      "inputs": [],
      "name": "getBalance",
      "outputs": [
        {
          "internalType": "uint256",
          "name": "",
          "type": "uint256"
        }
      ],
      "stateMutability": "nonpayable",
      "type": "function"
    },
    {
      "inputs": [
        {
          "internalType": "address",
          "name": "_batchNo",
          "type": "address"
        }
      ],
      "name": "getNextAction",
      "outputs": [
        {
          "internalType": "string",
          "name": "action",
          "type": "string"
        }
      ],
      "stateMutability": "view",
      "type": "function",
      "constant": true
    },
    {
      "inputs": [
        {
          "internalType": "address",
          "name": "_batchNo",
          "type": "address"
        }
      ],
      "name": "getBasicDetailsData",
      "outputs": [
        {
          "internalType": "string",
          "name": "producerName",
          "type": "string"
        },
        {
          "internalType": "string",
          "name": "storageName",
          "type": "string"
        },
        {
          "internalType": "string",
          "name": "distributorName",
          "type": "string"
        },
        {
          "internalType": "string",
          "name": "vaccinationStationName",
          "type": "string"
        },
        {
          "internalType": "uint256",
          "name": "totalWeight",
          "type": "uint256"
        }
      ],
      "stateMutability": "view",
      "type": "function",
      "constant": true
    },
    {
      "inputs": [
        {
          "internalType": "string",
          "name": "_producerName",
          "type": "string"
        },
        {
          "internalType": "string",
          "name": "_storageName",
          "type": "string"
        },
        {
          "internalType": "string",
          "name": "_distributorName",
          "type": "string"
        },
        {
          "internalType": "string",
          "name": "_vaccinationStationName",
          "type": "string"
        },
        {
          "internalType": "uint256",
          "name": "_totalWeight",
          "type": "uint256"
        }
      ],
      "name": "addBasicDetails",
      "outputs": [
        {
          "internalType": "address",
          "name": "",
          "type": "address"
        }
      ],
      "stateMutability": "nonpayable",
      "type": "function"
    },
    {
      "inputs": [
        {
          "internalType": "address",
          "name": "_batchNo",
          "type": "address"
        }
      ],
      "name": "getWarehouserData",
      "outputs": [
        {
          "internalType": "string",
          "name": "vaccineName",
          "type": "string"
        },
        {
          "internalType": "uint256",
          "name": "quantity",
          "type": "uint256"
        },
        {
          "internalType": "uint256",
          "name": "price",
          "type": "uint256"
        },
        {
          "internalType": "uint256",
          "name": "optimumTemp",
          "type": "uint256"
        },
        {
          "internalType": "uint256",
          "name": "optimumHum",
          "type": "uint256"
        },
        {
          "internalType": "uint256",
          "name": "storageDate",
          "type": "uint256"
        },
        {
          "internalType": "bool",
          "name": "isViolation",
          "type": "bool"
        }
      ],
      "stateMutability": "view",
      "type": "function",
      "constant": true
    },
    {
      "inputs": [
        {
          "internalType": "address",
          "name": "_batchNo",
          "type": "address"
        },
        {
          "internalType": "string",
          "name": "_vaccineName",
          "type": "string"
        },
        {
          "internalType": "uint256",
          "name": "_quantity",
          "type": "uint256"
        },
        {
          "internalType": "uint256",
          "name": "_price",
          "type": "uint256"
        },
        {
          "internalType": "uint256",
          "name": "_optimumTemp",
          "type": "uint256"
        },
        {
          "internalType": "uint256",
          "name": "_optimumHum",
          "type": "uint256"
        },
        {
          "internalType": "uint256",
          "name": "_storageDate",
          "type": "uint256"
        },
        {
          "internalType": "bool",
          "name": "_isViolation",
          "type": "bool"
        }
      ],
      "name": "updateWarehouser",
      "outputs": [
        {
          "internalType": "bool",
          "name": "",
          "type": "bool"
        }
      ],
      "stateMutability": "nonpayable",
      "type": "function"
    },
    {
      "inputs": [
        {
          "internalType": "address",
          "name": "_batchNo",
          "type": "address"
        }
      ],
      "name": "getDistributorData",
      "outputs": [
        {
          "internalType": "string",
          "name": "shippingName",
          "type": "string"
        },
        {
          "internalType": "string",
          "name": "shippingNo",
          "type": "string"
        },
        {
          "internalType": "uint256",
          "name": "quantity",
          "type": "uint256"
        },
        {
          "internalType": "uint256",
          "name": "departureDateTime",
          "type": "uint256"
        },
        {
          "internalType": "uint256",
          "name": "estimateDateTime",
          "type": "uint256"
        },
        {
          "internalType": "uint256",
          "name": "distributorId",
          "type": "uint256"
        },
        {
          "internalType": "uint256",
          "name": "optimumTemp",
          "type": "uint256"
        },
        {
          "internalType": "uint256",
          "name": "optimumHum",
          "type": "uint256"
        }
      ],
      "stateMutability": "view",
      "type": "function",
      "constant": true
    },
    {
      "inputs": [
        {
          "internalType": "address",
          "name": "_batchNo",
          "type": "address"
        },
        {
          "internalType": "string",
          "name": "_shippingName",
          "type": "string"
        },
        {
          "internalType": "string",
          "name": "_shippingNo",
          "type": "string"
        },
        {
          "internalType": "uint256",
          "name": "_quantity",
          "type": "uint256"
        },
        {
          "internalType": "uint256",
          "name": "_departureDateTime",
          "type": "uint256"
        },
        {
          "internalType": "uint256",
          "name": "_estimateDateTime",
          "type": "uint256"
        },
        {
          "internalType": "uint256",
          "name": "_distributorId",
          "type": "uint256"
        },
        {
          "internalType": "uint256",
          "name": "_optimumTemp",
          "type": "uint256"
        },
        {
          "internalType": "uint256",
          "name": "_optimumHum",
          "type": "uint256"
        }
      ],
      "name": "updateDistributorData",
      "outputs": [
        {
          "internalType": "bool",
          "name": "",
          "type": "bool"
        }
      ],
      "stateMutability": "nonpayable",
      "type": "function"
    },
    {
      "inputs": [
        {
          "internalType": "address",
          "name": "_batchNo",
          "type": "address"
        }
      ],
      "name": "getVaccinationStation",
      "outputs": [
        {
          "internalType": "uint256",
          "name": "quantity",
          "type": "uint256"
        },
        {
          "internalType": "uint256",
          "name": "arrivalDateTime",
          "type": "uint256"
        },
        {
          "internalType": "uint256",
          "name": "vaccinationStationId",
          "type": "uint256"
        },
        {
          "internalType": "string",
          "name": "shippingName",
          "type": "string"
        },
        {
          "internalType": "string",
          "name": "shippingNo",
          "type": "string"
        }
      ],
      "stateMutability": "view",
      "type": "function",
      "constant": true
    },
    {
      "inputs": [
        {
          "internalType": "address",
          "name": "_batchNo",
          "type": "address"
        },
        {
          "internalType": "uint256",
          "name": "_quantity",
          "type": "uint256"
        },
        {
          "internalType": "uint256",
          "name": "_arrivalDateTime",
          "type": "uint256"
        },
        {
          "internalType": "uint256",
          "name": "_vaccinationStationId",
          "type": "uint256"
        },
        {
          "internalType": "string",
          "name": "_shippingName",
          "type": "string"
        },
        {
          "internalType": "string",
          "name": "_shippingNo",
          "type": "string"
        }
      ],
      "name": "updateVaccinationStation",
      "outputs": [
        {
          "internalType": "bool",
          "name": "",
          "type": "bool"
        }
      ],
      "stateMutability": "nonpayable",
      "type": "function"
    },
    {
      "inputs": [
        {
          "internalType": "address",
          "name": "_batchNo",
          "type": "address"
        }
      ],
      "name": "getVaccinateData",
      "outputs": [
        {
          "internalType": "string",
          "name": "personName",
          "type": "string"
        },
        {
          "internalType": "uint256",
          "name": "age",
          "type": "uint256"
        },
        {
          "internalType": "uint256",
          "name": "identityCard",
          "type": "uint256"
        },
        {
          "internalType": "uint256",
          "name": "numberOfVaccinations",
          "type": "uint256"
        },
        {
          "internalType": "uint256",
          "name": "vaccinationDate",
          "type": "uint256"
        },
        {
          "internalType": "string",
          "name": "typeOfVaccine",
          "type": "string"
        }
      ],
      "stateMutability": "view",
      "type": "function",
      "constant": true
    },
    {
      "inputs": [
        {
          "internalType": "address",
          "name": "_batchNo",
          "type": "address"
        },
        {
          "internalType": "string",
          "name": "_personName",
          "type": "string"
        },
        {
          "internalType": "uint256",
          "name": "_age",
          "type": "uint256"
        },
        {
          "internalType": "uint256",
          "name": "_identityCard",
          "type": "uint256"
        },
        {
          "internalType": "uint256",
          "name": "_numberOfVaccinations",
          "type": "uint256"
        },
        {
          "internalType": "uint256",
          "name": "_vaccinationDate",
          "type": "uint256"
        },
        {
          "internalType": "string",
          "name": "_typeOfVaccine",
          "type": "string"
        }
      ],
      "name": "updateVaccinatePerson",
      "outputs": [
        {
          "internalType": "bool",
          "name": "",
          "type": "bool"
        }
      ],
      "stateMutability": "nonpayable",
      "type": "function"
    }
  ],
  "bytecode": "0x60806040523480156200001157600080fd5b5060405162002dbe38038062002dbe8339818101604052810190620000379190620000d6565b336000806101000a81548173ffffffffffffffffffffffffffffffffffffffff021916908373ffffffffffffffffffffffffffffffffffffffff16021790555080600160006101000a81548173ffffffffffffffffffffffffffffffffffffffff021916908373ffffffffffffffffffffffffffffffffffffffff160217905550506200015b565b600081519050620000d08162000141565b92915050565b600060208284031215620000ef57620000ee6200013c565b5b6000620000ff84828501620000bf565b91505092915050565b600062000115826200011c565b9050919050565b600073ffffffffffffffffffffffffffffffffffffffff82169050919050565b600080fd5b6200014c8162000108565b81146200015857600080fd5b50565b612c53806200016b6000396000f3fe608060405234801561001057600080fd5b50600436106100f55760003560e01c80638da5cb5b11610097578063de82f0b611610066578063de82f0b6146102da578063eaa581d61461030a578063ef59a3171461033a578063f2fde38b1461036a576100f5565b80638da5cb5b14610228578063aa6ce5d714610246578063b8fbbc3714610276578063da89e49d146102aa576100f5565b806323d1cc8a116100d357806323d1cc8a1461018357806329c62de3146101b95780634d6b5e00146101ee578063715018a61461021e576100f5565b806312065fe0146100fa578063161d5c1b146101185780632159dffa1461014f575b600080fd5b610102610386565b60405161010f91906129d0565b60405180910390f35b610132600480360381019061012d9190611ba1565b61038e565b60405161014698979695949392919061285f565b60405180910390f35b61016960048036038101906101649190611ba1565b610475565b60405161017a9594939291906127f0565b60405180910390f35b61019d60048036038101906101989190611ba1565b61054a565b6040516101b0979695949392919061295a565b60405180910390f35b6101d360048036038101906101ce9190611ba1565b61062c565b6040516101e5969594939291906128eb565b60405180910390f35b61020860048036038101906102039190611ba1565b610707565b60405161021591906127ce565b60405180910390f35b6102266107c0565b005b6102306108be565b60405161023d919061258c565b60405180910390f35b610260600480360381019061025b9190611dd7565b6108e2565b60405161026d91906127b3565b60405180910390f35b610290600480360381019061028b9190611ba1565b610c54565b6040516102a19594939291906129eb565b60405180910390f35b6102c460048036038101906102bf9190611fe4565b610d29565b6040516102d1919061258c565b60405180910390f35b6102f460048036038101906102ef9190611cfd565b610ea4565b60405161030191906127b3565b60405180910390f35b610324600480360381019061031f9190611bfb565b611213565b60405161033191906127b3565b60405180910390f35b610354600480360381019061034f9190611ea9565b611588565b60405161036191906127b3565b60405180910390f35b610384600480360381019061037f9190611ba1565b6118f4565b005b600047905090565b606080600080600080600080600160009054906101000a900473ffffffffffffffffffffffffffffffffffffffff1673ffffffffffffffffffffffffffffffffffffffff1663161d5c1b8a6040518263ffffffff1660e01b81526004016103f5919061258c565b60006040518083038186803b15801561040d57600080fd5b505afa158015610421573d6000803e3d6000fd5b505050506040513d6000823e3d601f19601f8201168201806040525081019061044a91906121ba565b809850819950829a50839b50849c50859d50869e50879f505050505050505050919395975091939597565b6060806060806000600160009054906101000a900473ffffffffffffffffffffffffffffffffffffffff1673ffffffffffffffffffffffffffffffffffffffff1663f2997d76876040518263ffffffff1660e01b81526004016104d8919061258c565b60006040518083038186803b1580156104f057600080fd5b505afa158015610504573d6000803e3d6000fd5b505050506040513d6000823e3d601f19601f8201168201806040525081019061052d91906120cf565b809550819650829750839850849950505050505091939590929450565b6060600080600080600080600160009054906101000a900473ffffffffffffffffffffffffffffffffffffffff1673ffffffffffffffffffffffffffffffffffffffff166323d1cc8a896040518263ffffffff1660e01b81526004016105b0919061258c565b60006040518083038186803b1580156105c857600080fd5b505afa1580156105dc573d6000803e3d6000fd5b505050506040513d6000823e3d601f19601f82011682018060405250810190610605919061236d565b809750819850829950839a50849b50859c50869d5050505050505050919395979092949650565b60606000806000806060600160009054906101000a900473ffffffffffffffffffffffffffffffffffffffff1673ffffffffffffffffffffffffffffffffffffffff1663de29e421886040518263ffffffff1660e01b8152600401610691919061258c565b60006040518083038186803b1580156106a957600080fd5b505afa1580156106bd573d6000803e3d6000fd5b505050506040513d6000823e3d601f19601f820116820180604052508101906106e691906122a8565b809650819750829850839950849a50859b5050505050505091939550919395565b6060600160009054906101000a900473ffffffffffffffffffffffffffffffffffffffff1673ffffffffffffffffffffffffffffffffffffffff16634d6b5e00836040518263ffffffff1660e01b8152600401610764919061258c565b60006040518083038186803b15801561077c57600080fd5b505afa158015610790573d6000803e3d6000fd5b505050506040513d6000823e3d601f19601f820116820180604052508101906107b99190611f9b565b9050919050565b60008054906101000a900473ffffffffffffffffffffffffffffffffffffffff1673ffffffffffffffffffffffffffffffffffffffff163373ffffffffffffffffffffffffffffffffffffffff161461081857600080fd5b60008054906101000a900473ffffffffffffffffffffffffffffffffffffffff1673ffffffffffffffffffffffffffffffffffffffff167ff8df31144d9c2f0f6b59d69b8b98abd5459d07f2742c4df920b25aae33c6482060405160405180910390a260008060006101000a81548173ffffffffffffffffffffffffffffffffffffffff021916908373ffffffffffffffffffffffffffffffffffffffff160217905550565b60008054906101000a900473ffffffffffffffffffffffffffffffffffffffff1681565b6000886040518060400160405280600a81526020017f57415245484f55534552000000000000000000000000000000000000000000008152508060405160200161092c9190612575565b60405160208183030381529060405280519060200120600160009054906101000a900473ffffffffffffffffffffffffffffffffffffffff1673ffffffffffffffffffffffffffffffffffffffff166327820851336040518263ffffffff1660e01b815260040161099d919061258c565b60006040518083038186803b1580156109b557600080fd5b505afa1580156109c9573d6000803e3d6000fd5b505050506040513d6000823e3d601f19601f820116820180604052508101906109f29190611f9b565b604051602001610a029190612575565b6040516020818303038152906040528051906020012014610a2257600080fd5b80604051602001610a339190612575565b60405160208183030381529060405280519060200120600160009054906101000a900473ffffffffffffffffffffffffffffffffffffffff1673ffffffffffffffffffffffffffffffffffffffff16634d6b5e00846040518263ffffffff1660e01b8152600401610aa4919061258c565b60006040518083038186803b158015610abc57600080fd5b505afa158015610ad0573d6000803e3d6000fd5b505050506040513d6000823e3d601f19601f82011682018060405250810190610af99190611f9b565b604051602001610b099190612575565b6040516020818303038152906040528051906020012014610b2957600080fd5b6000600160009054906101000a900473ffffffffffffffffffffffffffffffffffffffff1673ffffffffffffffffffffffffffffffffffffffff1663ed39343c8d8d8d8d8b8e8e8d6040518963ffffffff1660e01b8152600401610b949897969594939291906126bf565b602060405180830381600087803b158015610bae57600080fd5b505af1158015610bc2573d6000803e3d6000fd5b505050506040513d601f19601f82011682018060405250810190610be69190611f6e565b90508b73ffffffffffffffffffffffffffffffffffffffff163373ffffffffffffffffffffffffffffffffffffffff167f180cdb24bb44378642a35eab010c770c833cf19674dd4e0efafb99b5ea22ed6b60405160405180910390a380935050505098975050505050505050565b6000806000606080600160009054906101000a900473ffffffffffffffffffffffffffffffffffffffff1673ffffffffffffffffffffffffffffffffffffffff16637971ea42876040518263ffffffff1660e01b8152600401610cb7919061258c565b60006040518083038186803b158015610ccf57600080fd5b505afa158015610ce3573d6000803e3d6000fd5b505050506040513d6000823e3d601f19601f82011682018060405250810190610d0c919061242b565b809550819650829750839850849950505050505091939590929450565b60008060009054906101000a900473ffffffffffffffffffffffffffffffffffffffff1673ffffffffffffffffffffffffffffffffffffffff163373ffffffffffffffffffffffffffffffffffffffff1614610d8457600080fd5b6000600160009054906101000a900473ffffffffffffffffffffffffffffffffffffffff1673ffffffffffffffffffffffffffffffffffffffff1663d1269da888888888886040518663ffffffff1660e01b8152600401610de99594939291906127f0565b602060405180830381600087803b158015610e0357600080fd5b505af1158015610e17573d6000803e3d6000fd5b505050506040513d601f19601f82011682018060405250810190610e3b9190611bce565b90508073ffffffffffffffffffffffffffffffffffffffff163373ffffffffffffffffffffffffffffffffffffffff167f537f22db2b3b13a2af924ad1a2cfb5666cfa48ee6892c71849737fd108ce674a60405160405180910390a38091505095945050505050565b6000876040518060400160405280601081526020017f4f424a4543545f494e4a454354494f4e0000000000000000000000000000000081525080604051602001610eee9190612575565b60405160208183030381529060405280519060200120600160009054906101000a900473ffffffffffffffffffffffffffffffffffffffff1673ffffffffffffffffffffffffffffffffffffffff166327820851336040518263ffffffff1660e01b8152600401610f5f919061258c565b60006040518083038186803b158015610f7757600080fd5b505afa158015610f8b573d6000803e3d6000fd5b505050506040513d6000823e3d601f19601f82011682018060405250810190610fb49190611f9b565b604051602001610fc49190612575565b6040516020818303038152906040528051906020012014610fe457600080fd5b80604051602001610ff59190612575565b60405160208183030381529060405280519060200120600160009054906101000a900473ffffffffffffffffffffffffffffffffffffffff1673ffffffffffffffffffffffffffffffffffffffff16634d6b5e00846040518263ffffffff1660e01b8152600401611066919061258c565b60006040518083038186803b15801561107e57600080fd5b505afa158015611092573d6000803e3d6000fd5b505050506040513d6000823e3d601f19601f820116820180604052508101906110bb9190611f9b565b6040516020016110cb9190612575565b60405160208183030381529060405280519060200120146110eb57600080fd5b6000600160009054906101000a900473ffffffffffffffffffffffffffffffffffffffff1673ffffffffffffffffffffffffffffffffffffffff16634b60e56e8c8c8c8c8c8c8c6040518863ffffffff1660e01b81526004016111549796959493929190612642565b602060405180830381600087803b15801561116e57600080fd5b505af1158015611182573d6000803e3d6000fd5b505050506040513d601f19601f820116820180604052508101906111a69190611f6e565b90508a73ffffffffffffffffffffffffffffffffffffffff163373ffffffffffffffffffffffffffffffffffffffff167f99e8a31c7f3cd6afd636531c2a23b9fe61514da05f1307d746f9ffa62b03221760405160405180910390a3809350505050979650505050505050565b6000896040518060400160405280600b81526020017f4449535452494255544f520000000000000000000000000000000000000000008152508060405160200161125d9190612575565b60405160208183030381529060405280519060200120600160009054906101000a900473ffffffffffffffffffffffffffffffffffffffff1673ffffffffffffffffffffffffffffffffffffffff166327820851336040518263ffffffff1660e01b81526004016112ce919061258c565b60006040518083038186803b1580156112e657600080fd5b505afa1580156112fa573d6000803e3d6000fd5b505050506040513d6000823e3d601f19601f820116820180604052508101906113239190611f9b565b6040516020016113339190612575565b604051602081830303815290604052805190602001201461135357600080fd5b806040516020016113649190612575565b60405160208183030381529060405280519060200120600160009054906101000a900473ffffffffffffffffffffffffffffffffffffffff1673ffffffffffffffffffffffffffffffffffffffff16634d6b5e00846040518263ffffffff1660e01b81526004016113d5919061258c565b60006040518083038186803b1580156113ed57600080fd5b505afa158015611401573d6000803e3d6000fd5b505050506040513d6000823e3d601f19601f8201168201806040525081019061142a9190611f9b565b60405160200161143a9190612575565b604051602081830303815290604052805190602001201461145a57600080fd5b6000600160009054906101000a900473ffffffffffffffffffffffffffffffffffffffff1673ffffffffffffffffffffffffffffffffffffffff16633e9fbeaf8e8e8e8e8e8e8e8e8e6040518a63ffffffff1660e01b81526004016114c7999897969594939291906125a7565b602060405180830381600087803b1580156114e157600080fd5b505af11580156114f5573d6000803e3d6000fd5b505050506040513d601f19601f820116820180604052508101906115199190611f6e565b90508c73ffffffffffffffffffffffffffffffffffffffff163373ffffffffffffffffffffffffffffffffffffffff167febf746471ae1c228971b077b22e020787d4f8653a4a9a971c001830f7328ba2460405160405180910390a38093505050509998505050505050505050565b6000866040518060400160405280601381526020017f56414343494e4154494f4e5f53544154494f4e00000000000000000000000000815250806040516020016115d29190612575565b60405160208183030381529060405280519060200120600160009054906101000a900473ffffffffffffffffffffffffffffffffffffffff1673ffffffffffffffffffffffffffffffffffffffff166327820851336040518263ffffffff1660e01b8152600401611643919061258c565b60006040518083038186803b15801561165b57600080fd5b505afa15801561166f573d6000803e3d6000fd5b505050506040513d6000823e3d601f19601f820116820180604052508101906116989190611f9b565b6040516020016116a89190612575565b60405160208183030381529060405280519060200120146116c857600080fd5b806040516020016116d99190612575565b60405160208183030381529060405280519060200120600160009054906101000a900473ffffffffffffffffffffffffffffffffffffffff1673ffffffffffffffffffffffffffffffffffffffff16634d6b5e00846040518263ffffffff1660e01b815260040161174a919061258c565b60006040518083038186803b15801561176257600080fd5b505afa158015611776573d6000803e3d6000fd5b505050506040513d6000823e3d601f19601f8201168201806040525081019061179f9190611f9b565b6040516020016117af9190612575565b60405160208183030381529060405280519060200120146117cf57600080fd5b6000600160009054906101000a900473ffffffffffffffffffffffffffffffffffffffff1673ffffffffffffffffffffffffffffffffffffffff1663465aa7038b8b8b8b8b8b6040518763ffffffff1660e01b815260040161183696959493929190612744565b602060405180830381600087803b15801561185057600080fd5b505af1158015611864573d6000803e3d6000fd5b505050506040513d601f19601f820116820180604052508101906118889190611f6e565b90508973ffffffffffffffffffffffffffffffffffffffff163373ffffffffffffffffffffffffffffffffffffffff167f5f6b507fa5444f53ba18e6da7561c594402b8ca43dfe8dab3fab501dae30f15760405160405180910390a38093505050509695505050505050565b60008054906101000a900473ffffffffffffffffffffffffffffffffffffffff1673ffffffffffffffffffffffffffffffffffffffff163373ffffffffffffffffffffffffffffffffffffffff161461194c57600080fd5b600073ffffffffffffffffffffffffffffffffffffffff168173ffffffffffffffffffffffffffffffffffffffff16141561198657600080fd5b8073ffffffffffffffffffffffffffffffffffffffff1660008054906101000a900473ffffffffffffffffffffffffffffffffffffffff1673ffffffffffffffffffffffffffffffffffffffff167f8be0079c531659141344cd1fd0a4f28419497f9722a3daafe3b4186f6b6457e060405160405180910390a3806000806101000a81548173ffffffffffffffffffffffffffffffffffffffff021916908373ffffffffffffffffffffffffffffffffffffffff16021790555050565b6000611a56611a5184612a71565b612a4c565b905082815260208101848484011115611a7257611a71612bb8565b5b611a7d848285612b11565b509392505050565b6000611a98611a9384612a71565b612a4c565b905082815260208101848484011115611ab457611ab3612bb8565b5b611abf848285612b20565b509392505050565b600081359050611ad681612bd8565b92915050565b600081519050611aeb81612bd8565b92915050565b600081359050611b0081612bef565b92915050565b600081519050611b1581612bef565b92915050565b600082601f830112611b3057611b2f612bb3565b5b8135611b40848260208601611a43565b91505092915050565b600082601f830112611b5e57611b5d612bb3565b5b8151611b6e848260208601611a85565b91505092915050565b600081359050611b8681612c06565b92915050565b600081519050611b9b81612c06565b92915050565b600060208284031215611bb757611bb6612bc2565b5b6000611bc584828501611ac7565b91505092915050565b600060208284031215611be457611be3612bc2565b5b6000611bf284828501611adc565b91505092915050565b60008060008060008060008060006101208a8c031215611c1e57611c1d612bc2565b5b6000611c2c8c828d01611ac7565b99505060208a013567ffffffffffffffff811115611c4d57611c4c612bbd565b5b611c598c828d01611b1b565b98505060408a013567ffffffffffffffff811115611c7a57611c79612bbd565b5b611c868c828d01611b1b565b9750506060611c978c828d01611b77565b9650506080611ca88c828d01611b77565b95505060a0611cb98c828d01611b77565b94505060c0611cca8c828d01611b77565b93505060e0611cdb8c828d01611b77565b925050610100611ced8c828d01611b77565b9150509295985092959850929598565b600080600080600080600060e0888a031215611d1c57611d1b612bc2565b5b6000611d2a8a828b01611ac7565b975050602088013567ffffffffffffffff811115611d4b57611d4a612bbd565b5b611d578a828b01611b1b565b9650506040611d688a828b01611b77565b9550506060611d798a828b01611b77565b9450506080611d8a8a828b01611b77565b93505060a0611d9b8a828b01611b77565b92505060c088013567ffffffffffffffff811115611dbc57611dbb612bbd565b5b611dc88a828b01611b1b565b91505092959891949750929550565b600080600080600080600080610100898b031215611df857611df7612bc2565b5b6000611e068b828c01611ac7565b985050602089013567ffffffffffffffff811115611e2757611e26612bbd565b5b611e338b828c01611b1b565b9750506040611e448b828c01611b77565b9650506060611e558b828c01611b77565b9550506080611e668b828c01611b77565b94505060a0611e778b828c01611b77565b93505060c0611e888b828c01611b77565b92505060e0611e998b828c01611af1565b9150509295985092959890939650565b60008060008060008060c08789031215611ec657611ec5612bc2565b5b6000611ed489828a01611ac7565b9650506020611ee589828a01611b77565b9550506040611ef689828a01611b77565b9450506060611f0789828a01611b77565b935050608087013567ffffffffffffffff811115611f2857611f27612bbd565b5b611f3489828a01611b1b565b92505060a087013567ffffffffffffffff811115611f5557611f54612bbd565b5b611f6189828a01611b1b565b9150509295509295509295565b600060208284031215611f8457611f83612bc2565b5b6000611f9284828501611b06565b91505092915050565b600060208284031215611fb157611fb0612bc2565b5b600082015167ffffffffffffffff811115611fcf57611fce612bbd565b5b611fdb84828501611b49565b91505092915050565b600080600080600060a0868803121561200057611fff612bc2565b5b600086013567ffffffffffffffff81111561201e5761201d612bbd565b5b61202a88828901611b1b565b955050602086013567ffffffffffffffff81111561204b5761204a612bbd565b5b61205788828901611b1b565b945050604086013567ffffffffffffffff81111561207857612077612bbd565b5b61208488828901611b1b565b935050606086013567ffffffffffffffff8111156120a5576120a4612bbd565b5b6120b188828901611b1b565b92505060806120c288828901611b77565b9150509295509295909350565b600080600080600060a086880312156120eb576120ea612bc2565b5b600086015167ffffffffffffffff81111561210957612108612bbd565b5b61211588828901611b49565b955050602086015167ffffffffffffffff81111561213657612135612bbd565b5b61214288828901611b49565b945050604086015167ffffffffffffffff81111561216357612162612bbd565b5b61216f88828901611b49565b935050606086015167ffffffffffffffff8111156121905761218f612bbd565b5b61219c88828901611b49565b92505060806121ad88828901611b8c565b9150509295509295909350565b600080600080600080600080610100898b0312156121db576121da612bc2565b5b600089015167ffffffffffffffff8111156121f9576121f8612bbd565b5b6122058b828c01611b49565b985050602089015167ffffffffffffffff81111561222657612225612bbd565b5b6122328b828c01611b49565b97505060406122438b828c01611b8c565b96505060606122548b828c01611b8c565b95505060806122658b828c01611b8c565b94505060a06122768b828c01611b8c565b93505060c06122878b828c01611b8c565b92505060e06122988b828c01611b8c565b9150509295985092959890939650565b60008060008060008060c087890312156122c5576122c4612bc2565b5b600087015167ffffffffffffffff8111156122e3576122e2612bbd565b5b6122ef89828a01611b49565b965050602061230089828a01611b8c565b955050604061231189828a01611b8c565b945050606061232289828a01611b8c565b935050608061233389828a01611b8c565b92505060a087015167ffffffffffffffff81111561235457612353612bbd565b5b61236089828a01611b49565b9150509295509295509295565b600080600080600080600060e0888a03121561238c5761238b612bc2565b5b600088015167ffffffffffffffff8111156123aa576123a9612bbd565b5b6123b68a828b01611b49565b97505060206123c78a828b01611b8c565b96505060406123d88a828b01611b8c565b95505060606123e98a828b01611b8c565b94505060806123fa8a828b01611b8c565b93505060a061240b8a828b01611b8c565b92505060c061241c8a828b01611b06565b91505092959891949750929550565b600080600080600060a0868803121561244757612446612bc2565b5b600061245588828901611b8c565b955050602061246688828901611b8c565b945050604061247788828901611b8c565b935050606086015167ffffffffffffffff81111561249857612497612bbd565b5b6124a488828901611b49565b925050608086015167ffffffffffffffff8111156124c5576124c4612bbd565b5b6124d188828901611b49565b9150509295509295909350565b6124e781612ac9565b82525050565b6124f681612adb565b82525050565b600061250782612aa2565b6125118185612aad565b9350612521818560208601612b20565b61252a81612bc7565b840191505092915050565b600061254082612aa2565b61254a8185612abe565b935061255a818560208601612b20565b80840191505092915050565b61256f81612b07565b82525050565b60006125818284612535565b915081905092915050565b60006020820190506125a160008301846124de565b92915050565b6000610120820190506125bd600083018c6124de565b81810360208301526125cf818b6124fc565b905081810360408301526125e3818a6124fc565b90506125f26060830189612566565b6125ff6080830188612566565b61260c60a0830187612566565b61261960c0830186612566565b61262660e0830185612566565b612634610100830184612566565b9a9950505050505050505050565b600060e082019050612657600083018a6124de565b818103602083015261266981896124fc565b90506126786040830188612566565b6126856060830187612566565b6126926080830186612566565b61269f60a0830185612566565b81810360c08301526126b181846124fc565b905098975050505050505050565b6000610100820190506126d5600083018b6124de565b81810360208301526126e7818a6124fc565b90506126f66040830189612566565b6127036060830188612566565b6127106080830187612566565b61271d60a0830186612566565b61272a60c0830185612566565b61273760e08301846124ed565b9998505050505050505050565b600060c08201905061275960008301896124de565b6127666020830188612566565b6127736040830187612566565b6127806060830186612566565b818103608083015261279281856124fc565b905081810360a08301526127a681846124fc565b9050979650505050505050565b60006020820190506127c860008301846124ed565b92915050565b600060208201905081810360008301526127e881846124fc565b905092915050565b600060a082019050818103600083015261280a81886124fc565b9050818103602083015261281e81876124fc565b9050818103604083015261283281866124fc565b9050818103606083015261284681856124fc565b90506128556080830184612566565b9695505050505050565b600061010082019050818103600083015261287a818b6124fc565b9050818103602083015261288e818a6124fc565b905061289d6040830189612566565b6128aa6060830188612566565b6128b76080830187612566565b6128c460a0830186612566565b6128d160c0830185612566565b6128de60e0830184612566565b9998505050505050505050565b600060c082019050818103600083015261290581896124fc565b90506129146020830188612566565b6129216040830187612566565b61292e6060830186612566565b61293b6080830185612566565b81810360a083015261294d81846124fc565b9050979650505050505050565b600060e0820190508181036000830152612974818a6124fc565b90506129836020830189612566565b6129906040830188612566565b61299d6060830187612566565b6129aa6080830186612566565b6129b760a0830185612566565b6129c460c08301846124ed565b98975050505050505050565b60006020820190506129e56000830184612566565b92915050565b600060a082019050612a006000830188612566565b612a0d6020830187612566565b612a1a6040830186612566565b8181036060830152612a2c81856124fc565b90508181036080830152612a4081846124fc565b90509695505050505050565b6000612a56612a67565b9050612a628282612b53565b919050565b6000604051905090565b600067ffffffffffffffff821115612a8c57612a8b612b84565b5b612a9582612bc7565b9050602081019050919050565b600081519050919050565b600082825260208201905092915050565b600081905092915050565b6000612ad482612ae7565b9050919050565b60008115159050919050565b600073ffffffffffffffffffffffffffffffffffffffff82169050919050565b6000819050919050565b82818337600083830152505050565b60005b83811015612b3e578082015181840152602081019050612b23565b83811115612b4d576000848401525b50505050565b612b5c82612bc7565b810181811067ffffffffffffffff82111715612b7b57612b7a612b84565b5b80604052505050565b7f4e487b7100000000000000000000000000000000000000000000000000000000600052604160045260246000fd5b600080fd5b600080fd5b600080fd5b600080fd5b6000601f19601f8301169050919050565b612be181612ac9565b8114612bec57600080fd5b50565b612bf881612adb565b8114612c0357600080fd5b50565b612c0f81612b07565b8114612c1a57600080fd5b5056fea264697066735822122002dccc7dea9e2f066a9e53dd8a31ca0afece2961fa8fcc4d3dd9ed7a60c4f6a964736f6c63430008070033",
  "immutableReferences": {},
  "source": "pragma solidity ^0.8.7;\r\nimport \"./VaccineSystemStorage.sol\";\r\nimport \"./Ownable.sol\";\r\n\r\ncontract VaccineSupplyChain is Ownable {\r\n    event CompleteBasicDetail(address indexed user, address indexed batchNo);\r\n    event CompleteWarehouser(address indexed user, address indexed batchNo);\r\n    event CompleteDistributor(address indexed user, address indexed batchNo);\r\n    event CompleteVaccinationStation(\r\n        address indexed user,\r\n        address indexed batchNo\r\n    );\r\n    event CompleteVaccinatePerson(\r\n        address indexed user,\r\n        address indexed batchNo\r\n    );\r\n\r\n    /* Declare Modifier */\r\n    modifier isValidPerformer(address batchNo, string memory role) {\r\n        require(\r\n            keccak256(\r\n                abi.encodePacked(vaccineSystemStorage.getUserRole(msg.sender))\r\n            ) == keccak256(abi.encodePacked(role))\r\n        );\r\n        require(\r\n            keccak256(\r\n                abi.encodePacked(vaccineSystemStorage.getNextAction(batchNo))\r\n            ) == keccak256(abi.encodePacked(role))\r\n        );\r\n        _;\r\n    }\r\n\r\n    /* Storage Variables */\r\n    VaccineSystemStorage vaccineSystemStorage;\r\n\r\n    constructor(address _vaccineSystemAddress) public {\r\n        vaccineSystemStorage = VaccineSystemStorage(_vaccineSystemAddress);\r\n    }\r\n\r\n    function getBalance() public returns (uint256) {\r\n        return (address(this).balance);\r\n    }\r\n\r\n    /* Get Next Action */\r\n\r\n    function getNextAction(address _batchNo)\r\n        public\r\n        view\r\n        returns (string memory action)\r\n    {\r\n        (action) = vaccineSystemStorage.getNextAction(_batchNo);\r\n        return (action);\r\n    }\r\n\r\n    /* Get Basic Details */\r\n    function getBasicDetailsData(address _batchNo)\r\n        public\r\n        view\r\n        returns (\r\n            string memory producerName,\r\n            string memory storageName,\r\n            string memory distributorName,\r\n            string memory vaccinationStationName,\r\n            uint256 totalWeight\r\n        )\r\n    {\r\n        /* Call Storage Contract */\r\n        (\r\n            producerName,\r\n            storageName,\r\n            distributorName,\r\n            vaccinationStationName,\r\n            totalWeight\r\n        ) = vaccineSystemStorage.getBasicDetails(_batchNo);\r\n        return (\r\n            producerName,\r\n            storageName,\r\n            distributorName,\r\n            vaccinationStationName,\r\n            totalWeight\r\n        );\r\n    }\r\n\r\n    /* Add Basic Details */\r\n    function addBasicDetails(\r\n        string memory _producerName,\r\n        string memory _storageName,\r\n        string memory _distributorName,\r\n        string memory _vaccinationStationName,\r\n        uint256 _totalWeight\r\n    ) public onlyOwner returns (address) {\r\n        address batchNo = vaccineSystemStorage.setBasicDetails(\r\n            _producerName,\r\n            _storageName,\r\n            _distributorName,\r\n            _vaccinationStationName,\r\n            _totalWeight\r\n        );\r\n\r\n        /* Call Emit Event */\r\n        emit CompleteBasicDetail(msg.sender, batchNo);\r\n\r\n        return batchNo;\r\n    }\r\n\r\n    /* Get Warehouser */\r\n    function getWarehouserData(address _batchNo)\r\n        public\r\n        view\r\n        returns (\r\n            string memory vaccineName,\r\n            uint256 quantity,\r\n            uint256 price,\r\n            uint256 optimumTemp,\r\n            uint256 optimumHum,\r\n            uint256 storageDate,\r\n            bool isViolation\r\n        )\r\n    {\r\n        /* Call Storage Contract */\r\n        (\r\n            vaccineName,\r\n            quantity,\r\n            price,\r\n            optimumTemp,\r\n            optimumHum,\r\n            storageDate,\r\n            isViolation\r\n        ) = vaccineSystemStorage.getWarehouserData(_batchNo);\r\n        return (\r\n            vaccineName,\r\n            quantity,\r\n            price,\r\n            optimumTemp,\r\n            optimumHum,\r\n            storageDate,\r\n            isViolation\r\n        );\r\n    }\r\n\r\n    /* Update Warehouser */\r\n    function updateWarehouser(\r\n        address _batchNo,\r\n        string memory _vaccineName,\r\n        uint256 _quantity,\r\n        uint256 _price,\r\n        uint256 _optimumTemp,\r\n        uint256 _optimumHum,\r\n        uint256 _storageDate,\r\n        bool _isViolation\r\n    ) public isValidPerformer(_batchNo, \"WAREHOUSER\") returns (bool) {\r\n        bool status = vaccineSystemStorage.setWarehouser(\r\n            _batchNo,\r\n            _vaccineName,\r\n            _quantity,\r\n            _price,\r\n            _storageDate,\r\n            _optimumTemp,\r\n            _optimumHum,\r\n            _isViolation\r\n        );\r\n\r\n        emit CompleteWarehouser(msg.sender, _batchNo);\r\n        return (status);\r\n    }\r\n\r\n    /* Get Distributor */\r\n    function getDistributorData(address _batchNo)\r\n        public\r\n        view\r\n        returns (\r\n            string memory shippingName,\r\n            string memory shippingNo,\r\n            uint256 quantity,\r\n            uint256 departureDateTime,\r\n            uint256 estimateDateTime,\r\n            uint256 distributorId,\r\n            uint256 optimumTemp,\r\n            uint256 optimumHum\r\n        )\r\n    {\r\n        /* Call Storage Contract */\r\n        (\r\n            shippingName,\r\n            shippingNo,\r\n            quantity,\r\n            departureDateTime,\r\n            estimateDateTime,\r\n            distributorId,\r\n            optimumTemp,\r\n            optimumHum\r\n        ) = vaccineSystemStorage.getDistributorData(_batchNo);\r\n        return (\r\n            shippingName,\r\n            shippingNo,\r\n            quantity,\r\n            departureDateTime,\r\n            estimateDateTime,\r\n            distributorId,\r\n            optimumTemp,\r\n            optimumHum\r\n        );\r\n    }\r\n\r\n    /* Update Distributor */\r\n    function updateDistributorData(\r\n        address _batchNo,\r\n        string memory _shippingName,\r\n        string memory _shippingNo,\r\n        uint256 _quantity,\r\n        uint256 _departureDateTime,\r\n        uint256 _estimateDateTime,\r\n        uint256 _distributorId,\r\n        uint256 _optimumTemp,\r\n        uint256 _optimumHum\r\n    ) public isValidPerformer(_batchNo, \"DISTRIBUTOR\") returns (bool) {\r\n        bool status = vaccineSystemStorage.setDistributor(\r\n            _batchNo,\r\n            _shippingName,\r\n            _shippingNo,\r\n            _quantity,\r\n            _departureDateTime,\r\n            _estimateDateTime,\r\n            _distributorId,\r\n            _optimumTemp,\r\n            _optimumHum\r\n        );\r\n        emit CompleteDistributor(msg.sender, _batchNo);\r\n\r\n        return (status);\r\n    }\r\n\r\n    /* Get Vaccination Station */\r\n    function getVaccinationStation(address _batchNo)\r\n        public\r\n        view\r\n        returns (\r\n            uint256 quantity,\r\n            uint256 arrivalDateTime,\r\n            uint256 vaccinationStationId,\r\n            string memory shippingName,\r\n            string memory shippingNo\r\n        )\r\n    {\r\n        /* Call Storage Contract */\r\n        (\r\n            quantity,\r\n            arrivalDateTime,\r\n            vaccinationStationId,\r\n            shippingName,\r\n            shippingNo\r\n        ) = vaccineSystemStorage.getVaccinationStationData(_batchNo);\r\n\r\n        return (\r\n            quantity,\r\n            arrivalDateTime,\r\n            vaccinationStationId,\r\n            shippingName,\r\n            shippingNo\r\n        );\r\n    }\r\n\r\n    /* Update Vaccination Station */\r\n    function updateVaccinationStation(\r\n        address _batchNo,\r\n        uint256 _quantity,\r\n        uint256 _arrivalDateTime,\r\n        uint256 _vaccinationStationId,\r\n        string memory _shippingName,\r\n        string memory _shippingNo\r\n    ) public isValidPerformer(_batchNo, \"VACCINATION_STATION\") returns (bool) {\r\n        bool status = vaccineSystemStorage.setVaccinationStation(\r\n            _batchNo,\r\n            _quantity,\r\n            _arrivalDateTime,\r\n            _vaccinationStationId,\r\n            _shippingName,\r\n            _shippingNo\r\n        );\r\n\r\n        /* Emit Event */\r\n        emit CompleteVaccinationStation(msg.sender, _batchNo);\r\n        return (status);\r\n    }\r\n\r\n    /* Get Vaccinate Person Data */\r\n    function getVaccinateData(address _batchNo)\r\n        public\r\n        view\r\n        returns (\r\n            string memory personName,\r\n            uint256 age,\r\n            uint256 identityCard,\r\n            uint256 numberOfVaccinations,\r\n            uint256 vaccinationDate,\r\n            string memory typeOfVaccine\r\n        )\r\n    {\r\n        /* Call Storage Contract */\r\n        (\r\n            personName,\r\n            age,\r\n            identityCard,\r\n            numberOfVaccinations,\r\n            vaccinationDate,\r\n            typeOfVaccine\r\n        ) = vaccineSystemStorage.getVaccinationPersonData(_batchNo);\r\n\r\n        return (\r\n            personName,\r\n            age,\r\n            identityCard,\r\n            numberOfVaccinations,\r\n            vaccinationDate,\r\n            typeOfVaccine\r\n        );\r\n    }\r\n\r\n    /* Update Vaccinate Person */\r\n    function updateVaccinatePerson(\r\n        address _batchNo,\r\n        string memory _personName,\r\n        uint256 _age,\r\n        uint256 _identityCard,\r\n        uint256 _numberOfVaccinations,\r\n        uint256 _vaccinationDate,\r\n        string memory _typeOfVaccine\r\n    ) public isValidPerformer(_batchNo, \"OBJECT_INJECTION\") returns (bool) {\r\n        bool status = vaccineSystemStorage.setObjectInjection(\r\n            _batchNo,\r\n            _personName,\r\n            _age,\r\n            _identityCard,\r\n            _numberOfVaccinations,\r\n            _vaccinationDate,\r\n            _typeOfVaccine\r\n        );\r\n\r\n        /* Emit Event */\r\n        emit CompleteVaccinatePerson(msg.sender, _batchNo);\r\n        return (status);\r\n    }\r\n}\r\n",
  "sourcePath": "D:\\Learn , Research, Explore\\UIT\\Dissertation\\Source\\packages\\dissertation_smartcontract\\contracts\\VaccineSupplyChain.sol",
  "compiler": {
    "name": "solc",
    "version": "0.8.7+commit.e28d00a7.Emscripten.clang"
  },
  "schemaVersion": "3.4.3",
  "updatedAt": "2021-10-24T19:44:40.769Z",
  "networkType": "ethereum",
  "devdoc": {
    "kind": "dev",
    "methods": {
      "renounceOwnership()": {
        "details": "Allows the current owner to relinquish control of the contract."
      },
      "transferOwnership(address)": {
        "details": "Allows the current owner to transfer control of the contract to a newOwner.",
        "params": {
          "newOwner": "The address to transfer ownership to."
        }
      }
    },
    "version": 1
  },
  "userdoc": {
    "kind": "user",
    "methods": {},
    "version": 1
  }
}